:020000040800F2
:10000000C05C002055020008A94600089938000885
:10001000A54600084D050008954F000800000000A7
:100020000000000000000000000000002147000860
:100030007505000800000000B146000845470008AB
:100040006F0200086F0200086F0200086F020008CC
:100050006F0200086F0200086F0200086F020008BC
:100060006F0200086F0200086F0200086F020008AC
:10007000510500086F0200085D0500086F020008C6
:10008000690500086F0200086F0200086F0200088F
:100090006F0200086F0200086F0200086F0200087C
:1000A0006F0200086F0200086F0200086F0200086C
:1000B000214800082D480008394800086F02000850
:1000C0006F020008A93800089D3800086F02000878
:1000D0006F0200086F0200084D4F0008714F0008C2
:1000E0006F0200086F0200086F0200086F0200082C
:1000F0006F0200086F0200086F0200086F0200081C
:100100006F0200086F020008454800086F020008EF
:100110006F0200086F020008514800085D4800089F
:100120006F0200086F0200086F0200086F020008EB
:100130006F0200086F0200086F0200086F020008DB
:100140006F0200086F0200086F0200086F020008CB
:100150006F0200086F0200086F0200086F020008BB
:100160006F0200086F0200086F0200086F020008AB
:100170006F0200086F0200086F0200080000000014
:100180006F0200086F02000800F002F800F052F859
:1001900014A696E8000CB244B344DA4501D100F04D
:1001A00049F8BAE80F000FA696E83000A5EB040561
:1001B00004EB0607AAEB0704A7F101074FEA1515A0
:1001C0004FEA3414A4F10104AC4201D300F032F838
:1001D00013F0010F18BFFB1A43F0010300F001F800
:1001E000DBE71847A8A60000C8A60000103A24BF05
:1001F00078C878C1FAD8520724BF30C830C144BF8C
:1002000004680C6070470000704700000023002461
:1002100000250026103A28BF78C1FBD8520728BF16
:1002200030C148BF0B6070471FB509F0AEFE1FBD5F
:1002300010B510BD00F054F91146FFF7F5FF06F0B8
:100240005FFD00F072F903B4FFF7F2FF03BC00F0AA
:1002500075F900000948804709480047FEE7FEE7B6
:10026000FEE7FEE7FEE7FEE7FEE7FEE7FEE7FEE766
:1002700004480549054A064B704700000D48000830
:1002800089010008C0560020C05C0020C058002032
:10029000C058002053EA020C00F069802DE9F04BB1
:1002A0004FF00006002B1FBFB3FA83F503FA05F4E5
:1002B00024FA05F65E4012BF1643B2FA82F502FA3E
:1002C00005F4C5F120051EBF22FA05FC44EA0C0422
:1002D000203556EA044C4FEA144418BF641C4FF012
:1002E00000084FF00009904271EB030C39D300294C
:1002F00019BFB1FA81F701FA07F6B0FA80F700FAF0
:1003000007F6C7F120071EBF20FA07FC46EA0C06D5
:100310002037B6FBF4FCA7EB0507103F07F01F0BD7
:10032000CBF120062CFA06F60CFA0BFB44BFB346C1
:100330000026202FA4BF5E464FF0000B5BEA060CA0
:1003400008BF4FF0010B19EB0B0948EB0608ABFB9C
:10035000027C06FB02CC0BFB03CCC01B71EB0C0137
:10036000C1E70B46024641464846BDE8F08B13B54F
:10037000084318BF4FF0FF300146AFF30080BDE8DF
:100380001C407047032A40F2308010F0030C00F04C
:10039000158011F8013BBCF1020F624498BF11F8BF
:1003A00001CB00F8013B38BF11F8013BA2F1040278
:1003B00098BF00F801CB38BF00F8013B11F00303F0
:1003C00000F05780083AC0F0088051F8043B083A22
:1003D00051F804CBA0E80810F5E7121D5CBF51F8F6
:1003E000043B40F8043BAFF30080D20724BF11F870
:1003F000013B11F801CB48BF11F8012B24BF00F8D5
:10040000013B00F801CB48BF00F8012B704702F018
:10041000FF0343EA032242EA024200F002B84FF02F
:10042000000200B5134694469646203922BFA0E844
:100430000C50A0E80C50B1F12001BFF4F7AF090750
:1004400028BFA0E80C5048BF0CC05DF804EB890041
:1004500028BF40F8042B08BF704748BF20F8022B84
:1004600011F0804F18BF00F8012B7047704770479C
:10047000704710B5203AC0F00B80B1E81850A0E8E2
:100480001850B1E81850A0E81850203ABFF4F5AF62
:100490005FEA027C24BFB1E81850A0E8185044BFBE
:1004A00018C918C0BDE810405FEA827C24BF51F82B
:1004B000043B40F8043B08BF7047D20728BF31F81F
:1004C000023B48BF11F8012B28BF20F8023B48BF70
:1004D00000F8012B704700000048704758000020CA
:1004E0007546FFF7F9FFAE4605006946534620F012
:1004F0000700854618B020B5FFF7BAFEBDE82040DA
:100500004FF000064FF000074FF000084FF0000BCF
:10051000AC46ACE8C009ACE8C009ACE8C009ACE83E
:10052000C00921F007018D46704710B50446AFF3AE
:1005300000802046BDE81040FFF785BE0149182025
:10054000ABBEFEE72600020070470000FEE7000099
:1005500040F2A020C2F2000000F070B840F200307B
:10056000C2F2000000F06AB840F24020C2F200007F
:1005700000F064B87047000072B600BFFEE70000EC
:1005800070B5866D044600F00FFB94F83510022913
:1005900028D105462068216C026822F0160202600C
:1005A000426922F08002426109B9A16C19B1016867
:1005B00021F008010160016821F00101016000BF24
:1005C00020680068C00715D000F0EEFA401B06282E
:1005D000F6D320206065032084F83500002184F8DC
:1005E000341070BD802060650120002184F8341033
:1005F00070BD00BFE06D3F2101FA00F0B060012046
:1006000084F835000020002184F8341070BD00000B
:1006100090F83510022909D1052180F835100068BD
:10062000016821F0010101600020704780214165CF
:100630000120704790F8350070470000F0B581B098
:100640000021009140F25001C2F200010B68D0E994
:10065000166148F2B51537680822C1F64E358A4052
:100660003A42A3FB05350CD003681C68640708D523
:100670001C6824F004041C60B260426D42F0010268
:10068000426501228A403A4208D003685B691B0632
:1006900004D5B260426D42F00202426504228A40F3
:1006A0003A4208D003681B689B0704D5B260426DCC
:1006B00042F00402426510228A403A4219D0016891
:1006C0000B681B0715D5B2600B680A685B0309D479
:1006D000D20509D40A6822F008020A60016C29B91F
:1006E00007E000BF110341D4016C11B104468847F3
:1006F0002046C26D202101FA02F33B4243D001683B
:100700000F68FF063FD5B36090F835700B68052F72
:100710001CD123F016030B604B6923F080034B615F
:10072000036C0BB9836C1BB10B6823F008030B60DF
:100730003F219140B160012180F83510016D002208
:10074000002980F8342054D158E000BF0A685B03C8
:1007500010D4D20512D40A6822F010020A600121D6
:1007600080F83510002180F8341007E0816C0029F2
:10077000BCD1BEE7110301D4416C00E0C16B11B1E3
:10078000044688472046416DC1B3416DC9072ED04C
:10079000052180F835100168AA0A0B6823F00103CF
:1007A0000B60009B0133934200931AD80B68DB0760
:1007B00017D0009B01339342009312D80B68DB07DC
:1007C0000FD0009B0133934200930AD80B68DB07DC
:1007D00007D0009B01339342009302D80B68DB07DC
:1007E000DFD1012180F83510002180F83410C16C70
:1007F00021B101B0BDE8F040084700BF01B0F0BD35
:100800002DE9F041044600F0CFF9ECB10546022095
:1008100084F835000020216884F83400086820F04E
:100820000100086021680868C00711D000F0BCF919
:10083000401B0528F6D9032520230320636584F88F
:100840003550BDE8F08100BF0120BDE8F08100BF58
:10085000086848F23F02CFF21002D4E9013500EAFD
:10086000020C04F10C0898E8C10143EA0C032B4385
:100870001843D4E9072E304338431043626A40EAF4
:100880000E00042A40EA08031CD1206BD4E90A2E8A
:1008900040EA0E00184308604869BEF1000F20F0DE
:1008A000030040EA020040F0040C11D0B8F5005FEC
:1008B00036D0B8F1000F45D1022A46D0012A3BD0EC
:1008C00032B942E00B60486920F0070040EA020CB0
:1008D00001F0F8004AF6AB221038CAF6AA22A0FBB3
:1008E00002231A094AF24403C1F814C0C0F60003F7
:1008F0009A5C40F2FF335F284FF03F0021EA03018A
:1009000000FA02F088BF0431C4E91612886000239F
:1009100001250020636584F83550BDE8F08100BFF3
:10092000032AD5D8012540230120DFE802F0030E79
:10093000030500BF82E700BFAEF1C070B0FA80F0DF
:10094000400904E0032A04D3C2D1CEF3006000289A
:10095000BED0012540230120636584F83550BDE8F1
:10096000F081000090F834C0BCF1010F04BF0220F8
:10097000704770B54FF0010C80F834C0D0F858E0E3
:1009800090F835C0BCF1010F38D14FF0020C80F85F
:1009900035C04FF0000CC0F854C0D0F800C08468D7
:1009A000056CC06DDCF80060402C26F48026CCF885
:1009B0000060CCF804300B4604BF13460A463F21C2
:1009C00001FA00F0CCF80830CCF80C20CEF8080082
:1009D000DCF8000040F01600CCF800002DB1DCF887
:1009E000000040F00800CCF80000DCF8000040F007
:1009F0000100CCF80000002070BD00BF002180F88D
:100A00003410022070BD00002DE9F04F83B000F1DA
:100A1000200200F13E4741F60045009207F1FF77C2
:100A2000C4F2020508224FEAB726A84208BF0722EF
:100A300000254FF000084FF00009072E38BF4FEA9D
:100A4000B72201920AE000BF09F1010908F102088A
:100A5000B9F1100F05F1040500F0A2800F68012222
:100A600002FA09FE17EA0E0AEED0D1F804C00322FA
:100A70000CF003077E1E02FA08F4012E6FEA040B45
:100A800012D88468CE6804EA0B0406FA08F63443E8
:100A90008460446824EA0E06CCF3001404FA09F4D6
:100AA0002643466004E000BF032F01D103271EE068
:100AB000C6688C6806EA0B0604FA08F42643022F7F
:100AC000C66014D16FF00302009E02EA590756F87F
:100AD00007C005F01C040F220B69A2402CEA020299
:100AE000A3401A43F251D1F804C00CF00307026886
:100AF00007FA08F302EA0B021A431CF4403F0260B3
:100B0000A2D0002243F644030292C4F202031A6800
:100B100043F6004442F480421A601A68C4F20104A9
:100B200002F480420292029A29F003024FF6084C26
:100B30002244CFF6FF7C52F80C3005F00C070F264C
:100B4000BE40B343019E06FA07F73B4342F80C3020
:100B5000A2684B6842EA0A0743F60C4CDE0258BF13
:100B600022EA0A07A760C4F2010CDCF800209E020A
:100B700042EA0A0758BF22EA0A07CCF80070626806
:100B80009E0342EA0A0758BF22EA0A076760226802
:100B9000DB0342EA0A0758BF22EA0A07276053E745
:100BA00003B0BDE8F08F000044F6C470C2F200004C
:100BB000006870477047000070470000F0B581B0D2
:100BC0000446006800254769426894F83E1002F424
:100BD0008076FA0505D5002E1EBF6FF48072426143
:100BE0000125BA0505D5002E1EBF02356FF400722F
:100BF00042617A0516D5AEB1628D94F83D30D4F8D5
:100C000030C0202908BF002A24D06FF48062402918
:100C100005F10405426101D0102903D1016841F4B6
:100C200000710160380507D536B1206808356FF4CA
:100C30000061416101E000BF55B1206C40EA05014F
:100C40002046216401B0BDE8F04002F0C5BE00BFFF
:100C500001B0F0BD03F0F701212909D0282B08BF0E
:100C6000BCF1210F04D06FF4806141610435D9E7F4
:100C700094F83D10E26AB2F1080318BF0123203A4C
:100C800018BF0122134208BF282921D0212939D1B8
:100C90000021CFF6FF71E16221212163202184F838
:100CA0003D10002184F83E10426822F4E062426068
:100CB0006FF480624261026822F4806202604269DD
:100CC000120648BF0161204600F02AFCAAE700BFD7
:100CD0000021CFF6FF71E162416821F4E0614160DB
:100CE0006FF480614161016821F48061016000203E
:100CF0002021206384F83D1084F83E00204600F057
:100D0000B7FB8FE76FF4806141618BE7F0B581B08D
:100D100007687968C26A90F83E5090F83DE0402D2F
:100D200001D0102D34D1BB697C69E60718D1B2F12E
:100D30002A4F00F06782B2F52A0F00F06382220783
:100D400001F4007240F10681002A00F00381416B3A
:100D5000426C0029D2B23A6140F0B080B0E000BFEE
:100D60008A0543D44FF0010C7A685B076ED41205F4
:100D700000F1488204F04402402A40F0598111F405
:100D8000806100F0558101B0BDE8F04002F066BF1F
:100D9000026C01F40073002A0CBFBC6900247D6959
:100DA000AA0729D543B3016C002918BFBC6990F884
:100DB0003D1001F02801282940F0C0807968012207
:100DC00021F48061796004F0040182EA9101220635
:100DD0004FF0180258BF0C22825A002380F83C3092
:100DE00001B0BDE8F040FFF7E7BE00BFC16AB1F552
:100DF0002A0F3DD1012140E0EA066FD5002B6DD0CE
:100E000090F83D50796821F4E0617960002100910B
:100E100079690091396841F00101396000993968B8
:100E200021F4806139607968090540F1798105F024
:100E3000F7010446222940F0498154F8381F0A6816
:100E4000526824F80E2C34F80E2C47E1120500F1FC
:100E5000D98104F08402802A40F0F88011F4806186
:100E600000F0F48001B0BDE8F04002F0DDBF00BF4B
:100E7000C16AB1F12A4F01D10821C16290F83E1038
:100E800040290BD1016D406C002900F0FE0018BF15
:100E900040F00100386101B0F0BD00BF0169B1F55B
:100EA000804F40F0898090F83D10426C212902F07B
:100EB000FE0218BF01323A61416B09B1C96B39B901
:100EC000806B002800F09E81C06B002800F09A81A2
:100ED000786840F40060786001B0F0BD0EF0F70271
:100EE000212A79D105F08402802A40F0C18011F4D2
:100EF000806100F0BD8090F83D10428D002A00F026
:100F00008181426A12F8013B3B614262428D013AA3
:100F10004285428D002A08BF292940F073817968F3
:100F200021F48061796021210163282180F83D103E
:100F300001B0BDE8F04000F0F3BA00BF002100911D
:100F40007A690092BA690092009A80F83C1001B068
:100F5000F0BD00BF4FF0010CA6078CEA522C7FF5C4
:100F600003AF002A3FF400AF90F83E20C16A036B44
:100F700090F83D60222E40F09F80066D002E08BF45
:100F8000402A00F09980026D002A40F03D810269FC
:100F9000B2F5404F40F0388100210091796900910D
:100FA000B96900910099396841F480713960016D27
:100FB0000131016501B0F0BD016D002900F0008133
:100FC000016D012940F01E81406C062101EAD0101C
:100FD000F130386101B0F0BD05F04402402A57D12C
:100FE00011F4806154D090F83D10428D002A00F039
:100FF00009813A69436A1A70426A01324262428D3B
:10100000013A4285428D002A08BF2A2940F0FA8021
:1010100001684A6822F480624A6022210163282123
:1010200080F83D1001B0BDE8F04000F077BA00BF95
:1010300004F00401012282EA910151EA0C0140F01E
:10104000E18001B0BDE8F04002F08CBD04F0040185
:10105000012282EA910151EA0C0140F0D380BEF1F5
:10106000210F40F0C78001B0BDE8F04002F09ABE09
:10107000690740F1C780002B00F0C480418D002932
:1010800000F0C080416A11F8012B3A610FE000BF07
:10109000690740F1B780002B00F0B480418D002932
:1010A00000F0B0803969426A1170416A01314162D1
:1010B000418D01394185A5E00020009078690090BC
:1010C000B8690090009801B0F0BD00BF54F8341F1B
:1010D0000A68526824F80A2C34F80A2C1AB1026CF7
:1010E00042F0040202647A68064622F4006208466E
:1010F0007A60FFF79FFA01463046012910D0206838
:1011000043F6B501C0F600010165FFF781FA01461B
:10111000304629B1216804460A6D084690472046AA
:10112000418D61B101684A6952072FD44A6952065C
:1011300039D4418D19B1016C41F004010164016C95
:1011400021B101B0BDE8F04002F046BC2A2D08D123
:1011500000210163282180F83D10044600F0DEF9EB
:10116000204690F83D10282932D10021CFF6FF719A
:10117000C16200212022016380F83D2080F83E10EA
:1011800001B0BDE8F04000F073B900BF0969426AE0
:101190001170426A016801324262428D013A428511
:1011A0004A695206C5D50969426A1170416A01311E
:1011B0004162418D01394185418D0029BBD1BEE796
:1011C000406C062101EAD010F030386101B0F0BD6A
:1011D000016B222918BF222D14D100212022016386
:1011E00080F83D2080F83E1001B0BDE8F04000F0EE
:1011F00095B900BF402D05D101B0BDE8F04002F027
:101200006DBE00BF01B0F0BD428D52B1428D012ACA
:1012100016D1202918BF082926D1396821F4806108
:1012200039600021009179690091B96900910099B4
:10123000396841F4007139600021016501B0F0BDE9
:10124000428D022A0CD1102932D8012214238A405F
:10125000C0F201031A422BD04FF480622EE000BF8F
:101260003A6842F480622BE011F5803F0CD1396876
:1012700021F48061396079680905D2D5396821F493
:101280008061396030E000BF122B01D10129C4D147
:101290001029F3D8012202FA01F11422C0F201024E
:1012A0001142EBD0396841F4806139601CE000BF25
:1012B0003A6822F480623A604FF400623B681A4355
:1012C0003A607A6812050FD54A1E1F2A18D80123E2
:1012D00003FA02F248F28103C8F200031A420FD067
:1012E000796841F480517960002100917969009119
:1012F000B969009100990021016501B0F0BD00BFFE
:1013000011F5803FECD0EFE770470000002804BFE4
:1013100001207047F0B581B0044690F83D0028B92F
:10132000002084F83C00204600F0ACF8242084F82B
:101330003D002068016821F001010160016841F46D
:1013400000410160016821F40041016000F0B0FA41
:10135000636848F2A16CC0F2010C40F60011C0F2C3
:101360003D0163453CBF48F28041C0F21E01884206
:1013700002D2012001B0F0BD4DF68361C4F21B31F1
:10138000A0FB01122168970CD1F804E04FF4967687
:101390002EF03F0545EA92454D60774348F63816F2
:1013A0000D6AC0F24106A7FB067625F03F076345AC
:1013B00038BF960C721C3A430A62CA6948F2A066AA
:1013C0004CF6FF77C0F20106B34222EA07020BD8BF
:1013D00001385B00B0FBF3F001306FF31F300428DD
:1013E00098BF04201BE000BFA768013857B1192738
:1013F0007B43B0FBF3F001306FF31F3070B100F5A9
:10140000804007E003EB4303B0FBF3F001306FF3E0
:101410001F3018B100F5004001E000BF012010436B
:10142000C8610868D4E9072320F0C00010431843BE
:101430000860886848F2FF3204F10C0790438CCFB3
:1014400018431043A6698860C86820F0FF0038433D
:101450003043C860086840F0010008600020202187
:10146000206484F83D10206384F83E0001B0F0BD94
:101470007047000070470000704700007047000090
:1014800070470000B0B586B045F600010068C4F2B0
:101490000001002488420594CDE90344029401949C
:1014A00002D006B0B0BD00BF43F630050094C4F2D0
:1014B0000205286840F002002860286800F0020059
:1014C000009000984FF4406001901220CDE9020492
:1014D000032004900420059001F5D63001A9FFF700
:1014E00093FA00942869052140F480002861286956
:1014F000002200F4800000900098212000F0CAF83B
:10150000212000F0B5F822200521002200F0C2F8C9
:10151000222000F0ADF806B0B0BD0000704700001A
:101520007047000040F2000044F6C471C2F20000AF
:10153000C2F2000100780A68104408607047000099
:1015400080B543F60040C4F20200016841F4007126
:101550000160016841F480610160016841F48071BB
:101560000160032000F0C2F80F2000F005F800F041
:101570005DF8002080BD000070B586B0002543F600
:1015800040010195C4F202010A68044642F02002BB
:101590000A60096801A801F02001019101996946DA
:1015A00000F066F9049E002E18BF012600F080F9B5
:1015B0004DF68361B040C4F21B31A0FB01014FF036
:1015C000FF3000EB914140F2F45041F20042C2F290
:1015D0000000C4F2000240F2E733C0E90021C0E994
:1015E00002530561856100F01FFC08B106B070BDB3
:1015F00040F2F450C2F2000000F0C6FC0028F5D121
:10160000372000F035F80F2C0CD837202146002267
:1016100000F040F840F204010020C2F200010C602A
:1016200006B070BD012006B070BD000082B0002081
:1016300043F640010190C4F202014A6842F480423C
:101640004A604A6802F480420192019A0090086858
:10165000002240F08050086008680F2100F08050A0
:10166000009000986FF0010002B000F013B8000085
:10167000002848BF704700F01F01012202FA01F163
:101680001C2202EAD0004EF20012CEF2000281507B
:101690007047000010B54EF60C5CCEF2000CDCF882
:1016A0000030C3F3022E8EF00704042C28BF04245C
:1016B000BEF103034FF0FF3E0EFA04F438BF0023DF
:1016C000A14399400EFA03F39A43114300F00F022D
:1016D00000F160430901043A03F5644362440028C1
:1016E00048BF02F10C03197010BD00004EF60C51FA
:1016F000CEF200010A684FF6FF031A4060F30A2297
:1017000042F0806040F0FD7008607047002804BF20
:10171000012070472DE9F04143F60808C4F20208A1
:101720000446D8F8F8030D4600F00700884207D2B7
:1017300088F8F853D8F8F80300F00700A84277D1EA
:101740002068810717D5410705D5D8F8001041F466
:10175000E051C8F80010010705D5D8F8001041F491
:101760006041C8F80010D8F80010A26821F0F0011C
:101770001143C8F80010C00740D1D8F8F80300F0B2
:101780000700A84207D988F8F853D8F8F80300F002
:101790000700A8424CD12068410707D5D8F80010AF
:1017A000E26821F4E0511143C8F80010000708D5A1
:1017B000D8F80000216920F4604040EAC100C8F870
:1017C000000000F09DF8D8F8001049F6AE72C1F3A1
:1017D0000311C0F60002515C40F2500220FA01F100
:1017E00040F20400C2F200000068C2F20002116080
:1017F000FFF7C2FE0020BDE8F08100BF6068811ED7
:10180000022907D258F8081C89015CBF0120BDE8F5
:10181000F08111E0012807D158F8081C89035CBF4A
:101820000120BDE8F08107E058F8081C890703D4BF
:101830000120BDE8F08100BFD8F8001021F00301BD
:101840000843C8F80000FFF7AFF9064641F28837B1
:10185000D8F80000616800F00C00B0EB810F8CD06C
:10186000FFF7A2F9801BB842F2D90320BDE8F0814E
:101870000F22026043F60802C4F20202136803F06A
:1018800003034360136803F0F0038360136803F4F9
:10189000E053C360D2F800C04FF4E05303EADC0326
:1018A0000361D2F8F80300F00700086070470000F9
:1018B00040F2500043F60801C2F20000C4F20201F7
:1018C0000068096849F6BE72C1F38221C0F60002C1
:1018D000515CC8407047000040F2500043F60801D8
:1018E000C2F20000C4F202010068096849F6BE7243
:1018F000C1F34231C0F60002515CC840704700009D
:1019000010B543F60404C4F20204606800F00C0150
:1019100042F200400829C0F2F40007D0042918BFA1
:1019200010BD41F20020C0F27A0010BD216801F024
:101930003F02216823684902C3F3881106D4A1FB42
:1019400000010023FEF7A6FC07E000BF41F20020E3
:10195000C0F27A004843B0FBF2F021680222C1F3E2
:10196000014102EB4101B0FBF1F010BD002804BFC2
:10197000012070472DE9F04182B00446007843F61B
:101980000006C007C4F202060CD0B06800F00C00DC
:10199000042840F081803068800303D56068002807
:1019A00000F06881207880071BD5B06810F00C0F1C
:1019B00009D0B06800F00C00082840F087807068FB
:1019C000400200F183803068800703D5E068012879
:1019D00040F050813068216920F0F80040EAC100F1
:1019E00030602078000713D4207840072AD4A569F6
:1019F000002D00F03A81B06800F00C00082840F09B
:101A0000A580012D40F00E81012002B0BDE8F081DB
:101A10006069002800F082800020C4F24720012184
:101A2000C0F8801EFFF7C0F8054600BF706F800742
:101A3000DAD4FFF7B9F8401B0228F7D9032002B027
:101A4000BDE8F081306C5FEAC0080AD40020019044
:101A5000306C40F080503064306C00F08050019069
:101A6000019847F20007C4F200073868C00547D460
:101A7000386840F480703860FFF796F8054600BF7C
:101A80003868C0053CD4FFF78FF8401B0228F7D90F
:101A9000032002B0BDE8F081B06800F00C00082817
:101AA00003D1706840023FF576AF61683068B1F5E8
:101AB000803F07D0B1F5A02F40F09A8040F48020FD
:101AC0003060306840F4803030609AE0E068002890
:101AD00040F20000C4F247205CD001210160FFF712
:101AE00063F80546306880073FF574AFFFF75CF890
:101AF000401B0228F6D9032002B0BDE8F08100BFE8
:101B0000A168306F012905D0052955D140F00400A6
:101B10003067306F40F00100306756E00020C4F2BB
:101B200047200021C0F8801EFFF73EF8054600BFA1
:101B3000706F80077FF558AFFFF736F8401B02281B
:101B4000F6D9032002B0BDE8F08100BF0027C4F23F
:101B5000472700203866FFF727F8022D05460DD1EC
:101B60003068800140F18A80FFF71EF8401B022890
:101B70004FF00300F4D902B0BDE8F0813068800175
:101B800073D5FFF711F8401B02284FF00300F5D979
:101B9000F1E700BF00210160FFF706F8054600BF2E
:101BA000306880077FF51DAFFEF7FEFF401B02285F
:101BB0004FF00300F4D9DEE720F001003067306F0A
:101BC000002920F0040030677AD0FEF7EDFF0546CB
:101BD00041F28837306F800700F18480FEF7E4FF20
:101BE000401BB842F6D9032002B0BDE8F08100BF27
:101BF00020F4803030603068002920F4802030608C
:101C00007AD0FEF7D1FF0546306880033FF5CAAEB3
:101C1000FEF7CAFF401B6428F6D9032002B0BDE8D6
:101C2000F08100BF7068E16900F480028A4221D12E
:101C3000216A00F03F028A421CD147F6C071626AF5
:101C40000140B1EB821F15D1A16A4FF6FF73C903A2
:101C5000994300F44032A1F580318A420AD1E16A09
:101C600000F07060B0EB016F04D1002002B0BDE85D
:101C7000F08100BF012002B0BDE8F08104F11C0535
:101C80002FCD084340EA8210D9034FF6FF729143EB
:101C9000A1F5803140EA0560084370600120386694
:101CA000FEF782FF044600BF30688001DDD4FEF7F6
:101CB0007BFF001B02284FF00300F5D95BE700BF54
:101CC000FEF772FF054641F2883700BF306F80078C
:101CD00008D5FEF769FF401BB8424FF00300F5D965
:101CE00049E700BFB8F1000F3FF581AE306C20F03E
:101CF000805030647BE600BFFEF756FF054600BF0C
:101D0000306880037FF54EAEFEF74EFF401B64281F
:101D10004FF00300F4D92EE7704700007047000031
:101D200090F83C20012A04BF02207047B0B501F1B1
:101D300008053CCDD1E900CE23F47C5322F4705247
:101D40001A432EF4F0431A432CF4E0431A4324F4CC
:101D5000C0431A432A43C96922F4804203681143ED
:101D60005964002180F83C100020B0BD90F83C2060
:101D7000012A4FF0020254D010B580F83D200268CD
:101D8000D2F804E0D2F808C00C682EF070032343A8
:101D900041F2FF74C4F20004A24253600EDC40F230
:101DA000FF73C4F200039A4216DCB2F1804F2BD0CD
:101DB00040F20043C4F2000324E000BF40F2FF33CE
:101DC000C4F201039A4213DC41F60003C4F200039B
:101DD0009A4219D0002313E040F60003C4F2000336
:101DE0009A4211D040F60043C4F200030AE000BF5B
:101DF00044F20003C4F201039A4205D040F20043CA
:101E0000C4F201039A4204D149682CF080031943BB
:101E100091600121002280F83D1080F83C20BDE84F
:101E20001040104670470000002804BF0120704792
:101E300010B5044690F83D0028B9002084F83C0015
:101E4000204600F01FF8022084F83D002068211D84
:101E500002F00AFD012084F8460084F83E0084F870
:101E60003F0084F8400084F8410084F8420084F880
:101E7000430084F8440084F8450084F83D000020C5
:101E800010BD000080B582B0006843F6FF71C4F257
:101E90000101884220DD44F20001C4F201018842C0
:101EA00034D044F20041C4F2010188423CD044F6EF
:101EB0000001C4F20101884245D10020019043F69F
:101EC0004400C4F20200016841F48021016000680E
:101ED00000F4802035E000BF41F20001C4F20001AF
:101EE000884233D00021C4F2010188422BD1002066
:101EF000019043F64400C4F20200016841F0010180
:101F00000160006800F001001BE000BF00200190AC
:101F100043F64400C4F20200016841F480310160DC
:101F2000006800F480300CE00020019043F644008B
:101F3000C4F20200016841F400310160006800F45D
:101F400000300190019802B080BD00BF00200190D8
:101F500043F64400C4F2020050F8041C002241F091
:101F6000100140F8041C50F8040C052100F010008A
:101F7000019001983620FFF78DFB362002B0BDE8B6
:101F80008040FFF775BB000090F83D1001291CBF91
:101F900001207047022180F83D10006841F2FF7275
:101FA000C168C4F20002904241F00101C1600DDC41
:101FB00040F2FF71C4F20001884215DCB0F1804F9D
:101FC0002AD040F20041C4F2000123E040F2FF3188
:101FD000C4F20101884213DC41F60001C4F20001A1
:101FE000884219D0002113E040F60001C4F200013C
:101FF000884211D040F60041C4F200010AE000BF5F
:1020000044F20001C4F20101884205D040F20041CF
:10201000C4F20101884206D1816801F00701062956
:1020200004BF00207047016841F0010101600020F9
:102030007047000090F83C20012A4FF002026CD05B
:1020400080B580F83D20D0F800C04FF67772DCF8FC
:10205000083023EA0202CCF808200B684F2B29DC59
:102060001F2B45DD202B46D0302B44D0402B40F099
:10207000AF80D1F804E0C968DCF82030DCF820201B
:1020800022F00102CCF82020DCF8182022F0F00227
:1020900042EA011123F00A0242EA0E02CCF81810BB
:1020A000CCF82020DCF8081041F0470121F0300185
:1020B00028E000BF6F2B33DDB3F5005F74D0B3F5BC
:1020C000805F21D0702B40F08380D1E901E3C968A3
:1020D000DCF8082043EA0E0322F47F4243EA0121A0
:1020E0001143CCF80810DCF8081041F0770109E042
:1020F0000BB1102B6CD1DCF8081021F070011943E2
:1021000041F00701CCF808100022012180F83D10B1
:10211000002180F83C10BDE880401046704700BFA9
:10212000502B21D0602B53D1D1F804E0C968DCF8E2
:102130002030DCF8202022F01002CCF82020DCF83F
:10214000182022F4704242EA013123F0A00242EA50
:102150000E12CCF81810CCF82020DCF8081041F052
:10216000670121F01001CDE7D1F804E0C968DCF87F
:102170002030DCF8202022F00102CCF82020DCF80E
:10218000182022F0F00242EA011123F00A0242EA8A
:102190000E02CCF81810CCF82020DCF8081041F022
:1021A000570121F02001ADE7D1E901E3C968DCF86E
:1021B000082043EA0E0322F47F4243EA012111433F
:1021C000CCF80810DCF8081041F480419AE700BF11
:1021D00001229AE7002804BF012070472DE9F0474B
:1021E000044690F83D000D4628B9002084F83C00D4
:1021F000204600F049F8022084F83D00206844F2AF
:102200000702816891438160211D02F02DFB206847
:102210004FF6FF7881688269D0F820C0D5E9003E8A
:10222000D5E9026A43EA0109AB6922EA080246EAF3
:1022300003234FF6FC46B343D5E9076742EA0A0297
:1022400029691A4342EA062242EA01112CF0AA0245
:102250006B6942EA0E0241EA073142EA0312C0F812
:10226000089081610262012084F8460084F83E00F3
:1022700084F83F0084F8420084F8430084F83D006D
:102280000020BDE8F0870000F0B587B000680021AD
:1022900000F140404FEAB02003280691CDE9041137
:1022A0000391029100F2B680DFE800F00284405C06
:1022B000002443F630000194C4F20200016940F2A8
:1022C000004741F0010101610169C4F2020701F018
:1022D00001010191019901940168022541F0010178
:1022E00001600168012601F0010101910199019449
:1022F000016841F002010160006802A900F00200DB
:10230000019001984FF400400290A7F58060CDE95C
:10231000035405940696FEF777FB08213846CDE96D
:102320000215CDE9044406961C2468E0002043F61B
:1023300030010190C4F202010A691E2442F0040235
:102340000A610A6902F004020192019A01900A6886
:1023500042F002020A60096801F00201019101994C
:10236000C02142E0002043F630010190C4F2020196
:102370000A69322442F008020A610A6902F008027E
:102380000192019A01900A6842F001020A6009680C
:1023900001F0010101910199032102910221CDE98E
:1023A0000310CDE9050140F20040C4F20200A0F59F
:1023B000806024E0002043F630010190C4F2020165
:1023C0000A691D2442F002020A610A6902F002024F
:1023D0000192019A01900A6842F002020A600968BB
:1023E00001F0020101910199302102910221CDE910
:1023F0000310CDE9050140F20040C4F2020002A939
:10240000FEF702FB204605210022FFF743F9204694
:10241000FFF72EF907B0F0BD80B590F83E2090F898
:102420003F3090F842E090F843C004290AD0F9B94F
:10243000012A4FF0010208BFBEF1010F46D010463D
:1024400080BD00BF012B4FF0010208BFBCF1010F9E
:10245000F5D1022180F83F1080F843100068016A2E
:1024600021F010010162016A41F0100101622AE0CD
:10247000012A4FF0010208BF012BE0D1BEF1010F8C
:10248000DDD1BCF1010FDAD1022280F83E2080F8C4
:102490003F2080F8422080F84320E1B10068016AC3
:1024A00021F001010162016A41F001010162016A4A
:1024B00021F010010162016A41F010010162C1685E
:1024C00041F00201C16004210FE000BF022180F849
:1024D0003E1080F842100068016A21F0010101629B
:1024E000016A41F0010101620221C2681143C16029
:1024F0000168002241F001010160104680BD00002A
:102500007047000070B504460068C5680669B107E9
:1025100016D515F0020113D06FF0020101610121FF
:1025200021778069800703D02046FFF7E9FF05E0A7
:10253000204600F017F9204600F056FA00202077D8
:10254000700719D515F0040016D020686FF004014B
:10255000016102212177806910F4407F04D0204678
:10256000FFF7CEFF06E000BF204600F0FBF8204654
:1025700000F03AFA00202077300717D515F0080050
:1025800014D020686FF00801016104212177C0692F
:10259000800703D02046FFF7B3FF05E0204600F098
:1025A000E1F8204600F020FA00202077F00619D547
:1025B00015F0100016D020686FF01001016108219D
:1025C0002177C06910F4407F04D02046FFF798FFC0
:1025D00006E000BF204600F0C5F8204600F004FAEF
:1025E00000202077F00718BF15F0010002D1300657
:1025F00009D412E020686FF001010161204600F06B
:102600007DFA300609D515F0800006D020686FF0FD
:10261000800101612046FFF77FFB700609D515F0A8
:10262000400006D020686FF040010161204600F0B4
:102630004BFBB00658BF70BD15F0200008D02168D4
:102640006FF0200220460A61BDE87040FFF766BBCC
:1026500070BD000080B586B0006844F2FF31C4F25E
:10266000010188424FF000010591CDE90311CDE948
:1026700001111DDC0021C4F20101884236D044F270
:102680000001C4F2010188426AD10020009043F6A3
:102690003000C4F20200016841F0100101600068DE
:1026A000032100F0100000900098602030E000BF8F
:1026B00044F20041C4F20101884231D044F60001E5
:1026C000C4F2010188424BD10020009043F6300053
:1026D000C4F20200016841F002010160006800F0EC
:1026E0000200009000984FF400702AE00020009053
:1026F00043F63000C4F20200016841F010010160AD
:102700000068012100F01000009000984FF4D440C0
:10271000019040F20040C4F2020000F5406016E073
:102720000020009043F63000C4F20200016841F03E
:1027300002010160006800F00200009000984FF470
:102740008070019040F200400321C4F20200022296
:1027500002920022059101A9CDE90322FEF754F966
:1027600006B080BD7047000090F83C30012B04BFDC
:10277000022070474FEAB202032A00F2FF802DE9DF
:10278000F043DFE802F003B13F7F00BF036840F28F
:1027900000461C6A1A6A24F0020422F001021A623E
:1027A0001A46D3F804C052F818EF8F6843F48065D6
:1027B000C4F20106B54244EA070405D1CF6824F00B
:1027C0000C0427F004073C430F68B54206D1D1E959
:1027D00005582CF440762E4346EA080C2EF073067A
:1027E0003743C3F804C09F614F6809695F631C6287
:1027F0009F6947F008079F619F6927F004079F6161
:10280000B1E000BF036840F200481C6A1A6A24F471
:10281000007422F480721A621A46D3F804C052F887
:102820001CEF8F6843F48065C4F20108454544EA13
:10283000072408D1CF6840F2FF463F0224F44064E9
:1028400027EA06063443D1F80090454506D1D1E980
:1028500005562CF440572E4347EA061C2EF073070A
:1028600047EA0907C3F804C0DF614F680969DF63FD
:102870001C62DF6947F00807DF61DF6927F00407A2
:10288000DF6170E0036840F20045D3F820C01A6AA7
:1028900043F4806722F480521A621A465C6852F848
:1028A0001C8FD1F800E08E68C4F20105AF4204D15C
:1028B0004D6924F4804444EA85142CF4005747EA17
:1028C000063728F4E64646EA0E265C60DE614E686E
:1028D00009691E641F62DF6947F40067DF61DF6911
:1028E00027F48067DF613DE0036840F200481C6A1E
:1028F0001A6A24F0200422F010021A621A46D3F851
:1029000004C052F818EF8F6843F48065C4F20108E0
:10291000454544EA071407D1CF686FF0400624F01C
:10292000C00406EA07163443D1F80090454506D1A5
:10293000D1E905562CF440672E4347EA860C2EF465
:10294000E64747EA0927C3F804C09F614F68096951
:102950009F631C629F6947F400679F619F6927F42A
:1029600080679F6109021368194311600021BDE867
:10297000F043002280F83C200846704701210022E5
:1029800080F83C2008467047002804BF01207047AB
:1029900010B5044690F83D0028B9002084F83C00AA
:1029A000204600F01FF8022084F83D002068211D19
:1029B00001F05AFF012084F8460084F83E0084F8B4
:1029C0003F0084F8400084F8410084F8420084F815
:1029D000430084F8440084F8450084F83D0000205A
:1029E00010BD00007047000070470000C1B104290D
:1029F00008D0082914BF41224022825C012A05D058
:102A000016E000BF3F22825C012A11D10222082970
:102A100010D0042914BF80F8412080F83F200BE03B
:102A200090F83E20012A03D1022280F83E2003E0E4
:102A30000120704780F84020006801F01F0101224A
:102A4000036A02FA01F123EA01020262026A1143F7
:102A500041F2FF72C4F20002904201620CDC40F2CB
:102A6000FF71C4F20001884214DCB0F1804F37D00E
:102A700040F2004116E000BF40F2FF31C4F2010114
:102A8000884215DC41F60001C4F20001884227D0DB
:102A9000002115E040F60001C4F2000188421FD079
:102AA00040F60041C4F20001884219D01FE000BF87
:102AB00044F20001C4F20101884211D040F2004109
:102AC000C4F20101884212D1416C40F2004340F44B
:102AD0008062C4F2010341F400419A42416406D18C
:102AE000816801F00701062904BF002070470168D2
:102AF00041F00101016000207047000010B52DED8C
:102B0000028B0446006841F20041C4F20001884291
:102B100002D1FEF707FD206800F140404FEAB020E7
:102B2000042815D8DFE800F004B68AA0180000BF1A
:102B300040F28C40C2F200000068026840F214705B
:102B4000C2F20000016DD20654BF013101390165A6
:102B5000BDEC028B10BD00BF40F28C40C2F2000001
:102B6000006840F21474C2F20004416A226D9FEDC5
:102B7000548A01EB0242214604F1200041F8542F0F
:102B800004F16402B0EE480A012302F0F1FC40F2C5
:102B9000D440C2F200000068B0EE480A406AD4F89F
:102BA000E010012300EB014044F8E40FA4F13400ED
:102BB00004F11002214602F0DBFC40F21C50C2F28C
:102BC00000000068B0EE480A416AD4F88C2004F195
:102BD0005C0001EB0241C4F8901004F1900104F193
:102BE000A002012302F0C4FC40F26450C2F20000D3
:102BF0000068B0EE480A416AD4F81C2104F1EC00E8
:102C000001EB0241C4F8201104F5907104F59872AB
:102C1000012302F0ADFC40F654109FED2A0AC2F2E7
:102C2000000002F0B9F940F2B800C2F200000068FA
:102C3000BDEC028BBDE8104004F072B940F21C50AC
:102C4000C2F200000068026840F21470C2F2000094
:102C5000D0F87011D2064CBF01390131C0F87011A3
:102C6000BDEC028B10BD00BF40F26450C2F2000008
:102C70000068026840F21470C2F20000D0F800123E
:102C8000D2064CBF01390131C0F80012BDEC028BF5
:102C900010BD00BF40F2D440C2F2000000680268DC
:102CA00040F21470C2F20000D0F8E010D2064CBF1F
:102CB00001390131C0F8E010BDEC028B10BD00BF3E
:102CC0006666663F6F12833A7047000090F84230A4
:102CD000202B0BD194460A4600294FF0010118BF62
:102CE000BCF1000F06D10846704700BF022108461C
:102CF000704700BFB0B582B00121016300252221D9
:102D000045638262A0F82CC0456480F84210C36B12
:102D100044F6353E44F69544C0F6000EC0F6000475
:102D20000168C3E90FE444F6B914C0F60004C3E92E
:102D300013450431044618466346FDF713FE01951A
:102D4000216820460A680192496801910199216928
:102D500031B300BF016851E8031F026841F480717C
:102D600042E80313E3B1016851E8031F026841F42C
:102D7000807142E803139BB1016851E8031F0268A8
:102D800041F4807142E8031353B1016851E8031F15
:102D9000026841F4807142E80313002BDAD100BFCE
:102DA000016851E8051F026841F0010142E805137E
:102DB000BBB3016851E8051F026841F0010142E818
:102DC000051373B3016851E8051F026841F0010162
:102DD00042E805132BB3016851E8051F026841F072
:102DE000010142E80513002BDAD11AE0016851E82D
:102DF000051F026841F0400142E80513DBB101689C
:102E000051E8051F026841F0400142E8051393B103
:102E1000016851E8051F026841F0400142E80513CE
:102E20004BB1016851E8051F026841F0400142E8DA
:102E30000513002BDAD1016B012933D10021009158
:102E400001680A680092496800910099016851E898
:102E5000031F026841F0100142E80313DBB101686F
:102E600051E8031F026841F0100142E8031393B1D7
:102E7000016851E8031F026841F0100142E80313A2
:102E80004BB1016851E8031F026841F0100142E8AC
:102E90000313002BDAD1002102B0BDE8B040084690
:102EA000704700BF012102B0BDE8B040084670473E
:102EB0002DE9F04184B0006844F200420C29C4F2CC
:102EC000000208BF904223D027291DD102F580615E
:102ED000884219D141F2EC1841F214240025C2F2C3
:102EE00000080827C2F20004002600BF08EB060114
:102EF000204601220023CDE900550295039703F0F7
:102F00007BF80136272EF1D104B0BDE8F08100BF77
:102F100044F68C7444F6B875C2F20004C2F200059F
:102F20004FF00908002704262046294602220023E4
:102F3000CDE900670297CDF80C8002F025FE691CF0
:102F4000204602220023CDE900670297CDF80C80CD
:102F500002F01AFEA91C204602220023CDE90067D8
:102F60000297CDF80C8002F00FFEE91C20460222E9
:102F70000023CDE900670297CDF80C8002F004FE33
:102F8000291D204602220023CDE900670297CDF8D3
:102F90000C8002F0F9FD691D204602220023CDE9D4
:102FA00000670297CDF80C8002F0EEFDA91D2046C7
:102FB00002220023CDE900670297CDF80C8002F0D1
:102FC000E3FDE91D204602220023CDE900670297B8
:102FD000CDF80C8002F0D8FD05F108012046022250
:102FE0000023CDE900670297CDF80C8002F0CCFDFC
:102FF00005F10901204602220023CDE9006702976E
:10300000CDF80C8002F0C0FD05F10A012046022235
:103010000023CDE900670297CDF80C8002F0B4FDE3
:1030200005F10B01204602220023CDE9006702973B
:10303000CDF80C8002F0A8FD04B0BDE8F0810000DE
:1030400070470000B0B582B001680A68CC684B696F
:1030500002F02F05202D04F0200505D125B102B086
:10306000BDE8B04001F07EBE5FEA027C1EBF03F007
:10307000010E04F4907313EB0E0341D1036BD506DC
:1030800018D5012B16D114F0100313D00022019291
:103090000A6801924A680192019A496949064BD42B
:1030A000818DC28DC38D002B18BF914240F0F481F9
:1030B00002B0B0BD13062DD514F080032AD090F8CD
:1030C0004120212AF4D18268B2F5805F03D10269E0
:1030D000002A00F06782026A531C036212784A6079
:1030E000C28C013A1304C284E2D1C86820F0800087
:1030F000C860C86840F04000C86002B0B0BD00BF02
:10310000D30718BF14F4807340F0D080530700F148
:10311000D380D8E05206CBD514F04002C8D0CA689C
:1031200022F04002CA60202180F8411002B0BDE8C0
:10313000B04000F0ADBB00BFC16B0A68526893B2EB
:10314000002BB5D0858DAB42B2D2C285C969B1F52D
:10315000807F00F0A080016851E8031F026821F41D
:10316000807142E80313DBB1016851E8031F026874
:1031700021F4807142E8031393B1016851E8031F01
:10318000026821F4807142E803134BB1016851E8F1
:10319000031F026821F4807142E80313002BDAD187
:1031A000016851E8051F026821F0010142E805139A
:1031B000BBB3016851E8051F026821F0010142E834
:1031C000051373B3016851E8051F026821F001017E
:1031D00042E805132BB3016851E8051F026821F08E
:1031E000010142E80513002BDAD11AE0016851E829
:1031F000051F026821F0400142E80513DBB10168B8
:1032000051E8051F026821F0400142E8051393B11F
:10321000016851E8051F026821F0400142E80513EA
:103220004BB1016851E8051F026821F0400142E8F6
:103230000513002BDAD1202180F842100021016310
:10324000016851E8031F026821F0100142E80313EE
:10325000DBB1016851E8031F026821F0100142E868
:10326000031393B1016851E8031F026821F01001B4
:1032700042E803134BB1016851E8031F026821F0D3
:10328000100142E80313002BDAD1C16B0446084653
:10329000FDF776F9204602214163818DC28D891A9E
:1032A00089B202B0BDE8B040FFF702BE436C43F004
:1032B00001034364530706D5BEF1000F03D0436CEE
:1032C00043F002034364930706D5BEF1000F03D019
:1032D000436C43F004034364BCF1000F06D55EEA7F
:1032E000050303D0436C43F008034364436C002B95
:1032F0003FF4DEAE920605D525B1044601F032FD5D
:10330000216820464969426C01F0400102F0080240
:10331000891800F0B98000BF016851E8031F0268F6
:1033200021F4907142E80313BBB3016851E8031F15
:10333000026821F4907142E8031373B3016851E805
:10334000031F026821F4907142E803132BB3016854
:1033500051E8031F026821F4907142E80313002B27
:10336000DAD11AE0016851E8051F026821F0010175
:1033700042E80513DBB1016851E8051F026821F03E
:10338000010142E8051393B1016851E8051F026885
:1033900021F0010142E805134BB1016851E8051F16
:1033A000026821F0010142E80513002BDAD1016B1C
:1033B000012924D1016851E8031F026821F010019E
:1033C00042E80313DBB1016851E8031F026821F0F2
:1033D000100142E8031393B1016851E8031F02682A
:1033E00021F0100142E803134BB1016851E8031FBB
:1033F000026821F0100142E80313002BDAD12021EA
:1034000080F842100021016301684969490640F1D2
:10341000C380016851E8051F026821F0400142E8BD
:103420000513DBB1016851E8051F026821F0400176
:1034300042E8051393B1016851E8051F026821F0C5
:10344000400142E805134BB1016851E8051F0268CD
:1034500021F0400142E80513002BDAD1C16B0029AD
:1034600000F09A8044F6AD12C0F600020446084609
:103470000A65FDF7CDF800283FF41AAEE06B016D48
:1034800002B0BDE8B04008470446FFF7D9FD002070
:10349000606402B0B0BD00BF891A00BF026852E884
:1034A000032F036822F4907243E80325BDB302683A
:1034B00052E8032F036822F4907243E8032575B3A2
:1034C000026852E8032F036822F4907243E8032550
:1034D0002DB3026852E8032F036822F4907243E888
:1034E0000325002DDAD11AE0026852E8052F03689F
:1034F00022F0010243E80525DDB1026852E8052FFC
:10350000036822F0010243E8052595B1026852E8FC
:10351000052F036822F0010243E805254DB102683A
:1035200052E8052F036822F0010243E80525002D2B
:10353000DAD1202280F8422000220263026852E899
:10354000032F036822F0100243E80325DDB102686F
:1035500052E8032F036822F0100243E8032595B1D7
:10356000026852E8032F036822F0100243E80325A3
:103570004DB1026852E8032F036822F0100243E8BD
:103580000325002DDAD1022289B2426302B0BDE8E0
:10359000B040FFF78DBC00BF02B0BDE8B040FFF700
:1035A0004FBD00BF026A32F8023B6FF35F234B60EE
:1035B000026295E5002804BF0120704710B504465B
:1035C00090F8410028B9002084F84000204600F01F
:1035D00021F8242084F841002068C16821F40051BA
:1035E000C160204601F03EFC2068016921F4904151
:1035F0000161416921F02A014161C16841F4005132
:10360000C16000202021606484F8411084F84210D9
:10361000606310BD2DE9F04786B00446006844F6AB
:103620000001C4F2000100268842CDE90466CDE91C
:103630000266019654D044F20041C4F2000188426F
:1036400040F0C08043F630000096C4F202000169E9
:1036500041F400310161016901F4003100910099E8
:103660000096016841F008010160006801A900F0BE
:10367000080000900098602001900220CDE9020629
:10368000032004900720059040F60040C4F2020099
:10369000FDF7BAF946F22800C4F2020040F24025D4
:1036A0006030C2F200054FF0006185E843004FF43E
:1036B00040304FF480624FF48073C5E90806284615
:1036C000C5E90362C5E90566EB61FDF799F80028D5
:1036D0004FF026064FF03C0718BFFCF74DFF67E0A0
:1036E00043F630000096C4F20200016946F2280851
:1036F00041F4802101610169C4F2020801F48021D2
:10370000009100990096016841F00801016000688D
:1037100001A900F00800009000984FF4407001905B
:103720000220CDE90206032004900720059040F610
:103730000040C4F20200FDF767F940F2A025C2F292
:1037400000054FF480704FF0006A4FF48069C5E9BE
:1037500006604FF440372846C5E9008AC5E902668D
:10376000C5E90496C5E90876FDF74AF8002818BFB0
:10377000FCF702FFE563AC6340F2003508F130006E
:10378000C2F200054021C5E9000A05F10800002247
:1037900080E806022846C5E90522EA61C5E9087203
:1037A000FDF72EF827264FF0380708B1FCF7E4FEA6
:1037B000304605210022E551AC63FDF76BFF304632
:1037C000FDF756FF06B0BDE8F08700007047000027
:1037D00070470000B0B590F84140202C1CBF02207B
:1037E000B0BD134600294FF0010218BF002B01D1D4
:1037F0001046B0BD0022212401628384C384426448
:1038000080F84140D0F838C044F6AD4E44F65D55DE
:10381000C0F6000EC0F600050468CCE90FE544F6DA
:10382000B915C0F60005CCE91352221D04466046C6
:10383000FDF798F8216820466FF040020A6000BF4B
:10384000016851E8051F026841F0800142E8051354
:10385000DBB1016851E8051F026841F0800142E8D0
:10386000051393B1016851E8051F026841F080011A
:1038700042E805134BB1016851E8051F026841F0A9
:10388000800142E80513002BDAD100221046B0BDBA
:103890007047000070470000FEE7000040F2603013
:1038A000C2F20000FDF78AB940F26030C2F20000B7
:1038B000FDF72CBA10B581B000210091806B40F269
:1038C0005001C2F2000190F83DC009684BF28952E4
:1038D000C908C1F2F842A1FB0212110A2322514386
:1038E0000091009911B300990139009101680968AC
:1038F00089051FD50099C9B1009901390091016866
:103900000968890516D5009981B10099013900919E
:103910000168096889050DD5009939B10099013907
:103920000091016809688905DBD403E0016C41F06E
:1039300020010164446B4FF0000E002C1CBF0021DD
:10394000E163816B00291CBF0022CA630268002C5E
:10395000136823F480631360A0F82AE018BFC4F84A
:1039600050E000291CBF00230B65116821F0010104
:10397000116090F83D1060290CD1202180F83D1095
:10398000002180F83E10016401B0BDE81040FDF751
:1039900011B900BF0CF02801282911D1116841F09C
:1039A00001011160116841F480611160002101631F
:1039B000282180F83D1001B0BDE81040FDF7A4BCFF
:1039C000202180F83D10002180F83E1001B0BDE8B4
:1039D0001040FDF799BC000010B5044690F83D106A
:1039E00090F83E00B0F1100218BF0122403818BF15
:1039F0000120024208BF222934D001F028002828E3
:103A00003AD100202063282084F83D0020684168D6
:103A1000090542D5416821F400614160606B90F86E
:103A20003510012958D1A06B43F6B501C0F600014D
:103A30000165FCF7EDFD002861D020684169490669
:103A400006D50069616A0870616A206801316162A7
:103A5000016821F001010160202084F83D00A06B85
:103A60004BE000BF2068026822F4006202604268F6
:103A7000120505D50CE000BF20684268120507D486
:103A8000602905D0202184F83D10002184F83E10E3
:103A90000021216341680905BCD494F83D106029D8
:103AA00050D1202184F83D1000212164416949064C
:103AB00006D50069616A0870616A20680131616237
:103AC000016821F0010101602046FDF773F8206CC8
:103AD000000717D11BE000BF43F6B501C0F6000197
:103AE0000165FCF795FD50B12168606B0A6822F012
:103AF00001020A60202184F83D10016D8847206C86
:103B0000000704D02068416821F4E061416094F826
:103B10003D00216C490758BF10BD282810D1002056
:103B2000CFF6FF70E06200212020216384F83D0081
:103B3000204684F83E10BDE81040FDF799BC00BF58
:103B400010BD00BF4169490605D50069616A08706A
:103B5000606A013060622046FDF7D6FB206C0007EA
:103B6000D0D1D4E7C16A428D042A07D10168426AE4
:103B70004B6823F480634B60096911E0428D032A8E
:103B800016D102680229536823F48063536005D07C
:103B9000042903D0116821F4806111601169426A1F
:103BA0001170416A01314162418D0139418570478F
:103BB000428D022A12D14A1E0F2A19D8DFE802F0DC
:103BC00008121812181818181818181818181808A1
:103BD0000268136823F480630EE000BF0168426A44
:103BE000CAE700BF0268136843F4806304E000BFC3
:103BF0000268136843F4007313601269436A1A7011
:103C0000426AD0F800C0531C4362438D013B438598
:103C1000DCF810305370426A036801324262428D10
:103C2000013A42855A6822F440725A60202280F894
:103C30003D2090F83E300022402B80F83E2003D1FA
:103C40000263FDF71BBC00BFB1F1080218BF1222CE
:103C5000203918BF11460163FDF70CBC81B090F804
:103C60003D10222910D1C16A428D042A0ED3016869
:103C7000426A09691170416A01314162418D01391D
:103C80004185418D03295DD001B07047C36A012A87
:103C900058D8022B56D00022009240F25002C2F2B5
:103CA000000212684BF28953D208C1F2F843A2FB1A
:103CB00003231A0A02EB82020092009A013A009250
:103CC000009A002A46D0026813689B051AD5009A0C
:103CD000013A0092009AEAB3026813689B0511D575
:103CE000009A013A0092009AA2B3026813689B05F9
:103CF00008D5009A013A0092009A5AB302681368F4
:103D00009B05DAD4136823F480631360536823F4AB
:103D1000E06353601269436A1A70426A0132426278
:103D2000428D013A4285202280F83D2090F83E30B5
:103D30000022402B80F83E2028D1026301B0FDF71D
:103D40009DBB00BF0068416821F48061416001B003
:103D5000704700BF016C41F0200101640168426AB4
:103D60004B6823F4E0634B6009691170416A0131CB
:103D70004162418D01394185202180F83D100021AB
:103D800080F83E1001B0FDF7BFBA00BFB1F10802E4
:103D900018BF1222203918BF1146016301B0FDF788
:103DA00069BB0000C16A90F83D20212A18BF704706
:103DB000428D4AB1416A026811F8013B13614162C8
:103DC000418D01394185704711F5803F18BF0829A1
:103DD00018D101684A6822F4E0624A600A6842F435
:103DE00000720A6000212022016380F83D2090F8D3
:103DF0003E2080F83E10402A08BFFDF741BBFDF78A
:103E00003BBB00BF2029E4D001684A6822F4E0628D
:103E10004A6011210163002180F83E10202180F8C2
:103E20003D10FDF729BB000090F83D1090F83EC012
:103E3000C26A038D002B08BF212919D0212905D082
:103E4000BCF1400F08BF222900D07047418D69B3F3
:103E500090F83E10402908BF00F040B8416A02685F
:103E600011F8013B13614162418D01394185704771
:103E700012F5803F18BF082A1ED101684A6822F453
:103E8000E0624A600A6842F400720A60002120225F
:103E9000016380F83D2090F83E2080F83E10402AD3
:103EA00008BFFDF7EDBAFDF7E7BA00BF006841684B
:103EB00021F4806141607047202ADED001684A68A1
:103EC00022F4E0624A6011210163002180F83E1073
:103ED000202180F83D10FDF7CFBA000090F83D108A
:103EE000026D5AB1026D012A14D10168826CD2B2FE
:103EF0000A61016D01310165704700BFC26C816CC0
:103F0000012A15D10268C9B21161016D0231016542
:103F1000704700BF026D022A12D1222918D1016810
:103F20000A6842F480720A60016D013101657047D0
:103F30000268C1F307211161016D0131016570470C
:103F400000684169090644BF00210161704700BF54
:103F5000428D5AB1212909D1416A026811F8013B09
:103F600013614162418D013941857047428D002ABC
:103F700008BF2129EAD101684A6822F4E0624A6058
:103F80000A6842F400720A6000212022016380F86E
:103F90003D2080F83E10FDF773BA000080B582B076
:103FA0000020019043F63000C4F2020001680022B4
:103FB00041F4001101600068052100F40010019037
:103FC00001980C20FDF766FB0C20FDF751FB0E203D
:103FD00005210022FDF75EFB0E20FDF749FB1020B6
:103FE00005210022FDF756FB102002B0BDE88040FD
:103FF000FDF73EBB10B54AF21002C0F600020120E8
:10400000002102F031FF40F2B804C2F20004206047
:1040100046F6054049F6C872C0F60000C0F6000238
:10402000002102F0AFFF606046F6F94049F6EC72FD
:10403000C0F60000C0F60002002102F0A3FFA0605D
:1040400047F6B5204AF22002C0F60000C0F6000292
:10405000002102F097FFE06010BD000081B0002158
:1040600043F630000091C4F20200026842F01002F0
:104070000260026802F010020092009A0091026849
:1040800042F080020260026802F080020092009A10
:104090000091026842F001020260026802F001022F
:1040A0000092009A0091026842F0020202600268E7
:1040B00002F002020092009A0091016841F00801AA
:1040C0000160006800F008000090009801B070479F
:1040D00080B540F2603045F60001C2F20000C4F243
:1040E000000141F6802200234FF4804CC0F206020A
:1040F00080E80E00C0E9033CC0E90533C0E907339E
:10410000FDF704F9002808BF80BDBDE88040FCF73A
:1041100033BA000080B588B040F2FC3044F200426F
:104120000021C2F20000C4F2010244F29F13CDE963
:104130000611CDE90411C0E90021C0E902130161B3
:104140008161FDF771FE002818BFFCF715FA40F2F7
:10415000FC30C2F20000FEF717FC002818BFFCF785
:104160000BFA602001900020CDE90200059040F29A
:10417000FC30C2F2000001A90022FEF7F5FA002887
:1041800018BFFCF7F9F940F2FC30C2F20000FEF76C
:1041900061FA08B080BD000080B588B040F24440AC
:1041A00044F600020021C2F20000C4F2010244F20F
:1041B0009F13CDE90611CDE90411C0E90021C0E942
:1041C000021301618161FDF72FFE002818BFFCF783
:1041D000D3F940F24440C2F20000FEF7D5FB0028BC
:1041E00018BFFCF7C9F9602001900020CDE902005A
:1041F000059040F24440C2F2000001A90022FEF7FF
:10420000B3FA002818BFFCF7B7F940F24440C2F2F5
:104210000000FEF71FFA08B080BD000010B596B090
:1042200040F2B43000220021C2F20000C4F20102C8
:1042300044F29F131591CDE913111191CDE90F119E
:10424000CDE90D11CDE90B11CDE90911CDE907112A
:10425000CDE90511CDE90311CDE90111C0E9002136
:10426000C0E90213C0E904118161FDF7DDFD0028FA
:1042700018BFFCF781F94FF48050129040F2B4302F
:10428000C2F2000012A9FDF7D5FE002818BFFCF706
:1042900073F940F2B430C2F20000FEF775FB00285B
:1042A00018BFFCF769F940F2B4300024C2F20000F4
:1042B00010A9CDE91044FDF759FD002818BFFCF7FF
:1042C0005BF96020CDE9090440F2B430C2F200008D
:1042D00009A90022CDE90B44CDE90D440F94FEF766
:1042E00043FA002818BFFCF747F940F2B430C2F295
:1042F000000009A90422FEF737FA002818BFFCF7CE
:104300003BF940F2B430C2F2000009A90822FEF7DE
:104310002BFA002818BFFCF72FF940F2B430C2F294
:10432000000009A90C22FEF71FFA002818BFFCF7AD
:1043300023F900200590CDE90300CDE901004FF4F9
:104340000051089040F2B4300691C2F2000001A979
:10435000FDF7E6FC002818BFFCF70EF940F2B43078
:10436000C2F20000FEF776F916B010BD80B58CB031
:1043700040F28C400021C2F200004FF080424FF624
:10438000FF73C0E900210322C0E90213CDE9032134
:1043900001220A23CDE9001101618161CDE90521E6
:1043A000CDE90731CDE9092103A90B93FDF712FFF0
:1043B000002818BFFCF7E0F840F28C40C2F2000081
:1043C0006946FDF7D3FC002818BFFCF7D5F80CB000
:1043D00080BD000080B58CB040F2D44040F2004275
:1043E0000021C2F20000C4F200024FF6FF73C0E9E0
:1043F00000210322C0E90213CDE9032101220A238F
:10440000CDE9001101618161CDE90521CDE90731D7
:10441000CDE9092103A90B93FDF7DCFE002818BFA5
:10442000FCF7AAF840F2D440C2F200006946FDF75A
:104430009DFC002818BFFCF79FF80CB080BD000061
:1044400080B58CB040F21C5040F600020021C2F250
:104450000000C4F200024FF6FF73C0E900210322FE
:10446000C0E90213CDE9032101220A23CDE900119D
:1044700001618161CDE90521CDE90731CDE909214E
:1044800003A90B93FDF7A6FE002818BFFCF774F8EC
:1044900040F21C50C2F200006946FDF767FC00289C
:1044A00018BFFCF769F80CB080BD000080B58CB077
:1044B00040F2645040F600420021C2F20000C4F213
:1044C00000024FF6FF73C0E900210322C0E9021386
:1044D000CDE9032101220A23CDE9001101618161A7
:1044E000CDE90521CDE90731CDE9092103A90B93D8
:1044F000FDF770FE002818BFFCF73EF840F264504C
:10450000C2F200006946FDF731FC002818BFFCF735
:1045100033F80CB080BD000080B582B040F2AC50E2
:1045200041F200020021C2F20000C4F20002532353
:1045300040F2E73CCDE90011C0E90023C0E9021CCC
:104540008161FDF771FC002818BFFCF715F840F2F7
:10455000AC50C2F200006946FDF708FC002818BF05
:10456000FCF70AF802B080BD80B58CB040F23C6028
:1045700044F200020021C2F20000C4F2010244F23F
:104580009F130B91CDE909110791CDE90511CDE9F3
:104590000311CDE90111C0E90021C0E90213016155
:1045A0008161FDF741FC002818BFFBF7E5FF4FF4E0
:1045B0008050089040F23C60C2F2000008A9FDF76C
:1045C00039FD002818BFFBF7D7FF40F23C60C2F26C
:1045D0000000FEF7D9F9002818BFFBF7CDFF6020D7
:1045E00001900020CDE90200059040F23C60C2F24B
:1045F000000001A90022FEF7B7F8002818BFFBF75A
:10460000BBFF40F23C60C2F2000001A90422FEF7A9
:10461000ABF8002818BFFBF7AFFF40F23C60C2F2D6
:104620000000FEF717F80CB080BD000080B540F226
:10463000846044F20041C2F20000C4F20001002391
:104640004FF00C0C4FF4165280E80E00C0E9033313
:10465000C0E905C3C361FEF7ADFF002808BF80BDF8
:10466000BDE88040FBF788BF80B540F2CC6044F6DF
:104670000001C2F20000C4F2000100234FF00C0C54
:104680004FF4E13280E80E00C0E90333C0E905C30E
:10469000C361FEF78FFF002808BF80BDBDE88040E2
:1046A000FBF76ABFFEE70000FEE700000000000025
:1046B000EFF30980BFF36F8F154B1A681EF0100FD0
:1046C00008BF20ED108A20E9F04F10602DE90900A5
:1046D0004FF0500080F31188BFF34F8FBFF36F8FFF
:1046E00003F006FF4FF0000080F31188BDE80900D9
:1046F00019680868B0E8F04F1EF0100F08BFB0EC62
:10470000108A80F30988BFF36F8F704700BF00BF26
:10471000C8000020000000000000000000000000B1
:10472000074B19680868B0E8F04F80F30988BFF3B9
:104730006F8F4FF0000080F31188704700BF00BFFB
:10474000C800002080B54EF21000CEF200000068D4
:1047500004F0B6FE012808BF80BDBDE8804003F02C
:10476000F1BF000070B592B006AC20463021FBF7D7
:1047700056FE002543F640000595CDE90355CDE9E9
:1047800001550095C4F202000168022641F08051F3
:104790000160006800F080500090009847F200002F
:1047A0000095C4F20000016841F480410160006896
:1047B000A82100F4804000900098012006904FF45A
:1047C000803007904FF480000D9004200E901190DF
:1047D00020460C96CDE90F16FDF7C8F810B172B659
:1047E000FEE700BF0F20CDE901064FF4A050049072
:1047F0004FF48050059001A805210395FCF786FF32
:1048000010B172B6FEE700BF12B070BD4EF6885010
:10481000CEF20000016841F47001016070470000B1
:1048200040F28C40C2F20000FDF76CBE40F2D44072
:10483000C2F20000FDF766BE40F21C50C2F200005A
:10484000FDF760BE40F26450C2F20000FDF75ABEB0
:1048500040F2AC50C2F20000FDF754BE40F2F450FA
:10486000C2F20000FDF74EBE10B540F6FF3E0368F1
:10487000C4F2000E40F2004C7045C4F2010C25DC7D
:10488000B0F1804F2FD040F20042C4F200029042BB
:1048900029D040F60002C4F20002904223D041F633
:1048A000FF72C4F20002904227DC70453ADCB0F19E
:1048B000804F5BD040F20042C4F20002904255D0DB
:1048C00040F60002C4F200024EE000BF40F6004293
:1048D000C4F20002904206D0604504D00022C4F227
:1048E00001029042DBD14A6823F07003134341F682
:1048F000FF72C4F200029042D7DD43F6FF72C4F2A9
:104900000102904220DC42F20002C4F20002904216
:104910002CD00022C4F20102904227D0604525D05D
:1049200028E000BF40F60042C4F2000290421DD0D1
:1049300041F60002C4F20002904217D041F6004254
:10494000C4F2000210E000BF44F20002C4F201020F
:1049500090420BD044F60002C4F20102904205D00E
:1049600044F20042C4F20102904203D1CA6823F427
:104970004073134323F080024B69D1F800E08C6848
:104980001A430260C46240F48062C0F828E06245C5
:1049900004BF09690163012141610169C90708BFB9
:1049A00010BD016921F00101016110BD806B002182
:1049B000C185C184FEF744BB806B01684A6990F8E9
:1049C0004130212B2DD112F080022AD00021C18448
:1049D000016851E8031F026821F0C00142E8031397
:1049E000DBB1016851E8031F026821F0C00142E811
:1049F000031393B1016851E8031F026821F0C0015D
:104A000042E803134BB1016851E8031F026821F02B
:104A1000C00142E80313002BDAD1202180F84110B5
:104A20000168496990F84220222A40F07D8011F007
:104A3000400179D00021C185016851E8031F026857
:104A400021F4907142E80313BBB3016851E8031FDE
:104A5000026821F4907142E8031373B3016851E8CE
:104A6000031F026821F4907142E803132BB301681D
:104A700051E8031F026821F4907142E80313002BF0
:104A8000DAD11AE0016851E8051F026821F001013E
:104A900042E80513DBB1016851E8051F026821F007
:104AA000010142E8051393B1016851E8051F02684E
:104AB00021F0010142E805134BB1016851E8051FDF
:104AC000026821F0010142E80513002BDAD1016BE5
:104AD000012924D1016851E8031F026821F0100167
:104AE00042E80313DBB1016851E8031F026821F0BB
:104AF000100142E8031393B1016851E8031F0268F3
:104B000021F0100142E803134BB1016851E8031F83
:104B1000026821F0100142E80313002BDAD12021B2
:104B200080F8421000210163416C41F010014164A2
:104B3000FEF786BA0168806B0968C90500F19F809D
:104B40000021C185016851E8031F026821F48071CA
:104B500042E80313E3B1016851E8031F026821F43E
:104B6000807142E803139BB1016851E8031F02689A
:104B700021F4807142E8031353B1016851E8031F27
:104B8000026821F4807142E80313002BDAD100BFE0
:104B9000016851E8051F026821F0010142E8051390
:104BA000BBB3016851E8051F026821F0010142E82A
:104BB000051373B3016851E8051F026821F0010174
:104BC00042E805132BB3016851E8051F026821F084
:104BD000010142E80513002BDAD11AE0016851E81F
:104BE000051F026821F0400142E80513DBB10168AE
:104BF00051E8051F026821F0400142E8051393B116
:104C0000016851E8051F026821F0400142E80513E0
:104C10004BB1016851E8051F026821F0400142E8EC
:104C20000513002BDAD1202180F84210016B0129F5
:104C300025D100BF016851E8031F026821F010016F
:104C400042E80313DBB1016851E8031F026821F059
:104C5000100142E8031393B1016851E8031F026891
:104C600021F0100142E803134BB1016851E8031F22
:104C7000026821F0100142E80313002BDAD1002171
:104C80004163016B012918BFFEF7A0BD818DFEF7BE
:104C90000FB90000806B01214163016B012918BF2E
:104CA000FEF796BD818D4908FEF702B90168806B59
:104CB0000968C90548BFFEF7EBBD0021C18400BFEC
:104CC000016851E8051F026821F0800142E80513E0
:104CD00083B3016851E8051F026821F0800142E8B2
:104CE00005133BB3016851E8051F026821F08001FC
:104CF00042E80513F3B1016851E8051F026821F08D
:104D0000800142E80513002BDAD113E0016851E875
:104D1000031F026841F0400142E80313002B08BF63
:104D20007047016851E8031F026841F0400142E802
:104D3000031393B1016851E8031F026841F0400179
:104D400042E803134BB1016851E8031F026841F0C8
:104D5000400142E80313002BD8D17047806BFEF767
:104D600099BD000081B090F84210222921D18368BA
:104D70000246B3F5805F09D152F8281F52F8183C5B
:104D8000002B63D003685B680AE000BF52F8281F5D
:104D900013B90369002BF5D003685B6803F07F0348
:104DA0000B70116801311160C18D01390A04C18590
:104DB00002D001B0704700BF0168CA6822F020022B
:104DC000CA60CA6822F48072CA604A6922F001028D
:104DD0004A61202180F8421000214163026B012AC0
:104DE0003CD10163016851E8031F026821F0100102
:104DF00042E80313DBB1016851E8031F026821F0A8
:104E0000100142E8031393B1016851E8031F0268DF
:104E100021F0100142E803134BB1016851E8031F70
:104E2000026821F0100142E80313002BDAD1016877
:104E30000A68D20606D5002200920A6800924968E4
:104E400000910099818D01B0FEF732B80268526876
:104E50006FF35F2221F8022B8162A5E701B0FEF714
:104E6000B5BC0000B0B50446006804F108030ECBE1
:104E70000569194325F440552A4302616269E369D3
:104E80001143C268194349F20C639A431143C1604C
:104E90004169A26921F4407141F20043114340F499
:104EA0008062C4F201039A42416103D1FCF714FD10
:104EB00002E000BFFCF7FCFCE1694FF69C756368FB
:104EC0001922C0F6FF75B1F5004FA0FB02011FD1FA
:104ED0005A00DB0FFBF7DEF948F21F51C5F2EB1168
:104EE000A0FB01235A0905F1805302FB0300322382
:104EF00003EBC000A0FB01014FF4F87000EA1110B1
:104F000000EB0210C1F34211084421688860B0BD73
:104F10009A009B0FFBF7BEF948F21F51C5F2EB1147
:104F2000A0FB01235A0902FB0500322303EB00100A
:104F3000A0FB0101F02000EA511000EB0210C1F3C8
:104F40004311084421688860B0BD000010B540F2EC
:104F50008464C2F200042046FEF774F844F6B87187
:104F6000C2F2000120460C22BDE81040FDF7AEBEA3
:104F700010B540F2CC64C2F200042046FEF762F89D
:104F800041F2EC11C2F2000120462722BDE8104098
:104F9000FDF79CBEFEE7000010B52DED048B40F23E
:104FA0001471C2F2000191ED1E1A40F24C029FED05
:104FB000598AC2F2000231EE011A92ED002A21EE66
:104FC000081A9FED553A22EE011A81EE031A0446A3
:104FD00084ED0A0A80ED001A91ED422A92ED004A12
:104FE00032EE022A22EE082A24EE022A82EE032A58
:104FF00080ED012A91ED665A31EE027A35EE055ABE
:1050000025EE085A24EE055A85EE035A80ED025A21
:1050100091ED8A6A40F2440036EE066A26EE086A8E
:1050200024EE064A84EE033AC2F2000090ED004AF4
:1050300040F24800C2F2000090ED006A37EE450AE7
:1050400034EE064AB9EE006A24EE064A37EE056AE7
:1050500036EE036A86EE044A30EE430AB5EE006A85
:1050600020EE069A31EE420A30EE450A30EE030A8F
:1050700020EE060A84ED050A94ED090A84ED033A50
:1050800084ED049A84ED064A01F028FD94ED0A3A75
:1050900029EE001A94ED072A94ED090A21EE031A6D
:1050A00094ED059A31EE021A84ED071A01F062FDC3
:1050B00094ED0A3A29EE000A94ED082A94ED061AB6
:1050C00020EE030A94ED094A30EE020A84ED080A44
:1050D00021EE030A9FED111A30EE040A30EE011A98
:1050E000B4EE480A9FED0F2AF1EE10FAC8BFB0EEF9
:1050F000410A9FED0B1AB4EE420A30EE011AF1EEAE
:1051000010FAB8BFB0EE410A84ED090ABDEC048B79
:1051100010BD00BFDB0F494000007042DB0FC9C06B
:10512000DB0FC940DB0F49C02DE9F0412DED068BA7
:1051300040F6343840F208059FED4A8A9FED4A9ABE
:10514000C2F20008C2F20005414600222B46B0EE32
:10515000480AF0EE490A044600F044F940F6841685
:105160009FED42AA05F10C07C2F200062046314627
:1051700000223B46B0EE480AF0EE4A0A00F032F94F
:1051800008F14801204600222B46B0EE480AF0EE16
:10519000490A00F027F906F14801204600223B4663
:1051A000B0EE480AF0EE4A0A00F01CF908F190014E
:1051B000204600222B46B0EE480AF0EE490A00F0E5
:1051C00011F906F19001204600223B46B0EE480A54
:1051D000F0EE4A0A00F006F908F1D8012046002254
:1051E0002B46B0EE480AF0EE490A00F0FBF806F153
:1051F000D801204600223B46B0EE480AF0EE4A0AAB
:1052000000F0F0F89FED1B8A40F654419FED180A1C
:1052100005F11803C2F2000120460022F0EE480A10
:1052200000F0E0F840F6A42105F12403C2F20001E9
:1052300020460022B0EE480AF0EE480A00F0D2F80C
:1052400040F6EC2105F13003C2F2000120460022B5
:10525000B0EE480AF0EE480ABDEC068BBDE8F0411E
:1052600000F0C0B8003E834600204B4600409C45FD
:1052700000803B450080BB44002957D0087891ED61
:105280000F1A91ED102A81ED070A30EEC00A0028AE
:10529000C1ED060A81ED0F0A81ED101A81ED112A88
:1052A00048D0012840F0988091ED015A91ED026AB2
:1052B00030EE414A31EE011A91ED037A24EE054AAF
:1052C00020EE065A30EE410A32EE000AD1E90C20F7
:1052D00081ED0C0A20EE070A34EE051A91ED082A3A
:1052E00091ED043A81ED0B0A31EE000A32EE000A2C
:1052F000B4EE430AF1EE10FA81ED094A81ED0A5A43
:10530000C1E90D2081ED080AC2BF81ED083AB0EE77
:10531000430A7047B1EE431AB4EE410AF1EE10FAB7
:10532000BCBF81ED081AB0EE410A70479FED2C0A10
:10533000704700BF91ED024A91ED0A6A91ED012A92
:1053400091ED053A24EE004A91ED035A34EE064AF7
:1053500020EE022AD1E90C2030EE410AB4EE434A95
:1053600081ED0C0A20EE050AF1EE10FA81ED092A12
:1053700081ED0A4AC1E90D2081ED0B0A06DCB1EE90
:10538000433AB4EE434AF1EE10FA03DAB0EE434A80
:1053900081ED0A3A32EE042A91ED041A30EE020A47
:1053A000B4EE410AF1EE10FA81ED080A06DCB1EE26
:1053B000411AB4EE410AF1EE10FA03DAB0EE410AF6
:1053C00081ED081AF5EE400AF1EE10FA02BF002056
:1053D00088627047704700BF91ED080A704700BFB0
:1053E00000000000002918BF002B01D1704700BF4A
:1053F00080B50A701868486058688860986881EDC0
:10540000040AC860C1ED050A01F120002821FBF75C
:1054100006F880BD10B540F2147201EBC10040F6F1
:105420003431C2F20002C2F2000102EB0012F0EECF
:10543000400A92ED1E0A01EBC00440F68010C2F251
:1054400000002146FFF718FF94ED080A10BD000088
:105450000B46002948BF4B4210B502699342A8BFD2
:1054600013460129A2EB030E0EDBD0E900130968F5
:1054700093B3082B1AD0042B14BF40233823CA50EF
:10548000C168B9B92DE000BFD0E90034B1F1FF3FE8
:10549000D3F800C02CDDBCB3082C31D0042C14BFD1
:1054A000402138214CF8012037E000BF3C23CA508E
:1054B000C168B1B1082909D0042914BF402138219D
:1054C0008068006840F801E010BD00BF3C218068A2
:1054D000006840F801E010BD3423CA50C1680029BB
:1054E000E8D134218068006840F801E010BD00BFB9
:1054F00084B1082C0CD0042C14BF402138210AE0C0
:105500003C214CF8012008E034214CF8012004E053
:105510003C2100E034214CF801E0C16841B1082988
:1055200004D0042914BF4021382102E03C2100E0CE
:10553000342196468068006840F801E010BD000004
:1055400070B51C46049E80E80E00CB68E568C66016
:10555000AB4288BF1D46056108461146FDF746FA75
:1055600020463146BDE87040FDF740BA000000001B
:105570002DE9F0472DED028B04464079984240F02A
:10558000E482D1E900509146CA68281A1E460346B3
:105590004EF65F2748BF4342BB4288BF002000EB66
:1055A0000208B0EE408AC1E902088A4604F054FBC2
:1055B00007464FF47A70B0FBF6F00E4604F063FB3A
:1055C0009FED130B53EC102B04F070FB3A4633465F
:1055D00004F06CFB9FED100B53EC102B04F066FBFA
:1055E0009FED0F0B53EC102B04F0DAF904F0A6F941
:1055F0002179CAF8045004EB81020131CBB20A2BA5
:105600002171906040F0A8820EE000BF00BF00BF93
:105610000000000000004E40000000000000D03FED
:105620000000000000407F4094ED020A94ED031A50
:105630000020B4EE410AF1EE10FAC6BF84ED021A62
:1056400084ED030AB0EE410A94ED041AB4EE410A67
:10565000F1EE10FAC6BF84ED031A84ED040AB0EE31
:10566000410A94ED051AB4EE410AF1EE10FAC6BFF4
:1056700084ED041A84ED050AB0EE410A94ED061A91
:10568000B4EE410AF1EE10FAC6BF84ED051A84EDBE
:10569000060AB0EE410A94ED071AB4EE410AF1EEA3
:1056A00010FAC6BF84ED061A84ED070AB0EE410A6F
:1056B00094ED081AB4EE410AF1EE10FAC6BF84ED7B
:1056C000071A84ED080AB0EE410A94ED091AB4EE07
:1056D000410AF1EE10FAC6BF84ED081A84ED090AFA
:1056E000B0EE410A94ED0A1AB4EE410AF1EE10FA56
:1056F000C6BF84ED091A84ED0A0AB0EE410A94EDA2
:105700000B1AB4EE410AF1EE10FAC4BF84ED0A1A86
:1057100084ED0B0A94ED020A94ED031AB4EE410AEB
:10572000F1EE10FAC6BF84ED021A84ED030AB0EE62
:10573000410A94ED041AB4EE410AF1EE10FAC6BF24
:1057400084ED031A84ED040AB0EE410A94ED051AC3
:10575000B4EE410AF1EE10FAC6BF84ED041A84EDEE
:10576000050AB0EE410A94ED061AB4EE410AF1EED4
:1057700010FAC6BF84ED051A84ED060AB0EE410AA0
:1057800094ED071AB4EE410AF1EE10FAC6BF84EDAB
:10579000061A84ED070AB0EE410A94ED081AB4EE39
:1057A000410AF1EE10FAC6BF84ED071A84ED080A2B
:1057B000B0EE410A94ED091AB4EE410AF1EE10FA86
:1057C000C6BF84ED081A84ED090AB0EE410A94EDD3
:1057D0000A1AB4EE410AF1EE10FAC4BF84ED091AB8
:1057E00084ED0A0A94ED020A94ED031AB4EE410A1C
:1057F000F1EE10FAC6BF84ED021A84ED030AB0EE92
:10580000410A94ED041AB4EE410AF1EE10FAC6BF53
:1058100084ED031A84ED040AB0EE410A94ED051AF2
:10582000B4EE410AF1EE10FAC6BF84ED041A84ED1D
:10583000050AB0EE410A94ED061AB4EE410AF1EE03
:1058400010FAC6BF84ED051A84ED060AB0EE410ACF
:1058500094ED071AB4EE410AF1EE10FAC6BF84EDDA
:10586000061A84ED070AB0EE410A94ED081AB4EE68
:10587000410AF1EE10FAC6BF84ED071A84ED080A5A
:10588000B0EE410A94ED091AB4EE410AF1EE10FAB5
:10589000C4BF84ED081A84ED090A94ED020A94ED60
:1058A000031AB4EE410AF1EE10FAC6BF84ED021AF3
:1058B00084ED030AB0EE410A94ED041AB4EE410AF5
:1058C000F1EE10FAC6BF84ED031A84ED040AB0EEBF
:1058D000410A94ED051AB4EE410AF1EE10FAC6BF82
:1058E00084ED041A84ED050AB0EE410A94ED061A1F
:1058F000B4EE410AF1EE10FAC6BF84ED051A84ED4C
:10590000060AB0EE410A94ED071AB4EE410AF1EE30
:1059100010FAC6BF84ED061A84ED070AB0EE410AFC
:1059200094ED081AB4EE410AF1EE10FAC4BF84ED0A
:10593000071A84ED080A94ED020A94ED031AB4EEF6
:10594000410AF1EE10FAC6BF84ED021A84ED030A93
:10595000B0EE410A94ED041AB4EE410AF1EE10FAE9
:10596000C6BF84ED031A84ED040AB0EE410A94ED3B
:10597000051AB4EE410AF1EE10FAC6BF84ED041A1E
:1059800084ED050AB0EE410A94ED061AB4EE410A20
:10599000F1EE10FAC6BF84ED051A84ED060AB0EEEA
:1059A000410A94ED071AB4EE410AF1EE10FAC4BFB1
:1059B00084ED061A84ED070A94ED020A94ED031AA9
:1059C000B4EE410AF1EE10FAC6BF84ED021A84ED7E
:1059D000030AB0EE410A94ED041AB4EE410AF1EE66
:1059E00010FAC6BF84ED031A84ED040AB0EE410A32
:1059F00094ED051AB4EE410AF1EE10FAC6BF84ED3B
:105A0000041A84ED050AB0EE410A94ED061AB4EECC
:105A1000410AF1EE10FAC4BF84ED051A84ED060ABE
:105A200094ED020A94ED031AB4EE410AF1EE10FA75
:105A3000C6BF84ED021A84ED030AB0EE410A94ED6C
:105A4000041AB4EE410AF1EE10FAC6BF84ED031A4F
:105A500084ED040AB0EE410A94ED051AB4EE410A51
:105A6000F1EE10FAC4BF84ED041A84ED050A94ED3A
:105A7000020A94ED031AB4EE410AF1EE10FAC6BF21
:105A800084ED021A84ED030AB0EE410A94ED041A83
:105A9000B4EE410AF1EE10FAC4BF84ED031A84EDAE
:105AA000040A94ED020A94ED031AB4EE410AF1EEF1
:105AB00010FAC4BF84ED021A84ED030A94ED040ABF
:105AC00094ED051A94ED062A94ED073A30EE010A9A
:105AD00094ED084A30EE020A94ED095A30EE030ABA
