:020000040800F2
:10000000604F002055020008C92B0008A9250008F0
:10001000C52B00084D040008F53000080000000062
:10002000000000000000000000000000412C00085B
:100030005104000800000000D12B0008652C0008C6
:100040006F0200086F0200086F0200086F020008CC
:100050006F0200086F0200086F0200086F020008BC
:100060006F0200086F0200086F0200086F020008AC
:100070006F0200086F0200086F0200086F0200089C
:100080006F0200086F0200086F0200086F0200088C
:100090006F0200086F0200086F0200086F0200087C
:1000A0006F0200086F0200086F0200086F0200086C
:1000B000512D00085D2D0008692D00086F02000811
:1000C0006F0200086F0200086F0200086F0200084C
:1000D0006F0200086F020008D13000086F020008AC
:1000E0006F0200086F0200086F0200086F0200082C
:1000F0006F0200086F0200086F0200086F0200081C
:100100006F0200086F020008752D00086F020008DA
:100110006F0200086F020008812D00088D2D000875
:100120006F0200086F0200086F0200086F020008EB
:100130006F0200086F0200086F0200086F020008DB
:100140006F0200086F0200086F0200086F020008CB
:100150006F0200086F0200086F0200086F020008BB
:100160006F0200086F0200086F0200086F020008AB
:100170006F0200086F0200086F0200080000000014
:100180006F0200086F02000800F002F800F052F859
:1001900014A696E8000CB244B344DA4501D100F04D
:1001A00049F8BAE80F000FA696E83000A5EB040561
:1001B00004EB0607AAEB0704A7F101074FEA1515A0
:1001C0004FEA3414A4F10104AC4201D300F032F838
:1001D00013F0010F18BFFB1A43F0010300F001F800
:1001E000DBE71847B4510000D4510000103A24BF97
:1001F00078C878C1FAD8520724BF30C830C144BF8C
:1002000004680C6070470000704700000023002461
:1002100000250026103A28BF78C1FBD8520728BF16
:1002200030C148BF0B6070471FB505F08FF81FBD88
:1002300010B510BD00F0D0F81146FFF7F5FF03F040
:10024000D9FD00F0EEF803B4FFF7F2FF03BC00F0B5
:10025000F5F800000948804709480047FEE7FEE737
:10026000FEE7FEE7FEE7FEE7FEE7FEE7FEE7FEE766
:1002700004480549054A064B704700003D2D00081B
:100280008901000860490020604F0020604B002079
:10029000604B002053EA020C00F069802DE9F04B1E
:1002A0004FF00006002B1FBFB3FA83F503FA05F4E5
:1002B00024FA05F65E4012BF1643B2FA82F502FA3E
:1002C00005F4C5F120051EBF22FA05FC44EA0C0422
:1002D000203556EA044C4FEA144418BF641C4FF012
:1002E00000084FF00009904271EB030C39D300294C
:1002F00019BFB1FA81F701FA07F6B0FA80F700FAF0
:1003000007F6C7F120071EBF20FA07FC46EA0C06D5
:100310002037B6FBF4FCA7EB0507103F07F01F0BD7
:10032000CBF120062CFA06F60CFA0BFB44BFB346C1
:100330000026202FA4BF5E464FF0000B5BEA060CA0
:1003400008BF4FF0010B19EB0B0948EB0608ABFB9C
:10035000027C06FB02CC0BFB03CCC01B71EB0C0137
:10036000C1E70B46024641464846BDE8F08B13B54F
:10037000084318BF4FF0FF300146AFF30080BDE8DF
:100380001C4070474FF0000200B513469446964655
:10039000203922BFA0E80C50A0E80C50B1F1200198
:1003A000BFF4F7AF090728BFA0E80C5048BF0CC046
:1003B0005DF804EB890028BF40F8042B08BF7047A4
:1003C00048BF20F8022B11F0804F18BF00F8012B16
:1003D0007047704770477047754600F02BF8AE467F
:1003E00005006946534620F00700854618B020B541
:1003F000FFF73EFFBDE820404FF000064FF000073A
:100400004FF000084FF0000BAC46ACE8C009ACE878
:10041000C009ACE8C009ACE8C00921F007018D466D
:10042000704710B50446AFF300802046BDE8104089
:10043000FFF709BF0048704750000020014918200D
:10044000ABBEFEE72600020070470000FEE700009A
:100450007047000072B600BFFEE7000070B5866D01
:10046000044600F025F994F83510022928D10546F4
:100470002068216C026822F016020260426922F0B4
:100480008002426109B9A16C19B1016821F008012B
:100490000160016821F00101016000BF206800686F
:1004A000C00715D000F004F9401B0628F6D3202021
:1004B0006065032084F83500002184F8341070BD95
:1004C000802060650120002184F8341070BD00BFD9
:1004D000E06D3F2101FA00F0B060012084F83500A2
:1004E0000020002184F8341070BD000090F8351011
:1004F000022909D1052180F835100068016821F032
:100500000101016000207047802141650120704792
:100510002DE9F04F83B000F1200200F13E4741F693
:100520000045009207F1FF77C4F2020508224FEA66
:10053000B726A84208BF072200254FF000084FF059
:100540000009072E38BF4FEAB72201920AE000BF28
:1005500009F1010908F10208B9F1100F05F10405CC
:1005600000F0A2800F68012202FA09FE17EA0E0AC3
:10057000EED0D1F804C003220CF003077E1E02FA6D
:1005800008F4012E6FEA040B12D88468CE6804EADE
:100590000B0406FA08F634438460446824EA0E0625
:1005A000CCF3001404FA09F42643466004E000BFCB
:1005B000032F01D103271EE0C6688C6806EA0B06EC
:1005C00004FA08F42643022FC66014D16FF0030228
:1005D000009E02EA590756F807C005F01C040F22D6
:1005E0000B69A2402CEA0202A3401A43F251D1F84F
:1005F00004C00CF00307026807FA08F302EA0B02D2
:100600001A431CF4403F0260A2D0002243F6440388
:100610000292C4F202031A6843F6004442F4804294
:100620001A601A68C4F2010402F480420292029A2B
:1006300029F003024FF6084C2244CFF6FF7C52F813
:100640000C3005F00C070F26BE40B343019E06FA9E
:1006500007F73B4342F80C30A2684B6842EA0A07AE
:1006600043F60C4CDE0258BF22EA0A07A760C4F228
:10067000010CDCF800209E0242EA0A0758BF22EA79
:100680000A07CCF8007062689E0342EA0A0758BF66
:1006900022EA0A0767602268DB0342EA0A0758BFBA
:1006A00022EA0A07276053E703B0BDE8F08F000095
:1006B00044F20470C2F200000068704740F200008B
:1006C00044F20471C2F20000C2F2000100780A682C
:1006D000104408607047000080B543F60040C4F243
:1006E0000200016841F400710160016841F4806119
:1006F0000160016841F480710160032000F0C2F8DC
:100700000F2000F005F800F05DF8002080BD00002B
:1007100070B586B0002543F640010195C4F2020190
:100720000A68044642F020020A60096801A801F044
:10073000200101910199694600F066F9049E002E9E
:1007400018BF012600F080F94DF68361B040C4F275
:100750001B31A0FB01014FF0FF3000EB914140F253
:10076000444041F20042C2F20000C4F2000240F2F2
:10077000E733C0E90021C0E902530561856100F05B
:100780001FFC08B106B070BD40F24440C2F2000048
:1007900000F0C6FC0028F5D1372000F035F80F2C0A
:1007A0000CD837202146002200F040F840F2040126
:1007B0000020C2F200010C6006B070BD012006B03E
:1007C00070BD000082B0002043F640010190C4F2E9
:1007D00002014A6842F480424A604A6802F4804258
:1007E0000192019A00900868002240F08050086051
:1007F00008680F2100F08050009000986FF0010011
:1008000002B000F013B80000002848BF704700F0A5
:100810001F01012202FA01F11C2202EAD0004EF26D
:100820000012CEF2000281507047000010B54EF663
:100830000C5CCEF2000CDCF80030C3F3022E8EF01C
:100840000704042C28BF0424BEF103034FF0FF3E2D
:100850000EFA04F438BF0023A14399400EFA03F3C3
:100860009A43114300F00F0200F160430901043A7A
:1008700003F564436244002848BF02F10C03197079
:1008800010BD00004EF60C51CEF200010A684FF682
:10089000FF031A4060F30A2242F0806040F0FD70CE
:1008A00008607047002804BF012070472DE9F0411F
:1008B00043F60808C4F202080446D8F8F8030D46C7
:1008C00000F00700884207D288F8F853D8F8F803F8
:1008D00000F00700A84277D12068810717D54107AB
:1008E00005D5D8F8001041F4E051C8F80010010710
:1008F00005D5D8F8001041F46041C8F80010D8F8C8
:100900000010A26821F0F0011143C8F80010C007E0
:1009100040D1D8F8F80300F00700A84207D988F8BA
:10092000F853D8F8F80300F00700A8424CD120682B
:10093000410707D5D8F80010E26821F4E0511143CF
:10094000C8F80010000708D5D8F80000216920F485
:10095000604040EAC100C8F8000000F09DF8D8F8F7
:10096000001045F27032C1F30311C0F60002515C71
:1009700040F2440220FA01F140F20400C2F2000009
:100980000068C2F200021160FFF7C2FE0020BDE85D
:10099000F08100BF6068811E022907D258F8081C48
:1009A00089015CBF0120BDE8F08111E0012807D179
:1009B00058F8081C89035CBF0120BDE8F08107E0FE
:1009C00058F8081C890703D40120BDE8F08100BF56
:1009D000D8F8001021F003010843C8F80000FFF721
:1009E00067FE064641F28837D8F80000616800F0DB
:1009F0000C00B0EB810F8CD0FFF75AFE801BB84281
:100A0000F2D90320BDE8F0810F22026043F608020C
:100A1000C4F20202136803F003034360136803F097
:100A2000F0038360136803F4E053C360D2F800C09E
:100A30004FF4E05303EADC030361D2F8F80300F05B
:100A4000070008607047000040F2440043F60801C8
:100A5000C2F20000C4F202010068096845F2803267
:100A6000C1F38221C0F60002515CC840704700000B
:100A700040F2440043F60801C2F20000C4F2020151
:100A80000068096845F28032C1F34231C0F60002C5
:100A9000515CC8407047000010B543F60404C4F22E
:100AA0000204606800F00C0142F200400829C0F224
:100AB000F40007D0042918BF10BD41F20020C0F295
:100AC0007A0010BD216801F03F02216823684902C5
:100AD000C3F3881106D4A1FB00010023FFF7DAFB62
:100AE00007E000BF41F20020C0F27A004843B0FBAB
:100AF000F2F021680222C1F3014102EB4101B0FB97
:100B0000F1F010BD002804BF012070472DE9F0412D
:100B100082B00446007843F60006C007C4F202061D
:100B20000CD0B06800F00C00042840F081803068E0
:100B3000800303D56068002800F068812078800772
:100B40001BD5B06810F00C0F09D0B06800F00C0095
:100B5000082840F087807068400200F18380306888
:100B6000800703D5E068012840F050813068216992
:100B700020F0F80040EAC10030602078000713D46C
:100B8000207840072AD4A569002D00F03A81B0688A
:100B900000F00C00082840F0A580012D40F00E81E7
:100BA000012002B0BDE8F0816069002800F0828079
:100BB0000020C4F247200121C0F8801EFFF778FD15
:100BC000054600BF706F8007DAD4FFF771FD401B48
:100BD0000228F7D9032002B0BDE8F081306C5FEA4B
:100BE000C0080AD400200190306C40F0805030647E
:100BF000306C00F080500190019847F20007C4F279
:100C000000073868C00547D4386840F48070386001
:100C1000FFF74EFD054600BF3868C0053CD4FFF71E
:100C200047FD401B0228F7D9032002B0BDE8F08140
:100C3000B06800F00C00082803D1706840023FF54E
:100C400076AF61683068B1F5803F07D0B1F5A02F6D
:100C500040F09A8040F480203060306840F480306A
:100C600030609AE0E068002840F20000C4F24720BB
:100C70005CD001210160FFF71BFD0546306880074D
:100C80003FF574AFFFF714FD401B0228F6D903208F
:100C900002B0BDE8F08100BFA168306F012905D026
:100CA000052955D140F004003067306F40F0010055
:100CB000306756E00020C4F247200021C0F8801EB3
:100CC000FFF7F6FC054600BF706F80077FF558AF51
:100CD000FFF7EEFC401B0228F6D9032002B0BDE866
:100CE000F08100BF0027C4F2472700203866FFF7D5
:100CF000DFFC022D05460DD13068800140F18A806D
:100D0000FFF7D6FC401B02284FF00300F4D902B0D5
:100D1000BDE8F0813068800173D5FFF7C9FC401B46
:100D200002284FF00300F5D9F1E700BF0021016070
:100D3000FFF7BEFC054600BF306880077FF51DAF9A
:100D4000FFF7B6FC401B02284FF00300F4D9DEE7A2
:100D500020F001003067306F002920F00400306778
:100D60007AD0FFF7A5FC054641F28837306F80073F
:100D700000F18480FFF79CFC401BB842F6D90320A9
:100D800002B0BDE8F08100BF20F4803030603068F0
:100D9000002920F4802030607AD0FFF789FC0546D6
:100DA000306880033FF5CAAEFFF782FC401B642821
:100DB000F6D9032002B0BDE8F08100BF7068E16998
:100DC00000F480028A4221D1216A00F03F028A4267
:100DD0001CD147F6C071626A0140B1EB821F15D188
:100DE000A16A4FF6FF73C903994300F44032A1F59D
:100DF00080318A420AD1E16A00F07060B0EB016F85
:100E000004D1002002B0BDE8F08100BF012002B093
:100E1000BDE8F08104F11C052FCD084340EA8210A3
:100E2000D9034FF6FF729143A1F5803140EA056086
:100E30000843706001203866FFF73AFC044600BFA3
:100E400030688001DDD4FFF733FC001B02284FF02F
:100E50000300F5D95BE700BFFFF72AFC054641F226
:100E6000883700BF306F800708D5FFF721FC401B93
:100E7000B8424FF00300F5D949E700BFB8F1000FC1
:100E80003FF581AE306C20F0805030647BE600BFCF
:100E9000FFF70EFC054600BF306880037FF54EAEBD
:100EA000FFF706FC401B64284FF00300F4D92EE73F
:100EB000704700007047000090F83C20012A04BFF2
:100EC00002207047B0B501F108053CCDD1E900CE54
:100ED00023F47C5322F470521A432EF4F0431A4345
:100EE0002CF4E0431A4324F4C0431A432A43C9694B
:100EF00022F48042036811435964002180F83C10B9
:100F00000020B0BD90F83C20012A4FF0020254D0DE
:100F100010B580F83D200268D2F804E0D2F808C08D
:100F20000C682EF07003234341F2FF74C4F20004F6
:100F3000A24253600EDC40F2FF73C4F200039A42F7
:100F400016DCB2F1804F2BD040F20043C4F2000314
:100F500024E000BF40F2FF33C4F201039A4213DCE5
:100F600041F60003C4F200039A4219D0002313E0B3
:100F700040F60003C4F200039A4211D040F6004349
:100F8000C4F200030AE000BF44F20003C4F201030C
:100F90009A4205D040F20043C4F201039A4204D1C0
:100FA00049682CF08003194391600121002280F8E8
:100FB0003D1080F83C20BDE810401046704700000E
:100FC000002804BF0120704710B5044690F83D008A
:100FD00028B9002084F83C00204600F01FF80220C9
:100FE00084F83D002068211D01F0D6FE012084F820
:100FF000460084F83E0084F83F0084F8400084F8FE
:10100000410084F8420084F8430084F8440084F8E6
:10101000450084F83D00002010BD000080B582B07E
:10102000006843F6FF71C4F20101884220DD44F2FA
:101030000001C4F20101884234D044F20041C4F2FC
:10104000010188423CD044F60001C4F2010188420B
:1010500045D10020019043F64400C4F2020001682B
:1010600041F480210160006800F4802035E000BF79
:1010700041F20001C4F20001884233D00021C4F2E1
:10108000010188422BD10020019043F64400C4F2B4
:101090000200016841F001010160006800F00100F8
:1010A0001BE000BF0020019043F64400C4F20200A0
:1010B000016841F480310160006800F480300CE088
:1010C0000020019043F64400C4F20200016841F49C
:1010D00000310160006800F400300190019802B016
:1010E00080BD00BF0020019043F64400C4F202001E
:1010F00050F8041C002241F0100140F8041C50F884
:10110000040C052100F01000019001983620FFF733
:101110008DFB362002B0BDE88040FFF775BB0000B4
:1011200090F83D1001291CBF01207047022180F872
:101130003D10006841F2FF72C168C4F200029042A3
:1011400041F00101C1600DDC40F2FF71C4F2000109
:10115000884215DCB0F1804F2AD040F20041C4F241
:10116000000123E040F2FF31C4F20101884213DCA8
:1011700041F60001C4F20001884219D0002113E0B9
:1011800040F60001C4F20001884211D040F600414F
:10119000C4F200010AE000BF44F20001C4F2010100
:1011A000884205D040F20041C4F20101884206D1D4
:1011B000816801F00701062904BF0020704701681B
:1011C00041F00101016000207047000090F83C20D0
:1011D000012A4FF002026CD080B580F83D20D0F893
:1011E00000C04FF67772DCF8083023EA0202CCF830
:1011F00008200B684F2B29DC1F2B45DD202B46D008
:10120000302B44D0402B40F0AF80D1F804E0C968C7
:10121000DCF82030DCF8202022F00102CCF820207D
:10122000DCF8182022F0F00242EA011123F00A0251
:1012300042EA0E02CCF81810CCF82020DCF8081096
:1012400041F0470121F0300128E000BF6F2B33DD72
:10125000B3F5005F74D0B3F5805F21D0702B40F000
:101260008380D1E901E3C968DCF8082043EA0E0372
:1012700022F47F4243EA01211143CCF80810DCF844
:10128000081041F0770109E00BB1102B6CD1DCF8AC
:10129000081021F07001194341F00701CCF8081043
:1012A0000022012180F83D10002180F83C10BDE8AB
:1012B00080401046704700BF502B21D0602B53D187
:1012C000D1F804E0C968DCF82030DCF8202022F0F6
:1012D0001002CCF82020DCF8182022F4704242EAF8
:1012E000013123F0A00242EA0E12CCF81810CCF81B
:1012F0002020DCF8081041F0670121F01001CDE753
:10130000D1F804E0C968DCF82030DCF8202022F0B5
:101310000102CCF82020DCF8182022F0F00242EA8A
:10132000011123F00A0242EA0E02CCF81810CCF8A0
:101330002020DCF8081041F0570121F02001ADE732
:10134000D1E901E3C968DCF8082043EA0E0322F47E
:101350007F4243EA01211143CCF80810DCF8081061
:1013600041F480419AE700BF01229AE7002804BFB8
:10137000012070472DE9F047044690F83D000D46E6
:1013800028B9002084F83C00204600F049F80220EB
:1013900084F83D00206844F207028168914381602F
:1013A000211D01F0F9FC20684FF6FF788168826901
:1013B000D0F820C0D5E9003ED5E9026A43EA010928
:1013C000AB6922EA080246EA03234FF6FC46B34320
:1013D000D5E9076742EA0A0229691A4342EA062266
:1013E00042EA01112CF0AA026B6942EA0E0241EABC
:1013F000073142EA0312C0F80890816102620120BD
:1014000084F8460084F83E0084F83F0084F84200E7
:1014100084F8430084F83D000020BDE8F087000018
:10142000F0B587B00068002100F140404FEAB020DD
:1014300003280691CDE904110391029100F2B680D0
:10144000DFE800F00284405C002443F630000194A1
:10145000C4F20200016940F2004741F0010101615C
:101460000169C4F2020701F001010191019901949F
:101470000168022541F0010101600168012601F0C7
:101480000101019101990194016841F0020101609B
:10149000006802A900F00200019001984FF400409A
:1014A0000290A7F58060CDE9035405940696FFF7F6
:1014B0002FF808213846CDE90215CDE904440696F7
:1014C0001C2468E0002043F630010190C4F20201C0
:1014D0000A691E2442F004020A610A6902F0040249
:1014E0000192019A01900A6842F002020A600968BA
:1014F00001F0020101910199C02142E0002043F670
:1015000030010190C4F202010A69322442F008025B
:101510000A610A6902F008020192019A01900A68C0
:1015200042F001020A60096801F00101019101998C
:10153000032102910221CDE90310CDE9050140F21A
:101540000040C4F20200A0F5806024E0002043F6D1
:1015500030010190C4F202010A691D2442F0020226
:101560000A610A6902F002020192019A01900A6876
:1015700042F002020A60096801F00201019101993A
:10158000302102910221CDE90310CDE9050140F29D
:101590000040C4F2020002A9FEF7BAFF204605216E
:1015A0000022FFF743F92046FFF72EF907B0F0BD00
:1015B00080B590F83E2090F83F3090F842E090F8E7
:1015C00043C004290AD0F9B9012A4FF0010208BF2B
:1015D000BEF1010F46D0104680BD00BF012B4FF079
:1015E000010208BFBCF1010FF5D1022180F83F10C4
:1015F00080F843100068016A21F010010162016A5D
:1016000041F0100101622AE0012A4FF0010208BFF7
:10161000012BE0D1BEF1010FDDD1BCF1010FDAD118
:10162000022280F83E2080F83F2080F8422080F897
:101630004320E1B10068016A21F001010162016A01
:1016400041F001010162016A21F010010162016AA9
:1016500041F010010162C16841F00201C160042142
:101660000FE000BF022180F83E1080F842100068B1
:10167000016A21F001010162016A41F00101016288
:101680000221C2681143C1600168002241F00101DA
:101690000160104680BD00007047000070B5044630
:1016A0000068C5680669B10716D515F0020113D0A8
:1016B0006FF002010161012121778069800703D069
:1016C0002046FFF7E9FF05E0204600F017F9204625
:1016D00000F056FA00202077700719D515F00400A5
:1016E00016D020686FF00401016102212177806922
:1016F00010F4407F04D02046FFF7CEFF06E000BF85
:10170000204600F0FBF8204600F03AFA002020774F
:10171000300717D515F0080014D020686FF00801C5
:10172000016104212177C069800703D02046FFF7BB
:10173000B3FF05E0204600F0E1F8204600F020FA73
:1017400000202077F00619D515F0100016D020687B
:101750006FF01001016108212177C06910F4407F0A
:1017600004D02046FFF798FF06E000BF204600F0B7
:10177000C5F8204600F004FA00202077F00718BFD3
:1017800015F0010002D1300609D412E020686FF094
:1017900001010161204600F07DFA300609D515F0FF
:1017A000800006D020686FF0800101612046FFF7BD
:1017B0007FFB700609D515F0400006D020686FF059
:1017C00040010161204600F03BFBB00658BF70BDF0
:1017D00015F0200008D021686FF0200220460A6131
:1017E000BDE87040FFF766BB70BD000080B586B0F5
:1017F000006844F2FF31C4F2010188424FF0000159
:101800000591CDE90311CDE901111DDC0021C4F2E0
:101810000101884236D044F20001C4F2010188423D
:101820006AD10020009043F63000C4F20200016843
:1018300041F0100101600068032100F010000090E9
:101840000098602030E000BF44F20041C4F2010182
:10185000884231D044F60001C4F2010188424BD1E4
:101860000020009043F63000C4F20200016841F00D
:1018700002010160006800F00200009000984FF43F
:1018800000702AE00020009043F63000C4F202000D
:10189000016841F0100101600068012100F01000B2
:1018A000009000984FF4D440019040F20040C4F200
:1018B000020000F5406016E00020009043F6300082
:1018C000C4F20200016841F002010160006800F00A
:1018D0000200009000984FF48070019040F20040A8
:1018E0000321C4F20200022202920022059101A902
:1018F000CDE90322FEF70CFE06B080BD7047000064
:1019000090F83C30012B04BF022070474FEAB2022E
:10191000032A00F2FF802DE9F043DFE802F003B173
:101920003F7F00BF036840F200461C6A1A6A24F039
:10193000020422F001021A621A46D3F804C052F8D7
:1019400018EF8F6843F48065C4F20106B54244EA9B
:10195000070405D1CF6824F00C0427F004073C43AA
:101960000F68B54206D1D1E905582CF440762E43D4
:1019700046EA080C2EF073063743C3F804C09F6193
:101980004F6809695F631C629F6947F008079F61A0
:101990009F6927F004079F61B1E000BF036840F230
:1019A00000481C6A1A6A24F4007422F480721A62D5
:1019B0001A46D3F804C052F81CEF8F6843F48065D0
:1019C000C4F20108454544EA072408D1CF6840F233
:1019D000FF463F0224F4406427EA06063443D1F868
:1019E0000090454506D1D1E905562CF440572E43C9
:1019F00047EA061C2EF0730747EA0907C3F804C03C
:101A0000DF614F680969DF631C62DF6947F008071F
:101A1000DF61DF6927F00407DF6170E0036840F2EF
:101A20000045D3F820C01A6A43F4806722F480523C
:101A30001A621A465C6852F81C8FD1F800E08E6872
:101A4000C4F20105AF4204D14D6924F4804444EA54
:101A500085142CF4005747EA063728F4E64646EA90
:101A60000E265C60DE614E6809691E641F62DF69D4
:101A700047F40067DF61DF6927F48067DF613DE0DD
:101A8000036840F200481C6A1A6A24F0200422F01D
:101A900010021A621A46D3F804C052F818EF8F6881
:101AA00043F48065C4F20108454544EA071407D1B0
:101AB000CF686FF0400624F0C00406EA07163443EE
:101AC000D1F80090454506D1D1E905562CF4406780
:101AD0002E4347EA860C2EF4E64747EA0927C3F867
:101AE00004C09F614F6809699F631C629F6947F446
:101AF00000679F619F6927F480679F6109021368EF
:101B0000194311600021BDE8F043002280F83C2019
:101B1000084670470121002280F83C2008467047A3
:101B2000002804BF0120704710B5044690F83D001E
:101B300028B9002084F83C00204600F01FF802205D
:101B400084F83D002068211D01F026F9012084F869
:101B5000460084F83E0084F83F0084F8400084F892
:101B6000410084F8420084F8430084F8440084F87B
:101B7000450084F83D00002010BD000070470000C3
:101B800070470000C1B1042908D0082914BF4122C0
:101B90004022825C012A05D016E000BF3F22825C11
:101BA000012A11D10222082910D0042914BF80F87B
:101BB000412080F83F200BE090F83E20012A03D11D
:101BC000022280F83E2003E00120704780F8402088
:101BD000006801F01F010122036A02FA01F123EA01
:101BE00001020262026A114341F2FF72C4F2000272
:101BF000904201620CDC40F2FF71C4F200018842A5
:101C000014DCB0F1804F37D040F2004116E000BF45
:101C100040F2FF31C4F20101884215DC41F60001B7
:101C2000C4F20001884227D0002115E040F60001EF
:101C3000C4F2000188421FD040F60041C4F2000106
:101C4000884219D01FE000BF44F20001C4F2010134
:101C5000884211D040F20041C4F20101884212D101
:101C6000416C40F2004340F48062C4F2010341F44D
:101C700000419A42416406D1816801F007010629BA
:101C800004BF00207047016841F00101016000209D
:101C90007047000010B52DED028B0446006841F23C
:101CA0000041C4F20001884202D1FEF707FD20681E
:101CB00000F140404FEAB020042815D8DFE800F0DA
:101CC00004A87C92180000BF40F2DC20C2F20000A1
:101CD0000068026840F21C50C2F20000016DD2069A
:101CE00054BF013101390165BDEC028B10BD00BF4D
:101CF00040F2DC20C2F20000006840F21C54C2F244
:101D00000004416A226D9FED4D8A01EB024221469B
:101D100004F1200041F8542F04F16402B0EE480AA7
:101D2000012301F0F9FB40F22430C2F20000006808
:101D3000B0EE480A406AD4F8E010012300EB0140FD
:101D400044F8E40FA4F1340004F11002214601F03C
:101D5000E3FB40F26C30C2F200000068B0EE480ACB
:101D6000416AD4F88C2004F15C0001EB0241C4F814
:101D7000901004F1900104F1A002012301F0CCFBCA
:101D800040F2B430C2F200000068B0EE480A416A86
:101D9000D4F81C2104F1EC0001EB024C04F5907125
:101DA00004F598720123C4F820C1BDEC028BBDE894
:101DB000104001F0B1BB00BF40F26C30C2F2000035
:101DC0000068026840F21C50C2F20000D0F87011A6
:101DD000D2064CBF01390131C0F87011BDEC028B45
:101DE00010BD00BF40F2B430C2F2000000680268CB
:101DF00040F21C50C2F20000D0F80012D2064CBFD4
:101E000001390131C0F80012BDEC028B10BD00BFDA
:101E100040F22430C2F200000068026840F21C5018
:101E2000C2F20000D0F8E010D2064CBF01390131F7
:101E3000C0F8E010BDEC028B10BD00BF6666663FC7
:101E4000704700007047000070470000B0B582B0D6
:101E500001680A68CC684B6902F02F05202D04F058
:101E6000200505D125B102B0BDE8B04001F03CB875
:101E70005FEA027C1EBF03F0010E04F4907313EBC3
:101E80000E0341D1036BD50618D5012B16D114F0E2
:101E9000100313D0002201920A6801924A6801924D
:101EA000019A496949064BD4818DC28DC38D002B9F
:101EB00018BF914240F0F48102B0B0BD13062DD599
:101EC00014F080032AD090F84120212AF4D18268AE
:101ED000B2F5805F03D10269002A00F06782026ACE
:101EE000531C036212784A60C28C013A1304C28404
:101EF000E2D1C86820F08000C860C86840F04000A7
:101F0000C86002B0B0BD00BFD30718BF14F480731F
:101F100040F0D080530700F1D380D8E05206CBD5F3
:101F200014F04002C8D0CA6822F04002CA602021E2
:101F300080F8411002B0BDE8B04000F033BB00BFF4
:101F4000C16B0A68526893B2002BB5D0858DAB4245
:101F5000B2D2C285C969B1F5807F00F0A080016866
:101F600051E8031F026821F4807142E80313DBB1DA
:101F7000016851E8031F026821F4807142E80313ED
:101F800093B1016851E8031F026821F4807142E8AF
:101F900003134BB1016851E8031F026821F48071FB
:101FA00042E80313002BDAD1016851E8051F0268EB
:101FB00021F0010142E80513BBB3016851E8051F98
:101FC000026821F0010142E8051373B3016851E88A
:101FD000051F026821F0010142E805132BB30168D7
:101FE00051E8051F026821F0010142E80513002BAA
:101FF000DAD11AE0016851E8051F026821F04001BA
:1020000042E80513DBB1016851E8051F026821F0C1
:10201000400142E8051393B1016851E8051F0268C9
:1020200021F0400142E805134BB1016851E8051F5A
:10203000026821F0400142E80513002BDAD120218B
:1020400080F8421000210163016851E8031F026813
:1020500021F0100142E80313DBB1016851E8031FCE
:10206000026821F0100142E8031393B1016851E8BE
:10207000031F026821F0100142E803134BB101680D
:1020800051E8031F026821F0100142E80313002BFE
:10209000DAD1C16B04460846FEF7E0F9204602217A
:1020A0004163818DC28D891A89B202B0BDE8B0400A
:1020B000FFF7C8BE436C43F001034364530706D5E2
:1020C000BEF1000F03D0436C43F002034364930757
:1020D00006D5BEF1000F03D0436C43F00403436404
:1020E000BCF1000F06D55EEA050303D0436C43F054
:1020F00008034364436C002B3FF4DEAE920605D523
:1021000025B1044600F0F0FE216820464969426C82
:1021100001F0400102F00802891800F0B98000BF08
:10212000016851E8031F026821F4907142E803132B
:10213000BBB3016851E8031F026821F4907142E8C3
:10214000031373B3016851E8031F026821F490710F
:1021500042E803132BB3016851E8031F026821F41E
:10216000907142E80313002BDAD11AE0016851E8BC
:10217000051F026821F0010142E80513DBB1016887
:1021800051E8051F026821F0010142E8051393B1EF
:10219000016851E8051F026821F0010142E80513BA
:1021A0004BB1016851E8051F026821F0010142E8C6
:1021B0000513002BDAD1016B012924D1016851E804
:1021C000031F026821F0100142E80313DBB101682C
:1021D00051E8031F026821F0100142E8031393B194
:1021E000016851E8031F026821F0100142E803135F
:1021F0004BB1016851E8031F026821F0100142E869
:102200000313002BDAD1202180F842100021016352
:1022100001684969490640F1C380016851E8051F1A
:10222000026821F0400142E80513DBB1016851E882
:10223000051F026821F0400142E8051393B10168CF
:1022400051E8051F026821F0400142E805134BB137
:10225000016851E8051F026821F0400142E80513BA
:10226000002BDAD1C16B002900F09A8042F6DD62C2
:10227000C0F60002044608460A65FEF737F9002852
:102280003FF41AAEE06B016D02B0BDE8B040084704
:102290000446FFF7D9FD0020606402B0B0BD00BF66
:1022A000891A00BF026852E8032F036822F4907273
:1022B00043E80325BDB3026852E8032F036822F404
:1022C000907243E8032575B3026852E8032F036850
:1022D00022F4907243E803252DB3026852E8032FDD
:1022E000036822F4907243E80325002DDAD11AE046
:1022F000026852E8052F036822F0010243E8052531
:10230000DDB1026852E8052F036822F0010243E8BC
:10231000052595B1026852E8052F036822F00102F5
:1023200043E805254DB1026852E8052F036822F005
:10233000010243E80525002DDAD1202280F8422051
:1023400000220263026852E8032F036822F01002A1
:1023500043E80325DDB1026852E8032F036822F049
:10236000100243E8032595B1026852E8032F036881
:1023700022F0100243E803254DB1026852E8032F12
:10238000036822F0100243E80325002DDAD102226F
:1023900089B2426302B0BDE8B040FFF753BD00BF51
:1023A00002B0BDE8B040FFF74FBD00BF026A32F88F
:1023B000023B6FF35F234B60026295E5002804BF88
:1023C0000120704710B5044690F8410028B900205C
:1023D00084F84000204600F021F8242084F84100D1
:1023E0002068C16821F40051C160204600F0FCFD66
:1023F0002068016921F490410161416921F02A01BD
:102400004161C16841F40051C16000202021606435
:1024100084F8411084F84210606310BD80B586B026
:1024200044F200410068C4F2000100228842059293
:10243000CDE903220292019202D006B080BD00BF16
:1024400043F630000092C4F20200036943F4003303
:102450000361036903F400330093009B0092036857
:1024600043F008030360006800F008000090009843
:10247000602001900220CDE9020203200490072091
:10248000059001F5E43001A9FEF742F82620052168
:102490000022FEF7CBF92620FEF7B6F906B080BD84
:1024A00090F84230202B07D100294FF0010318BFCC
:1024B000002A05D11846704702231846704700BF0E
:1024C00000230363816222218285C285436480F8F0
:1024D00042100169006819B1C16841F48071C1609E
:1024E000416941F001014161C16841F02001C160D1
:1024F00018467047006844F20041C4F20001884267
:1025000000D0704740F25010C2F200000178A529B7
:1025100002D10122427003E04278012A18BF7047BD
:102520002DE9F043B0F90220531C9EB202440C2E58
:102530004380117432D1C27E00215A2A41704180F9
:102540002CD1417C90F812C090F8138090F814E0E0
:10255000614408EB0102417D72448D18827DC47D87
:1025600015446719057E467E2F443744837EFFB2AB
:102570009F4213D100F1100999E888024EEA012127
:10258000418542EA042143604CEA0823818545EAFB
:1025900006218760C0F80C900385C185BDE8F04333
:1025A0007047000070470000FEE7000080B588B06B
:1025B0000B4802AF01900AA000F1040E9EE80E50F5
:1025C000806987E80E50079001A8002101F04AFCBD
:1025D00040F2B411C2F20001086008B080BD00BF33
:1025E00088530008F13C00080000000000000000D3
:1025F00080000000000000000000000081B0002109
:1026000043F630000091C4F20200026842F010026A
:102610000260026802F010020092009A00910268C3
:1026200042F080020260026802F080020092009A8A
:102630000091026842F001020260026802F00102A9
:102640000092009A0091026842F00802026002685B
:1026500002F008020092009A0091016841F0020124
:102660000160006800F002000090009801B070471F
:1026700080B588B040F24C2044F200420021C2F202
:102680000000C4F2010244F29F13CDE90611CDE926
:102690000411C0E90021C0E9021301618161FEF764
:1026A0008FFC002818BFFDF7D5FE40F24C20C2F287
:1026B0000000FFF735FA002818BFFDF7CBFE6020B9
:1026C00001900020CDE90200059040F24C20C2F2BA
:1026D000000001A90022FFF713F9002818BFFDF739
:1026E000B9FE40F24C20C2F20000FFF77FF808B0BC
:1026F00080BD000080B588B040F2942044F600020E
:102700000021C2F20000C4F2010244F29F13CDE99D
:102710000611CDE90411C0E90021C0E902130161ED
:102720008161FEF74DFC002818BFFDF793FE40F2D3
:102730009420C2F20000FFF7F3F9002818BFFDF75C
:1027400089FE602001900020CDE90200059040F252
:102750009420C2F2000001A90022FFF7D1F800285E
:1027600018BFFDF777FE40F29420C2F20000FFF799
:102770003DF808B080BD000010B596B040F20420CE
:1027800000220021C2F20000C4F2010244F29F13B1
:102790001591CDE913111191CDE90F11CDE90D116D
:1027A000CDE90B11CDE90911CDE90711CDE90511ED
:1027B000CDE90311CDE90111C0E90021C0E90213FF
:1027C000C0E904118161FEF7FBFB002818BFFDF78B
:1027D00041FE4FF48050129040F20420C2F20000FB
:1027E00012A9FEF7F3FC002818BFFDF733FE40F2F4
:1027F0000420C2F20000FFF793F9002818BFFDF78C
:1028000029FE40F204200024C2F2000010A9CDE904
:102810001044FEF777FB002818BFFDF71BFE602071
:10282000CDE9090440F20420C2F2000009A9002207
:10283000CDE90B44CDE90D440F94FFF761F8002872
:1028400018BFFDF707FE40F20420C2F2000009A9FC
:102850000422FFF755F8002818BFFDF7FBFD40F2F2
:102860000420C2F2000009A90822FFF749F8002855
:1028700018BFFDF7EFFD40F20420C2F2000009A9E5
:102880000C22FFF73DF8002818BFFDF7E3FD0020FC
:102890000590CDE90300CDE901004FF40051089007
:1028A00040F204200691C2F2000001A9FEF704FBE9
:1028B000002818BFFDF7CEFD40F20420C2F2000050
:1028C000FEF794FF16B010BD80B58CB040F2DC204E
:1028D0000021C2F200004FF080424FF6FF73C0E9C2
:1028E00000210322C0E90213CDE9032101220A23BA
:1028F000CDE9001101618161CDE90521CDE9073103
:10290000CDE9092103A90B93FEF730FD002818BF7C
:10291000FDF7A0FD40F2DC20C2F200006946FEF7A0
:10292000F1FA002818BFFDF795FD0CB080BD00003E
:1029300080B58CB040F2243040F200420021C2F257
:102940000000C4F200024FF6FF73C0E90021032229
:10295000C0E90213CDE9032101220A23CDE90011C8
:1029600001618161CDE90521CDE90731CDE9092179
:1029700003A90B93FEF7FAFC002818BFFDF76AFDC8
:1029800040F22430C2F200006946FEF7BBFA00288C
:1029900018BFFDF75FFD0CB080BD000080B58CB0A6
:1029A00040F26C3040F600020021C2F20000C4F296
:1029B00000024FF6FF73C0E900210322C0E90213B1
:1029C000CDE9032101220A23CDE9001101618161D2
:1029D000CDE90521CDE90731CDE9092103A90B9303
:1029E000FEF7C4FC002818BFFDF734FD40F26C3040
:1029F000C2F200006946FEF785FA002818BFFDF70D
:102A000029FD0CB080BD000080B58CB040F2B43020
:102A100040F600420021C2F20000C4F200024FF66C
:102A2000FF73C0E900210322C0E90213CDE90321AD
:102A300001220A23CDE9001101618161CDE905215F
:102A4000CDE90731CDE9092103A90B93FEF78EFCEF
:102A5000002818BFFDF7FEFC40F2B430C2F20000BF
:102A60006946FEF74FFA002818BFFDF7F3FC0CB0DB
:102A700080BD000080B582B040F2FC3041F200021F
:102A80000021C2F20000C4F20002532340F2E73CEE
:102A9000CDE90011C0E90023C0E9021C8161FEF705
:102AA0008FFA002818BFFDF7D5FC40F2FC30C2F2C7
:102AB00000006946FEF726FA002818BFFDF7CAFC99
:102AC00002B080BD80B58CB040F28C4044F2000270
:102AD0000021C2F20000C4F2010244F29F130B91E4
:102AE000CDE909110791CDE90511CDE90311CDE932
:102AF0000111C0E90021C0E9021301618161FEF703
:102B00005FFA002818BFFDF7A5FC4FF4805008902D
:102B100040F28C40C2F2000008A9FEF757FB0028E3
:102B200018BFFDF797FC40F28C40C2F20000FEF7A0
:102B3000F7FF002818BFFDF78DFC602001900020F2
:102B4000CDE90200059040F28C40C2F2000001A9DC
:102B50000022FEF7D5FE002818BFFDF77BFC40F2EF
:102B60008C40C2F2000001A90422FEF7C9FE002831
:102B700018BFFDF76FFC40F28C40C2F20000FEF778
:102B800035FE0CB080BD000080B540F2D44044F268
:102B90000041C2F20000C4F2000100234FF00C0C0F
:102BA0004FF4165280E80E00C0E90333C0E905C3B4
:102BB000C361FFF703FC002808BF80BDBDE880406B
:102BC000FDF748BCFEE70000FEE700000000000043
:102BD000EFF30980BFF36F8F154B1A681EF0100FCB
:102BE00008BF20ED108A20E9F04F10602DE90900A0
:102BF0004FF0500080F31188BFF34F8FBFF36F8FFA
:102C000001F07CFE4FF0000080F31188BDE8090060
:102C100019680868B0E8F04F1EF0100F08BFB0EC5C
:102C2000108A80F30988BFF36F8F704700BF00BF21
:102C3000B0000020000000000000000000000000C4
:102C4000074B19680868B0E8F04F80F30988BFF3B4
:102C50006F8F4FF0000080F31188704700BF00BFF6
:102C6000B000002080B54FF0500080F31188BFF312
:102C70006F8FBFF34F8F01F0B9FF30B14EF60450A4
:102C8000CEF200004FF080510160002080F31188E7
:102C900080BD000070B592B006AC20463021FDF733
:102CA00071FB002543F640000595CDE90355CDE9BC
:102CB00001550095C4F202000168022641F08051DE
:102CC0000160006800F080500090009847F200001A
:102CD0000095C4F20000016841F480410160006881
:102CE000A82100F4804000900098012006904FF445
:102CF000803007904FF480000D9004200E901190CA
:102D000020460C96CDE90F16FDF7FCFE10B172B609
:102D1000FEE700BF0F20CDE901064FF4A05004905C
:102D20004FF48050059001A805210395FDF7BAFDE9
:102D300010B172B6FEE700BF12B070BD4EF68850FB
:102D4000CEF20000016841F470010160704700009C
:102D500040F2DC20C2F20000FEF7A0BC40F22430BA
:102D6000C2F20000FEF79ABC40F26C30C2F20000E2
:102D7000FEF794BC40F2B430C2F20000FEF78EBC05
:102D800040F2FC30C2F20000FEF788BC40F2444042
:102D9000C2F20000FEF782BC10B540F6FF3E0368A9
:102DA000C4F2000E40F2004C7045C4F2010C25DC68
:102DB000B0F1804F2FD040F20042C4F200029042A6
:102DC00029D040F60002C4F20002904223D041F61E
:102DD000FF72C4F20002904227DC70453ADCB0F189
:102DE000804F5BD040F20042C4F20002904255D0C6
:102DF00040F60002C4F200024EE000BF40F600427E
:102E0000C4F20002904206D0604504D00022C4F211
:102E100001029042DBD14A6823F07003134341F66C
:102E2000FF72C4F200029042D7DD43F6FF72C4F293
:102E30000102904220DC42F20002C4F20002904201
:102E40002CD00022C4F20102904227D0604525D048
:102E500028E000BF40F60042C4F2000290421DD0BC
:102E600041F60002C4F20002904217D041F600423F
:102E7000C4F2000210E000BF44F20002C4F20102FA
:102E800090420BD044F60002C4F20102904205D0F9
:102E900044F20042C4F20102904203D1CA6823F412
:102EA0004073134323F080024B69D1F800E08C6833
:102EB0001A430260C46240F48062C0F828E06245B0
:102EC00004BF09690163012141610169C90708BFA4
:102ED00010BD016921F00101016110BD806B00216D
:102EE000C185C184FEF7B0BF81B090F8421022299D
:102EF00021D183680246B3F5805F09D152F8281FBB
:102F000052F8183C002B63D003685B680AE000BFEE
:102F100052F8281F13B90369002BF5D003685B68CA
:102F200003F07F030B70116801311160C18D01390D
:102F30000A04C18502D001B0704700BF0168CA68A9
:102F400022F02002CA60CA6822F48072CA604A690C
:102F500022F001024A61202180F8421000214163E1
:102F6000026B012A3CD10163016851E8031F02682A
:102F700021F0100142E80313DBB1016851E8031F9F
:102F8000026821F0100142E8031393B1016851E88F
:102F9000031F026821F0100142E803134BB10168DE
:102FA00051E8031F026821F0100142E80313002BCF
:102FB000DAD101680A68D20606D5002200920A68B2
:102FC0000092496800910099818D01B0FEF73ABFE7
:102FD000026852686FF35F2221F8022B8162A5E735
:102FE00001B0FFF787BA0000B0B50446006804F1ED
:102FF00008030ECB0569194325F440552A430261A5
:103000006269E3691143C268194349F20C639A4348
:103010001143C1604169A26921F4407141F200434A
:10302000114340F48062C4F201039A42416103D12A
:10303000FDF71EFD02E000BFFDF706FDE1694FF65A
:103040009C7563681922C0F6FF75B1F5004FA0FBAF
:1030500002011FD15A00DB0FFDF71CF948F21F5186
:10306000C5F2EB11A0FB01235A0905F1805302FBC5
:103070000300322303EBC000A0FB01014FF4F87002
:1030800000EA111000EB0210C1F34211084421685C
:103090008860B0BD9A009B0FFDF7FCF848F21F5105
:1030A000C5F2EB11A0FB01235A0902FB05003223F4
:1030B00003EB0010A0FB0101F02000EA511000EB2F
:1030C0000210C1F34311084421688860B0BD0000BC
:1030D00010B540F2D444C2F200042046FEF7B6FE1A
:1030E00040F25011C2F2000120460122BDE810401A
:1030F000FFF7D6B9FEE700002DE9F0412DED048B76
:1031000040F6101840F208059FED498A9FED499A54
:10311000C2F20008C2F20005414600222B46B0EE82
:10312000480AF0EE490A044600F030F940F26076B1
:1031300005F10C07C2F200062046314600223B464C
:10314000B0EE480AF0EE490A00F020F908F1480113
:10315000204600222B46B0EE480AF0EE490A00F065
:1031600015F906F14801204600223B46B0EE480A18
:10317000F0EE490A00F00AF908F190012046002219
:103180002B46B0EE480AF0EE490A00F0FFF806F1CF
:103190009001204600223B46B0EE480AF0EE490A74
:1031A00000F0F4F808F1D801204600222B46B0EEDA
:1031B000480AF0EE490A00F0E9F806F1D801204685
:1031C00000223B46B0EE480AF0EE490A00F0DEF875
:1031D0009FED1A8A40F630219FED170A05F118037A
:1031E000C2F2000120460022F0EE480A00F0CEF8BC
:1031F00040F6800105F12403C2F2000120460022BE
:10320000B0EE480AF0EE480A00F0C0F840F6C801F7
:1032100005F13003C2F2000120460022B0EE480A58
:10322000F0EE480ABDEC048BBDE8F04100F0AEB80A
:10323000003E834600409C4500803B450080BB44E7
:1032400000294FD0087891ED0F1A91ED102A81EDE9
:10325000070A30EEC00A0028C1ED060A81ED0F0A08
:1032600081ED101A81ED112A40D0012840F08880AC
:1032700091ED015A91ED026A30EE414A31EE011AA8
:1032800091ED037A24EE054A20EE065A30EE410A0B
:1032900032EE000AD1E90C2081ED0C0A20EE070A7B
:1032A00034EE051A91ED082A91ED043A81ED0B0AEE
:1032B00031EE000A32EE000AB4EE430AF1EE10FAE3
:1032C00081ED094A81ED0A5AC1E90D2081ED080A14
:1032D000C2BF81ED083AB0EE430A7047B1EE431A1F
:1032E00043E000BF9FED280A704700BF91ED024AFE
:1032F00091ED0A6A91ED012A91ED053A24EE004A1A
:1033000091ED035A34EE064A20EE022AD1E90C2050
:1033100030EE410AB4EE434A81ED0C0A20EE050A74
:10332000F1EE10FA81ED092A81ED0A4AC1E90D207A
:1033300081ED0B0A06DCB1EE433AB4EE434AF1EEFE
:1033400010FA03DAB0EE434A81ED0A3A32EE042A6B
:1033500091ED041A30EE020AB4EE410AF1EE10FAD1
:1033600081ED080A07DCB1EE411AB4EE410AF1EE34
:1033700010FAA8BF7047B0EE410A81ED081A7047F5
:1033800091ED080A704700BF00000000002918BF37
:10339000002B01D1704700BF80B50A7018684860E3
:1033A00058688860986881ED040AC860C1ED050A14
:1033B00001F120002821FCF7E5FF80BD10B540F2A7
:1033C0001C5201EBC10040F61011C2F20002C2F221
:1033D000000102EB0012F0EE400A92ED1E0A01EB32
:1033E000C00440F25C70C2F200002146FFF728FFE3
:1033F00094ED080A10BD00000B46002948BF4B425F
:1034000010B502699342A8BF13460129A2EB030E2F
:103410000EDBD0E90013096893B3082B1AD0042BF4
:1034200014BF40233823CA50C168B9B92DE000BF8A
:10343000D0E90034B1F1FF3FD3F800C02CDDBCB3BC
:10344000082C31D0042C14BF402138214CF8012025
:1034500037E000BF3C23CA50C168B1B1082909D088
:10346000042914BF402138218068006840F801E039
:1034700010BD00BF3C218068006840F801E010BD2D
:103480003423CA50C1680029E8D13421806800681B
:1034900040F801E010BD00BF84B1082C0CD0042C12
:1034A00014BF402138210AE03C214CF8012008E0FB
:1034B00034214CF8012004E03C2100E034214CF898
:1034C00001E0C16841B1082904D0042914BF40219A
:1034D000382102E03C2100E03421964680680068F3
:1034E00040F801E010BD000070B51C46049E80E865
:1034F0000E00CB68E568C660AB4288BF1D4605611B
:1035000008461146FEF73EFB20463146BDE87040B6
:10351000FEF738BB000000002DE9F0472DED028BCF
:1035200004464079984240F0E482D1E90050914647
:10353000CA68281A1E4603464EF65F2748BF434214
:10354000BB4288BF002000EB0208B0EE408AC1E910
:1035500002088A4601F0D2FD07464FF47A70B0FBAC
:10356000F6F00E4601F0E1FD9FED130B53EC102B2E
:1035700001F0EEFD3A46334601F0EAFD9FED100BF7
:1035800053EC102B01F0E4FD9FED0F0B53EC102BCF
:1035900001F058FC01F024FC2179CAF8045004EB36
:1035A00081020131CBB20A2B2171906040F0A882D8
:1035B0000EE000BF00BF00BF0000000000004E4052
:1035C000000000000000D03F0000000000407F40ED
:1035D00094ED020A94ED031A0020B4EE410AF1EED4
:1035E00010FAC6BF84ED021A84ED030AB0EE410A58
:1035F00094ED041AB4EE410AF1EE10FAC6BF84ED60
:10360000031A84ED040AB0EE410A94ED051AB4EEF3
:10361000410AF1EE10FAC6BF84ED041A84ED050AE2
:10362000B0EE410A94ED061AB4EE410AF1EE10FA3A
:10363000C6BF84ED051A84ED060AB0EE410A94ED8A
:10364000071AB4EE410AF1EE10FAC6BF84ED061A6D
:1036500084ED070AB0EE410A94ED081AB4EE410A6F
:10366000F1EE10FAC6BF84ED071A84ED080AB0EE39
:10367000410A94ED091AB4EE410AF1EE10FAC6BF00
:1036800084ED081A84ED090AB0EE410A94ED0A1A95
:10369000B4EE410AF1EE10FAC6BF84ED091A84EDCA
:1036A0000A0AB0EE410A94ED0B1AB4EE410AF1EEAB
:1036B00010FAC4BF84ED0A1A84ED0B0A94ED020AD5
:1036C00094ED031AB4EE410AF1EE10FAC6BF84ED90
:1036D000021A84ED030AB0EE410A94ED041AB4EE26
:1036E000410AF1EE10FAC6BF84ED031A84ED040A14
:1036F000B0EE410A94ED051AB4EE410AF1EE10FA6B
:10370000C6BF84ED041A84ED050AB0EE410A94EDBB
:10371000061AB4EE410AF1EE10FAC6BF84ED051A9E
:1037200084ED060AB0EE410A94ED071AB4EE410AA0
:10373000F1EE10FAC6BF84ED061A84ED070AB0EE6A
:10374000410A94ED081AB4EE410AF1EE10FAC6BF30
:1037500084ED071A84ED080AB0EE410A94ED091AC7
:10376000B4EE410AF1EE10FAC6BF84ED081A84EDFA
:10377000090AB0EE410A94ED0A1AB4EE410AF1EEDC
:1037800010FAC4BF84ED091A84ED0A0A94ED020A06
:1037900094ED031AB4EE410AF1EE10FAC6BF84EDBF
:1037A000021A84ED030AB0EE410A94ED041AB4EE55
:1037B000410AF1EE10FAC6BF84ED031A84ED040A43
:1037C000B0EE410A94ED051AB4EE410AF1EE10FA9A
:1037D000C6BF84ED041A84ED050AB0EE410A94EDEB
:1037E000061AB4EE410AF1EE10FAC6BF84ED051ACE
:1037F00084ED060AB0EE410A94ED071AB4EE410AD0
:10380000F1EE10FAC6BF84ED061A84ED070AB0EE99
:10381000410A94ED081AB4EE410AF1EE10FAC6BF5F
:1038200084ED071A84ED080AB0EE410A94ED091AF6
:10383000B4EE410AF1EE10FAC4BF84ED081A84ED2B
:10384000090A94ED020A94ED031AB4EE410AF1EE6E
:1038500010FAC6BF84ED021A84ED030AB0EE410AE5
:1038600094ED041AB4EE410AF1EE10FAC6BF84EDED
:10387000031A84ED040AB0EE410A94ED051AB4EE81
:10388000410AF1EE10FAC6BF84ED041A84ED050A70
:10389000B0EE410A94ED061AB4EE410AF1EE10FAC8
:1038A000C6BF84ED051A84ED060AB0EE410A94ED18
:1038B000071AB4EE410AF1EE10FAC6BF84ED061AFB
:1038C00084ED070AB0EE410A94ED081AB4EE410AFD
:1038D000F1EE10FAC4BF84ED071A84ED080A94EDE6
:1038E000020A94ED031AB4EE410AF1EE10FAC6BFD3
:1038F00084ED021A84ED030AB0EE410A94ED041A35
:10390000B4EE410AF1EE10FAC6BF84ED031A84ED5D
:10391000040AB0EE410A94ED051AB4EE410AF1EE44
:1039200010FAC6BF84ED041A84ED050AB0EE410A10
:1039300094ED061AB4EE410AF1EE10FAC6BF84ED1A
:10394000051A84ED060AB0EE410A94ED071AB4EEAA
:10395000410AF1EE10FAC4BF84ED061A84ED070A9D
:1039600094ED020A94ED031AB4EE410AF1EE10FA56
:10397000C6BF84ED021A84ED030AB0EE410A94ED4D
:10398000041AB4EE410AF1EE10FAC6BF84ED031A30
:1039900084ED040AB0EE410A94ED051AB4EE410A32
:1039A000F1EE10FAC6BF84ED041A84ED050AB0EEFC
:1039B000410A94ED061AB4EE410AF1EE10FAC4BFC2
:1039C00084ED051A84ED060A94ED020A94ED031ABB
:1039D000B4EE410AF1EE10FAC6BF84ED021A84ED8E
:1039E000030AB0EE410A94ED041AB4EE410AF1EE76
:1039F00010FAC6BF84ED031A84ED040AB0EE410A42
:103A000094ED051AB4EE410AF1EE10FAC4BF84ED4C
:103A1000041A84ED050A94ED020A94ED031AB4EE3B
:103A2000410AF1EE10FAC6BF84ED021A84ED030AD2
:103A3000B0EE410A94ED041AB4EE410AF1EE10FA28
:103A4000C4BF84ED031A84ED040A94ED020A94EDD8
:103A5000031AB4EE410AF1EE10FAC4BF84ED021A63
:103A600084ED030A94ED040A94ED051A94ED062AF8
:103A700094ED073A30EE010A94ED084A30EE020A5E
:103A800094ED095A30EE030A30EE040A30EE050ACE
:103A9000B1EE081A80EE010A01EE108AB8EEC11AE2
:103AA000B5EE002A9FED1A3A21EE022A82EE032A91
:103AB00099ED043AB7EE004A34EE484A24EE033A50
:103AC00089ED061A207128EE000A30EE030AB3EEE3
:103AD0000E3A80EE034A81EE035A89ED040A82EE23
:103AE000033A89ED082A89ED054A89ED075A89EDDF
:103AF000093A01306071BDEC028BBDE8F08700BF70
:103B0000002001306071BDEC028BBDE8F08700BF82
:103B10000000FA4310B50446016008460021FDF795
:103B200047FD20680421BDE81040FDF741BD0000BD
:103B3000B0B540F21C5540F25C70C2F20005C2F212
:103B4000000095ED000A441C20460021FFF736FCDA
:103B500095ED241A85ED020A2046B0EE410A0121B6
:103B6000FFF72CFC95ED481A85ED260A2046B0EEAD
:103B7000410A0221FFF722FC95ED6C1A85ED4A0AF5
:103B80002046B0EE410A0321FFF718FC95ED021A1A
:103B900085ED6E0ABDEEC10A10EE101A05F10C009B
:103BA000FFF72AFC95ED260A05F19C00BDEEC00A40
:103BB00010EE101AFFF720FC95ED4A0A05F59670F5
:103BC000BDEEC00A10EE101AFFF716FC95ED6E0A56
:103BD00005F5DE70BDEEC00A10EE101ABDE8B0406B
:103BE000FFF70ABC01684268806800EE102A01EE07
:103BF000101A03EE100AB0EE084A30EE412A23EE06
:103C0000043A40F21C5033EE022AC2F2000080ED6A
:103C1000002A30EE012A31EE400A33EE000A33EE7C
:103C2000024A80ED480A33EE420A80ED244A80EDD4
:103C30006C0A704790F84810012927D0002918BF56
:103C4000704740F26011C2F20001B1F91820B1F9D9
:103C50001A3000EE102A9FED213AB1F91C10B8EE8F
:103C6000C00A01EE103AB8EEC11A20EE030A02EEC5
:103C7000101A10EE101A21EE030A016010EE101A4D
:103C80009FED170AB8EEC22A21E000BF40F2601192
:103C9000C2F20001B1F91820B1F91A3000EE102A71
:103CA000B1F91E10B8EEC00A01EE103AB8EEC11A12
:103CB00030EE000A02EE101A10EE101A31EE010A70
:103CC000B8EEC22A016010EE101AB8EE000A416088
:103CD00022EE000A10EE101A816070479A99993E00
:103CE0009A9999BE70470000002180F848107047EB
:103CF00082B040F2651000F0D3FC40F21C55C2F2D5
:103D0000000540F2DC2105F12000C2F20001FFF7BE
:103D100001FF40F2243105F1B000C2F20001FFF7CB
:103D2000F9FE40F26C3105F5A070C2F20001FFF718
:103D3000F1FE40F2B43105F5E870C2F20001FFF780
:103D4000E9FE40F2FC30C2F20000FDF7E9F940F272
:103D5000942140F24C23002405F10C00C2F2000132
:103D6000C2F2000300220094FFF7BEFB40F28C4138
:103D7000C2F20001042605F19C0000220B460096C9
:103D8000FFF7B2FB40F20424C2F2000405F596707E
:103D90002146002223460096FFF7A6FB082605F5DC
:103DA000DE7021460C2223460096FFF79DFB40F271
:103DB0005C70C2F20000FFF79FF900F04BF840F290
:103DC000B814C2F2000401AD019000BF2046FFF715
:103DD0008BFF2046FFF72EFF2046FFF783FF20468C
:103DE000FFF700FF2046FFF7A3FE2846012100F061
:103DF00023F8EBE7FCF770FCFEF74CFFFEF7FEFB49
:103E0000FEF762FDFEF736FEFEF732FCFEF772FCAF
:103E1000FEF7B2FCFEF78CFDFEF7C0FDFEF7F4FDE9
:103E2000FEF750FEFEF7B0FE00F0C4FAFEF7BEFB50
:103E300000F00AF8FEE7000080B5012998BF0121D3
:103E400000F07EFC002080BD80B500F0E9FC002081
:103E500080BD0000EFF30580002808BF00F0B6BE6B
:103E600000F0BABEB0B584B043698E4693B18469A0
:103E700084B10589D0E9001C026928B2843D18BFCD
:103E8000C51CCDE9005360467346029400F062FE03
:103E900004B0B0BD0589D0E90013028A28B2843D80
:103EA00018BFC51C03AC18467346CDE9005400F09A
:103EB00021FE0399012818BF0021084604B0B0BDB7
:103EC0002DE9F041044600F0FBFA40F2B006C2F2E0
:103ED0000006306940F67825013030613068C2F262
:103EE000000548B17069002840D13068E16AC06AB5
:103EF000884298BF346039E034603069012835D198
:103F0000284600F083FA05F1140000F07FFA05F16D
:103F1000280000F07BFA05F13C0000F077FA05F18B
:103F2000500000F073FA05F1640000F06FFA05F13B
:103F3000780000F06BFA40F28C18C2F2000840469C
:103F400000F064FA08F11407384600F05FFA06F151
:103F5000640000F05BFA06F13C0000F057FA06F14D
:103F6000500000F053FAC6F8308077637068B1688B
:103F700001220131B160E16A8A401043706001EBB7
:103F8000810005EB8000211D00F082FA00F0BCFAF0
:103F9000706988B13068E16AC06A884228BFBDE8AC
:103FA000F0814EF60450CEF200004FF080510160D7
:103FB000BFF34F8FBFF36F8FBDE8F08140F2B005C4
:103FC00040F678264EF60458C2F20005C2F200060A
:103FD000CEF200084FF0805703E000BF204600F00B
:103FE000ABFAE868D0B100F06BFAA86CC468201D89
:103FF00000F0ECF9286901382861E8680138E860C8
:1040000000F082FA94F851000228EAD00128E5D0A5
:1040100070B9206B00F090FAE0E700BF306802282A
:10402000DFD3C8F80070BFF34F8FBFF36F8FD8E7AF
:104030004FF0500080F31188BFF36F8FBFF34F8FA5
:10404000FEE700002DE9F047DDE909878246386B7D
:10405000089C00EB820004389946002920F00706EE
:1040600044D0087887F83400D8B3487887F835000A
:10407000B8B3887887F8360098B3C87887F83700DF
:1040800078B3087987F8380058B3487987F8390049
:1040900038B3887987F83A0018B3C87987F83B00B5
:1040A000F8B1087A87F83C00D8B1487A87F83D0023
:1040B000B8B1887A87F83E0098B1C87A87F83F008F
:1040C00078B1087B87F8400058B1487B87F84100F9
:1040D00038B1887B87F8420000281CBFC87B87F86E
:1040E0004300002087F8430003E000BF002087F86A
:1040F00034000025381D062C28BF0624FC62C7E9C1
:10410000114500F08FF907F1180000F08BF984F0E9
:104110000700B861304651464A463F617F62FD6400
:1041200087F8505000F034F9B8F1000F386018BF2C
:10413000C8F80070BDE8F08708480068006880F3A0
:1041400008884FF0000080F3148862B661B6BFF3B0
:104150004F8FBFF36F8F00DF00BF000008ED00E05E
:1041600081B00020009040F24800C2F200000068D8
:104170004FF0500181F31188BFF36F8FBFF34F8F62
:10418000013007D0FEE700BF009830B9009820B991
:10419000009810B900980028F6D001B070470000D0
:1041A00070B5044600F0A2FB40F2281CC2F2000CDD
:1041B000DCF8042052B19CF80000002818BF4FF032
:1041C00000404FF0000544BB81E000BF40F60430E2
:1041D000C2F20000420700F5705200F1070122F020
:1041E000070218BF21F007000021A2F10803CCE963
:1041F0000601CCF8043042E90211DCF80420191A57
:10420000C0E9002101208CF800004FF00040CCE90B
:104210000211002C4FF0000559D0204057D124F056
:10422000070000F11003600708BF04F10803DCF881
:104230000800591E81424AD2604650F818EFDEF855
:1042400004509D422BD2DEF80010B9B174464D687F
:104250009D4217D20E68AEB175689D4216D2306885
:10426000A0B145689D4215D204689CB165689D4225
:1042700014D22168A6460029E9D110E00CF11800FB
:104280000DE000BF8E46204609E000BFB646084656
:1042900005E000BF8646304601E000BFA6469645D1
:1042A00014D00268DEF80040E91A112904604DD3E9
:1042B0000EEB0305680719D04FF0500080F311880A
:1042C000BFF36F8FBFF34F8FFEE700BF002500F0F5
:1042D00011FD68075AD04FF0500080F31188BFF3EA
:1042E0006F8FBFF34F8F00BFFEE700BF0CF11800C8
:1042F0006960CEF8043000BF0168A9420AD208689C
:10430000A8420BD20168A94204D208680B46A84211
:10431000F2D304E00346084601E000BF0B465C68A8
:1043200069681E19AE4202D121441D4659606C18BD
:10433000844207D1DCF80440A04203D0D0E9000455
:1043400021446960AB42286018BF1D60DEF804009C
:10435000DCE9021302F10805091A9942CCF80810A9
:1043600038BFCCF80C109CF8001000294FF0000169
:1043700018BF40F00040CEE90010DCF8100001301A
:10438000CCF8100000F0B6FC6807A4D1284670BD38
:10439000034644F2611021F00101C0F600004FF025
:1043A000807C03E903106FF00201A3F1440043E9AC
:1043B0000912704740F2D44040F25011C2F200009E
:1043C000C2F200010122FEF76BB800000169D0E9DA
:1043D0000132D1F804C09A608445536008BF4A6036
:1043E0000022026108680138086008687047000010
:1043F00044F60813C2F20003036044F20870C2F2EC
:104400000000086080201060704700004FF0FF310E
:10441000024642F8081F00214260C0E90322016001
:1044200070470000002101617047000010B5D1F80D
:1044300000C01CF1010213D000F108046268136887
:10444000634511D853681C68644511D85A681468CC
:1044500064450FD854682368A6466345EED90BE03F
:104460000269D2F804E007E09646224604E000BF65
:104470009E4601E096461A46C1F804E0CEF80810C0
:104480008A605160086101680131016010BD00005F
:10449000D0F800C0436808619A68C1E901325160F0
:1044A00099600CF10101016070470000DFF80C0019
:1044B000016841F4700101607047000088ED00E080
:1044C0004FF0500080F31188BFF36F8FBFF34F8F11
:1044D00040F24800C2F2000001684A1C026009B1C3
:1044E000704700BF4EF60450CEF200000068000690
:1044F00008BF70474FF0500080F31188BFF36F8FF3
:10450000BFF34F8FFEE7000040F24800C2F2000008
:10451000016839B10139016018BF7047002080F38C
:10452000118870474FF0500080F31188BFF36F8FF0
:10453000BFF34F8FFEE7000070B5002808BF70BDC5
:1045400040F22814C2F20004217850F8042C00290B
:1045500018BF4FF0004111420ED0A0F108052B68A2
:10456000A3B14FF0500080F31188BFF36F8FBFF3FA
:104570004F8F00BFFEE700BF4FF0500080F311885F
:10458000BFF36F8FBFF34F8FFEE700BF22EA010139
:1045900040F8041C064600F0A9F956F8041CA0686F
:1045A0000844A06004F118000368AB420AD21868FE
:1045B000A84225D20368AB4204D218681A46A84222
:1045C000F2D301E0024618465368D618AE4202D133
:1045D0001944154651606B18834206D163689842AE
:1045E00003D0D0E9000319446960AA42286018BFCB
:1045F0001560606901306061BDE8704000F07ABB11
:104600001A465368D618AE42E5D1E1E74EF21000E3
:10461000CEF2000000210160816040F24401C2F24C
:104620000001096844F6D352C1F26202A1FB0212F2
:104630004FF0FF3101EB921141600721016070479B
:1046400040F24810EFF305811029C2F2000011D3A7
:104650004EF2F032CEF20002895C0278914209D229
:104660004FF0500080F31188BFF36F8FBFF34F8F6F
:10467000FEE700BF4EF60C51CEF20001096840681B
:1046800001F4E061814298BF70474FF0500080F321
:104690001188BFF36F8FBFF34F8F00BFFEE700009D
:1046A00070B500283FD040F2B004C2F20004A16906
:1046B00051B14FF0500080F31188BFF36F8FBFF3FB
:1046C0004F8F00BFFEE700BF0546A0690130A06123
:1046D000E66920680430FFF779FE48B12068AD191B
:1046E000456012D3606B21680431FFF79FFE15E02F
:1046F00020680121C06A626801FA00F022EA000025
:1047000060602068AD194560ECD2206B21680431EF
:10471000FFF78CFE606A854238BF656200F0EAFAF6
:10472000002818BF70BD4EF60450CEF200004FF0C6
:1047300080510160BFF34F8FBFF36F8F70BD0000DA
:1047400070B588B1D1B140F2B004C2F20004A269E0
:10475000F2B14FF0500080F31188BFF36F8FBFF3B9
:104760004F8F00BFFEE700BF4FF0500080F311886D
:10477000BFF36F8FBFF34F8FFEE700BF4FF05000C6
:1047800080F31188BFF36F8FBFF34F8FFEE700BF39
:10479000A2690132A261E26903689A42194403D214
:1047A000994203D320E000BF994201D391421BD923
:1047B0000160E56920688E1A0430FFF707FE40B9F2
:1047C00020680121C06A626801FA00F022EA000054
:1047D00060602068AD19456008D3606B21680431C2
:1047E000FFF724FE0BE000BF016008E0206B2168AA
:1047F0000431FFF71BFE606A854238BF656200F036
:1048000079FA002818BF70BD4EF60450CEF20000B1
:104810004FF080510160BFF34F8FBFF36F8F70BDBA
:10482000B0B588B00020CDE9050006A805A904AA06
:10483000FFF7DEFD0598B8B3069C002C3ED054214E
:10484000049A07910799542942D1079920630220BD
:1048500084F8510007A80025CDE9005043F6BD704B
:10486000C0F600001FA100230294FFF7EBFB2046D7
:10487000FFF726FB079940F2B000C2F20000016288
:1048800079B14FF0500181F31188BFF36F8FBFF3FF
:104890004F8F4FF0FF31416201214161C56100F04E
:1048A00065F808B0B0BD00BF4FF0500080F311882C
:1048B000BFF36F8FBFF34F8FFEE700BF4FF0500085
:1048C00080F31188BFF36F8FBFF34F8FFEE700BFF8
:1048D0004FF0500080F31188BFF36F8FBFF34F8FFD
:1048E000FEE700BF49444C450000000040F2B00024
:1048F000C2F20000816901318161704740F2B0006D
:10490000C2F20000816900291EBF01218162704747
:10491000002181624168B1FA81F1C9B2C1F11F0180
:1049200040F6782201EB8101C2F2000252F82130F8
:1049300063B102EB8102516802F1080349689942B0
:1049400051600DD0C9680160704700BF4FF0500042
:1049500080F31188BFF36F8FBFF34F8FFEE700BF67
:1049600049685160C968016070470000B0B584B003
:104970004EF2004CCEF2000C4CF27021C4F20F113A
:10498000DCF800294B1C9A420AD14FF0500080F30A
:104990001188BFF36F8FBFF34F8F00BFFEE700BFDB
:1049A000DCF800298A4209D14FF0500080F31188C9
:1049B000BFF36F8FBFF34F8FFEE700BF9CF800106F
:1049C0000291FF218CF800109CF800108DF8071060
:1049D0009DF8071001F0500240F24811C2F20001A8
:1049E0000A7007224A609DF90720B2F1FF3F6BDC95
:1049F000032200BFD31C4B609DF8070040008DF8D8
:104A000007009DF90700B0F1FF3F24DC931C4B60C9
:104A10009DF8070040008DF807009DF90700B0F1F0
:104A2000FF3F18DC531C4B609DF8070040008DF8D9
:104A300007009DF90700B0F1FF3F0CDC4A609DF8CC
:104A40000700043A40008DF807009DF90700B0F117
:104A5000FF3FCFDD131D032B36D14FF4407048606C
:104A600002988CF80000DCF8200940F47000CCF8C3
:104A70002009DCF8200940F07040CCF82009FFF74D
:104A8000C5FD40F24804C2F2000400252560FFF78E
:104A90000DFD4EF63470CEF20000016841F0404149
:104AA0000160FFF749FBFFF729FF039520684FF0EE
:104AB000500181F31188BFF36F8FBFF34F8F013027
:104AC00012D000BFFEE700BF4FF0500080F3118806
:104AD000BFF36F8FBFF34F8FFEE700BF039830B96E
:104AE000039820B9039810B903980028F6D0002045
:104AF00004B0B0BD2DE9F04184B00746900098465F
:104B000015460E46FFF74CFBF8B104465420FFF75C
:104B100047FBB8B1DDE90A210023046380F8513076
:104B2000CDE900210446384631462A4643460294E0
:104B3000FFF788FA2046FFF7C3F9012004B0BDE86B
:104B4000F08100BF2046FFF7F7FC4FF0FF3004B0C4
:104B5000BDE8F08170B586B00B9CCCB10C9E0EB355
:104B600054250495049D542D26D1049DDDF828C0BC
:104B7000022586F8515005AD3463CDE900C5029693
:104B8000FFF760FA3046FFF79BF9059806B070BD55
:104B90004FF0500080F31188BFF36F8FBFF34F8F3A
:104BA000FEE700BF4FF0500080F31188BFF36F8F16
:104BB000BFF34F8FFEE700BF4FF0500080F3118826
:104BC000BFF36F8FBFF34F8FFEE7000040F2B000DE
:104BD000C2F20000C069704780B5FFF731FD40F2B6
:104BE000B000C2F20000C06980BD00002DE9F047AE
:104BF00040F2B006C2F20006B06928B1F06A013096
:104C0000F0620020BDE8F087F06910F1010AC6F8F3
:104C10001CA020D3306B006850B14FF0500080F3DF
:104C20001188BFF36F8FBFF34F8F00BFFEE700BF48
:104C3000306B716B31637063B06B0130B063306B9C
:104C4000006828B1306BC068C068406802E000BFEF
:104C50004FF0FF307062706A40F678288245C2F2E9
:104C6000000801D2002434E0306B0024006868B3EF
:104C70004FF0010916E000BFF86A716809FA00F206
:104C8000114300EB8000716008EB80002946FFF7BC
:104C9000FFFBF86A3168C96A326B8842106828BF26
:104CA0004C4698B1306BC068C7683D4655F8040F54
:104CB00082450DD32846FFF789FBB86A0028DBD070
:104CC00007F11800FFF782FBD6E700BF4FF0FF3077
:104CD00070623068C06A00EB800058F8200001283C
:104CE00088BF0124B06A002818BF01242046BDE80F
:104CF000F08700002DE9F04140F2B005C2F2000556
:104D0000A86968B1FFF7DCFBA8690138A861A86948
:104D100080B10024FFF7F8FB2046BDE8F08100BF1A
:104D20004FF0500080F31188BFF36F8FBFF34F8FA8
:104D3000FEE700BF28690028EBD0686E78B340F624
:104D400078280126C2F20008286FC76807F118000A
:104D5000FFF73CFB3C1D2046FFF738FBF86A69680B
:104D600006FA00F2114300EB8000696008EB800056
:104D70002146FFF78DFBF86A2968C96A884228BF77
:104D8000AE62686E0028DFD1286B006820B1286B06
:104D9000C068C068406801E04FF0FF306862EC6AAC
:104DA0004CB10126FFF722FF002818BFAE62013C7C
:104DB000F8D10020E862A86A0028AAD04EF6045074
:104DC000CEF200004FF080510160BFF34F8F0124FD
:104DD000BFF36F8FFFF798FB2046BDE8F08100001E
:104DE00021F0004201F00043A2F16052B2F5801FB1
:104DF00028BFD2F17F6C0BD95FEA001C43EAC202E4
:104E000042EB507018BF704728BF20F00100704778
:104E1000B2F5801FBCBF184670474FEA410C1CF525
:104E2000001F02D2084600F09EBA70B500F03AFAB0
:104E300000000089FFF7F6BF4FF00040A0F58000AA
:104E4000704700002DE9C04130B4DFF8A8C23CEA49
:104E5000111418BF3CEA131400F0F0801CEA11147E
:104E600081EA030544EAD57418BF1CEA131500F063
:104E7000CB80A4EB050404F17F7404F500344FF0FB
:104E8000004545EAC12145EAC32341EA505143EABE
:104E900052534FEAC0204FEAC222994208BF9042C3
:104EA00000F0A0804FEA13650FF24816765D4FEAD6
:104EB000134506FB05F7C7F1807706FB07F74FEAB6
:104EC000D737A7FB03687642A7FB06CEC8F5803824
:104ED00038BFA8F1010807FB08E6A6FB028C4FF0DB
:104EE000000EE6FB03CED8F100086FEA0C0C5CF173
:104EF000000C6FEA0E0E4EF1004EA6FB0C584FF060
:104F00000007E6FB0E87A1FB08C6A0FB07CE16EB49
:104F10000E064FF0000545F10005E1FB076515F1B0
:104F2000E04E7EBFA4F580345FEA46066D4116F17F
:104F3000800745F100054FEA172747EA05674FEA62
:104F400015254FEA0666A6F1DE46B6F1805F20D948
:104F5000384605EBC47124F0010C01EB0C11BCF1D7
:104F6000FE6F02D8F0BCBDE8008124425CBF01F5B1
:104F7000801E9EEAC47F02D4F0BCBDE800812442BA
:104F800000F13980A1F1C041F0BCBDE8004100F062
:104F9000D7B94FEAD02040EA41504FEAD1214FEA39
:104FA000D22242EA43524FEAD323A7FB028607FBF1
:104FB000036605FB02661EEA0E0F58BFA6EB0056FD
:104FC000B6EB00564FEA520E4EEAC37E18EB0E0EB9
:104FD00056EB530EBCD518EB02085E417F1C55F111
:104FE0000005B5E74FF480154FF000074FF00006BD
:104FF0004FF00008ACE701F1C04101F000414FF073
:105000000000F0BCBDE800810CEA131511EA0C1F8A
:1050100000D00CE013EA0C1F00F025804FF00000D8
:1050200081EA030101F00041F0BCBDE80081F0BC61
:10503000BDE8004181EA030100F082B9F0BCBDE89F
:10504000004170B500F02EF9097EFC3E00F007B873
:105050004FF0000081EA030101F00041704781EA4E
:10506000030100F06DB9F0BCBDE8004122494FF0EA
:1050700000007047FFFDFBF9F7F5F4F2F0EEEDEB01
:10508000E9E8E6E4E3E1E0DEDDDBDAD8D7D5D4D346
:10509000D1D0CFCDCCCBCAC8C7C6C5C4C2C1C0BF92
:1050A000BEBDBCBBBAB9B8B7B6B5B4B3B2B1B0AF98
:1050B000AEADACABAAA9A8A8A7A6A5A4A3A3A2A17C
:1050C000A09F9F9E9D9C9C9B9A9999989797969537
:1050D00095949393929191908F8F8E8E8D8C8C8BD3
:1050E0008B8A89898888878786858584848383825B
:1050F000828181800000FF070000F87F10F00042ED
:1051000048BF4042B0FA80F310FA03F10AD0C3F16D
:105110001D0303F5806302EB03524FEA415002EB9B
:10512000D12170474FF000007047B0FA80F310FAB9
:1051300003F10AD0C3F11D0303F580634FEA035264
:105140004FEA415002EBD12170474FF00000704709
:1051500070B5DFF848C11CEA111E1EBF1CEA13150A
:105160009EEA0C0F95EA0C0F00F06F8081EA0304B1
:105170004EEAD47EAE4421EA4C1123EA4C1341F4AA
:10518000801143F48013AEF17F7EA1FB024CA0FBA3
:105190000365361955EB0C05A1FB034C4CF10003DC
:1051A000A0FB021C16EB0C06654153F100030942FB
:1051B00018BF46F0010613F4007F0BD14FEA03310C
:1051C0004FEA053041EA155140EA165034036FF0BA
:1051D00003020AE04FEAC3214FEAC52041EA5551D4
:1051E00040EA5650F4026FF0020202EB2E4201EB4D
:1051F000025585EACE710AD05FEA440C18BF24F04C
:10520000004450F1000041F1000120EAD47040F266
:10521000FE7C624500D270BDA84214BF4FF08044AE
:105220004FF04044002E08BF0024BEF1806FA8BF9D
:10523000A1F1C041BDE8704080F2828001F1C0411F
:1052400001F000414FF0000070470CEA13159EEA90
:105250000C0F18BF95EA0C0F06D081EA030E4FF031
:1052600000000EF0004170BD00F01CF88900013E06
:1052700000F007B800F009B84FEA430C5FEA5C5C45
:1052800008D081EA030100F05BB84FEA410C5FEA05
:105290005C5CF6D102494FF0000070470000FF0748
:1052A0000000F87F0EF1020E2EF0030E5EF8046B84
:1052B000364205D4012A43EB030515F5001F12D829
:1052C000012841EB010C1CF5001F0CD80ED14FEA50
:1052D000D17C0CEB4C0C0CF1020C15F5001F08BF37
:1052E0004CEBD37C04E04FF0080C01E04FEAD37C98
:1052F0000CEB4C0526FA05F606F00706B6F1040C91
:1053000006D20EEB860CBDE870404CF0010C6047F5
:10531000DFE80CF0090B02024FF00041A1F500217B
:105320004FF0000070BD19461046012851EB0104F2
:1053300018BFD4F5001484BF002001F0004170BDF7
:105340000808A0F500114FEA31017047F1EE100A8C
:105350004FF6FF71C0F2C03120EA010040F040700A
:10536000E1EE100A7047FF2141EAD050C0057047B6
:105370000000000000000000010203040607080905
:105380000000000001020304434841535349535FA6
:105390005441534B00000000B853000800000020A7
:1053A00050000000EC0100080854000850000020E4
:1053B000104F00000C020008010000001000000067
:1053C000000048429A99193F9A99993E0000003F7F
:1053D000000000000AD7233C0000F042000000005B
:1053E000CDCCCC3D0000C04000000000000000001B
:1053F0000000C04000000000000000000024F40095
:08540000AAAAAAAA00000000FC
:040000050800018965
:00000001FF
