:020000040800F2
:1000000090500020550200085D5100085535000849
:10001000595100086D040008A956000800000000AE
:10002000000000000000000000000000D1510008A6
:10003000710400080000000061510008F55100083B
:100040006F0200086F0200086F0200086F020008CC
:100050006F0200086F0200086F0200086F020008BC
:100060006F0200086F0200086F0200086F020008AC
:100070006F0200086F0200086F0200086F0200089C
:100080006F0200086F0200086F0200086F0200088C
:100090006F0200086F0200086F0200086F0200087C
:1000A0006F0200086F0200086F0200086F0200086C
:1000B000E1520008ED520008F95200086F020008F2
:1000C0006F02000865350008593500086F02000806
:1000D0006F0200086F02000861560008855600088C
:1000E0006F0200086F0200086F0200086F0200082C
:1000F0006F0200086F0200086F0200086F0200081C
:100100006F0200086F020008055300086F02000824
:100110006F0200086F020008115300081D53000809
:100120006F0200086F0200086F0200086F020008EB
:100130006F0200086F0200086F0200086F020008DB
:100140006F0200086F0200086F0200086F020008CB
:100150006F0200086F0200086F0200086F020008BB
:100160006F0200086F0200086F0200086F020008AB
:100170006F0200086F0200086F0200080000000014
:100180006F0200086F02000800F002F800F052F859
:1001900014A696E8000CB244B344DA4501D100F04D
:1001A00049F8BAE80F000FA696E83000A5EB040561
:1001B00004EB0607AAEB0704A7F101074FEA1515A0
:1001C0004FEA3414A4F10104AC4201D300F032F838
:1001D00013F0010F18BFFB1A43F0010300F001F800
:1001E000DBE71847C0820000E0820000103A24BF1D
:1001F00078C878C1FAD8520724BF30C830C144BF8C
:1002000004680C6070470000704700000023002461
:1002100000250026103A28BF78C1FBD8520728BF16
:1002200030C148BF0B6070471FB508F009F91FBD0A
:1002300010B510BD00F0E4F81146FFF7F5FF06F029
:1002400043FB00F002F903B4FFF7F2FF03BC00F038
:1002500005F900000948804709480047FEE7FEE726
:10026000FEE7FEE7FEE7FEE7FEE7FEE7FEE7FEE766
:1002700004480549054A064B70470000CD52000866
:1002800089010008904A002090500020904C0020E6
:10029000904C002053EA020C00F069802DE9F04BED
:1002A0004FF00006002B1FBFB3FA83F503FA05F4E5
:1002B00024FA05F65E4012BF1643B2FA82F502FA3E
:1002C00005F4C5F120051EBF22FA05FC44EA0C0422
:1002D000203556EA044C4FEA144418BF641C4FF012
:1002E00000084FF00009904271EB030C39D300294C
:1002F00019BFB1FA81F701FA07F6B0FA80F700FAF0
:1003000007F6C7F120071EBF20FA07FC46EA0C06D5
:100310002037B6FBF4FCA7EB0507103F07F01F0BD7
:10032000CBF120062CFA06F60CFA0BFB44BFB346C1
:100330000026202FA4BF5E464FF0000B5BEA060CA0
:1003400008BF4FF0010B19EB0B0948EB0608ABFB9C
:10035000027C06FB02CC0BFB03CCC01B71EB0C0137
:10036000C1E70B46024641464846BDE8F08B13B54F
:10037000084318BF4FF0FF300146AFF30080BDE8DF
:100380001C4070474FF0000200B513469446964655
:10039000203922BFA0E80C50A0E80C50B1F1200198
:1003A000BFF4F7AF090728BFA0E80C5048BF0CC046
:1003B0005DF804EB890028BF40F8042B08BF7047A4
:1003C00048BF20F8022B11F0804F18BF00F8012B16
:1003D000704770477047704710B500F009F8006823
:1003E00010BD10B5044600F003F8046010BD000015
:1003F000004870475800002000487047580000200F
:100400007546FFF7F9FFAE4605006946534620F0F2
:100410000700854618B020B5FFF72AFFBDE8204049
:100420004FF000064FF000074FF000084FF0000BB0
:10043000AC46ACE8C009ACE8C009ACE8C009ACE81F
:10044000C00921F007018D46704710B50446AFF38F
:1004500000802046BDE81040FFF7F5BE0149182096
:10046000ABBEFEE72600020070470000FEE700007A
:100470007047000072B600BFFEE7000070B5866DE1
:10048000044600F02BF994F83510022928D10546CE
:100490002068216C026822F016020260426922F094
:1004A0008002426109B9A16C19B1016821F008010B
:1004B0000160016821F00101016000BF206800684F
:1004C000C00715D000F00AF9401B0628F6D32020FB
:1004D0006065032084F83500002184F8341070BD75
:1004E000802060650120002184F8341070BD00BFB9
:1004F000E06D3F2101FA00F0B060012084F8350082
:100500000020002184F8341070BD000090F83510F0
:10051000022909D1052180F835100068016821F011
:100520000101016000207047802141650120704772
:1005300090F835007047000006F0ECB92DE9F04F57
:1005400083B000F1200200F13E4741F600450092E1
:1005500007F1FF77C4F2020508224FEAB726A84246
:1005600008BF072200254FF000084FF00009072EB2
:1005700038BF4FEAB72201920AE000BF09F1010932
:1005800008F10208B9F1100F05F1040500F0A2808E
:100590000F68012202FA09FE17EA0E0AEED0D1F81E
:1005A00004C003220CF003077E1E02FA08F4012E99
:1005B0006FEA040B12D88468CE6804EA0B0406FACA
:1005C00008F634438460446824EA0E06CCF3001431
:1005D00004FA09F42643466004E000BF032F01D16A
:1005E00003271EE0C6688C6806EA0B0604FA08F4C6
:1005F0002643022FC66014D16FF00302009E02EA68
:10060000590756F807C005F01C040F220B69A240D9
:100610002CEA0202A3401A43F251D1F804C00CF0B4
:100620000307026807FA08F302EA0B021A431CF4F4
:10063000403F0260A2D0002243F644030292C4F27B
:1006400002031A6843F6004442F480421A601A68B2
:10065000C4F2010402F480420292029A29F00302D9
:100660004FF6084C2244CFF6FF7C52F80C3005F0D0
:100670000C070F26BE40B343019E06FA07F73B4323
:1006800042F80C30A2684B6842EA0A0743F60C4C69
:10069000DE0258BF22EA0A07A760C4F2010CDCF8A8
:1006A00000209E0242EA0A0758BF22EA0A07CCF855
:1006B000007062689E0342EA0A0758BF22EA0A07EE
:1006C00067602268DB0342EA0A0758BF22EA0A078A
:1006D000276053E703B0BDE8F08F000044F6340014
:1006E000C2F20000006870477047000070470000C9
:1006F000F0B581B00446006800254769426894F867
:100700003E1002F48076FA0505D5002E1EBF6FF468
:10071000807242610125BA0505D5002E1EBF023543
:100720006FF4007242617A0516D5AEB1628D94F80D
:100730003D30D4F830C0202908BF002A24D06FF4FF
:100740008062402905F10405426101D0102903D1DE
:10075000016841F400710160380507D536B12068A1
:1007600008356FF40061416101E000BF55B1206CB4
:1007700040EA05012046216401B0BDE8F04002F0E6
:1007800089BF00BF01B0F0BD03F0F701212909D0F6
:10079000282B08BFBCF1210F04D06FF480614161A8
:1007A0000435D9E794F83D10E26AB2F1080318BFA6
:1007B0000123203A18BF0122134208BF282921D063
:1007C000212939D10021CFF6FF71E1622121216376
:1007D000202184F83D10002184F83E10426822F464
:1007E000E06242606FF480624261026822F48062DB
:1007F00002604269120648BF0161204600F00EFF08
:10080000AAE700BF0021CFF6FF71E162416821F441
:10081000E06141606FF480614161016821F48061B1
:10082000016000202021206384F83D1084F83E0000
:10083000204600F0C1FC8FE76FF4806141618BE7D7
:10084000F0B581B007687968C26A90F83E5090F8B8
:100850003DE0402D01D0102D34D1BB697C69E60705
:1008600018D1B2F12A4F00F06782B2F52A0F00F0DA
:100870006382220701F4007240F10681002A00F031
:100880000381416B426C0029D2B23A6140F0B080E2
:10089000B0E000BF8A0543D44FF0010C7A685B07D3
:1008A0006ED4120500F1488204F04402402A40F060
:1008B000598111F4806100F0558101B0BDE8F0402C
:1008C00003F02AB8026C01F40073002A0CBFBC6963
:1008D00000247D69AA0729D543B3016C002918BFFC
:1008E000BC6990F83D1001F02801282940F0C08033
:1008F0007968012221F48061796004F0040182EAC0
:10090000910122064FF0180258BF0C22825A002390
:1009100080F83C3001B0BDE8F040FFF7E7BE00BF13
:10092000C16AB1F52A0F3DD1012140E0EA066FD539
:10093000002B6DD090F83D50796821F4E06179602A
:100940000021009179690091396841F00101396015
:100950000099396821F4806139607968090540F1AE
:10096000798105F0F7010446222940F0498154F8C5
:10097000381F0A68526824F80E2C34F80E2C47E110
:10098000120500F1D98104F08402802A40F0F88039
:1009900011F4806100F0F48001B0BDE8F04003F094
:1009A000A1B800BFC16AB1F12A4F01D10821C162CB
:1009B00090F83E1040290BD1016D406C002900F0E9
:1009C000FE0018BF40F00100386101B0F0BD00BF6B
:1009D0000169B1F5804F40F0898090F83D10426C7C
:1009E000212902F0FE0218BF01323A61416B09B1C0
:1009F000C96B39B9806B002800F09E81C06B00285C
:100A000000F09A81786840F40060786001B0F0BD31
:100A10000EF0F702212A79D105F08402802A40F0F5
:100A2000C18011F4806100F0BD8090F83D10428DCE
:100A3000002A00F08181426A12F8013B3B61426268
:100A4000428D013A4285428D002A08BF292940F093
:100A50007381796821F48061796021210163282103
:100A600080F83D1001B0BDE8F04000F0D7BD00BFF8
:100A7000002100917A690092BA690092009A80F888
:100A80003C1001B0F0BD00BF4FF0010CA6078CEA8E
:100A9000522C7FF503AF002A3FF400AF90F83E20C0
:100AA000C16A036B90F83D60222E40F09F80066D76
:100AB000002E08BF402A00F09980026D002A40F005
:100AC0003D810269B2F5404F40F03881002100912C
:100AD00079690091B96900910099396841F4807190
:100AE0003960016D0131016501B0F0BD016D002972
:100AF00000F00081016D012940F01E81406C06214B
:100B000001EAD010F130386101B0F0BD05F04402C7
:100B1000402A57D111F4806154D090F83D10428D95
:100B2000002A00F009813A69436A1A70426A013268
:100B30004262428D013A4285428D002A08BF2A292D
:100B400040F0FA8001684A6822F480624A602221FB
:100B50000163282180F83D1001B0BDE8F04000F0AD
:100B60005BBD00BF04F00401012282EA910151EA59
:100B70000C0140F0E18001B0BDE8F04002F050BE51
:100B800004F00401012282EA910151EA0C0140F0D3
:100B9000D380BEF1210F40F0C78001B0BDE8F04026
:100BA00002F05EBF690740F1C780002B00F0C480EF
:100BB000418D002900F0C080416A11F8012B3A6193
:100BC0000FE000BF690740F1B780002B00F0B48050
:100BD000418D002900F0B0803969426A1170416A84
:100BE00001314162418D01394185A5E0002000902D
:100BF00078690090B8690090009801B0F0BD00BF1E
:100C000054F8341F0A68526824F80A2C34F80A2C65
:100C10001AB1026C42F0040202647A68064622F4B9
:100C2000006208467A60FFF783FC014630460129DE
:100C300010D0206843F27151C0F600010165FFF742
:100C400065FC0146304629B1216804460A6D084614
:100C500090472046418D61B101684A6952072FD4FF
:100C60004A69520639D4418D19B1016C41F0040131
:100C70000164016C21B101B0BDE8F04002F00ABD91
:100C80002A2D08D100210163282180F83D10044657
:100C900000F0C2FC204690F83D10282932D10021F6
:100CA000CFF6FF71C16200212022016380F83D2050
:100CB00080F83E1001B0BDE8F04000F07DBA00BF02
:100CC0000969426A1170426A016801324262428DCA
:100CD000013A42854A695206C5D50969426A1170CE
:100CE000416A01314162418D01394185418D0029BF
:100CF000BBD1BEE7406C062101EAD010F03038616C
:100D000001B0F0BD016B222918BF222D14D10021A2
:100D10002022016380F83D2080F83E1001B0BDE83C
:100D2000F04000F079BC00BF402D05D101B0BDE816
:100D3000F04002F031BF00BF01B0F0BD428D52B1B2
:100D4000428D012A16D1202918BF082926D13968D9
:100D500021F4806139600021009179690091B969BD
:100D600000910099396841F40071396000210165F2
:100D700001B0F0BD428D022A0CD1102932D80122D7
:100D800014238A40C0F201031A422BD04FF4806230
:100D90002EE000BF3A6842F480622BE011F5803FFC
:100DA0000CD1396821F48061396079680905D2D5A0
:100DB000396821F48061396030E000BF122B01D125
:100DC0000129C4D11029F3D8012202FA01F1142219
:100DD000C0F201021142EBD0396841F48061396000
:100DE0001CE000BF3A6822F480623A604FF400626F
:100DF0003B681A433A607A6812050FD54A1E1F2ACB
:100E000018D8012303FA02F248F28103C8F2000362
:100E10001A420FD0796841F4805179600021009125
:100E200079690091B969009100990021016501B0CB
:100E3000F0BD00BF11F5803FECD0EFE77047000038
:100E4000002804BF01207047F0B581B0044690F837
:100E50003D0028B9002084F83C00204600F090FBBB
:100E6000242084F83D002068016821F00101016020
:100E7000016841F400410160016821F40041016012
:100E800000F094FD636848F2A16CC0F2010C40F6DA
:100E90000011C0F23D0163453CBF48F28041C0F201
:100EA0001E01884202D2012001B0F0BD4DF68361DF
:100EB000C4F21B31A0FB01122168970CD1F804E0A9
:100EC0004FF496762EF03F0545EA92454D60774304
:100ED00048F638160D6AC0F24106A7FB067625F0E3
:100EE0003F07634538BF960C721C3A430A62CA69D1
:100EF00048F2A0664CF6FF77C0F20106B34222EA40
:100F000007020BD801385B00B0FBF3F001306FF340
:100F10001F30042898BF04201BE000BFA7680138D9
:100F200057B119277B43B0FBF3F001306FF31F304B
:100F300070B100F5804007E003EB4303B0FBF3F032
:100F400001306FF31F3018B100F5004001E000BF21
:100F500001201043C8610868D4E9072320F0C000CD
:100F6000104318430860886848F2FF3204F10C0708
:100F700090438CCF18431043A6698860C86820F05E
:100F8000FF0038433043C860086840F00100086043
:100F900000202021206484F83D10206384F83E0066
:100FA00001B0F0BD2DE9F04F83B01E469246884651
:100FB0000446FFF793FB94F83D10202924D12168C3
:100FC000054600BF886980071AD5FFF787FB401BDD
:100FD00021681A28F6D388698007F3D500202021DC
:100FE000206384F83D1084F83E00216C41F020011C
:100FF000216484F83C00022003B0BDE8F08F00BFFC
:1010000094F83C00012803D1022003B0BDE8F08F22
:101010004FF0010984F83C900868C00703D10868C4
:1010200040F0010008600868002720F400600860B4
:10103000242084F83D000020CFF6FF702764E06292
:1010400008F0FE08BAF1010F88BFD1464FF0A00AA0
:101050004FF0200B04E000BF01374F4500F0A280A5
:101060000868002240F48070086020464FF00111AB
:101070003346009502F03CFF2168002856D1C1F8A4
:101080001080FFF72BFB21684B694A6994F83D50AB
:10109000A02D054605D013F0020008BF12F48060B1
:1010A0001AD084F83DB048690A68800742F400729B
:1010B0000A6045D46FF48060486100BF886980078A
:1010C000CAD5FFF70BFB401B21681A28F6D38869A5
:1010D0008007F3D54AE000BFB6B100BFFFF7FEFAC4
:1010E000401BB04288BF84F83DA021684A69486926
:1010F00094F83D30A02BD4D012F0020208BF10F4B7
:101100008060EBD0CDE700BFFFF7E8FA84F83DA0A0
:1011100021684A69486994F83D30A02BC1D012F08B
:101120000202BED110F48060EED0BAE70868C005B4
:1011300044BF4FF400702064032003B0BDE8F08F7B
:10114000002002904869029088690290029888699C
:1011500001E000BF806980071AD5FFF7BFFA411B85
:1011600020681A29F6D381698907F3D50020202148
:10117000206384F83D1084F83E00216C41F020018A
:10118000216484F83C00012003B0BDE8F08F00BF6B
:10119000202084F83D00002084F83C0003B0BDE826
:1011A000F08F00BF202084F83D00002084F83C0030
:1011B000012003B0BDE8F08F7047000070470000C9
:1011C0007047000070470000704700002DE9F047AD
:1011D00084B0994616460F460446FFF77FFA94F806
:1011E0003D10202927D10546206800BF8169890765
:1011F0001CD5FFF773FA411B20681A29F6D38169C1
:101200008907F3D500202021206384F83D1084F85D
:101210003E00206C04F13C0A40F0200020640220D3
:1012200000218AF8001004B0BDE8F087A2461AF841
:101230003C1F012904D1022004B0BDE8F08700BFA3
:1012400001228AF800200368DDE90D180C9ADB07FB
:1012500003D1036843F001030360036823F40063D0
:101260000360222084F83D00402084F83E000020E6
:10127000206462626185608D394620850020CFF64A
:10128000FF70E062204632464B46CDE9008502F011
:10129000E3FC18B1012004B0BDE8F087208D08B34D
:1012A000022813D0012835D121680A6822F480620F
:1012B0000A60002203924A6903928A690392039AA0
:1012C0000A6842F400720A602CE000BF21680A68D4
:1012D00022F480620A600A6842F400620A60002216
:1012E00003921AE00020039020684169039181690C
:1012F00003910399016841F400710160202084F892
:101300003D00002084F83E0000218AF8001004B05F
:10131000BDE8F0870021039121684A690392896939
:10132000039103990427C0F201070CE010690870CB
:10133000606A218D01306062481E2085618D01390F
:1013400061850104DAD080B203280FD802284AD080
:1013500001282DD1204641462A4602F01BFF0028D5
:1013600098D12068616A0069E1E700BF20464146E4
:101370002A4602F00FFF00287FF48CAF2068616AD4
:1013800000690870606A2268411C208D6162013822
:101390002085638D013B638553695B07D1D580B29E
:1013A0000328C3D1106820F480601060BEE700BF3E
:1013B0002046394600224346009502F099FD002858
:1013C0007FF468AF2068616A026822F4806202607C
:1013D00000690870606A218D01306062481E2085B6
:1013E000608D0138608520463946002243460095CD
:1013F00002F07EFD00287FF44DAF2068616A02682C
:1014000042F40072026000690870606A2268411C40
:101410006162218D01392185618D013961851169F3
:10142000417085E72DE9F04383B0994616460F4693
:101430000446FFF753F994F83D10202924D10546BE
:10144000206800BF816989071AD5FFF747F9411B5A
:1014500020681A29F6D381698907F3D50020202155
:10146000206384F83D1084F83E00216C41F0200197
:10147000216484F83C00022003B0BDE8F08300BF83
:1014800094F83C10012903D1022003B0BDE8F08399
:10149000012284F83C200368DDE90B180A9ADB0777
:1014A00003D1036843F001030360036823F400637E
:1014B0000360212084F83D00402084F83E00002095
:1014C000206462626185608D394620850020CFF6F8
:1014D000FF70E062204632464B46CDE9008502F0BF
:1014E00045FC18B1012003B0BDE8F083208D98B908
:1014F000204641462A4602F09DFC88B3206C042811
:10150000F0D12068016841F400710160012003B04E
:10151000BDE8F0830004EBD0204641462A4602F0A5
:1015200081FE0028EAD1616A2268084610F8013B72
:101530001361238D6062581E2085678D013F67858A
:1015400057697F07E6D50704E4D048781061881C06
:101550006062981E2085618D01396185DAE700BFE0
:101560002068016841F400710160202084F83D008A
:10157000002084F83E0084F83C0003B0BDE8F0830E
:10158000B0B586B045F600010068C4F20001002441
:1015900088420594CDE903440294019402D006B038
:1015A000B0BD00BF43F630050094C4F202052868C0
:1015B00040F002002860286800F0020000900098C7
:1015C0004FF4406001901220CDE902040320049002
:1015D0000420059001F5D63001A9FEF7AFFF009475
:1015E0002869052140F4800028612869002200F460
:1015F000800000900098212000F0CAF8212000F01F
:10160000B5F822200521002200F0C2F8222000F0C7
:10161000ADF806B0B0BD0000704700007047000094
:1016200040F2000044F63401C2F20000C2F20001B0
:1016300000780A68104408607047000080B543F6DF
:101640000040C4F20200016841F4007101600168C9
:1016500041F480610160016841F480710160032000
:1016600000F0C2F80F2000F005F800F05DF800204F
:1016700080BD000070B586B0002543F6400101959D
:10168000C4F202010A68044642F020020A600968B6
:1016900001A801F0200101910199694600F066F965
:1016A000049E002E18BF012600F080F94DF68361DC
:1016B000B040C4F21B31A0FB01014FF0FF3000EB42
:1016C000914140F2F84041F20042C2F20000C4F2FF
:1016D000000240F2E733C0E90021C0E9025305618E
:1016E000856100F01FFC08B106B070BD40F2F84003
:1016F000C2F2000000F0C6FC0028F5D1372000F04F
:1017000035F80F2C0CD837202146002200F040F885
:1017100040F204010020C2F200010C6006B070BD6E
:10172000012006B070BD000082B0002043F64001E9
:101730000190C4F202014A6842F480424A604A6859
:1017400002F480420192019A00900868002240F061
:101750008050086008680F2100F0805000900098C9
:101760006FF0010002B000F013B80000002848BF7D
:10177000704700F01F01012202FA01F11C2202EA67
:10178000D0004EF20012CEF20002815070470000ED
:1017900010B54EF60C5CCEF2000CDCF80030C3F352
:1017A000022E8EF00704042C28BF0424BEF103038C
:1017B0004FF0FF3E0EFA04F438BF0023A1439940D6
:1017C0000EFA03F39A43114300F00F0200F1604355
:1017D0000901043A03F564436244002848BF02F15A
:1017E0000C03197010BD00004EF60C51CEF2000132
:1017F0000A684FF6FF031A4060F30A2242F0806045
:1018000040F0FD7008607047002804BF0120704759
:101810002DE9F04143F60808C4F202080446D8F85E
:10182000F8030D4600F00700884207D288F8F85305
:10183000D8F8F80300F00700A84277D120688107A4
:1018400017D5410705D5D8F8001041F4E051C8F884
:101850000010010705D5D8F8001041F46041C8F820
:101860000010D8F80010A26821F0F0011143C8F868
:101870000010C00740D1D8F8F80300F00700A842D4
:1018800007D988F8F853D8F8F80300F00700A84201
:101890004CD12068410707D5D8F80010E26821F440
:1018A000E0511143C8F80010000708D5D8F800002F
:1018B000216920F4604040EAC100C8F8000000F04F
:1018C0009DF8D8F8001048F26442C1F30311C0F645
:1018D0000002515C40F2500220FA01F140F2040093
:1018E000C2F200000068C2F200021160FFF7C2FEFF
:1018F0000020BDE8F08100BF6068811E022907D288
:1019000058F8081C89015CBF0120BDE8F08111E096
:10191000012807D158F8081C89035CBF0120BDE8E5
:10192000F08107E058F8081C890703D40120BDE8BE
:10193000F08100BFD8F8001021F003010843C8F877
:101940000000FEF7CBFE064641F28837D8F80000CB
:10195000616800F00C00B0EB810F8CD0FEF7BEFE8A
:10196000801BB842F2D90320BDE8F0810F2202604B
:1019700043F60802C4F20202136803F00303436053
:10198000136803F0F0038360136803F4E053C3604B
:10199000D2F800C04FF4E05303EADC030361D2F84D
:1019A000F80300F0070008607047000040F25000A4
:1019B00043F60801C2F20000C4F20201006809689F
:1019C00048F27442C1F38221C0F60002515CC84063
:1019D0007047000040F2500043F60801C2F20000D8
:1019E000C4F202010068096848F27442C1F342314E
:1019F000C0F60002515CC8407047000010B543F6C5
:101A00000404C4F20204606800F00C0142F20040D9
:101A10000829C0F2F40007D0042918BF10BD41F214
:101A20000020C0F27A0010BD216801F03F02216859
:101A300023684902C3F3881106D4A1FB00010023E7
:101A4000FEF728FC07E000BF41F20020C0F27A0058
:101A50004843B0FBF2F021680222C1F3014102EBDE
:101A60004101B0FBF1F010BD002804BF0120704718
:101A70002DE9F04182B00446007843F60006C00725
:101A8000C4F202060CD0B06800F00C00042840F04C
:101A900081803068800303D56068002800F0688189
:101AA000207880071BD5B06810F00C0F09D0B06803
:101AB00000F00C00082840F087807068400200F1B8
:101AC00083803068800703D5E068012840F05081AA
:101AD0003068216920F0F80040EAC10030602078C9
:101AE000000713D4207840072AD4A569002D00F000
:101AF0003A81B06800F00C00082840F0A580012D64
:101B000040F00E81012002B0BDE8F081606900283C
:101B100000F082800020C4F247200121C0F8801E1E
:101B2000FEF7DCFD054600BF706F8007DAD4FEF7D4
:101B3000D5FD401B0228F7D9032002B0BDE8F08193
:101B4000306C5FEAC0080AD400200190306C40F08D
:101B500080503064306C00F080500190019847F262
:101B60000007C4F200073868C00547D4386840F45D
:101B700080703860FEF7B2FD054600BF3868C005CA
:101B80003CD4FEF7ABFD401B0228F7D9032002B07E
:101B9000BDE8F081B06800F00C00082803D170683F
:101BA00040023FF576AF61683068B1F5803F07D0FD
:101BB000B1F5A02F40F09A8040F48020306030686A
:101BC00040F4803030609AE0E068002840F2000085
:101BD000C4F247205CD001210160FEF77FFD05467D
:101BE000306880073FF574AFFEF778FD401B022890
:101BF000F6D9032002B0BDE8F08100BFA168306FC4
:101C0000012905D0052955D140F004003067306F17
:101C100040F00100306756E00020C4F24720002168
:101C2000C0F8801EFEF75AFD054600BF706F8007A2
:101C30007FF558AFFEF752FD401B0228F6D903206E
:101C400002B0BDE8F08100BF0027C4F247270020A2
:101C50003866FEF743FD022D05460DD13068800140
:101C600040F18A80FEF73AFD401B02284FF0030046
:101C7000F4D902B0BDE8F0813068800173D5FEF779
:101C80002DFD401B02284FF00300F5D9F1E700BFFE
:101C900000210160FEF722FD054600BF3068800785
:101CA0007FF51DAFFEF71AFD401B02284FF0030021
:101CB000F4D9DEE720F001003067306F002920F012
:101CC000040030677AD0FEF709FD054641F28837F7
:101CD000306F800700F18480FEF700FD401BB842A2
:101CE000F6D9032002B0BDE8F08100BF20F48030B7
:101CF00030603068002920F4802030607AD0FEF710
:101D0000EDFC0546306880033FF5CAAEFEF7E6FC01
:101D1000401B6428F6D9032002B0BDE8F08100BF63
:101D20007068E16900F480028A4221D1216A00F0E2
:101D30003F028A421CD147F6C071626A0140B1EB92
:101D4000821F15D1A16A4FF6FF73C903994300F4AE
:101D50004032A1F580318A420AD1E16A00F0706018
:101D6000B0EB016F04D1002002B0BDE8F08100BFEC
:101D7000012002B0BDE8F08104F11C052FCD08431D
:101D800040EA8210D9034FF6FF729143A1F58031EA
:101D900040EA05600843706001203866FEF79EFC4B
:101DA000044600BF30688001DDD4FEF797FC001BBD
:101DB00002284FF00300F5D95BE700BFFEF78EFC69
:101DC000054641F2883700BF306F800708D5FEF71F
:101DD00085FC401BB8424FF00300F5D949E700BF2E
:101DE000B8F1000F3FF581AE306C20F080503064C8
:101DF0007BE600BFFEF772FC054600BF306880033B
:101E00007FF54EAEFEF76AFC401B64284FF00300DE
:101E1000F4D92EE7704700007047000090F83C208E
:101E2000012A04BF02207047B0B501F108053CCD7E
:101E3000D1E900CE23F47C5322F470521A432EF4DD
:101E4000F0431A432CF4E0431A4324F4C0431A43EA
:101E50002A43C96922F4804203681143596400216E
:101E600080F83C100020B0BD90F83C20012A4FF0D3
:101E7000020254D010B580F83D200268D2F804E088
:101E8000D2F808C00C682EF07003234341F2FF74AF
:101E9000C4F20004A24253600EDC40F2FF73C4F2AD
:101EA00000039A4216DCB2F1804F2BD040F200437F
:101EB000C4F2000324E000BF40F2FF33C4F2010388
:101EC0009A4213DC41F60003C4F200039A4219D08F
:101ED000002313E040F60003C4F200039A4211D03D
:101EE00040F60043C4F200030AE000BF44F20003DE
:101EF000C4F201039A4205D040F20043C4F2010348
:101F00009A4204D149682CF0800319439160012161
:101F1000002280F83D1080F83C20BDE810401046BB
:101F200070470000002804BF0120704710B5044628
:101F300090F83D0028B9002084F83C00204600F0CD
:101F40001FF8022084F83D002068211D03F0ECF901
:101F5000012084F8460084F83E0084F83F0084F8AD
:101F6000400084F8410084F8420084F8430084F87B
:101F7000440084F8450084F83D00002010BD0000B6
:101F800080B582B0006843F6FF71C4F20101884257
:101F900020DD44F20001C4F20101884234D044F251
:101FA0000041C4F2010188423CD044F60001C4F271
:101FB0000101884245D10020019043F64400C4F25B
:101FC0000200016841F480210160006800F4802073
:101FD00035E000BF41F20001C4F20001884233D075
:101FE0000021C4F2010188422BD10020019043F668
:101FF0004400C4F20200016841F001010160006880
:1020000000F001001BE000BF0020019043F64400F7
:10201000C4F20200016841F480310160006800F4FC
:1020200080300CE00020019043F64400C4F202002E
:10203000016841F400310160006800F40030019053
:10204000019802B080BD00BF0020019043F644001B
:10205000C4F2020050F8041C002241F0100140F8C4
:10206000041C50F8040C052100F0100001900198A8
:102070003620FFF78DFB362002B0BDE88040FFF729
:1020800075BB000090F83D1001291CBF012070476E
:10209000022180F83D10006841F2FF72C168C4F26D
:1020A0000002904241F00101C1600DDC40F2FF717D
:1020B000C4F20001884215DCB0F1804F2AD040F212
:1020C0000041C4F2000123E040F2FF31C4F20101FB
:1020D000884213DC41F60001C4F20001884219D0A5
:1020E000002113E040F60001C4F20001884211D043
:1020F00040F60041C4F200010AE000BF44F20001D2
:10210000C4F20101884205D040F20041C4F201014D
:10211000884206D1816801F00701062904BF00202A
:102120007047016841F00101016000207047000024
:1021300090F83C20012A4FF002026CD080B580F864
:102140003D20D0F800C04FF67772DCF8083023EA63
:102150000202CCF808200B684F2B29DC1F2B45DD31
:10216000202B46D0302B44D0402B40F0AF80D1F80C
:1021700004E0C968DCF82030DCF8202022F00102FD
:10218000CCF82020DCF8182022F0F00242EA0111FD
:1021900023F00A0242EA0E02CCF81810CCF82020F4
:1021A000DCF8081041F0470121F0300128E000BFC1
:1021B0006F2B33DDB3F5005F74D0B3F5805F21D0B2
:1021C000702B40F08380D1E901E3C968DCF8082076
:1021D00043EA0E0322F47F4243EA01211143CCF883
:1021E0000810DCF8081041F0770109E00BB1102B62
:1021F0006CD1DCF8081021F07001194341F007019F
:10220000CCF808100022012180F83D10002180F850
:102210003C10BDE880401046704700BF502B21D0D5
:10222000602B53D1D1F804E0C968DCF82030DCF829
:10223000202022F01002CCF82020DCF8182022F414
:10224000704242EA013123F0A00242EA0E12CCF8B9
:102250001810CCF82020DCF8081041F0670121F0BC
:102260001001CDE7D1F804E0C968DCF82030DCF8D3
:10227000202022F00102CCF82020DCF8182022F0E7
:10228000F00242EA011123F00A0242EA0E02CCF8FF
:102290001810CCF82020DCF8081041F0570121F08C
:1022A0002001ADE7D1E901E3C968DCF8082043EA81
:1022B0000E0322F47F4243EA01211143CCF80810B7
:1022C000DCF8081041F480419AE700BF01229AE748
:1022D000002804BF012070472DE9F047044690F81C
:1022E0003D000D4628B9002084F83C00204600F04F
:1022F00049F8022084F83D00206844F20702816812
:1023000091438160211D03F00FF820684FF6FF789C
:1023100081688269D0F820C0D5E9003ED5E9026A1B
:1023200043EA0109AB6922EA080246EA03234FF6B1
:10233000FC46B343D5E9076742EA0A0229691A4312
:1023400042EA062242EA01112CF0AA026B6942EA33
:102350000E0241EA073142EA0312C0F80890816197
:102360000262012084F8460084F83E0084F83F00B1
:1023700084F8420084F8430084F83D000020BDE862
:10238000F0870000F0B587B00068002100F1404000
:102390004FEAB02003280691CDE904110391029180
:1023A00000F2B680DFE800F00284405C002443F6CF
:1023B00030000194C4F20200016940F2004741F08C
:1023C000010101610169C4F2020701F001010191FB
:1023D000019901940168022541F001010160016841
:1023E000012601F00101019101990194016841F078
:1023F00002010160006802A900F00200019001984A
:102400004FF400400290A7F58060CDE90354059495
:102410000696FEF793F808213846CDE90215CDE976
:10242000044406961C2468E0002043F63001019025
:10243000C4F202010A691E2442F004020A610A6918
:1024400002F004020192019A01900A6842F002022D
:102450000A60096801F0020101910199C02142E07E
:10246000002043F630010190C4F202010A693224CF
:1024700042F008020A610A6902F008020192019A18
:1024800001900A6842F001020A60096801F0010146
:1024900001910199032102910221CDE90310CDE9B7
:1024A000050140F20040C4F20200A0F5806024E083
:1024B000002043F630010190C4F202010A691D2494
:1024C00042F002020A610A6902F002020192019AD4
:1024D00001900A6842F002020A60096801F00201F4
:1024E00001910199302102910221CDE90310CDE93A
:1024F000050140F20040C4F2020002A9FEF71EF8F6
:10250000204605210022FFF743F92046FFF72EF968
:1025100007B0F0BD80B590F83E2090F83F3090F8BD
:1025200042E090F843C004290AD0F9B9012A4FF0DB
:10253000010208BFBEF1010F46D0104680BD00BFAA
:10254000012B4FF0010208BFBCF1010FF5D10221B0
:1025500080F83F1080F843100068016A21F01001F4
:102560000162016A41F0100101622AE0012A4FF084
:10257000010208BF012BE0D1BEF1010FDDD1BCF19A
:10258000010FDAD1022280F83E2080F83F2080F847
:10259000422080F84320E1B10068016A21F0010186
:1025A0000162016A41F001010162016A21F010013A
:1025B0000162016A41F010010162C16841F002014B
:1025C000C16004210FE000BF022180F83E1080F8B6
:1025D00042100068016A21F001010162016A41F0C4
:1025E000010101620221C2681143C1600168002239
:1025F00041F001010160104680BD000070470000FD
:1026000070B504460068C5680669B10716D515F0AF
:10261000020113D06FF0020101610121217780696D
:10262000800703D02046FFF7E9FF05E0204600F0D1
:1026300017F9204600F056FA00202077700719D5C8
:1026400015F0040016D020686FF00401016102212A
:102650002177806910F4407F04D02046FFF7CEFF39
:1026600006E000BF204600F0FBF8204600F03AFAF2
:1026700000202077300717D515F0080014D0206807
:102680006FF00801016104212177C069800703D040
:102690002046FFF7B3FF05E0204600F0E1F82046B2
:1026A00000F020FA00202077F00619D515F0100070
:1026B00016D020686FF01001016108212177C069F0
:1026C00010F4407F04D02046FFF798FF06E000BFDB
:1026D000204600F0C5F8204600F004FA00202077DC
:1026E000F00718BF15F0010002D1300609D412E03E
:1026F00020686FF001010161204600F07DFA30068C
:1027000009D515F0800006D020686FF080010161C6
:102710002046FFF77FFB700609D515F0400006D074
:1027200020686FF040010161204600F051FBB006C7
:1027300058BF70BD15F0200008D021686FF020024E
:1027400020460A61BDE87040FFF766BB70BD00001F
:1027500080B586B0006844F2FF31C4F201018842BE
:102760004FF000010591CDE90311CDE901111DDC08
:102770000021C4F20101884236D044F20001C4F2C3
:10278000010188426AD10020009043F63000C4F273
:102790000200016841F0100101600068032100F0AF
:1027A000100000900098602030E000BF44F200412B
:1027B000C4F20101884231D044F60001C4F20101A3
:1027C00088424BD10020009043F63000C4F2020052
:1027D000016841F002010160006800F00200009011
:1027E00000984FF400702AE00020009043F630007B
:1027F000C4F20200016841F010010160006801218B
:1028000000F01000009000984FF4D440019040F286
:102810000040C4F2020000F5406016E00020009085
:1028200043F63000C4F20200016841F00201016089
:10283000006800F00200009000984FF48070019052
:1028400040F200400321C4F2020002220292002260
:10285000059101A9CDE90322FDF770FE06B080BD08
:102860007047000090F83C30012B04BF02207047F5
:102870004FEAB202032A00F2FF802DE9F043DFE8BD
:1028800002F003B13F7F00BF036840F200461C6ABC
:102890001A6A24F0020422F001021A621A46D3F8DE
:1028A00004C052F818EF8F6843F48065C4F2010643
:1028B000B54244EA070405D1CF6824F00C0427F0A0
:1028C00004073C430F68B54206D1D1E905582CF402
:1028D00040762E4346EA080C2EF073063743C3F8C1
:1028E00004C09F614F6809695F631C629F6947F07C
:1028F00008079F619F6927F004079F61B1E000BF4F
:10290000036840F200481C6A1A6A24F4007422F436
:1029100080721A621A46D3F804C052F81CEF8F680E
:1029200043F48065C4F20108454544EA072408D110
:10293000CF6840F2FF463F0224F4406427EA0606CF
:102940003443D1F80090454506D1D1E905562CF421
:1029500040572E4347EA061C2EF0730747EA090743
:10296000C3F804C0DF614F680969DF631C62DF6977
:1029700047F00807DF61DF6927F00407DF6170E0D7
:10298000036840F20045D3F820C01A6A43F4806718
:1029900022F480521A621A465C6852F81C8FD1F8F1
:1029A00000E08E68C4F20105AF4204D14D6924F401
:1029B000804444EA85142CF4005747EA063728F48B
:1029C000E64646EA0E265C60DE614E6809691E64D2
:1029D0001F62DF6947F40067DF61DF6927F4806702
:1029E000DF613DE0036840F200481C6A1A6A24F087
:1029F000200422F010021A621A46D3F804C052F8DA
:102A000018EF8F6843F48065C4F20108454544EA35
:102A1000071407D1CF686FF0400624F0C00406EA1F
:102A200007163443D1F80090454506D1D1E9055643
:102A30002CF440672E4347EA860C2EF4E64747EA1B
:102A40000927C3F804C09F614F6809699F631C622E
:102A50009F6947F400679F619F6927F480679F61C2
:102A600009021368194311600021BDE8F0430022F8
:102A700080F83C20084670470121002280F83C2065
:102A800008467047002804BF0120704710B504466F
:102A900090F83D0028B9002084F83C00204600F062
:102AA0001FF8022084F83D002068211D02F03CFC44
:102AB000012084F8460084F83E0084F83F0084F842
:102AC000400084F8410084F8420084F8430084F810
:102AD000440084F8450084F83D00002010BD00004B
:102AE0007047000070470000C1B1042908D00829D0
:102AF00014BF41224022825C012A05D016E000BFAB
:102B00003F22825C012A11D10222082910D0042917
:102B100014BF80F8412080F83F200BE090F83E2061
:102B2000012A03D1022280F83E2003E001207047F1
:102B300080F84020006801F01F010122036A02FAB8
:102B400001F123EA01020262026A114341F2FF72BB
:102B5000C4F20002904201620CDC40F2FF71C4F248
:102B60000001884214DCB0F1804F37D040F20041C0
:102B700016E000BF40F2FF31C4F20101884215DCCB
:102B800041F60001C4F20001884227D0002115E07F
:102B900040F60001C4F2000188421FD040F6004117
:102BA000C4F20001884219D01FE000BF44F20001C6
:102BB000C4F20101884211D040F20041C4F2010187
:102BC000884212D1416C40F2004340F48062C4F26A
:102BD000010341F400419A42416406D1816801F049
:102BE0000701062904BF00207047016841F0010178
:102BF0000160002070470000B0B52DED028B41F25E
:102C000000050446C4F20005006805F580618842AD
:102C10000AD0A8420DD000F140404FEAB02004286D
:102C200015D9BDEC028BB0BDFEF7FAFC2068A842B6
:102C3000F1D140F28010C2F20000443003F0B2FB48
:102C4000206800F140404FEAB0200428E9D8DFE8CE
:102C500000F003A77B91170040F29030C2F2000011
:102C60000068026840F21860C2F20000016DD206EE
:102C700054BF013101390165BDEC028BB0BD00BF0D
:102C800040F29030C2F20000006840F21864C2F2D4
:102C90000004416A226D9FED4D8A01EB02422146FC
:102CA00004F1200041F8542F04F16402B0EE480A08
:102CB000012302F009FF40F2D830C2F200000068A0
:102CC000B0EE480A406AD4F8E010012300EB01405E
:102CD00044F8E40FA4F1340004F11002214602F09C
:102CE000F3FE40F22040C2F200000068B0EE480A55
:102CF000416AD4F88C2004F15C0001EB0241C4F875
:102D0000901004F1900104F1A002012302F0DCFE16
:102D100040F26840C2F200000068B0EE480A416A22
:102D2000D4F81C2104F1EC0001EB024504F590718C
:102D300004F598720123C4F82051BDEC028BBDE864
:102D4000B04002F0C1BE00BF40F22040C2F200001D
:102D50000068026840F21860C2F20000D0F87011FA
:102D6000D2064CBF01390131C0F87011BDEC028BA5
:102D7000B0BD00BF40F26840C2F2000000680268C7
:102D800040F21860C2F20000D0F80012D2064CBF28
:102D900001390131C0F80012BDEC028BB0BD00BF9B
:102DA00040F2D830C2F200000068026840F21860B9
:102DB000C2F20000D0F8E010D2064CBF0139013158
:102DC000C0F8E010BDEC028BB0BD00BF6666663F88
:102DD000704700007047000070470000B0B582B037
:102DE00001680A68CC684B6902F02F05202D04F0B9
:102DF000200505D125B102B0BDE8B04002F03CBBD2
:102E00005FEA027C1EBF03F0010E04F4907313EB23
:102E10000E0341D1036BD50618D5012B16D114F042
:102E2000100313D0002201920A6801924A680192AD
:102E3000019A496949064BD4818DC28DC38D002BFF
:102E400018BF914240F0F48102B0B0BD13062DD5F9
:102E500014F080032AD090F84120212AF4D182680E
:102E6000B2F5805F03D10269002A00F06782026A2E
:102E7000531C036212784A60C28C013A1304C28464
:102E8000E2D1C86820F08000C860C86840F0400007
:102E9000C86002B0B0BD00BFD30718BF14F4807380
:102EA00040F0D080530700F1D380D8E05206CBD554
:102EB00014F04002C8D0CA6822F04002CA60202143
:102EC00080F8411002B0BDE8B04000F041BB00BF47
:102ED000C16B0A68526893B2002BB5D0858DAB42A6
:102EE000B2D2C285C969B1F5807F00F0A0800168C7
:102EF00051E8031F026821F4807142E80313DBB13B
:102F0000016851E8031F026821F4807142E803134D
:102F100093B1016851E8031F026821F4807142E80F
:102F200003134BB1016851E8031F026821F480715B
:102F300042E80313002BDAD1016851E8051F02684B
:102F400021F0010142E80513BBB3016851E8051FF8
:102F5000026821F0010142E8051373B3016851E8EA
:102F6000051F026821F0010142E805132BB3016837
:102F700051E8051F026821F0010142E80513002B0A
:102F8000DAD11AE0016851E8051F026821F040011A
:102F900042E80513DBB1016851E8051F026821F022
:102FA000400142E8051393B1016851E8051F02682A
:102FB00021F0400142E805134BB1016851E8051FBB
:102FC000026821F0400142E80513002BDAD12021EC
:102FD00080F8421000210163016851E8031F026874
:102FE00021F0100142E80313DBB1016851E8031F2F
:102FF000026821F0100142E8031393B1016851E81F
:10300000031F026821F0100142E803134BB101686D
:1030100051E8031F026821F0100142E80313002B5E
:10302000DAD1C16B04460846FDF728FA2046022192
:103030004163818DC28D891A89B202B0BDE8B0406A
:10304000FFF7C8BE436C43F001034364530706D542
:10305000BEF1000F03D0436C43F0020343649307B7
:1030600006D5BEF1000F03D0436C43F00403436464
:10307000BCF1000F06D55EEA050303D0436C43F0B4
:1030800008034364436C002B3FF4DEAE920605D583
:1030900025B1044602F0F0F9216820464969426CE6
:1030A00001F0400102F00802891800F0B98000BF69
:1030B000016851E8031F026821F4907142E803138C
:1030C000BBB3016851E8031F026821F4907142E824
:1030D000031373B3016851E8031F026821F4907170
:1030E00042E803132BB3016851E8031F026821F47F
:1030F000907142E80313002BDAD11AE0016851E81D
:10310000051F026821F0010142E80513DBB10168E7
:1031100051E8051F026821F0010142E8051393B14F
:10312000016851E8051F026821F0010142E805131A
:103130004BB1016851E8051F026821F0010142E826
:103140000513002BDAD1016B012924D1016851E864
:10315000031F026821F0100142E80313DBB101688C
:1031600051E8031F026821F0100142E8031393B1F4
:10317000016851E8031F026821F0100142E80313BF
:103180004BB1016851E8031F026821F0100142E8C9
:103190000313002BDAD1202180F8421000210163B3
:1031A00001684969490640F1C380016851E8051F7B
:1031B000026821F0400142E80513DBB1016851E8E3
:1031C000051F026821F0400142E8051393B1016830
:1031D00051E8051F026821F0400142E805134BB198
:1031E000016851E8051F026821F0400142E805131B
:1031F000002BDAD1C16B002900F09A8045F26D42B4
:10320000C0F60002044608460A65FDF77FF900286B
:103210003FF41AAEE06B016D02B0BDE8B040084764
:103220000446FFF7D9FD0020606402B0B0BD00BFC6
:10323000891A00BF026852E8032F036822F49072D3
:1032400043E80325BDB3026852E8032F036822F464
:10325000907243E8032575B3026852E8032F0368B0
:1032600022F4907243E803252DB3026852E8032F3D
:10327000036822F4907243E80325002DDAD11AE0A6
:10328000026852E8052F036822F0010243E8052591
:10329000DDB1026852E8052F036822F0010243E81D
:1032A000052595B1026852E8052F036822F0010256
:1032B00043E805254DB1026852E8052F036822F066
:1032C000010243E80525002DDAD1202280F84220B2
:1032D00000220263026852E8032F036822F0100202
:1032E00043E80325DDB1026852E8032F036822F0AA
:1032F000100243E8032595B1026852E8032F0368E2
:1033000022F0100243E803254DB1026852E8032F72
:10331000036822F0100243E80325002DDAD10222CF
:1033200089B2426302B0BDE8B040FFF753BD00BFB1
:1033300002B0BDE8B040FFF74FBD00BF026A32F8EF
:10334000023B6FF35F234B60026295E5002804BFE8
:103350000120704710B5044690F8410028B90020BC
:1033600084F84000204600F021F8242084F8410031
:103370002068C16821F40051C160204602F0FCF8C9
:103380002068016921F490410161416921F02A011D
:103390004161C16841F40051C16000202021606496
:1033A00084F8411084F84210606310BD10B586B0F7
:1033B000006844F60002C4F2000200219042CDE908
:1033C0000411CDE90211019122D044F20041C4F26E
:1033D000000188424FD1002043F630010090C4F232
:1033E00002010A69262442F400320A610A6902F4E1
:1033F00000320092009A0090086840F008000860CF
:10340000086800F008000090009860201BE000BFF2
:1034100043F630000091C4F202000269272442F40E
:1034200080220261026902F480220092009A0091D7
:10343000016841F008010160006800F00800009098
:1034400000984FF4407001900220029000200390F9
:10345000032004900720059040F60040C4F20200CB
:1034600001A9FDF76BF8204605210022FEF790F92F
:103470002046FEF77BF906B010BD000090F8423000
:10348000202B07D100294FF0010318BF002A05D1D6
:103490001846704702231846704700BF0023036395
:1034A000816222218285C285436480F842100169CD
:1034B000006819B1C16841F48071C160416941F08F
:1034C00001014161C16841F02001C16018467047A7
:1034D000B0B584B00446006844F20045C4F200056B
:1034E000A84205D005F5806188421BD004B0B0BD6C
:1034F00000200421CDE90010029044F6040044F6B7
:1035000030014FF0090CC2F20000C2F200010222A9
:103510000023CDF80CC002F0E3FD206805F58061C2
:103520008842E3D100200421CDE90010029044F646
:10353000040040F600410925C2F20000C2F2000179
:1035400002220023039502F0CBFD04B0B0BD0000C1
:1035500070470000FEE7000040F26420C2F2000065
:10356000FDF7C6B840F26420C2F20000FDF768B96A
:1035700010B581B000210091806B40F25001C2F281
:10358000000190F83DC009684BF28952C908C1F2A8
:10359000F842A1FB0212110A232251430091009923
:1035A00011B30099013900910168096889051FD597
:1035B0000099C9B10099013900910168096889052C
:1035C00016D5009981B10099013900910168096807
:1035D00089050DD5009939B100990139009101682B
:1035E00009688905DBD403E0016C41F02001016426
:1035F000446B4FF0000E002C1CBF0021E163816B77
:1036000000291CBF0022CA630268002C136823F43F
:1036100080631360A0F82AE018BFC4F850E00029C6
:103620001CBF00230B65116821F00101116090F8A7
:103630003D1060290CD1202180F83D10002180F838
:103640003E10016401B0BDE81040FDF74DB800BF69
:103650000CF02801282911D1116841F001011160F5
:10366000116841F48061116000210163282180F814
:103670003D1001B0BDE81040FDF7E0BB202180F80F
:103680003D10002180F83E1001B0BDE81040FDF76C
:10369000D5BB000010B5044690F83D1090F83E00F0
:1036A000B0F1100218BF0122403818BF01200242B9
:1036B00008BF222934D001F0280028283AD1002060
:1036C0002063282084F83D0020684168090542D520
:1036D000416821F400614160606B90F83510012968
:1036E00058D1A06B43F27151C0F600010165FCF79F
:1036F0000DFF002861D020684169490606D50069A0
:10370000616A0870616A206801316162016821F0B4
:1037100001010160202084F83D00A06B4BE000BF58
:103720002068026822F4006202604268120505D532
:103730000CE000BF20684268120507D4602905D05C
:10374000202184F83D10002184F83E1000212163DF
:1037500041680905BCD494F83D10602950D120215E
:1037600084F83D10002121644169490606D50069AD
:10377000616A0870616A206801316162016821F044
:10378000010101602046FCF7AFFF206C000717D154
:103790001BE000BF43F27151C0F600010165FCF768
:1037A000B5FE50B12168606B0A6822F001020A6020
:1037B000202184F83D10016D8847206C000704D05B
:1037C0002068416821F4E061416094F83D00216C7B
:1037D000490758BF10BD282810D10020CFF6FF7030
:1037E000E06200212020216384F83D00204684F817
:1037F0003E10BDE81040FDF7DFBC00BF10BD00BFAC
:103800004169490605D50069616A0870606A01303E
:1038100060622046FDF712FB206C0007D0D1D4E790
:10382000C16A428D042A07D10168426A4B6823F4B9
:1038300080634B60096911E0428D032A16D102684A
:103840000229536823F48063536005D0042903D010
:10385000116821F4806111601169426A1170416A36
:1038600001314162418D013941857047428D022A03
:1038700012D14A1E0F2A19D8DFE802F008121812D6
:103880001818181818181818181818080268136843
:1038900023F480630EE000BF0168426ACAE700BFFC
:1038A0000268136843F4806304E000BF0268136891
:1038B00043F4007313601269436A1A70426AD0F8C5
:1038C00000C0531C4362438D013B4385DCF810303C
:1038D0005370426A036801324262428D013A428566
:1038E0005A6822F440725A60202280F83D2090F8F5
:1038F0003E300022402B80F83E2003D10263FDF7CA
:1039000061BC00BFB1F1080218BF1222203918BFF4
:1039100011460163FDF752BC81B090F83D10222999
:1039200010D1C16A428D042A0ED30168426A096926
:103930001170416A01314162418D01394185418DEA
:1039400003295DD001B07047C36A012A58D8022B01
:1039500056D00022009240F25002C2F200021268D9
:103960004BF28953D208C1F2F843A2FB03231A0A8F
:1039700002EB82020092009A013A0092009A002A19
:1039800046D0026813689B051AD5009A013A009246
:10399000009AEAB3026813689B0511D5009A013AB0
:1039A0000092009AA2B3026813689B0508D5009A9A
:1039B000013A0092009A5AB3026813689B05DAD460
:1039C000136823F480631360536823F4E063536047
:1039D0001269436A1A70426A01324262428D013AA8
:1039E0004285202280F83D2090F83E300022402B76
:1039F00080F83E2028D1026301B0FDF7E3BB00BF91
:103A00000068416821F48061416001B0704700BFE7
:103A1000016C41F0200101640168426A4B6823F4A3
:103A2000E0634B6009691170416A01314162418D67
:103A300001394185202180F83D10002180F83E1099
:103A400001B0FDF7FBB900BFB1F1080218BF1222A7
:103A5000203918BF1146016301B0FDF7AFBB00006C
:103A6000C16A90F83D20212A18BF7047428D4AB1A3
:103A7000416A026811F8013B13614162418D0139CD
:103A80004185704711F5803F18BF082918D101689A
:103A90004A6822F4E0624A600A6842F400720A60EE
:103AA00000212022016380F83D2090F83E2080F81C
:103AB0003E10402A08BFFDF787BBFDF781BB00BF62
:103AC0002029E4D001684A6822F4E0624A601121AA
:103AD0000163002180F83E10202180F83D10FDF7A1
:103AE0006FBB000090F83D1090F83EC0C26A038D95
:103AF000002B08BF212919D0212905D0BCF1400F86
:103B000008BF222900D07047418D69B390F83E105C
:103B1000402908BF00F040B8416A026811F8013B33
:103B200013614162418D01394185704712F5803F33
:103B300018BF082A1ED101684A6822F4E0624A6070
:103B40000A6842F400720A6000212022016380F8B2
:103B50003D2090F83E2080F83E10402A08BFFDF737
:103B600033BBFDF72DBB00BF0068416821F48061C5
:103B700041607047202ADED001684A6822F4E06282
:103B80004A6011210163002180F83E10202180F855
:103B90003D10FDF715BB000090F83D10026D5AB1C5
:103BA000026D012A14D10168826CD2B20A61016DE2
:103BB00001310165704700BFC26C816C012A15D1CB
:103BC0000268C9B21161016D02310165704700BF21
:103BD000026D022A12D1222918D101680A6842F422
:103BE00080720A60016D0131016570470268C1F39E
:103BF00007211161016D013101657047006841695C
:103C0000090644BF00210161704700BF428D5AB1CF
:103C1000212909D1416A026811F8013B136141620F
:103C2000418D013941857047428D002A08BF212905
:103C3000EAD101684A6822F4E0624A600A6842F404
:103C400000720A6000212022016380F83D2080F884
:103C50003E10FDF7B9BA00002DE9F04782B00446E6
:103C600000689A460B9D0A9E0368914643F4806261
:103C7000026002680F4642F48071016020464FF0F6
:103C8000011100223346009500F032F950B120684E
:103C90000068C00544BF4FF400702064032002B0E8
:103CA000BDE8F08740F202082068C0F2010807F082
:103CB000FE0707612046414632462B4600F0FEF9DA
:103CC00020B1012002B0BDE8F08700BF00200190C4
:103CD00020682A4641690191806931460190019826
:103CE000204600F09FFAB0B92068BAF1010F09D060
:103CF0004FEA19210161204631462A4600F092FA26
:103D000048B920685FFA89F10161204631462A46A8
:103D100000F088FA60B1206C0428D2D120680168D4
:103D200041F400710160012002B0BDE8F08700BFDE
:103D3000206800220168334641F48071016020460A
:103D40004FF00111009500F0D3F800289FD147F003
:103D5000010C27682046414632462B46C7F810C062
:103D600002B0BDE8F04700F0A9B900002DE9F0432A
:103D700083B0044600680F4601680A9D0B9E41F41B
:103D8000807199469046016020464FF00111002253
:103D90002B46009600F0ACF850B120680068C005D2
:103DA00044BF4FF400702064032003B0BDE8F083EB
:103DB000206807F0FE0101610221C0F201012046E6
:103DC0002A46334600F07AF920B1012003B0BDE85D
:103DD000F08300BF002002902068324641690291C2
:103DE0008069294602900298204600F01BFA58B1DB
:103DF000206C0428E9D12068016841F40071016059
:103E0000012003B0BDE8F0832068B9F1010F0AD0AA
:103E10004FEA1821016120462946324600F002FA95
:103E20000028E5D120685FFA88F10161002003B025
:103E3000BDE8F08370B50368044653F8140F4007DB
:103E400011D40E46481C29D086BB00BF1868400517
:103E500027D4FCF743FC236853F8140F400737D5E9
:103E600018684007F2D5002070BD00BF18684007F1
:103E7000F9D41868400514D418684007F3D41868BA
:103E800040050ED418684007EDD41868400508D4E2
:103E9000186840074FF0000048BF70BD1868400523
:103EA000E4D56FF480601860042012E0154603E04A
:103EB00053F8140F4007D6D418684005F1D4FCF726
:103EC0000DFC401B2368B042F2D958694007EFD47B
:103ED000202000212022216384F83D2084F83E1018
:103EE000226C10432064012084F83C1070BD000057
:103EF0002DE9F041054600681E46144601F47F0294
:103F000001338FB242D0DDF81880B2F5803F40F027
:103F1000878040693840C01BB0FA80F04009A04259
:103F200040F0C8804EB924E040693840C01BB0FA68
:103F300080F04009A04240F0BD80FCF7CFFBA0EB31
:103F400008012868B142EFD941693940C91BB1FA6B
:103F500081F14909A142E7D19BE000BF40693840A7
:103F6000C01BB0FA80F04009A0424FF0000040F0C2
:103F7000A280FCF7B3FB286841693940C91BB1FA3C
:103F800081F14909A142E9D183E000BFB2F5803F48
:103F900024D100BF41693940C91BB1FA81F14909F7
:103FA000A14240F0878041693940C91BB1FA81F1D3
:103FB0004909A14240F07E8041693940C91BB1FAEC
:103FC00081F14909A14275D141693940C91BB1FA52
:103FD00081F14909A142DDD06CE000BF816939401F
:103FE000C91BB1FA81F14909A14263D18169394004
:103FF000C91BB1FA81F14909A1425BD181693940FC
:10400000C91BB1FA81F14909A14253D181693940F3
:10401000C91BB1FA81F14909A142DFD04AE000BFD2
:1040200080693840C01BB0FA80F04009A04241D1FD
:1040300046B923E080693840C01BB0FA80F04009DF
:10404000A04237D1FCF74AFBA0EB08012868B14237
:10405000F0D981693940C91BB1FA81F14909A142FE
:10406000E8D116E080693840C01BB0FA80F0400902
:10407000A0424FF0000018BFBDE8F081FCF72EFB16
:10408000286881693940C91BB1FA81F14909A14207
:10409000E8D100202021286385F83D1085F83E00F6
:1040A000296C41F02001296485F83C000120BDE81D
:1040B000F08100BF0020BDE8F0810000F0B581B0C4
:1040C000044600681D4643698FB203EA0701B942FE
:1040D00002D1002001B0F0BD4169164601323CD04A
:1040E000490512D47EB300BFFCF7F8FA411B2068E3
:1040F000B14203D941693940B9422BD141693940B4
:10410000B942E6D041694905EED5016841F4007134
:1041100001606FF48061416104200021202221634D
:1041200084F83D2084F83E10226C1043206484F80B
:104130003C10012001B0F0BD41693940B942C8D0FE
:1041400041694905E1D4FCF7C9FA20684169394061
:10415000B942F1D02020E0E741694905D5D4416951
:104160003940B942B5D041694905CED44169394099
:10417000B942AED041694905C7D441693940B94215
:10418000A7D041694905C0D441693940B942E3D15A
:104190009FE7000070B504460068154650F8143FCC
:1041A0005A063DD40E4629B926E000BF50F8141F28
:1041B000490635D40168C90621D4FCF78FFA411BA2
:1041C0002068B142F2D941694906EFD4002020218C
:1041D000206384F83D1084F83E00206C40F02000FD
:1041E00018E000BFFCF77AFA206850F8141F49065F
:1041F000ECD50168490613D40168C906F2D56FF001
:104200001001016000202021206384F83D1084F813
:104210003E00206C2064002084F83C00012070BD2A
:10422000002070BD70B50368044653F8140F0006F3
:1042300011D40E46481C29D086BB00BF1868400523
:1042400027D4FCF74BFA236853F8140F000637D530
:1042500018680006F2D5002070BD00BF186800067F
:10426000F9D41868400514D418680006F3D4186807
:1042700040050ED418680006EDD41868400508D42F
:10428000186800064FF0000048BF70BD1868400570
:10429000E4D56FF480601860042012E0154603E056
:1042A00053F8140F0006D6D418684005F1D4FCF773
:1042B00015FA401B2368B042F2D958690006EFD4C2
:1042C000202000212022216384F83D2084F83E1024
:1042D000226C10432064012084F83C1070BD000063
:1042E00070B596B01C480DF1400E0F901AA000F169
:1042F000040C9CE81E1080698EE81E1015900FA813
:10430000002102F025FB40F2B806C2F2000619496E
:10431000306018A0051D08913ECD80690DF1240C78
:104320008CE83E000E9008A8002102F011FB18490D
:10433000706017A0051D01912ECDD0E905400DF14B
:10434000080C8CE82E00CDE9064001A8002102F0FF
:10435000FFFAB06016B070BD7C840008BD6700082D
:1043600000000000000000008000000000000000CD
:104370000000000098840008C1680008FDFF0000EC
:1043800000000000800000000000000000000000AD
:1043900089840008A16E0008FDFF000000000000F5
:1043A00080000000000000000000000081B000213B
:1043B00043F630000091C4F20200026842F010029D
:1043C0000260026802F010020092009A00910268F6
:1043D00042F080020260026802F080020092009ABD
:1043E0000091026842F001020260026802F00102DC
:1043F0000092009A0091026842F002020260026894
:1044000002F002020092009A0091016841F0080156
:104410000160006800F008000090009801B070474B
:1044200080B540F2642045F60001C2F20000C4F2FB
:10443000000141F6802200234FF4804CC0F20602B6
:1044400080E80E00C0E9033CC0E90533C0E907334A
:10445000FCF7F6FC002808BF80BDBDE88040FCF7F3
:1044600009B8000080B588B040F2003044F2004244
:104470000021C2F20000C4F2010244F29F13CDE910
:104480000611CDE90411C0E90021C0E90213016160
:104490008161FDF747FD002818BFFBF7EBFF40F2F5
:1044A0000030C2F20000FEF7EDFA002818BFFBF75B
:1044B000E1FF602001900020CDE90200059040F26C
:1044C0000030C2F2000001A90022FEF7CBF900285B
:1044D00018BFFBF7CFFF40F20030C2F20000FEF73A
:1044E00037F908B080BD000080B588B040F2483090
:1044F00044F600020021C2F20000C4F2010244F2BC
:104500009F13CDE90611CDE90411C0E90021C0E9EE
:10451000021301618161FDF705FD002818BFFBF75B
:10452000A9FF40F24830C2F20000FEF7ABFA0028C3
:1045300018BFFBF79FFF602001900020CDE902002B
:10454000059040F24830C2F2000001A90022FEF7B7
:1045500089F9002818BFFBF78DFF40F24830C2F2FE
:104560000000FEF7F5F808B080BD000010B596B069
:1045700040F2B82000220021C2F20000C4F2010281
:1045800044F29F131591CDE913111191CDE90F114B
:10459000CDE90D11CDE90B11CDE90911CDE90711D7
:1045A000CDE90511CDE90311CDE90111C0E90021E3
:1045B000C0E90213C0E904118161FDF7B3FC0028D2
:1045C00018BFFBF757FF4FF48050129040F2B8200D
:1045D000C2F2000012A9FDF7ABFD002818BFFBF7DF
:1045E00049FF40F2B820C2F20000FEF74BFA002863
:1045F00018BFFBF73FFF40F2B8200024C2F20000D2
:1046000010A9CDE91044FDF72FFC002818BFFBF7D7
:1046100031FF6020CDE9090440F2B820C2F2000069
:1046200009A90022CDE90B44CDE90D440F94FEF712
:1046300019F9002818BFFBF71DFF40F2B820C2F29D
:10464000000009A90422FEF70DF9002818BFFBF7A6
:1046500011FF40F2B820C2F2000009A90822FEF7BB
:1046600001F9002818BFFBF705FF40F2B820C2F29D
:10467000000009A90C22FEF7F5F8002818BFFBF787
:10468000F9FE00200590CDE90300CDE901004FF4CB
:104690000051089040F2B8200691C2F2000001A932
:1046A000FDF7BCFB002818BFFBF7E4FE40F2B82082
:1046B000C2F20000FEF74CF816B010BD80B58CB009
:1046C00040F290300021C2F200004FF080424FF6DD
:1046D000FF73C0E900210322C0E90213CDE90321E1
:1046E00001220A23CDE9001101618161CDE9052193
:1046F000CDE90731CDE9092103A90B93FDF7E8FDC9
:10470000002818BFFBF7B6FE40F29030C2F200005E
:104710006946FDF7A9FB002818BFFBF7ABFE0CB0FC
:1047200080BD000080B58CB040F2D83040F200422D
:104730000021C2F20000C4F200024FF6FF73C0E98C
:1047400000210322C0E90213CDE9032101220A233B
:10475000CDE9001101618161CDE90521CDE9073184
:10476000CDE9092103A90B93FDF7B2FD002818BF7D
:10477000FBF780FE40F2D830C2F200006946FDF738
:1047800073FB002818BFFBF775FE0CB080BD00005E
:1047900080B58CB040F2204040F600020021C2F209
:1047A0000000C4F200024FF6FF73C0E900210322AB
:1047B000C0E90213CDE9032101220A23CDE900114A
:1047C00001618161CDE90521CDE90731CDE90921FB
:1047D00003A90B93FDF77CFD002818BFFBF74AFEE9
:1047E00040F22040C2F200006946FDF73DFB002880
:1047F00018BFFBF73FFE0CB080BD000080B58CB049
:1048000040F2684040F600420021C2F20000C4F2CB
:1048100000024FF6FF73C0E900210322C0E9021332
:10482000CDE9032101220A23CDE900110161816153
:10483000CDE90521CDE90731CDE9092103A90B9384
:10484000FDF746FD002818BFFBF714FE40F2684054
:10485000C2F200006946FDF707FB002818BFFBF70E
:1048600009FE0CB080BD000080B582B040F2B040BF
:1048700041F200020021C2F20000C4F20002532300
:1048800040F2E73CCDE90011C0E90023C0E9021C79
:104890008161FDF747FB002818BFFBF7EBFD40F2F5
:1048A000B040C2F200006946FDF7DEFA002818BFEA
:1048B000FBF7E0FD02B080BD80B58CB040F2405007
:1048C00044F200020021C2F20000C4F2010244F2EC
:1048D0009F130B91CDE909110791CDE90511CDE9A0
:1048E0000311CDE90111C0E90021C0E90213016102
:1048F0008161FDF717FB002818BFFBF7BBFD4FF4E4
:104900008050089040F24050C2F2000008A9FDF724
:104910000FFC002818BFFBF7ADFD40F24050C2F27B
:104920000000FEF7AFF8002818BFFBF7A3FD6020DA
:1049300001900020CDE90200059040F24050C2F203
:10494000000001A90022FDF78DFF002818BFFBF72A
:1049500091FD40F24050C2F2000001A90422FDF78F
:1049600081FF002818BFFBF785FD40F24050C2F2DE
:104970000000FDF7EDFE0CB080BD000080B540F2F8
:10498000885044F20041C2F20000C4F2000100234A
:104990004FF00C0C4FF4165280E80E00C0E90333C0
:1049A000C0E905C3C361FEF7D1FC002808BF80BD84
:1049B000BDE88040FBF75EBD80B540F2D05044F6C4
:1049C0000001C2F20000C4F2000100234FF00C0C01
:1049D0004FF4E13280E80E00C0E90333C0E905C3BB
:1049E000C361FEF7B3FC002808BF80BDBDE880406E
:1049F000FBF740BDB5EE403AF1EE10FA0CD1F5EE02
:104A0000403AF1EE10FA07D1B5EE404AF1EE10FA55
:104A100002D100F029BA00BF2DED108B45F6DF1250
:104A2000F5EE401A40F2440140F2C81CC5F6377258
:104A3000F1EE10FAC2F20001C2F2000C0AD1B5EE9A
:104A4000402AF1EE10FA05D1F5EE402AF1EE10FA07
:104A500000F0578122EE025A21EEA16A36EE055A85
:104A600022EEA26A36EE055A15EE103AA2EB630367
:104A7000BEEE006A07EE103A25EE065A25EE075AFA
:104A800025EE075AF7EE084A35EE245A25EE077A46
:104A900023EEA35A63EE035A35EE855A64EE045AA8
:104AA00035EE855A15EE103AA2EB630305EE903A07
:104AB00025EE065A25EE255A25EE255A35EE245ABE
:104AC00065EE254A24EEA35AD1ED023AD1ED025A01
:104AD000D1ED026ADCED007A24EE833A24EE844ABA
:104AE00066EEA74AD1ED026ADCED017A91ED028A09
:104AF0009CED029A66EEA76A68EE097A9CED008A40
:104B00009CED009A9CED00AA9CED01BA28EE098A62
:104B10002AEE0B9A9CED00AA9CED02BA9CED01CA0C
:104B20009CED01DA2AEE0BAA2CEE0DBA9CED01CA1F
:104B30009CED02DA9CED02EA9CED02FA2CEE0DCA25
:104B40002EEE0FDAB6EE00EA3EEE4BFA3EEE488A63
:104B50003FEE4DFA79EE678A77EE897A38EE4D9A14
:104B600065EE289A63EE0FAA25EE099A63EE277A7E
:104B70007AEEA99A76EE8AAA77EE897A3CEE649A62
:104B800064EE2ABA24EE099A7BEEA99A79EE277A86
:104B900039EEA99A77EEA77A67EEA77A29EE099AF5
:104BA00079EE277A27EE029AB1EEE72A67EE211A0C
:104BB00027EE227A63EEA52A7AEE663A74EE8C4AE4
:104BC00065EE245A63EE236A76EEA55A78EE4B6AB8
:104BD00064EE267A77EEA55A32EE866A75EEA52A3D
:104BE00062EE0F5A63EEA27A36EE0D6A75EEA75AA0
:104BF00062EE287A24EEA28A66EEA22A22EE2A2A01
:104C000077EE887A72EE222A24EE872A69EE066A07
:104C100026EE216A27EE237A36EEC22A67EE846AF0
:104C200037EE466A22EE837A24EE254A34EE474A6E
:104C300034EE064A23EE896A21EEA47A37EE466AFC
:104C400091ED017A25EE228A25EE855A23EE273A48
:104C500078EE666A33EE453AB5EE407A36EE822A51
:104C6000F1EE10FA33EE063A32DD91ED015A9FED86
:104C70007C6A22EE055A9CED037A25EE065A35EE43
:104C8000075A8CED035A91ED015A9CED047A24EEFB
:104C9000055A25EE065A35EE075A8CED045A91ED69
:104CA000015A9CED057A23EE055A25EE065A35EE9B
:104CB000075A8CED055A9CED035A35EE000A9CED1F
:104CC000045A9CED056A75EE200A36EE011A06E0DC
:104CD0000023CCF80C30CCF81030CCF8143091ED27
:104CE000005A25EE022A91ED005A32EE000A25EE16
:104CF000042A91ED004A72EE200A24EE032A32EED5
:104D0000011A9FED582A91ED024A9CED005A9CED44
:104D1000016A20EE020A20EE823ADCED020A21EE60
:104D2000021A23EE062A25EE407A37EE422A20EEBA
:104D3000817AD1ED020A32EE472A30EE822A81EDE5
:104D4000022ADCED020A21EE062A24EE007A37EE72
:104D5000022A20EE837ADCED000A32EE472A30EE9A
:104D6000822A8CED002ADCED020A21EE052A24EECF
:104D7000037A37EE422A20EE807ADCED010A37EE24
:104D8000022A30EE822A8CED012A23EE052A24EE37
:104D9000011A31EE021A26EE000A9CED022A31EECB
:104DA000400A32EE000A8CED020A91ED020A91ED02
:104DB000021A9CED002A9CED003A20EE010A22EE38
:104DC000032A9CED011A9CED013A30EE020A21EE15
:104DD000031A9CED022A9CED023A31EE000A22EE03
:104DE000031A31EE000A10EE103AA2EB6302BEEE97
:104DF000002A01EE102A20EE020A20EE010A20EE1F
:104E0000010AB7EE082A30EE020A91ED022A20EEDE
:104E1000010A22EE001A81ED021A9CED001A21EE21
:104E2000001A8CED001A9CED011A21EE001A8CED8F
:104E3000011A9CED021A21EE000A8CED020A896823
:104E4000DCE90023DCF80800CCF81810CCF81C20B2
:104E5000CCF82030CCF82400BDEC108B704700BF9C
:104E60006F12833A6F12033A45F6DF12F5EE401ADD
:104E700040F2440140F2C810C5F63772F1EE10FA64
:104E8000C2F20001C2F200000AD1B5EE402AF1EEF2
:104E900010FA05D1F5EE402AF1EE10FA00F0B280DA
:104EA00022EE023A21EEA14A34EE033A22EEA24A61
:104EB00034EE033A13EE103AA2EB6303BEEE005A4F
:104EC00004EE103A23EE053A23EE043A23EE043AB8
:104ED000B7EE086A33EE063A23EE043A23EE214A8F
:104EE00023EE026A90ED002A90ED027AD1ED021ACB
:104EF000D0ED013A63EE222A23EEA13A22EE072AF0
:104F000091ED027AD0ED001AD0ED013AD0ED024ACF
:104F100072EE435A27EE213A91ED027AD1ED021A50
:104F200023EEA42A73EE023A27EE212A90ED023AEC
:104F300090ED027A32EE052A23EE073A33EE022A8A
:104F400023EEA23A26EE025A35EE433A22EE042A26
:104F500022EEA55A35EE422A25EE865A91ED016AD7
:104F600024EE234AB5EE406AF1EE10FA34EE454ADB
:104F700032DD91ED015A9FED766A23EE055A90EDF0
:104F8000037A25EE065A35EE075A80ED035A91ED65
:104F9000015A90ED047A22EE055A25EE065A35EEB6
:104FA000075A80ED045A91ED015A90ED057A24EEEE
:104FB000055A25EE065A35EE075A80ED055A90ED52
:104FC000035A35EE000A90ED045A90ED056A75EE2D
:104FD000200A36EE011A03E00023C3600361436137
:104FE00091ED005A25EE033A91ED005A33EE000A96
:104FF00091ED003A25EE022A72EE200A23EE042AF1
:1050000032EE011A9FED532A91ED024A90ED005ABB
:1050100090ED016A20EE020A20EE823AD0ED020AFB
:1050200021EE021A23EE062A25EE407A37EE422AB6
:1050300020EE817AD1ED020A32EE472A30EE822A42
:1050400081ED022AD0ED020A21EE062A24EE007A32
:1050500037EE022A20EE837AD0ED000A32EE472A9C
:1050600030EE822A80ED002AD0ED020A21EE052AD8
:1050700024EE037A37EE422A20EE807AD0ED010A40
:1050800037EE022A30EE822A80ED012A23EE052A2D
:1050900024EE011A31EE021A26EE000A90ED022AE1
:1050A00031EE400A32EE000A80ED020A91ED020A6A
:1050B00091ED021A90ED002A90ED003A20EE010ADF
:1050C00022EE032A90ED011A90ED013A30EE020A29
:1050D00021EE031A90ED022A90ED023A31EE000A19
:1050E00022EE031A31EE000A10EE103AA2EB630230
:1050F000BEEE002A01EE102A20EE020A20EE010A7E
:1051000020EE010AB7EE082A30EE020A91ED022ADB
:1051100020EE010A22EE001A81ED021A90ED001A2B
:1051200021EE001A80ED001A90ED011A21EE001A0E
:1051300080ED011A90ED021A21EE000A80ED020ABC
:10514000896890E80C10183080E80E10704700BF96
:105150006F12833A6F12033AFEE70000FEE7000089
:10516000EFF30980BFF36F8F154B1A681EF0100F15
:1051700008BF20ED108A20E9F04F10602DE90900EA
:105180004FF0500080F31188BFF34F8FBFF36F8F44
:1051900002F0FAF94FF0000080F31188BDE8090031
:1051A00019680868B0E8F04F1EF0100F08BFB0ECA7
:1051B000108A80F30988BFF36F8F704700BF00BF6C
:1051C000C4000020000000000000000000000000FB
:1051D000074B19680868B0E8F04F80F30988BFF3FF
:1051E0006F8F4FF0000080F31188704700BF00BF41
:1051F000C400002080B54FF0500080F31188BFF349
:105200006F8FBFF34F8F02F037FB30B14EF6045073
:10521000CEF200004FF080510160002080F3118831
:1052200080BD000070B592B006AC20463021FBF77F
:10523000A9F8002543F640000595CDE90355CDE9D1
:1052400001550095C4F202000168022641F0805128
:105250000160006800F080500090009847F2000064
:105260000095C4F20000016841F4804101600068CB
:10527000A82100F4804000900098012006904FF48F
:10528000803007904FF480000D9004200E90119014
:1052900020460C96CDE90F16FCF7E6FB10B172B66E
:1052A000FEE700BF0F20CDE901064FF4A0500490A7
:1052B0004FF48050059001A805210395FCF7A4FA4E
:1052C00010B172B6FEE700BF12B070BD4EF6885046
:1052D000CEF20000016841F47001016070470000E7
:1052E00040F29030C2F20000FDF78AB940F2D830A7
:1052F000C2F20000FDF784B940F22040C2F2000083
:10530000FDF77EB940F26840C2F20000FDF778B9BF
:1053100040F2B040C2F20000FDF772B940F2F8402E
:10532000C2F20000FDF76CB910B540F6FF3E03680D
:10533000C4F2000E40F2004C7045C4F2010C25DCB2
:10534000B0F1804F2FD040F20042C4F200029042F0
:1053500029D040F60002C4F20002904223D041F668
:10536000FF72C4F20002904227DC70453ADCB0F1D3
:10537000804F5BD040F20042C4F20002904255D010
:1053800040F60002C4F200024EE000BF40F60042C8
:10539000C4F20002904206D0604504D00022C4F25C
:1053A00001029042DBD14A6823F07003134341F6B7
:1053B000FF72C4F200029042D7DD43F6FF72C4F2DE
:1053C0000102904220DC42F20002C4F2000290424C
:1053D0002CD00022C4F20102904227D0604525D093
:1053E00028E000BF40F60042C4F2000290421DD007
:1053F00041F60002C4F20002904217D041F600428A
:10540000C4F2000210E000BF44F20002C4F2010244
:1054100090420BD044F60002C4F20102904205D043
:1054200044F20042C4F20102904203D1CA6823F45C
:105430004073134323F080024B69D1F800E08C687D
:105440001A430260C46240F48062C0F828E06245FA
:1054500004BF09690163012141610169C90708BFEE
:1054600010BD016921F00101016110BD806B0021B7
:10547000C185C184FDF7B0BC81B090F842102229EB
:1054800021D183680246B3F5805F09D152F8281F05
:1054900052F8183C002B63D003685B680AE000BF39
:1054A00052F8281F13B90369002BF5D003685B6815
:1054B00003F07F030B70116801311160C18D013958
:1054C0000A04C18502D001B0704700BF0168CA68F4
:1054D00022F02002CA60CA6822F48072CA604A6957
:1054E00022F001024A61202180F84210002141632C
:1054F000026B012A3CD10163016851E8031F026875
:1055000021F0100142E80313DBB1016851E8031FE9
:10551000026821F0100142E8031393B1016851E8D9
:10552000031F026821F0100142E803134BB1016828
:1055300051E8031F026821F0100142E80313002B19
:10554000DAD101680A68D20606D5002200920A68FC
:105550000092496800910099818D01B0FDF73ABC35
:10556000026852686FF35F2221F8022B8162A5E77F
:1055700001B0FDF7ADBF0000B0B50446006804F10E
:1055800008030ECB0569194325F440552A430261EF
:105590006269E3691143C268194349F20C639A4393
:1055A0001143C1604169A26921F4407141F2004395
:1055B000114340F48062C4F201039A42416103D175
:1055C000FCF708FA02E000BFFCF7F0F9E1694FF6DA
:1055D0009C7563681922C0F6FF75B1F5004FA0FBFA
:1055E00002011FD15A00DB0FFAF754FE48F21F5197
:1055F000C5F2EB11A0FB01235A0905F1805302FB10
:105600000300322303EBC000A0FB01014FF4F8704C
:1056100000EA111000EB0210C1F3421108442168A6
:105620008860B0BD9A009B0FFAF734FE48F21F5114
:10563000C5F2EB11A0FB01235A0902FB050032233E
:1056400003EB0010A0FB0101F02000EA511000EB79
:105650000210C1F34311084421688860B0BD000006
:1056600010B540F28854C2F200042046FDF7B6FBA4
:1056700044F63001C2F2000120460122BDE810408C
:10568000FDF7FCBE10B540F2D054C2F20004204633
:10569000FDF7A4FB40F60041C2F2000120460122C2
:1056A000BDE81040FDF7EABEFEE700002DE9F0413D
:1056B0002DED048B40F60C2840F208059FED498A39
:1056C0009FED499AC2F20008C2F20005414600224D
:1056D0002B46B0EE480AF0EE490A044600F030F9D5
:1056E00040F65C0605F10C07C2F200062046314682
:1056F00000223B46B0EE480AF0EE490A00F020F9DD
:1057000008F14801204600222B46B0EE480AF0EE90
:10571000490A00F015F906F14801204600223B46EF
:10572000B0EE480AF0EE490A00F00AF908F19001DB
:10573000204600222B46B0EE480AF0EE490A00F05F
:10574000FFF806F19001204600223B46B0EE480AE1
:10575000F0EE490A00F0F4F808F1D80120460022E2
:105760002B46B0EE480AF0EE490A00F0E9F806F1DF
:10577000D801204600223B46B0EE480AF0EE490A26
:1057800000F0DEF89FED1A8A40F62C319FED170AE3
:1057900005F11803C2F2000120460022F0EE480A8B
:1057A00000F0CEF840F67C1105F12403C2F20001AE
:1057B00020460022B0EE480AF0EE480A00F0C0F899
:1057C00040F6C41105F13003C2F200012046002268
:1057D000B0EE480AF0EE480ABDEC048BBDE8F0419B
:1057E00000F0AEB8003E834600409C4500803B453B
:1057F0000080BB4400294FD0087891ED0F1A91ED3D
:10580000102A81ED070A30EEC00A0028C1ED060A11
:1058100081ED0F0A81ED101A81ED112A40D0012887
:1058200040F0888091ED015A91ED026A30EE414AD4
:1058300031EE011A91ED037A24EE054A20EE065A64
:1058400030EE410A32EE000AD1E90C2081ED0C0A5B
:1058500020EE070A34EE051A91ED082A91ED043A7C
:1058600081ED0B0A31EE000A32EE000AB4EE430A73
:10587000F1EE10FA81ED094A81ED0A5AC1E90D20D5
:1058800081ED080AC2BF81ED083AB0EE430A7047C5
:10589000B1EE431A43E000BF9FED280A704700BFF6
:1058A00091ED024A91ED0A6A91ED012A91ED053AD6
:1058B00024EE004A91ED035A34EE064A20EE022A05
:1058C000D1E90C2030EE410AB4EE434A81ED0C0AD6
:1058D00020EE050AF1EE10FA81ED092A81ED0A4A5F
:1058E000C1E90D2081ED0B0A06DCB1EE433AB4EEBE
:1058F000434AF1EE10FA03DAB0EE434A81ED0A3A78
:1059000032EE042A91ED041A30EE020AB4EE410A96
:10591000F1EE10FA81ED080A07DCB1EE411AB4EE9F
:10592000410AF1EE10FAA8BF7047B0EE410A81EDCE
:10593000081A704791ED080A704700BF0000000088
:10594000002918BF002B01D1704700BF80B50A7035
:105950001868486058688860986881ED040AC860D3
:10596000C1ED050A01F120002821FAF70BFD80BDE9
:1059700010B540F2186201EBC10040F60C21C2F2F2
:105980000002C2F2000102EB0012F0EE400A92EDBA
:105990001E0A01EBC00440F65800C2F20000214686
:1059A000FFF728FF94ED080A10BD00000B46002900
:1059B00048BF4B4210B502699342A8BF1346012964
:1059C000A2EB030E0EDBD0E90013096893B3082B9A
:1059D0001AD0042B14BF40233823CA50C168B9B968
:1059E0002DE000BFD0E90034B1F1FF3FD3F800C093
:1059F0002CDDBCB3082C31D0042C14BF402138213D
:105A00004CF8012037E000BF3C23CA50C168B1B157
:105A1000082909D0042914BF402138218068006872
:105A200040F801E010BD00BF3C218068006840F8EC
:105A300001E010BD3423CA50C1680029E8D13421E7
:105A40008068006840F801E010BD00BF84B1082CF8
:105A50000CD0042C14BF402138210AE03C214CF822
:105A6000012008E034214CF8012004E03C2100E052
:105A700034214CF801E0C16841B1082904D004295F
:105A800014BF4021382102E03C2100E03421964639
:105A90008068006840F801E010BD000070B51C4649
:105AA000049E80E80E00CB68E568C660AB4288BF04
:105AB0001D46056108461146FDF716F82046314699
:105AC000BDE87040FDF710B82DE9F0472DED028BD1
:105AD00004464079984240F0E482D1E90050914672
