:020000040800F2
:10000000C05C0020550200085945000889370008E7
:100010005545000869050008294E00080000000049
:10002000000000000000000000000000D1450008B2
:10003000910500080000000061450008F545000832
:100040006F0200086F0200086F0200086F020008CC
:100050006F0200086F0200086F0200086F020008BC
:100060006F0200086F0200086F0200086F020008AC
:100070006D0500086F020008790500086F0200088E
:10008000850500086F0200086F0200086F02000873
:100090006F0200086F0200086F0200086F0200087C
:1000A0006F0200086F0200086F0200086F0200086C
:1000B000D1460008DD460008E94600086F02000846
:1000C0006F020008993700088D3700086F0200089A
:1000D0006F0200086F020008E14D0008054E00089D
:1000E0006F0200086F0200086F0200086F0200082C
:1000F0006F0200086F0200086F0200086F0200081C
:100100006F0200086F020008F54600086F02000841
:100110006F0200086F020008014700080D47000841
:100120006F0200086F0200086F0200086F020008EB
:100130006F0200086F0200086F0200086F020008DB
:100140006F0200086F0200086F0200086F020008CB
:100150006F0200086F0200086F0200086F020008BB
:100160006F0200086F0200086F0200086F020008AB
:100170006F0200086F0200086F0200080000000014
:100180006F0200086F02000800F002F800F052F859
:1001900014A696E8000CB244B344DA4501D100F04D
:1001A00049F8BAE80F000FA696E83000A5EB040561
:1001B00004EB0607AAEB0704A7F101074FEA1515A0
:1001C0004FEA3414A4F10104AC4201D300F032F838
:1001D00013F0010F18BFFB1A43F0010300F001F800
:1001E000DBE71847889C0000A89C0000103A24BF59
:1001F00078C878C1FAD8520724BF30C830C144BF8C
:1002000004680C6070470000704700000023002461
:1002100000250026103A28BF78C1FBD8520728BF16
:1002200030C148BF0B6070471FB509F092FD1FBD7C
:1002300010B510BD00F062F91146FFF7F5FF06F0AA
:1002400059FA00F080F903B4FFF7F2FF03BC00F0A5
:1002500083F900000948804709480047FEE7FEE7A8
:10026000FEE7FEE7FEE7FEE7FEE7FEE7FEE7FEE766
:1002700004480549054A064B70470000BD46000882
:1002800089010008C0560020C05C0020C058002032
:10029000C058002053EA020C00F069802DE9F04BB1
:1002A0004FF00006002B1FBFB3FA83F503FA05F4E5
:1002B00024FA05F65E4012BF1643B2FA82F502FA3E
:1002C00005F4C5F120051EBF22FA05FC44EA0C0422
:1002D000203556EA044C4FEA144418BF641C4FF012
:1002E00000084FF00009904271EB030C39D300294C
:1002F00019BFB1FA81F701FA07F6B0FA80F700FAF0
:1003000007F6C7F120071EBF20FA07FC46EA0C06D5
:100310002037B6FBF4FCA7EB0507103F07F01F0BD7
:10032000CBF120062CFA06F60CFA0BFB44BFB346C1
:100330000026202FA4BF5E464FF0000B5BEA060CA0
:1003400008BF4FF0010B19EB0B0948EB0608ABFB9C
:10035000027C06FB02CC0BFB03CCC01B71EB0C0137
:10036000C1E70B46024641464846BDE8F08B13B54F
:10037000084318BF4FF0FF300146AFF30080BDE8DF
:100380001C407047032A40F2308010F0030C00F04C
:10039000158011F8013BBCF1020F624498BF11F8BF
:1003A00001CB00F8013B38BF11F8013BA2F1040278
:1003B00098BF00F801CB38BF00F8013B11F00303F0
:1003C00000F06280083AC0F0088051F8043B083A17
:1003D00051F804CBA0E80810F5E7121D5CBF51F8F6
:1003E000043B40F8043BAFF30080D20724BF11F870
:1003F000013B11F801CB48BF11F8012B24BF00F8D5
:10040000013B00F801CB48BF00F8012B704702F018
:10041000FF0343EA032242EA024200F002B84FF02F
:10042000000200B5134694469646203922BFA0E844
:100430000C50A0E80C50B1F12001BFF4F7AF090750
:1004400028BFA0E80C5048BF0CC05DF804EB890041
:1004500028BF40F8042B08BF704748BF20F8022B84
:1004600011F0804F18BF00F8012B7047704770479C
:10047000704710B500F03AF8006810BD10B504469A
:1004800000F034F8046010BD10B5203AC0F00B80C5
:10049000B1E81850A0E81850B1E81850A0E818507A
:1004A000203ABFF4F5AF5FEA027C24BFB1E81850F0
:1004B000A0E8185044BF18C918C0BDE810405FEA52
:1004C000827C24BF51F8043B40F8043B08BF7047CE
:1004D000D20728BF31F8023B48BF11F8012B28BFD3
:1004E00020F8023B48BF00F8012B704700487047D6
:1004F0005800002000487047580000207546FFF75C
:10050000F9FFAE4605006946534620F007008546D0
:1005100018B020B5FFF7ACFEBDE820404FF0000654
:100520004FF000074FF000084FF0000BAC46ACE86E
:10053000C009ACE8C009ACE8C009ACE8C00921F0CA
:1005400007018D46704710B50446AFF30080204682
:10055000BDE81040FFF777BE01491820ABBEFEE7AB
:100560002600020070470000FEE7000040F29810ED
:10057000C2F2000000F068B840F2F810C2F20000C9
:1005800000F062B840F23810C2F2000000F05CB82F
:100590007047000072B600BFFEE7000070B5866DC0
:1005A000044600F0F3FA94F83510022925D10546E7
:1005B0002068216C026822F016020260426922F073
:1005C0008002426109B9A16C19B1016821F00801EA
:1005D0000160016821F00101016000BF206800682E
:1005E000C0070ED000F0D2FA401B0628F6D3202018
:1005F0006065032084F835000CE0802060650120F0
:1006000008E0E06D3F2101FA00F0B060012084F8BD
:1006100035000020002184F8341070BD90F83510AA
:10062000022909D1052180F835100068016821F000
:100630000101016000207047802141650120704761
:1006400090F8350070470000F0B581B000210091AE
:1006500040F20401C2F200010B68D0E9166148F2D1
:10066000B51537680822C1F64E358A403A42A3FBD9
:1006700005350CD003681C68640708D51C6824F095
:1006800004041C60B260426D42F001024265012226
:100690008A403A4208D003685B691B0604D5B26001
:1006A000426D42F00202426504228A403A4208D07A
:1006B00003681B689B0704D5B260426D42F00402D8
:1006C000426510228A403A4216D001680B681B0727
:1006D00012D5B2600B680A685B0306D4D20506D453
:1006E0000A6822F008020A6001E0110340D4016C9C
:1006F00011B1044688472046C26D202101FA02F359
:100700003B4242D001680F68FF063ED5B36090F8C7
:1007100035700B68052F1BD123F016030B604B6956
:1007200023F080034B61036C0BB9836C1BB10B6826
:1007300023F008030B603F219140B160012180F854
:100740003510016D0022002980F8342053D156E085
:100750000A685B0310D4D20512D40A6822F0100292
:100760000A60012180F83510002180F8341007E07C
:10077000816C0029BDD1BFE7110301D4416C00E0B9
:10078000C16B11B1044688472046416DB9B3416D34
:10079000C9072ED0052180F835100168AA0A0B6818
:1007A00023F001030B60009B0133934200931AD89E
:1007B0000B68DB0717D0009B01339342009312D8DC
:1007C0000B68DB070FD0009B0133934200930AD8DC
:1007D0000B68DB0707D0009B01339342009302D8DC
:1007E0000B68DB07DFD1012180F83510002180F88C
:1007F0003410C16C19B101B0BDE8F040084701B038
:10080000F0BD00002DE9F041044600F0BFF9C4B18D
:100810000546022084F835000020216884F8340061
:10082000086820F00100086021680868C0070BD044
:1008300000F0ACF9401B0528F6D90325202303203E
:1008400064E00120BDE8F081086848F23F02CFF281
:100850001002D4E9013500EA020C04F10C0898E812
:10086000C10143EA0C032B431843D4E9072E30435C
:1008700038431043626A40EA0E00042A40EA080343
:100880001CD1206BD4E90A2E40EA0E001843086000
:100890004869BEF1000F20F0030040EA020040F07A
:1008A000040C11D0B8F5005F35D0B8F1000F42D17B
:1008B000022A43D0012A38D032B93FE00B604869A0
:1008C00020F0070040EA020C01F0F8004AF6AB22E3
:1008D0001038CAF6AA22A0FB02231A0949F62C6393
:1008E000C1F814C0C0F600039A5C40F2FF335F28E1
:1008F0004FF03F0021EA030100FA02F088BF043103
:10090000C4E916128860002301250020636584F87D
:100910003550BDE8F081032AD6D8012540230120B7
:10092000DFE802F0020C0203F0E7AEF1C070B0FAAB
:1009300080F0400904E0032A04D3C5D1CEF300605F
:100940000028C1D0012540230120DFE790F834C002
:10095000BCF1010F04BF0220704770B54FF0010CCD
:1009600080F834C0D0F858E090F835C0BCF1010FE1
:1009700037D14FF0020C80F835C04FF0000CC0F8B2
:1009800054C0D0F800C08468056CC06DDCF800600D
:10099000402C26F48026CCF80060CCF804300B46BE
:1009A00004BF13460A463F2101FA00F0CCF8083094
:1009B000CCF80C20CEF80800DCF8000040F016005F
:1009C000CCF800002DB1DCF8000040F00800CCF8B5
:1009D0000000DCF8000040F00100CCF8000000202E
:1009E00070BD002180F83410022070BD2DE9F04F59
:1009F00083B000F1200200F13E4741F6004500922D
:100A000007F1FF77C4F2020508224FEAB726A84291
:100A100008BF072200254FF000084FF00009072EFD
:100A200038BF4FEAB72201920AE000BF09F101097D
:100A300008F10208B9F1100F05F1040500F0A280D9
:100A40000F68012202FA09FE17EA0E0AEED0D1F869
:100A500004C003220CF003077E1E02FA08F4012EE4
:100A60006FEA040B12D88468CE6804EA0B0406FA15
:100A700008F634438460446824EA0E06CCF300147C
:100A800004FA09F42643466004E000BF032F01D1B5
:100A900003271EE0C6688C6806EA0B0604FA08F411
:100AA0002643022FC66014D16FF00302009E02EAB3
:100AB000590756F807C005F01C040F220B69A24025
:100AC0002CEA0202A3401A43F251D1F804C00CF000
:100AD0000307026807FA08F302EA0B021A431CF440
:100AE000403F0260A2D0002243F644030292C4F2C7
:100AF00002031A6843F6004442F480421A601A68FE
:100B0000C4F2010402F480420292029A29F0030224
:100B10004FF6084C2244CFF6FF7C52F80C3005F01B
:100B20000C070F26BE40B343019E06FA07F73B436E
:100B300042F80C30A2684B6842EA0A0743F60C4CB4
:100B4000DE0258BF22EA0A07A760C4F2010CDCF8F3
:100B500000209E0242EA0A0758BF22EA0A07CCF8A0
:100B6000007062689E0342EA0A0758BF22EA0A0739
:100B700067602268DB0342EA0A0758BF22EA0A07D5
:100B8000276053E703B0BDE8F08F000044F6E06053
:100B9000C2F2000000687047704700007047000014
:100BA000F0B581B00446006800254769426894F8B2
:100BB0003E1002F48076FA0505D5002E1EBF6FF4B4
:100BC000807242610125BA0505D5002E1EBF02358F
:100BD0006FF4007242617A0516D5AEB1628D94F859
:100BE0003D30D4F830C0202908BF002A22D06FF44D
:100BF0008062402905F10405426101D0102903D12A
:100C0000016841F400710160380506D52EB12068F5
:100C100008356FF40061416100E04DB1206C40EA9D
:100C200005012046216401B0BDE8F04002F046BE57
:100C300001B0F0BD03F0F701212909D0282B08BF2E
:100C4000BCF1210F04D06FF4806141610435DBE712
:100C500094F83D10E26AB2F1080318BF0123203A6C
:100C600018BF0122134208BF282920D0212938D1DA
:100C70000021CFF6FF71E16221212163202184F858
:100C80003D10002184F83E10426822F4E062426088
:100C90006FF480624261026822F4806202604269FD
:100CA000120648BF0161204600F002FCACE70021BB
:100CB000CFF6FF71E162416821F4E06141606FF4B9
:100CC00080614161016821F4806101600020202180
:100CD000206384F83D1084F83E00204600F092FB2B
:100CE00092E76FF4806141618EE70000F0B581B05A
:100CF00007687968C26A90F83E5090F83DE0402D50
:100D000001D0102D33D1BB697C69E60717D1B2F150
:100D10002A4F00F04A82B2F52A0F00F046822207DD
:100D200001F4007240F10081002A00F0FD80416B67
:100D3000426C0029D2B23A6140F0AC80ACE08A0546
:100D400042D44FF0010C7A685B076DD4120500F1B4
:100D50002C8204F04402402A40F04B8111F480615F
:100D600000F0478101B0BDE8F04002F0D5BE026C52
:100D700001F40073002A0CBFBC6900247D69AA0736
:100D800028D53BB3016C002918BFBC6990F83D1011
:100D900001F02801282940F0BC807968012221F463
:100DA0008061796004F0040182EA910122064FF02B
:100DB000180258BF0C22825A002380F83C3001B040
:100DC000BDE8F040FFF7EABEC16AB1F52A0F3CD199
:100DD00001213FE0EA066DD5002B6BD090F83D5025
:100DE000796821F4E06179600021009179690091CE
:100DF000396841F0010139600099396821F4806156
:100E000039607968090540F16A8105F0F701044607
:100E1000222940F03A8154F8381F0A68526824F8B1
:100E20000E2C34F80E2C38E1120500F1BE8104F0CE
:100E30008402802A40F0EB8011F4806100F0E780AA
:100E400001B0BDE8F04002F047BFC16AB1F12A4FDE
:100E500001D10821C16290F83E1040290AD1016DEC
:100E6000406C002900F0FE0018BF40F0010038611E
:100E700001B0F0BD0169B1F5804F40F0858090F878
:100E80003D10426C212902F0FE0218BF01323A6186
:100E9000416B09B1C96B39B9806B002800F08581BD
:100EA000C06B002800F08181786840F400607860B1
:100EB00001B0F0BD0EF0F702212A73D105F08402D3
:100EC000802A40F0B68011F4806100F0B28090F882
:100ED0003D10428D002A00F06881426A12F8013B01
:100EE0003B614262428D013A4285428D002A08BF31
:100EF000292940F05A81796821F4806179602121A3
:100F00000163282180F83D1001B0BDE8F04000F0F9
:100F1000CFBA002100917A690092BA690092009AD2
:100F200080F83C1001B0F0BD4FF0010CA6078CEA30
:100F3000522C7FF508AF002A3FF405AF90F83E2011
:100F4000C16A036B90F83D60222E40F09580066DDB
:100F5000002E08BF402A00F08F80026D002A40F06A
:100F600026810269B2F5404F40F0218100210091B5
:100F700079690091B96900910099396841F48071EB
:100F80003960016D013184E1016D002900F0EF80CD
:100F9000016D012940F00981406C062101EAD01061
:100FA000F13064E705F04402402A51D111F4806128
:100FB0004ED090F83D10428D002A00F0F6803A693C
:100FC000436A1A70426A01324262428D013A428596
:100FD000428D002A08BF2A2940F0E78001684A684C
:100FE00022F480624A6022210163282180F83D10AA
:100FF000CFE004F00401012282EA910151EA0C01E0
:1010000040F0D38001B0BDE8F04002F00DBD04F027
:101010000401012282EA910151EA0C0140F0C580ED
:10102000BEF1210F40F0BA8001B0BDE8F04002F0FF
:1010300013BE690740F1B980002B00F0B680418DE6
:10104000002900F0B280416A11F8012B3A610EE0EC
:10105000690740F1AA80002B00F0A780418D00298C
:1010600000F0A3803969426A1170416A013141621E
:10107000418D0139418598E0002000907869009009
:10108000B8690090009801B0F0BD54F8341F0A68A8
:10109000526824F80A2C34F80A2C1AB1026C42F077
:1010A000040202647A68064622F4006208467A6006
:1010B000FFF7C6FA01463046012910D0206843F2F6
:1010C000A571C0F600010165FFF7A8FA0146304698
:1010D00029B1216804460A6D084690472046418D93
:1010E000F9B101684A69520709D50969426A117064
:1010F000426A016801324262428D013A42854A6980
:10110000520608D50969426A1170416A013141628B
:10111000418D01394185418D19B1016C41F00401C6
:101120000164016C21B101B0BDE8F04002F0C6BB22
:101130002A2D08D100210163282180F83D100446A2
:1011400000F0B4F9204690F83D10282915D100216F
:10115000CFF6FF71C16200212022016380F83D209B
:1011600080F83E1001B0BDE8F04000F04BB9406C93
:10117000062101EAD010F03079E6016B222918BF70
:10118000222D12D100212022016380F83D2080F819
:101190003E1001B0BDE8F04000F088B9402D04D108
:1011A00001B0BDE8F04002F0EFBD01B0F0BD428DEE
:1011B00052B1428D012A13D1202918BF082922D10A
:1011C000396821F4806139600021009179690091CA
:1011D000B96900910099396841F40071396057E0AC
:1011E000428D022A0BD110292FD8012214238A40C4
:1011F000C0F201031A4228D04FF480622BE03A6813
:1012000042F4806229E011F5803F0BD1396821F466
:101210008061396079680905D6D5396821F4806123
:1012200039602EE0122B01D10129C9D11029F4D83F
:10123000012202FA01F11422C0F201021142ECD0A3
:10124000396841F4806139601BE03A6822F48062B9
:101250003A604FF400623B681A433A607A681205BC
:101260000FD54A1E1F2A17D8012303FA02F248F2AB
:101270008103C8F200031A420ED0796841F480510C
:1012800079600021009179690091B9690091009914
:101290000021016501B0F0BD11F5803FEDD0F0E710
:1012A00070470000002804BF01207047F0B581B0EE
:1012B000044690F83D0028B9002084F83C00204600
:1012C00000F0AAF8242084F83D002068016821F08D
:1012D00001010160016841F400410160016821F4ED
:1012E0000041016000F0AAFA636848F2A16CC0F204
:1012F000010C40F60011C0F23D0163453CBF48F2CD
:101300008041C0F21E01884202D2012001B0F0BD2E
:101310004DF68361C4F21B31A0FB01122168970CCA
:10132000D1F804E04FF496762EF03F0545EA924559
:101330004D60774348F638160D6AC0F24106A7FBA8
:10134000067625F03F07634538BF960C721C3A437A
:101350000A62CA6948F2A0664CF6FF77C0F201063D
:10136000B34222EA07020AD801385B00B0FBF3F06F
:1013700001306FF31F30042898BF042019E0A768DC
:10138000013857B119277B43B0FBF3F001306FF3FD
:101390001F3068B100F5804007E003EB4303B0FB6A
:1013A000F3F001306FF31F3010B100F5004000E0A2
:1013B00001201043C8610868D4E9072320F0C00069
:1013C000104318430860886848F2FF3204F10C07A4
:1013D00090438CCF18431043A6698860C86820F0FA
:1013E000FF0038433043C860086840F001000860DF
:1013F00000202021206484F83D10206384F83E0002
:1014000001B0F0BD70470000704700007047000059
:101410007047000070470000B0B586B045F6000187
:101420000068C4F20001002488420594CDE9034419
:101430000294019401D006B0B0BD43F6300500948B
:10144000C4F20205286840F002002860286800F015
:101450000200009000984FF4406001901220CDE906
:101460000204032004900420059001F5D63001A960
:10147000FFF7BCFA00942869052140F48000286138
:101480002869002200F4800000900098212000F0DC
:10149000C9F8212000F0B4F822200521002200F034
:1014A000C1F8222000F0ACF806B0B0BD70470000D3
:1014B0007047000040F24C0044F6E061C2F20000C8
:1014C000C2F2000100780A6810440860704700000A
:1014D00080B543F60040C4F20200016841F4007197
:1014E0000160016841F480610160016841F480712C
:1014F0000160032000F0C2F80F2000F005F800F0B2
:101500005DF8002080BD000070B586B0002543F670
:1015100040010195C4F202010A68044642F020022B
:101520000A60096801A801F020010191019969464A
:1015300000F064F9049E002E18BF012600F07EF929
:101540004DF68361B040C4F21B31A0FB01014FF0A6
:10155000FF3000EB914140F2EC4041F20042C2F218
:101560000000C4F2000240F2E733C0E90021C0E904
:1015700002530561856100F0FDFB08B106B070BD46
:1015800040F2EC40C2F2000000F0A0FC0028F5D1CF
:10159000372000F035F80F2C0CD8372021460022D8
:1015A00000F040F840F250010020C2F200010C604F
:1015B00006B070BD012006B070BD000082B00020F2
:1015C00043F640010190C4F202014A6842F48042AD
:1015D0004A604A6802F480420192019A00900868C9
:1015E000002240F08050086008680F2100F0805011
:1015F000009000986FF0010002B000F013B80000F6
:10160000002848BF704700F01F01012202FA01F1D3
:101610001C2202EAD0004EF20012CEF200028150EB
:101620007047000010B54EF60C5CCEF2000CDCF8F2
:101630000030C3F3022E8EF00704042C28BF0424CC
:10164000BEF103034FF0FF3E0EFA04F438BF00234F
:10165000A14399400EFA03F39A43114300F00F029D
:1016600000F160430901043A03F564436244002831
:1016700048BF02F10C03197010BD00004EF60C516A
:10168000CEF200010A684FF6FF031A4060F30A2207
:1016900042F0806040F0FD7008607047002804BF91
:1016A000012070472DE9F04143F60808C4F2020812
:1016B0000446D8F8F8030D4600F00700884207D228
:1016C00088F8F853D8F8F80300F00700A84276D15C
:1016D0002068810717D5410705D5D8F8001041F4D7
:1016E000E051C8F80010010705D5D8F8001041F402
:1016F0006041C8F80010D8F80010A26821F0F0018D
:101700001143C8F80010C0073FD1D8F8F80300F023
:101710000700A84207D988F8F853D8F8F80300F072
:101720000700A8424BD12068410707D5D8F8001020
:10173000E26821F4E0511143C8F80010000708D511
:10174000D8F80000216920F4604040EAC100C8F8E0
:10175000000000F09BF8D8F8001049F69852C1F349
:101760000311C0F60002515C40F2040220FA01F1BC
:1017700040F25000C2F200000068C2F200021160A4
:10178000FFF7C2FE0020BDE8F0816068811E0229DB
:1017900007D258F8081C89015CBF0120BDE8F08120
:1017A00010E0012807D158F8081C89035CBF01200C
:1017B000BDE8F08106E058F8081C890702D4012032
:1017C000BDE8F081D8F8001021F003010843C8F803
:1017D0000000FFF7DBF9064641F28837D8F8000031
:1017E000616800F00C00B0EB810F8ED0FFF7CEF9EE
:1017F000801BB842F2D90320BDE8F0810F220260BD
:1018000043F60802C4F20202136803F003034360C4
:10181000136803F0F0038360136803F4E053C360BC
:10182000D2F800C04FF4E05303EADC030361D2F8BE
:10183000F80300F0070008607047000040F2040061
:1018400043F60801C2F20000C4F202010068096810
:1018500049F6A852C1F38221C0F60002515CC8408B
:101860007047000040F2040043F60801C2F2000095
:10187000C4F202010068096849F6A852C1F3423176
:10188000C0F60002515CC8407047000010B543F636
:101890000404C4F20204606800F00C0142F200404B
:1018A0000829C0F2F40007D0042918BF10BD41F286
:1018B0000020C0F27A0010BD216801F03F022168CB
:1018C00023684902C3F3881105D4A1FB000100235A
:1018D000FEF7E0FC06E041F20020C0F27A00484347
:1018E000B0FBF2F021680222C1F3014102EB410199
:1018F000B0FBF1F010BD0000002804BF01207047CC
:101900002DE9F04182B00446007843F60006C00796
:10191000C4F202060BD0B06800F00C00042876D1A7
:101920003068800303D56068002800F04F8120787C
:10193000800719D5B06810F00C0F07D0B06800F020
:101940000C0008287DD1706840027AD43068800786
:1019500003D5E068012840F039813068216920F022
:10196000F80040EAC10030602078000713D42078E6
:10197000400726D4A569002D00F02481B06800F04E
:101980000C00082840F09680012D40F0F8800120DE
:1019900002B0BDE8F0816069002877D00020C4F271
:1019A00047200121C0F8801EFFF7F0F8054600BF70
:1019B000706F8007DBD4FFF7E9F8401B0228F7D9E6
:1019C000D9E0306C5FEAC0080AD400200190306C86
:1019D00040F080503064306C00F0805001900198ED
:1019E00047F20007C4F200073868C00540D43868E1
:1019F00040F480703860FFF7C9F805463868C005C4
:101A000036D4FFF7C3F8401B0228F7D9B3E0B0681B
:101A100000F00C00082803D1706840023FF580AF49
:101A200061683068B1F5803F07D0B1F5A02F40F074
:101A30008C8040F480203060306840F4803030602A
:101A40008CE0E068002840F20000C4F2472054D047
:101A500001210160FFF79AF8054600BF3068800752
:101A60003FF57BAFFFF792F8401B0228F6D982E0E2
:101A7000A168306F012905D005294FD140F004003D
:101A80003067306F40F00100306750E00020C4F252
:101A900047200021C0F8801EFFF778F8054600BFF8
:101AA000706F80077FF563AFFFF770F8401B022867
:101AB000F6D960E00027C4F2472700203866FFF718
:101AC00065F8022D05460DD13068800140F1828015
:101AD000FFF75CF8401B02284FF00300F4D902B076
:101AE000BDE8F081306880016CD5FFF74FF8401BEE
:101AF00002284FF00300F5D9F1E700210160FFF75C
:101B000045F80546306880077FF52EAFFFF73EF8B1
:101B1000401B02284FF00300F4D9E0E720F0010059
:101B20003067306F002920F00400306773D0FFF772
:101B30002DF8054641F28837306F80077BD4FFF7D8
:101B400025F8401BB842F7D915E020F4803030600A
:101B50003068002920F48020306075D0FFF716F837
:101B6000054600BF306880033FF5E1AEFFF70EF891
:101B7000401B6428F6D9032002B0BDE8F0817068EC
:101B8000E16900F480028A4220D1216A00F03F021C
:101B90008A421BD147F6C071626A0140B1EB821FD5
:101BA00014D1A16A4FF6FF73C903994300F4403280
:101BB000A1F580318A4209D1E16A00F07060B0EB92
:101BC000016F03D1002002B0BDE8F081012002B016
:101BD000BDE8F08104F11C052FCD084340EA8210D6
:101BE000D9034FF6FF729143A1F5803140EA0560B9
:101BF0000843706001203866FEF7C8FF044600BF46
:101C000030688001DED4FEF7C1FF001B02284FF0D0
:101C10000300F5D963E7FEF7B9FF054641F28837BF
:101C2000306F800707D5FEF7B1FF401BB8424FF079
:101C30000300F5D953E7B8F1000F3FF59BAE306CC8
:101C400020F08050306495E6FEF7A0FF054600BF07
:101C5000306880037FF56BAEFEF798FF401B642869
:101C60004FF00300F4D93AE77047000070470000D6
:101C700090F83C20012A04BF02207047B0B501F162
:101C800008053CCDD1E900CE23F47C5322F47052F8
:101C90001A432EF4F0431A432CF4E0431A4324F47D
:101CA000C0431A432A43C96922F48042036811439E
:101CB0005964002180F83C100020B0BD90F83C2011
:101CC000012A4FF0020252D010B580F83D20026880
:101CD000D2F804E0D2F808C00C682EF07003234359
:101CE00041F2FF74C4F20004A24253600DDC40F2E2
:101CF000FF73C4F200039A4215DCB2F1804F29D081
:101D000040F20043C4F2000322E040F2FF33C4F289
:101D100001039A4212DC41F60003C4F200039A4226
:101D200018D0002312E040F60003C4F200039A42E8
:101D300010D040F60043C4F2000309E044F200036F
:101D4000C4F201039A4205D040F20043C4F20103F9
:101D50009A4204D149682CF0800319439160012113
:101D6000002280F83D1080F83C20BDE8104010466D
:101D700070470000002804BF0120704710B50446DA
:101D800090F83D0028B9002084F83C00204600F07F
:101D90001FF8022084F83D002068211D02F0BCFCE1
:101DA000012084F8460084F83E0084F83F0084F85F
:101DB000400084F8410084F8420084F8430084F82D
:101DC000440084F8450084F83D00002010BD000068
:101DD00080B582B0006843F6FF71C4F20101884209
:101DE0001FDD44F20001C4F20101884232D044F206
:101DF0000041C4F2010188423AD044F60001C4F225
:101E00000101884243D10020019043F64400C4F20E
:101E10000200016841F480210160006800F4802024
:101E200033E041F20001C4F20001884231D00021C8
:101E3000C4F2010188422AD10020019043F64400F7
:101E4000C4F20200016841F001010160006800F085
:101E500001001AE00020019043F64400C4F20200A1
:101E6000016841F480310160006800F480300CE0CA
:101E70000020019043F64400C4F20200016841F4DE
:101E800000310160006800F400300190019802B058
:101E900080BD0020019043F64400C4F2020050F8D7
:101EA000041C002241F0100140F8041C50F8040CFE
:101EB000052100F01000019001983620FFF7B2FBD9
:101EC000362002B0BDE88040FFF79ABB90F83D1085
:101ED00001291CBF01207047022180F83D100068D5
:101EE00041F2FF72C168C4F20002904241F0010168
:101EF000C1600DDC40F2FF71C4F20001884215DCC4
:101F0000B0F1804F29D040F20041C4F2000122E03C
:101F100040F2FF31C4F20101884212DC41F60001B7
:101F2000C4F20001884218D0002112E040F60001FE
:101F3000C4F20001884210D040F60041C4F2000112
:101F400009E044F20001C4F20101884205D040F2E8
:101F50000041C4F20101884206D1816801F0070105
:101F6000062904BF00207047016841F001010160AB
:101F70000020704790F83C20012A4FF002026BD0FD
:101F800080B580F83D20D0F800C04FF67772DCF8BD
:101F9000083023EA0202CCF808200B684F2B28DC1B
:101FA0001F2B44DD202B45D0302B43D0402B40F05D
:101FB000AC80D1F804E0C968DCF82030DCF82020DF
:101FC00022F00102CCF82020DCF8182022F0F002E8
:101FD00042EA011123F00A0242EA0E02CCF818107C
:101FE000CCF82020DCF8081041F0470121F0300146
:101FF00027E06F2B32DDB3F5005F73D0B3F5805F60
:1020000021D0702B40F08180D1E901E3C968DCF870
:10201000082043EA0E0322F47F4243EA01211143E0
:10202000CCF80810DCF8081041F0770109E00BB19A
:10203000102B6AD1DCF8081021F07001194341F02F
:102040000701CCF808100022012180F83D10002182
:1020500080F83C10BDE8804010467047502B21D0DE
:10206000602B52D1D1F804E0C968DCF82030DCF8EC
:10207000202022F01002CCF82020DCF8182022F4D6
:10208000704242EA013123F0A00242EA0E12CCF87B
:102090001810CCF82020DCF8081041F0670121F07E
:1020A0001001CEE7D1F804E0C968DCF82030DCF894
:1020B000202022F00102CCF82020DCF8182022F0A9
:1020C000F00242EA011123F00A0242EA0E02CCF8C1
:1020D0001810CCF82020DCF8081041F0570121F04E
:1020E0002001AEE7D1E901E3C968DCF8082043EA42
:1020F0000E0322F47F4243EA01211143CCF8081079
:10210000DCF8081041F480419BE701229CE70000C5
:10211000002804BF012070472DE9F047044690F8DD
:102120003D000D4628B9002084F83C00204600F010
:1021300049F8022084F83D00206844F207028168D3
:1021400091438160211D02F0E7FA20684FF6FF7885
:1021500081688269D0F820C0D5E9003ED5E9026ADD
:1021600043EA0109AB6922EA080246EA03234FF673
:10217000FC46B343D5E9076742EA0A0229691A43D4
:1021800042EA062242EA01112CF0AA026B6942EAF5
:102190000E0241EA073142EA0312C0F80890816159
:1021A0000262012084F8460084F83E0084F83F0073
:1021B00084F8420084F8430084F83D000020BDE824
:1021C000F0870000F0B587B00068002100F14040C2
:1021D0004FEAB02003280691CDE904110391029142
:1021E00000F2B680DFE800F00284405C002443F691
:1021F00030000194C4F20200016940F2004741F04E
:10220000010101610169C4F2020701F001010191BC
:10221000019901940168022541F001010160016802
:10222000012601F00101019101990194016841F039
:1022300002010160006802A900F00200019001980B
:102240004FF400400290A7F58060CDE90354059457
:102250000696FEF7CBFB08213846CDE90215CDE9FD
:10226000044406961C2468E0002043F630010190E7
:10227000C4F202010A691E2442F004020A610A69DA
:1022800002F004020192019A01900A6842F00202EF
:102290000A60096801F0020101910199C02142E040
:1022A000002043F630010190C4F202010A69322491
:1022B00042F008020A610A6902F008020192019ADA
:1022C00001900A6842F001020A60096801F0010108
:1022D00001910199032102910221CDE90310CDE979
:1022E000050140F20040C4F20200A0F5806024E045
:1022F000002043F630010190C4F202010A691D2456
:1023000042F002020A610A6902F002020192019A95
:1023100001900A6842F002020A60096801F00201B5
:1023200001910199302102910221CDE90310CDE9FB
:10233000050140F20040C4F2020002A9FEF756FB7C
:10234000204605210022FFF76DF92046FFF758F9D6
:1023500007B0F0BD80B590F83E2090F83F3090F87F
:1023600042E090F843C0042909D0F1B9012A4FF0A6
:10237000010208BFBEF1010F44D0104680BD012B01
:102380004FF0010208BFBCF1010FF6D1022180F825
:102390003F1080F843100068016A21F010010162CB
:1023A000016A41F0100101622AE0012A4FF00102A6
:1023B00008BF012BE1D1BEF1010FDED1BCF1010F4D
:1023C000DBD1022280F83E2080F83F2080F84220B6
:1023D00080F84320D9B10068016A21F0010101624F
:1023E000016A41F001010162016A21F010010162FC
:1023F000016A41F010010162C16841F00201C1604F
:1024000004210EE0022180F83E1080F8421000689E
:10241000016A21F001010162016A41F001010162DA
:102420000221C2681143C1600168002241F001012C
:102430000160104680BD00007047000070B5044682
:102440000068C5680669B10716D515F0020113D0FA
:102450006FF002010161012121778069800703D0BB
:102460002046FFF7E9FF05E0204600F015F9204679
:1024700000F04EFA00202077700718D515F0040000
:1024800015D020686FF00401016102212177806975
:1024900010F4407F03D02046FFF7CEFF05E0204632
:1024A00000F0FAF8204600F033FA002020773007D9
:1024B00017D515F0080014D020686FF008010161ED
:1024C00004212177C069800703D02046FFF7B4FFBD
:1024D00005E0204600F0E0F8204600F019FA002060
:1024E0002077F00618D515F0100015D020686FF091
:1024F0001001016108212177C06910F4407F03D0E9
:102500002046FFF799FF05E0204600F0C5F8204679
:1025100000F0FEF900202077F00718BF15F0010049
:1025200002D1300609D412E020686FF00101016188
:10253000204600F071FA300609D515F0800006D06B
:1025400020686FF0800101612046FFF78DFB700667
:1025500009D515F0400006D020686FF040010161F8
:10256000204600F03BFBB00658BF70BD15F02000C0
:1025700008D021686FF0200220460A61BDE8704053
:10258000FFF774BB70BD000080B586B0006844F2F0
:10259000FF31C4F2010188424FF000010591CDE9FD
:1025A0000311CDE901111CDC0021C4F201018842B4
:1025B00035D044F20001C4F20101884269D1002003
:1025C000009043F63000C4F20200016841F01001AF
:1025D00001600068032100F0100000900098602066
:1025E0002FE044F20041C4F20101884231D044F6A8
:1025F0000001C4F2010188424BD10020009043F653
:102600003000C4F20200016841F00201016000687C
:1026100000F00200009000984FF400702AE00020C3
:10262000009043F63000C4F20200016841F010014E
:1026300001600068012100F01000009000984FF444
:10264000D440019040F20040C4F2020000F5406026
:1026500016E00020009043F63000C4F2020001684A
:1026600041F002010160006800F002000090009853
:102670004FF48070019040F200400321C4F2020048
:10268000022202920022059101A9CDE90322FEF760
:10269000ADF906B080BD00007047000090F83C30F6
:1026A000012B04BF022070474FEAB202032A00F256
:1026B000FD802DE9F043DFE802F002AF3D7D0368C5
:1026C00040F200461C6A1A6A24F0020422F0010259
:1026D0001A621A46D3F804C052F818EF8F6843F410
:1026E0008065C4F20106B54244EA070405D1CF680B
:1026F00024F00C0427F004073C430F68B54206D1D0
:10270000D1E905582CF440762E4346EA080C2EF009
:1027100073063743C3F804C09F614F6809695F635C
:102720001C629F6947F008079F619F6927F00407B3
:102730009F61B0E0036840F200481C6A1A6A24F402
:10274000007422F480721A621A46D3F804C052F858
:102750001CEF8F6843F48065C4F20108454544EAE4
:10276000072408D1CF6840F2FF463F0224F44064BA
:1027700027EA06063443D1F80090454506D1D1E951
:1027800005562CF440572E4347EA061C2EF07307DB
:1027900047EA0907C3F804C0DF614F680969DF63CE
:1027A0001C62DF6947F00807DF61DF6927F0040773
:1027B000DF6170E0036840F20045D3F820C01A6A78
:1027C00043F4806722F480521A621A465C6852F819
:1027D0001C8FD1F800E08E68C4F20105AF4204D12D
:1027E0004D6924F4804444EA85142CF4005747EAE8
:1027F000063728F4E64646EA0E265C60DE614E683F
:1028000009691E641F62DF6947F40067DF61DF69E1
:1028100027F48067DF613DE0036840F200481C6AEE
:102820001A6A24F0200422F010021A621A46D3F821
:1028300004C052F818EF8F6843F48065C4F20108B1
:10284000454544EA071407D1CF686FF0400624F0ED
:10285000C00406EA07163443D1F80090454506D176
:10286000D1E905562CF440672E4347EA860C2EF436
:10287000E64747EA0927C3F804C09F614F68096922
:102880009F631C629F6947F400679F619F6927F4FB
:1028900080679F6109021368194311600021BDE838
:1028A000F043002280F83C20084670470121F8E7F9
:1028B000002804BF0120704710B5044690F83D0081
:1028C00028B9002084F83C00204600F01FF80220C0
:1028D00084F83D002068211D01F01EFF012084F8CE
:1028E000460084F83E0084F83F0084F8400084F8F5
:1028F000410084F8420084F8430084F8440084F8DE
:10290000450084F83D00002010BD00007047000025
:1029100070470000A1B1042904D0082914BF412246
:10292000402200E03F22825C012A11D102220829C4
:1029300010D0042914BF80F8412080F83F200BE01C
:1029400090F83E20012A03D1022280F83E2003E0C5
:102950000120704780F84020006801F01F0101222B
:10296000036A02FA01F123EA01020262026A1143D8
:1029700041F2FF72C4F20002904201620BDC40F2AD
:10298000FF71C4F20001884213DCB0F1804F35D0F2
:1029900040F2004115E040F2FF31C4F201018842EB
:1029A00014DC41F60001C4F20001884226D0002167
:1029B00014E040F60001C4F2000188421ED040F647
:1029C0000041C4F20001884218D01EE044F2000128
:1029D000C4F20101884211D040F20041C4F2010169
:1029E000884212D1416C40F2004340F48062C4F24C
:1029F000010341F400419A42416406D1816801F02B
:102A00000701062904BF00207047016841F0010159
:102A1000016000207047000010B52DED028B0446C8
:102A2000006841F20041C4F20001884202D1FEF781
:102A300041FD206800F140404FEAB020042814D83E
:102A4000DFE800F003B2889D160040F28430C2F245
:102A500000000068026840F20C60C2F20000016DE4
:102A6000D20654BF013101390165BDEC028B10BDA6
:102A700040F28430C2F20000006840F20C64C2F2FE
:102A80000004416A226D9FED538A01EB0242214608
:102A900004F1200041F8542F04F16402B0EE480A1A
:102AA000012302F075FC40F2CC30C2F20000006855
:102AB000B0EE480A406AD4F8E010012300EB014070
:102AC00044F8E40FA4F1340004F11002214602F0AE
:102AD0005FFC40F21440C2F200000068B0EE480A09
:102AE000416AD4F88C2004F15C0001EB0241C4F887
:102AF000901004F1900104F1A002012302F048FCBF
:102B000040F25C40C2F200000068B0EE480A416A40
:102B1000D4F81C2104F1EC0001EB0241C4F82011AF
:102B200004F5907104F59872012302F031FC40F62F
:102B30004C009FED290AC2F2000002F077F940F242
:102B4000C400C2F200000068BDEC028BBDE810407A
:102B500003F0D4BE40F21440C2F2000000680268E4
:102B600040F20C60C2F20000D0F87011D2064CBFE7
:102B700001390131C0F87011BDEC028B10BD40F27B
:102B80005C40C2F200000068026840F20C60C2F2D1
:102B90000000D0F80012D2064CBF01390131C0F854
:102BA0000012BDEC028B10BD40F2CC30C2F200002E
:102BB0000068026840F20C60C2F20000D0F8E01039
:102BC000D2064CBF01390131C0F8E010BDEC028BD8
:102BD00010BD00BF6666663F6F12833A7047000003
:102BE00090F84230202B0AD194460A4600294FF033
:102BF000010118BFBCF1000F04D108467047022143
:102C000008467047B0B582B001210163002522213A
:102C100045638262A0F82CC0456480F84210C36B03
:102C200044F6D51E44F63534C0F6000EC0F6000456
:102C30000168C3E90FE444F65904C0F60004C3E98F
:102C400013450431044618466346FDF77FFE01959F
:102C5000216820460A680192496801910199216919
:102C600031B300BF016851E8031F026841F480716D
:102C700042E80313E3B1016851E8031F026841F41D
:102C8000807142E803139BB1016851E8031F026899
:102C900041F4807142E8031353B1016851E8031F06
:102CA000026841F4807142E80313002BDAD100BFBF
:102CB000016851E8051F026841F0010142E805136F
:102CC000BBB3016851E8051F026841F0010142E809
:102CD000051373B3016851E8051F026841F0010153
:102CE00042E805132BB3016851E8051F026841F063
:102CF000010142E80513002BDAD11AE0016851E81E
:102D0000051F026841F0400142E80513DBB101688C
:102D100051E8051F026841F0400142E8051393B1F4
:102D2000016851E8051F026841F0400142E80513BF
:102D30004BB1016851E8051F026841F0400142E8CB
:102D40000513002BDAD1016B01292ED1002100914E
:102D500001680A680092496800910099016851E889
:102D6000031F026841F0100142E80313DBB1016860
:102D700051E8031F026841F0100142E8031393B1C8
:102D8000016851E8031F026841F0100142E8031393
:102D90004BB1016851E8031F026841F0100142E89D
:102DA0000313002BDAD1002100E0012102B0BDE8BD
:102DB000B0400846704700002DE9F04184B000683B
:102DC00044F200420C29C4F2000208BF904222D013
:102DD00027291DD102F58061884219D141F20018DE
:102DE00041F228140025C2F200080827C2F20004AC
:102DF000002600BF08EB0601204601220023CDE992
:102E000000550295039702F0D7FE0136272EF1D127
:102E100004B0BDE8F08144F6A46444F6D065C2F283
:102E20000004C2F200054FF00908002704262046DE
:102E3000294602220023CDE900670297CDF80C80D5
:102E400002F092FC691C204602220023CDE90067B3
:102E50000297CDF80C8002F087FCA91C20460222C4
:102E60000023CDE900670297CDF80C8002F07CFCCE
:102E7000E91C204602220023CDE900670297CDF825
:102E80000C8002F071FC291D204602220023CDE9AE
:102E900000670297CDF80C8002F066FC691D2046A1
:102EA00002220023CDE900670297CDF80C8002F0E2
:102EB0005BFCA91D204602220023CDE90067029792
:102EC000CDF80C8002F050FCE91D204602220023C0
:102ED000CDE900670297CDF80C8002F045FC05F1C2
:102EE0000801204602220023CDE900670297CDF8B1
:102EF0000C8002F039FC05F1090120460222002372
:102F0000CDE900670297CDF80C8002F02DFC05F1A9
:102F10000A01204602220023CDE900670297CDF87E
:102F20000C8002F021FC05F10B0120460222002357
:102F3000CDE900670297CDF80C8002F015FC04B0D3
:102F4000BDE8F08170470000B0B582B001680A6842
:102F5000CC684B6902F02F05202D04F0200505D127
:102F600025B102B0BDE8B04001F04CBE5FEA027C82
:102F70001EBF03F0010E04F4907313EB0E0340D157
:102F8000036BD50618D5012B16D114F0100313D0FE
:102F9000002201920A6801924A680192019A4969E5
:102FA000490649D4818DC28DC38D002B18BF914233
:102FB00040F0ED8102B0B0BD13062CD514F08003B3
:102FC00029D090F84120212AF4D18268B2F5805F9F
:102FD00003D10269002A00F05D82026A531C036279
:102FE00012784A60C28C013A1304C284E2D1C868E4
:102FF00020F08000C860C86840F04000C86002B09F
:10300000B0BDD30718BF14F4807340F0CB805307D2
:1030100000F1CE80D3E05206CCD514F04002C9D0E6
:10302000CA6822F04002CA60202180F8411002B034
:10303000BDE8B04000F0A4BBC16B0A68526893B20F
:10304000002BB7D0858DAB42B4D2C285C969B1F52A
:10305000807F00F0A080016851E8031F026821F41E
:10306000807142E80313DBB1016851E8031F026875
:1030700021F4807142E8031393B1016851E8031F02
:10308000026821F4807142E803134BB1016851E8F2
:10309000031F026821F4807142E80313002BDAD188
:1030A000016851E8051F026821F0010142E805139B
:1030B000BBB3016851E8051F026821F0010142E835
:1030C000051373B3016851E8051F026821F001017F
:1030D00042E805132BB3016851E8051F026821F08F
:1030E000010142E80513002BDAD11AE0016851E82A
:1030F000051F026821F0400142E80513DBB10168B9
:1031000051E8051F026821F0400142E8051393B120
:10311000016851E8051F026821F0400142E80513EB
:103120004BB1016851E8051F026821F0400142E8F7
:103130000513002BDAD1202180F842100021016311
:10314000016851E8031F026821F0100142E80313EF
:10315000DBB1016851E8031F026821F0100142E869
:10316000031393B1016851E8031F026821F01001B5
:1031700042E803134BB1016851E8031F026821F0D4
:10318000100142E80313002BDAD1C16B0446084654
:10319000FDF704FA204602214163818DC28D891A10
:1031A00089B26DE1436C43F001034364530706D5D4
:1031B000BEF1000F03D0436C43F002034364930756
:1031C00006D5BEF1000F03D0436C43F00403436403
:1031D000BCF1000F06D55EEA050303D0436C43F053
:1031E00008034364436C002B3FF4E4AE920605D51C
:1031F00025B1044601F006FD216820464969426C6C
:1032000001F0400102F00802891800F0B98000BF07
:10321000016851E8031F026821F4907142E803132A
:10322000BBB3016851E8031F026821F4907142E8C2
:10323000031373B3016851E8031F026821F490710E
:1032400042E803132BB3016851E8031F026821F41D
:10325000907142E80313002BDAD11AE0016851E8BB
:10326000051F026821F0010142E80513DBB1016886
:1032700051E8051F026821F0010142E8051393B1EE
:10328000016851E8051F026821F0010142E80513B9
:103290004BB1016851E8051F026821F0010142E8C5
:1032A0000513002BDAD1016B012924D1016851E803
:1032B000031F026821F0100142E80313DBB101682B
:1032C00051E8031F026821F0100142E8031393B193
:1032D000016851E8031F026821F0100142E803135E
:1032E0004BB1016851E8031F026821F0100142E868
:1032F0000313002BDAD1202180F842100021016352
:1033000001684969490640F1C080016851E8051F1C
:10331000026821F0400142E80513DBB1016851E881
:10332000051F026821F0400142E8051393B10168CE
:1033300051E8051F026821F0400142E805134BB136
:10334000016851E8051F026821F0400142E80513B9
:10335000002BDAD1C16B002900F0978044F64D02B2
:10336000C0F60002044608460A65FDF757F9002832
:103370003FF420AEE06B016D02B0BDE8B0400847FD
:103380000446FFF7DFFD0020606402B0B0BD891A7B
:10339000026852E8032F036822F4907243E8032581
:1033A000BDB3026852E8032F036822F4907243E829
:1033B000032575B3026852E8032F036822F4907264
:1033C00043E803252DB3026852E8032F036822F473
:1033D000907243E80325002DDAD11AE0026852E822
:1033E000052F036822F0010243E80525DDB10268DC
:1033F00052E8052F036822F0010243E8052595B144
:10340000026852E8052F036822F0010243E805250F
:103410004DB1026852E8052F036822F0010243E82B
:103420000525002DDAD1202280F8422000220263F7
:10343000026852E8032F036822F0100243E80325D4
:10344000DDB1026852E8032F036822F0100243E85E
:10345000032595B1026852E8032F036822F0100299
:1034600043E803254DB1026852E8032F036822F0B8
:10347000100243E80325002DDAD1022289B242630B
:1034800002B0BDE8B040FFF797BC02B0BDE8B04065
:10349000FFF758BD026A32F8023B6FF35F234B60BF
:1034A00002629FE5002804BF0120704710B5044662
:1034B00090F8410028B9002084F84000204600F030
:1034C00021F8242084F841002068C16821F40051CB
:1034D000C160204601F014FC2068016921F490418C
:1034E0000161416921F02A014161C16841F4005143
:1034F000C16000202021606484F8411084F84210EB
:10350000606310BD2DE9F04786B00446006844F6BC
:103510000001C4F2000100268842CDE90466CDE92D
:103520000266019654D044F20041C4F20001884280
:1035300040F0C08043F630000096C4F202000169FA
:1035400041F400310161016901F4003100910099F9
:103550000096016841F008010160006801A900F0CF
:10356000080000900098602001900220CDE902063A
:10357000032004900720059040F60040C4F20200AA
:10358000FDF734FA46F22800C4F2020040F2381582
:103590006030C2F200054FF0006185E843004FF44F
:1035A00040304FF480624FF48073C5E90806284626
:1035B000C5E90362C5E90566EB61FDF723F900285B
:1035C0004FF026064FF03C0718BFFCF7E3FF67E01B
:1035D00043F630000096C4F20200016946F2280862
:1035E00041F4802101610169C4F2020801F48021E3
:1035F000009100990096016841F00801016000689F
:1036000001A900F00800009000984FF4407001906C
:103610000220CDE90206032004900720059040F621
:103620000040C4F20200FDF7E1F940F29815C2F241
:1036300000054FF480704FF0006A4FF48069C5E9CF
:1036400006604FF440372846C5E9008AC5E902669E
:10365000C5E90496C5E90876FDF7D4F8002818BF37
:10366000FCF798FFE563AC6340F2F81508F1300011
:10367000C2F200054021C5E9000A05F10800002258
:1036800080E806022846C5E90522EA61C5E9087214
:10369000FDF7B8F827264FF0380708B1FCF77AFF96
:1036A000304605210022E551AC63FDF7BBFF3046F3
:1036B000FDF7A6FF06B0BDE8F087000070470000E8
:1036C00070470000B0B590F84140202C1CBF02208C
:1036D000B0BD134600294FF0010218BF002B01D1E5
:1036E0001046B0BD0022212401628384C384426459
:1036F00080F84140D0F838C044F64D3E44F6FD35E0
:10370000C0F6000EC0F600050468CCE90FE544F6EB
:103710005905C0F60005CCE91352221D0446604647
:10372000FDF714F9216820466FF040020A6000BFDF
:10373000016851E8051F026841F0800142E8051365
:10374000DBB1016851E8051F026841F0800142E8E1
:10375000051393B1016851E8051F026841F080012B
:1037600042E805134BB1016851E8051F026841F0BA
:10377000800142E80513002BDAD100221046B0BDCB
:103780007047000070470000FEE7000040F258203C
:10379000C2F20000FDF704BA40F25820C2F2000065
:1037A000FDF7A4BA10B581B000210091806B40F202
:1037B0000401C2F2000190F83DC009684BF2895241
:1037C000C908C1F2F842A1FB0212110A2322514397
:1037D0000091009911B300990139009101680968BD
:1037E00089051FD50099C9B1009901390091016877
:1037F0000968890516D5009981B1009901390091B0
:103800000168096889050DD5009939B10099013918
:103810000091016809688905DBD403E0016C41F07F
:1038200020010164446B4FF0000E002C1CBF0021EE
:10383000E163816B00291CBF0022CA630268002C6F
:10384000136823F480631360A0F82AE018BFC4F85B
:1038500050E000291CBF00230B65116821F0010115
:10386000116090F83D1060290BD1202180F83D10A7
:10387000002180F83E10016401B0BDE81040FDF762
:103880008BB90CF0280128290DD1116841F00101F4
:103890001160116841F480611160002101632821E9
:1038A00080F83D1005E0202180F83D10002180F8CF
:1038B0003E1001B0BDE81040FDF7F2BC10B5044663
:1038C00090F83D1090F83E00B0F1100218BF0122B0
:1038D000403818BF0120024208BF22290AD001F057
:1038E000280028280CD100202063282084F83D00DF
:1038F000206813E02068026822F40062026000E0A1
:1039000020684268120507D4602905D0202184F878
:103910003D10002184F83E10002121634168090513
:103920001AD494F83D1060293CD1202184F83D1030
:10393000002121644169490606D50069616A087061
:10394000616A206801316162016821F00101016052
:103950002046FDF721F945E0416821F4006141600E
:10396000606B90F83510012929D1A06B43F2A57145
:10397000C0F600010165FCF751FE98B3206841696B
:10398000490606D50069616A0870616A20680131DC
:103990006162016821F001010160202084F83D008E
:1039A000A06B1DE04169490605D50069616A087090
:1039B000606A013060622046FDF772FC12E043F25B
:1039C000A571C0F600010165FCF728FE50B1216821
:1039D000606B0A6822F001020A60202184F83D1021
:1039E000016D8847206C000704D02068416821F4ED
:1039F000E061416094F83D00216C490758BF10BD5B
:103A000028280FD10020CFF6FF70E062002120208F
:103A1000216384F83D00204684F83E10BDE8104044
:103A2000FDF7F0BC10BD0000C16A428D042A07D129
:103A30000168426A4B6823F480634B60096911E0B6
:103A4000428D032A16D102680229536823F4806349
:103A5000536005D0042903D0116821F480611160FE
:103A60001169426A1170416A01314162418D013927
:103A700041857047428D022A11D14A1E0F2A16D85D
:103A8000DFE802F008101510151515151515151598
:103A9000151515080268136823F480630BE00168AC
:103AA000426ACBE70268136843F4806303E002686C
:103AB000136843F4007313601269436A1A70426A10
:103AC000D0F800C0531C4362438D013B4385DCF8B2
:103AD00010305370426A036801324262428D013AEB
:103AE00042855A6822F440725A60202280F83D20B4
:103AF00090F83E300022402B80F83E2002D1026335
:103B0000FDF786BCB1F1080218BF1222203918BF98
:103B100011460163FDF778BC81B090F83D10222971
:103B200010D1C16A428D042A0ED30168426A096924
:103B30001170416A01314162418D01394185418DE8
:103B400003295CD001B07047C36A012A57D8022B01
:103B500055D00022009240F20402C2F20002126824
:103B60004BF28953D208C1F2F843A2FB03231A0A8D
:103B700002EB82020092009A013A0092009A002A17
:103B800044D0026813689B051AD5009A013A009246
:103B9000009ADAB3026813689B0511D5009A013ABE
:103BA0000092009A92B3026813689B0508D5009AA8
:103BB000013A0092009A4AB3026813689B05DAD46E
:103BC000136823F480631360536823F4E063536045
:103BD0001269436A1A70426A01324262428D013AA6
:103BE0004285202280F83D2090F83E300022402B74
:103BF00080F83E2025D1026301B0FDF709BC0068C2
:103C0000416821F48061416001B07047016C41F06E
:103C1000200101640168426A4B6823F4E0634B6051
:103C200009691170416A01314162418D0139418553
:103C3000202180F83D10002180F83E1001B0FDF7F2
:103C40002FBBB1F1080218BF1222203918BF11464C
:103C5000016301B0FDF7D8BBC16A90F83D20212A6D
:103C600018BF7047428D4AB1416A026811F8013BA2
:103C700013614162418D01394185704711F5803FE3
:103C800018BF082917D101684A6822F4E0624A6027
:103C90000A6842F400720A6000212022016380F861
:103CA0003D2090F83E2080F83E10402A08BFFDF7E6
:103CB000B1BBFDF7ABBB2029E5D001684A6822F40F
:103CC000E0624A6011210163002180F83E1020214A
:103CD00080F83D10FDF79ABB90F83D1090F83EC07B
:103CE000C26A038D002B08BF212919D0212905D0D4
:103CF000BCF1400F08BF222900D07047418D61B34D
:103D000090F83E10402908BF00F03EB8416A0268B2
:103D100011F8013B13614162418D013941857047C2
:103D200012F5803F18BF082A1DD101684A6822F4A5
:103D3000E0624A600A6842F400720A6000212022B0
:103D4000016380F83D2090F83E2080F83E10402A24
:103D500008BFFDF75FBBFDF759BB0068416821F460
:103D6000806141607047202ADFD001684A6822F4F0
:103D7000E0624A6011210163002180F83E10202199
:103D800080F83D10FDF742BB90F83D10026D3AB14E
:103D9000026D012A0FD10168826CD2B20A6119E06A
:103DA000C26C816C012A11D10268C9B21161016D26
:103DB000023101657047026D022A0FD1222914D108
:103DC00001680A6842F480720A6003E00268C1F385
:103DD00007211161016D013101657047006841697A
:103DE000090644BF002101617047428D5AB1212963
:103DF00009D1416A026811F8013B13614162418DAA
:103E0000013941857047428D002A08BF2129EBD135
:103E100001684A6822F4E0624A600A6842F400726B
:103E20000A6000212022016380F83D2080F83E10C6
:103E3000FDF7F0BA80B582B00020019043F6300063
:103E4000C4F202000168002241F400110160006820
:103E5000052100F40010019001980C20FDF7E2FB11
:103E60000C20FDF7CDFB0E2005210022FDF7DAFB2B
:103E70000E20FDF7C5FB102005210022FDF7D2FB27
:103E8000102002B0BDE88040FDF7BABB80B549F60E
:103E9000F852C0F600020120002102F0DDFC40F2E1
:103EA000C401C2F20001086046F2F95049F6B0526E
:103EB000C0F60000C0F60002002102F04FFD40F203
:103EC000B801C2F20001086046F2ED6049F6D45232
:103ED000C0F60000C0F60002002102F03FFD40F2F3
:103EE000BC01C2F20001086047F25D3049F6086289
:103EF000C0F60000C0F60002002102F02FFD40F2E3
:103F0000C801C2F20001086080BD000081B000213C
:103F100043F630000091C4F20200026842F0100241
:103F20000260026802F010020092009A009102689A
:103F300042F080020260026802F080020092009A61
:103F40000091026842F001020260026802F0010280
:103F50000092009A0091026842F002020260026838
:103F600002F002020092009A0091016841F00801FB
:103F70000160006800F008000090009801B07047F0
:103F800080B540F2582045F60001C2F20000C4F2AC
:103F9000000141F6802200234FF4804CC0F206025B
:103FA00080E80E00C0E9033CC0E90533C0E90733EF
:103FB000FDF778F9002808BF80BDBDE88040FCF718
:103FC000E9BA000080B588B040F2F42044F2004223
:103FD0000021C2F20000C4F2010244F29F13CDE9B5
:103FE0000611CDE90411C0E90021C0E90213016105
:103FF0008161FDF7BFFE002818BFFCF7CBFA40F245
:10400000F420C2F20000FEF753FC002818BFFCF7B2
:10401000C1FA602001900020CDE90200059040F235
:10402000F420C2F2000001A90022FEF737FB0028AD
:1040300018BFFCF7AFFA40F2F420C2F20000FEF71E
:10404000A3FA08B080BD000080B588B040F23C30D3
:1040500044F600020021C2F20000C4F2010244F260
:104060009F13CDE90611CDE90411C0E90021C0E993
:10407000021301618161FDF77DFE002818BFFCF786
:1040800089FA40F23C30C2F20000FEF711FC002831
:1040900018BFFCF77FFA602001900020CDE90200F4
:1040A000059040F23C30C2F2000001A90022FEF768
:1040B000F5FA002818BFFCF76DFA40F23C30C2F266
:1040C0000000FEF761FA08B080BD000010B596B0A0
:1040D00040F2AC2000220021C2F20000C4F2010232
:1040E00044F29F131591CDE913111191CDE90F11F0
:1040F000CDE90D11CDE90B11CDE90911CDE907117C
:10410000CDE90511CDE90311CDE90111C0E9002187
:10411000C0E90213C0E904118161FDF72BFE0028FC
:1041200018BFFCF737FA4FF48050129040F2AC20E1
:10413000C2F2000012A9FDF71DFF002818BFFCF70E
:1041400029FA40F2AC20C2F20000FEF7B1FB0028D1
:1041500018BFFCF71FFA40F2AC200024C2F20000A6
:1041600010A9CDE91044FDF7A9FD002818BFFCF700
:1041700011FA6020CDE9090440F2AC20C2F200003F
:1041800009A90022CDE90B44CDE90D440F94FEF7B7
:1041900085FA002818BFFCF7FDF940F2AC20C2F206
:1041A000000009A90422FEF779FA002818BFFCF7DD
:1041B000F1F940F2AC20C2F2000009A90822FEF792
:1041C0006DFA002818BFFCF7E5F940F2AC20C2F206
:1041D000000009A90C22FEF761FA002818BFFCF7BD
:1041E000D9F900200590CDE90300CDE901004FF495
:1041F0000051089040F2AC200691C2F2000001A9E3
:10420000FDF736FD002818BFFCF7C4F940F2AC20DA
:10421000C2F20000FEF7B8F916B010BD80B58CB040
:1042200040F284300021C2F200004FF080424FF68D
:10423000FF73C0E900210322C0E90213CDE9032185
:1042400001220A23CDE9001101618161CDE9052137
:10425000CDE90731CDE9092103A90B93FDF758FFFB
:10426000002818BFFCF796F940F28430C2F2000033
:104270006946FDF723FD002818BFFCF78BF90CB049
:1042800080BD000080B58CB040F2CC3040F20042DE
:104290000021C2F20000C4F200024FF6FF73C0E931
:1042A00000210322C0E90213CDE9032101220A23E0
:1042B000CDE9001101618161CDE90521CDE9073129
:1042C000CDE9092103A90B93FDF722FF002818BFB0
:1042D000FCF760F940F2CC30C2F200006946FDF70D
:1042E000EDFC002818BFFCF755F90CB080BD0000AC
:1042F00080B58CB040F2144040F600020021C2F2BA
:104300000000C4F200024FF6FF73C0E9002103224F
:10431000C0E90213CDE9032101220A23CDE90011EE
:1043200001618161CDE90521CDE90731CDE909219F
:1043300003A90B93FDF7ECFE002818BFFCF72AF940
:1043400040F21440C2F200006946FDF7B7FC0028B5
:1043500018BFFCF71FF90CB080BD000080B58CB011
:1043600040F25C4040F600420021C2F20000C4F27C
:1043700000024FF6FF73C0E900210322C0E90213D7
:10438000CDE9032101220A23CDE9001101618161F8
:10439000CDE90521CDE90731CDE9092103A90B9329
:1043A000FDF7B6FE002818BFFCF7F4F840F25C40B9
:1043B000C2F200006946FDF781FC002818BFFCF737
:1043C000E9F80CB080BD000080B582B040F2A44096
:1043D00041F200020021C2F20000C4F200025323A5
:1043E00040F2E73CCDE90011C0E90023C0E9021C1E
:1043F0008161FDF7BFFC002818BFFCF7CBF840F245
:10440000A440C2F200006946FDF758FC002818BF1E
:10441000FCF7C0F802B080BD80B58CB040F23450DB
:1044200044F200020021C2F20000C4F2010244F290
:104430009F130B91CDE909110791CDE90511CDE944
:104440000311CDE90111C0E90021C0E902130161A6
:104450008161FDF78FFC002818BFFCF79BF84FF433
:104460008050089040F23450C2F2000008A9FDF7D5
:1044700081FD002818BFFCF78DF840F23450C2F2DD
:104480000000FEF715FA002818BFFCF783F860203B
:1044900001900020CDE90200059040F23450C2F2B4
:1044A000000001A90022FEF7F9F8002818BFFCF768
:1044B00071F840F23450C2F2000001A90422FEF764
:1044C000EDF8002818BFFCF765F840F23450C2F24E
:1044D0000000FEF759F80CB080BD000080B540F236
:1044E0007C5044F20041C2F20000C4F200010023FB
:1044F0004FF00C0C4FF4165280E80E00C0E9033365
:10450000C0E905C3C361FEF7CDFF002808BF80BD29
:10451000BDE88040FCF73EB880B540F2C45044F698
:104520000001C2F20000C4F2000100234FF00C0CA5
:104530004FF4E13280E80E00C0E90333C0E905C35F
:10454000C361FEF7AFFF002808BF80BDBDE8804013
:10455000FCF720B8FEE70000FEE7000000000000C6
:10456000EFF30980BFF36F8F154B1A681EF0100F21
:1045700008BF20ED108A20E9F04F10602DE90900F6
:104580004FF0500080F31188BFF34F8FBFF36F8F50
:1045900003F0A6FC4FF0000080F31188BDE809008D
:1045A00019680868B0E8F04F1EF0100F08BFB0ECB3
:1045B000108A80F30988BFF36F8F704700BF00BF78
:1045C000880C002000000000000000000000000037
:1045D000074B19680868B0E8F04F80F30988BFF30B
:1045E0006F8F4FF0000080F31188704700BF00BF4D
:1045F000880C002080B54EF21000CEF2000000685A
:1046000004F0AEFB012808BF80BDBDE8804003F088
:1046100099BD000070B592B006AC20463021FBF782
:10462000FEFE002543F640000595CDE90355CDE992
:1046300001550095C4F202000168022641F0805144
:104640000160006800F080500090009847F2000080
:104650000095C4F20000016841F4804101600068E7
:10466000A82100F4804000900098012006904FF4AB
:10467000803007904FF480000D9004200E90119030
:1046800020460C96CDE90F16FDF736F908B172B643
:10469000FEE70F20CDE901064FF4A05004904FF43F
:1046A0008050059001A805210395FCF7F7FF10B194
:1046B00072B600BFFEE712B070BD00004EF6885023
:1046C000CEF20000016841F4700101607047000003
:1046D00040F28430C2F20000FDF7B0BE40F2CC30B0
:1046E000C2F20000FDF7AABE40F21440C2F2000080
:1046F000FDF7A4BE40F25C40C2F20000FDF79EBE92
:1047000040F2A440C2F20000FDF798BE40F2EC4037
:10471000C2F20000FDF792BE10B540F6FF3E0368FE
:10472000C4F2000E40F2004C7045C4F2010C0FDCE4
:10473000B0F1804F19D040F20042C4F20002904222
:1047400013D040F60002C4F2000290420DD010E0F7
:1047500040F60042C4F20002904206D0604504D008
:104760000022C4F20102904203D14A6823F0700390
:10477000134341F6FF72C4F2000290420FDC704511
:1047800021DCB0F1804F41D040F20042C4F200027F
:1047900090423BD040F60002C4F2000234E043F6FF
:1047A000FF72C4F2010290421EDC42F20002C4F227
:1047B000000290422AD00022C4F20102904225D089
:1047C000604523D026E040F60042C4F20002904249
:1047D0001CD041F60002C4F20002904216D041F60D
:1047E0000042C4F200020FE044F20002C4F20102EF
:1047F00090420BD044F60002C4F20102904205D070
:1048000044F20042C4F20102904203D1CA6823F488
:104810004073134323F080024B69D1F800E08C68A9
:104820001A430260C46240F48062C0F828E0624526
:1048300004BF09690163012141610169C90708BF1A
:1048400010BD016921F00101016110BD806B0021E3
:10485000C185C184FEF776BB806B01684A6990F818
:104860004130212B2DD112F080022AD00021C184A9
:10487000016851E8031F026821F0C00142E80313F8
:10488000DBB1016851E8031F026821F0C00142E872
:10489000031393B1016851E8031F026821F0C001BE
:1048A00042E803134BB1016851E8031F026821F08D
:1048B000C00142E80313002BDAD1202180F8411017
:1048C0000168496990F84220222A40F07D8011F069
:1048D000400179D00021C185016851E8031F0268B9
:1048E00021F4907142E80313BBB3016851E8031F40
:1048F000026821F4907142E8031373B3016851E830
:10490000031F026821F4907142E803132BB301687E
:1049100051E8031F026821F4907142E80313002B51
:10492000DAD11AE0016851E8051F026821F001019F
:1049300042E80513DBB1016851E8051F026821F068
:10494000010142E8051393B1016851E8051F0268AF
:1049500021F0010142E805134BB1016851E8051F40
:10496000026821F0010142E80513002BDAD1016B46
:10497000012924D1016851E8031F026821F01001C8
:1049800042E80313DBB1016851E8031F026821F01C
:10499000100142E8031393B1016851E8031F026854
:1049A00021F0100142E803134BB1016851E8031FE5
:1049B000026821F0100142E80313002BDAD1202114
:1049C00080F8421000210163416C41F01001416404
:1049D000FEF7B8BA0168806B0968C90500F19F80CD
:1049E0000021C185016851E8031F026821F480712C
:1049F00042E80313E3B1016851E8031F026821F4A0
:104A0000807142E803139BB1016851E8031F0268FB
:104A100021F4807142E8031353B1016851E8031F88
:104A2000026821F4807142E80313002BDAD100BF41
:104A3000016851E8051F026821F0010142E80513F1
:104A4000BBB3016851E8051F026821F0010142E88B
:104A5000051373B3016851E8051F026821F00101D5
:104A600042E805132BB3016851E8051F026821F0E5
:104A7000010142E80513002BDAD11AE0016851E880
:104A8000051F026821F0400142E80513DBB101680F
:104A900051E8051F026821F0400142E8051393B177
:104AA000016851E8051F026821F0400142E8051342
:104AB0004BB1016851E8051F026821F0400142E84E
:104AC0000513002BDAD1202180F84210016B012957
:104AD00025D100BF016851E8031F026821F01001D1
:104AE00042E80313DBB1016851E8031F026821F0BB
:104AF000100142E8031393B1016851E8031F0268F3
:104B000021F0100142E803134BB1016851E8031F83
:104B1000026821F0100142E80313002BDAD10021D2
:104B20004163016B012918BFFEF7C8BD818DFEF7F7
:104B300043B90000806B01214163016B012918BF5B
:104B4000FEF7BEBD818D4908FEF736B90168806B5E
:104B50000968C90548BFFEF713BE0021C18400BF24
:104B6000016851E8051F026821F0800142E8051341
:104B700083B3016851E8051F026821F0800142E813
:104B800005133BB3016851E8051F026821F080015D
:104B900042E80513F3B1016851E8051F026821F0EE
:104BA000800142E80513002BDAD113E0016851E8D7
:104BB000031F026841F0400142E80313002B08BFC5
:104BC0007047016851E8031F026841F0400142E864
:104BD000031393B1016851E8031F026841F04001DB
:104BE00042E803134BB1016851E8031F026841F02A
:104BF000400142E80313002BD8D17047806BFEF7C9
:104C0000C1BD000081B090F84210222920D18368F4
:104C10000246B3F5805F08D152F8281F52F8183CBD
:104C2000002B61D003685B6809E052F8281F13B9B4
:104C30000369002BF6D003685B6803F07F030B70F9
:104C4000116801311160C18D01390A04C18501D09B
:104C500001B070470168CA6822F02002CA60CA68C1
:104C600022F48072CA604A6922F001024A6120215E
:104C700080F8421000214163026B012A3CD101639C
:104C8000016851E8031F026821F0100142E8031394
:104C9000DBB1016851E8031F026821F0100142E80E
:104CA000031393B1016851E8031F026821F010015A
:104CB00042E803134BB1016851E8031F026821F079
:104CC000100142E80313002BDAD101680A68D2060A
:104CD00006D5002200920A68009249680091009966
:104CE000818D01B0FEF768B8026852686FF35F22E9
:104CF00021F8022B8162A6E701B0FEF7DFBC0000BD
:104D0000B0B50446006804F108030ECB05691943E9
:104D100025F440552A4302616269E3691143C26880
:104D2000194349F20C639A431143C1604169A26976
:104D300021F4407141F20043114340F48062C4F217
:104D400001039A42416102D1FCF78CFD01E0FCF7BE
:104D500075FDE1694FF69C7563681922C0F6FF7511
:104D6000B1F5004FA0FB02011CD15A00DB0FFBF78D
:104D700091FA48F21F51C5F2EB11A0FB01235A0929
:104D800005F1805302FB0300322303EBC000A0FBBC
:104D900001014FF4F87000EA111000EB0210C1F3AA
:104DA000421118E09A009B0FFBF774FA48F21F516A
:104DB000C5F2EB11A0FB01235A0902FB05003223C7
:104DC00003EB0010A0FB0101F02000EA511000EB02
:104DD0000210C1F34311084421688860B0BD00008F
:104DE00010B540F27C54C2F200042046FEF7ACF845
:104DF00044F6D061C2F2000120460C22BDE810400A
:104E0000FDF7EEBE10B540F2C454C2F200042046D5
:104E1000FEF79AF841F20011C2F200012046272263
:104E2000BDE81040FDF7DCBEFEE7000010B52DED3B
:104E3000028B40F20C61C2F2000191ED1E1A044691
:104E400080ED001A91ED422A84ED0A0A80ED012AD4
:104E500091ED663A31EE027A80ED023A40F20C00B2
:104E6000C2F2000090ED005A40F20000C2F20000D1
:104E700090ED006A91ED8A4A35EE065AB1EE006A6D
:104E800025EE065A37EE036A36EE046A86EE055AB8
:104E900037EE430A30EE440AB5EE006A20EE068A89
:104EA00032EE410A30EE030A30EE440A20EE060AE2
:104EB00084ED050A94ED090A84ED034A84ED048A21
:104EC00084ED065A04F0F0F994ED0A3A28EE001A3F
:104ED00094ED072A94ED090A21EE031A94ED058A50
:104EE00031EE021A84ED071A04F086FA94ED0A3ABC
:104EF00028EE000A94ED082A20EE030A94ED061A23
:104F000030EE020A94ED094AB1EE400A84ED080A37
:104F100021EE030A9FED101A9FED102A30EE040ACD
:104F200030EE011AB4EE420A9FED0E2AF1EE10FAAD
:104F3000C8BFB0EE410A9FED0A1AB4EE420A30EE45
:104F4000011AF1EE10FAB8BFB0EE410A84ED090A79
:104F5000BDEC028B10BD00BFDB0FC9C0DB0F4940A9
:104F6000DB0FC940DB0F49C02DE9F0412DED068B69
:104F700040F62C2640F21C089FED4E8A9FED4E9A7B
:104F8000C2F20006C2F20008314600224346B0EEEB
:104F9000480AF0EE490A044600F04AF940F67C055A
:104FA00040F210079FED45AAC2F20005C2F20007C9
:104FB0002046294600223B46B0EE480AF0EE4A0A57
:104FC00000F036F906F14801204600224346B0EED3
:104FD000480AF0EE490A00F02BF905F14801204695
:104FE00000223B46B0EE480AF0EE4A0A00F020F9F3
:104FF00006F19001204600224346B0EE480AF0EE4A
:10500000490A00F015F905F19001204600223B46BF
:10501000B0EE480AF0EE4A0A00F00AF906F1D801AB
:10502000204600224346B0EE480AF0EE490A00F05E
:10503000FFF805F1D801204600223B46B0EE480AB1
:10504000F0EE4A0A00F0F4F89FED1E8A40F64C316B
:1050500040F240039FED1A0AC2F20001C2F20003BF
:1050600020460022F0EE480A00F0E2F840F69C11DB
:1050700040F22803C2F20001C2F2000320460022DF
:10508000B0EE480AF0EE480A00F0D2F840F6E4111B
:1050900040F23403C2F20001C2F2000320460022B3
:1050A000B0EE480AF0EE480ABDEC068BBDE8F041D0
:1050B00000F0BEB8003E834600204B4600409C45B1
:1050C00000803B450080BB44002957D0087891ED13
:1050D0000F1A91ED102A81ED070A30EEC00A002860
:1050E000C1ED060A81ED0F0A81ED101A81ED112A3A
:1050F00047D0012840F0968091ED015A91ED026A67
:1051000030EE414A31EE011A91ED037A24EE054A60
:1051100020EE065A30EE410A32EE000AD1E90C20A8
:1051200081ED0C0A20EE070A34EE051A91ED082AEB
:1051300091ED043A81ED0B0A31EE000A32EE000ADD
:10514000B4EE430AF1EE10FA81ED094A81ED0A5AF4
:10515000C1E90D2081ED080AC2BF81ED083AB0EE29
:10516000430A7047B1EE431AB4EE410AF1EE10FA69
:10517000BCBF81ED081AB0EE410A70479FED2B0AC3
:10518000704791ED024A91ED0A6A91ED012A91ED85
:10519000053A24EE004A91ED035A34EE064A20EE19
:1051A000022AD1E90C2030EE410AB4EE434A81EDE7
:1051B0000C0A20EE050AF1EE10FA81ED092A81EDC4
:1051C0000A4AC1E90D2081ED0B0A06DCB1EE433A33
:1051D000B4EE434AF1EE10FA03DAB0EE434A81ED41
:1051E0000A3A32EE042A91ED041A30EE020AB4EEC5
:1051F000410AF1EE10FA81ED080A06DCB1EE411A1F
:10520000B4EE410AF1EE10FA03DAB0EE410A81ED94
:10521000081AF5EE400AF1EE10FA02BF002088628B
:105220007047704791ED080A704700BF000000000A
:10523000002918BF002B00D1704780B50A7018688C
:10524000486058688860986881ED040AC860C1EDBC
:10525000050A01F120002821FBF7E1F880BD0000DC
:1052600010B540F20C6201EBC10040F62C21C2F2F5
:105270000002C2F2000102EB0012F0EE400A92EDD1
:105280001E0A01EBC00440F67800C2F2000021467D
:10529000FFF71AFF94ED080A10BD00000B46002925
:1052A00048BF4B4210B502699342A8BF134601297B
:1052B000A2EB030E0ADBD0E900130968CBB1082B7F
:1052C00015D0042B14BF4023382313E0D0E9003459
:1052D000B1F1FF3FD3F800C01ADD2CB3082C1FD06A
:1052E000042C14BF402138214CF8012025E03C2338
:1052F00000E03423CA50C16841B1082904D0042910
:1053000014BF4021382125E03C2123E0342121E055
:1053100084B1082C0CD0042C14BF402138210AE0A1
:105320003C214CF8012008E034214CF8012004E035
:105330003C2100E034214CF801E0C16841B108296A
:1053400004D0042914BF4021382102E03C2100E0B0
:10535000342196468068006840F801E010BD0000E6
:1053600070B51C46049E80E80E00CB68E568C660F8
:10537000AB4288BF1D46056108461146FDF7CAFAD3
:1053800020463146BDE87040FDF7C4BA0000000079
:105390002DE9F0472DED028B04464079984240F00C
:1053A000BE81D1E900509146CA68281A1E460346BC
:1053B0004EF65F2748BF4342BB4288BF002000EB48
:1053C0000208B0EE408AC1E902088A4604F028FBD0
:1053D00007464FF47A70B0FBF6F00E4604F037FB48
:1053E0009FEDD30B53EC102B04F044FB3A463346AD
:1053F00004F040FB9FEDD00B53EC102B04F03AFB74
:105400009FEDCF0B53EC102B04F0AEF904F07AF9BA
:105410002179CAF8045004EB81020131CBB20A2B86
:105420002171906040F0318194ED020AD4ED032A9D
:1054300094ED041A94ED052A94ED063A94ED074A8A
:1054400094ED085A94ED096A94ED0A7AD4ED0B0AAA
:105450000A2026E0F0EE601AF0EE470AB0EE467A37
:10546000B0EE456AB0EE445AB0EE434AB0EE423A6E
:10547000B0EE412AB0EE631AF0EE412AB0EE421AC5
:10548000B0EE432AB0EE443AB0EE454AB0EE465A8A
:10549000B0EE476AB0EE607A0138F0EE610A00F0D3
:1054A000F6800228C0F0F380B4EE620AF1EE10FA42
:1054B0000ADD84ED030AF0EE403AB0EE620AC4ED74
:1054C000022A0228C6D003E0F0EE623A0228C1D0D8
:1054D000F4EE413AF1EE10FA54DDF0EE632A84ED79
:1054E000031AC4ED043A032852D0F4EE422AF1EE36
:1054F00010FA5EDDF0EE623A84ED042AC4ED052A6E
:1055000004285CD0F4EE433AF1EE10FA66DDF0EEDA
:10551000632A84ED053AC4ED063A052864D0F4EE1A
:10552000442AF1EE10FA6CDDF0EE623A84ED064AA0
:10553000C4ED072A06286AD0F4EE453AF1EE10FAD7
:1055400070DDF0EE632A84ED075AC4ED083A0728AF
:105550006ED0F4EE462AF1EE10FA72DDF0EE623A09
:1055600084ED086AC4ED092A082870D0F4EE473AA1
:10557000F1EE10FA72DDF0EE632A84ED097AC4EDE3
:105580000A3A6FE0F0EE412AB0EE631A0328ACD17C
:10559000F0EE601AF0EE470AB0EE467AB0EE456AD9
:1055A000B0EE445AB0EE434AB0EE423AB0EE622A50
:1055B00062E7F0EE423AB0EE622A0428A2D1F0EEA1
:1055C000601AF0EE470AB0EE467AB0EE456AB0EEE9
:1055D000445AB0EE434AB0EE633A4DE7F0EE432A48
:1055E000B0EE633A05289AD1F0EE601AF0EE470A61
:1055F000B0EE467AB0EE456AB0EE445AB0EE624A7A
:105600003AE7F0EE443AB0EE624A062894D1F0EE62
:10561000601AF0EE470AB0EE467AB0EE456AB0EE98
:10562000635A29E7F0EE452AB0EE635A072890D175
:10563000F0EE601AF0EE470AB0EE467AB0EE626A1B
:105640001AE7F0EE463AB0EE626A08288ED1F0EE24
:10565000601AF0EE470AB0EE637A0DE7F0EE472AE3
:10566000B0EE637A09280BD0F4EE602AF1EE10FA5E
:1056700006DDF0EE621AC4ED0A0AC4ED0B2AFBE661
:10568000F0EE601AF0EE620AF6E6002047E094EDD4
:10569000040A94ED051A94ED062A94ED073A30EECB
:1056A000010A94ED084A30EE020A94ED095A30EEF0
:1056B000030A30EE040A30EE050AB1EE081A80EE55
:1056C000010A01EE108AB8EEC11AB5EE002A9FED6C
:1056D0001E3A21EE022A82EE032A99ED043AB7EE31
:1056E000004A34EE484A24EE033A002089ED061AB7
:1056F000207128EE000A30EE030AB3EE0E3A80EE77
:10570000034A81EE035A89ED040A82EE033A89EDD9
:10571000082A89ED054A89ED075A89ED093A0130D1
:105720006071BDEC028BBDE8F08700BF00BF00BF19
:105730000000000000004E40000000000000D03FCC
:105740000000000000407F400000FA4310B504460E
:10575000016008460021FCF7FDFD20680421BDE83A
:105760001040FCF7F7BD0000097840F2CC02C2F20D
:105770000002A52902D10123137004E01278012A46
:105780001CBF0020704770B540F2CE02C2F200028A
:10579000B2F90030DDF81CC05D1CC15429B20CF117
:1057A00003038B424FF00001158047D140F2CC0338
:1057B000C2F20003BCF1000F1970118023D000F178
:1057C000010E1FFA8CF20024002300BF1EF80460B3
:1057D0001CB244F001059542314414DA1EF805600C
:1057E00044F00205954231440DDA1EF8055044F0AC
:1057F00003049442294406DA1EF8045004331CB210
:1058000094422944E2DB0CEB000293785A2B14D12A
:105810005278C9B2914210D14178D0F8063001F0E7
:10582000010280F82020C1F34001D0F8022080F866
:1058300021100121C0E9062300E00021BDE87040ED
:10584000084670472DE9F047CE1D06EB567600F16D
:10585000040E01294FEAE60C63DB042901F0030979
:1058600001D2002134E047F6FC7501EA0508002169
:10587000CE081EF8067001F0040427FA04F4471855
:1058800004F0010487F87A404C1C1EF8065004F01E
:10589000050425FA04F404F0010487F87B408C1C0D
:1058A0001EF8065004F0060425FA04F404F001047E
:1058B00087F87C40CC1C1EF8065004F0070425FA3B
:1058C00004F4043104F00104884587F87D40CFD109
:1058D000B9F1000F25D0CE081EF8066001F00707C9
:1058E000FE4000F17A0506F00106B9F1010F6E5491
:1058F00017D04E1CF7081EF8078006F0070728FA95
:1059000007F707F00107B9F1020FAF5509D00231CF
:10591000CC081EF8044001F00706F44004F001042E
:105920006C54012A0EEB0C0408DB042A02F0030E6F
:1059300006D20022BEF1000F22D137E0A04635E0AA
:1059400047F6FC7102EA010400EB0C01002200BFE3
:105950008F183E79851885F89A607E79043285F82B
:105960009B60BE79944285F89C60FF7985F89D70B4
:10597000EED1114401F104084446BEF1000F15D0E8
:10598000A04618F8017B00F19A06BEF1010FB7544A
:105990000CD091196278BEF1020F4A7002D104F165
:1059A000020803E0A27804F103088A70DDF820C041
:1059B000012B08DB042B03F0030E06D20023BEF1FB
:1059C000000F2ED14DE0C1464BE047F6FC721A4065
:1059D0000023444638F8135000EB43072DBA2D0C32
:1059E00008EB4306A7F8A450758804332DBA2D0C94
:1059F000A7F8A650B5889A422DBA4FEA1545A7F8E0
:105A0000A850F188254609BA4FEA114106F1080469
:105A1000A7F8AA10DED105F10809C846BEF1000FAB
:105A20001FD0C14639F8024B00F1A40224BA240C5D
:105A3000BEF1010F22F8134013D0B8F8024002EB78
:105A4000430224BA240CBEF1020F548002D108F1A3
:105A5000040906E0B8F8043008F1060919BA090C7F
:105A60009180DDF824E0BCF1010F09DBBCF1040FEB
:105A70000CF0030809D20024B8F1000F2DD142E048
:105A8000CA46BEF1010F41DA49E047F6FC7101EA6E
:105A90000C0100244A4600BF59F8243000EB84066C
:105AA0001BBA09EB8407C6F8B8307B6804341BBA0C
:105AB000C6F8BC30BB68A1421BBAC6F8C030FD684E
:105AC00013462ABAC6F8C42007F11002E4D103F144
:105AD000100AD146B8F1000F15D0CA465AF8043B57
