:020000040800F2
:10000000485200205502000865500008753300086A
:100010006150000859050008A955000800000000BB
:10002000000000000000000000000000E150000897
:100030005D0500080000000071500008055100082F
:100040006F0200086F0200086F0200086F020008CC
:100050006F0200086F0200086F0200086F020008BC
:100060006F0200086F0200086F0200086F020008AC
:100070006F0200086F0200086F0200086F0200089C
:100080006F0200086F0200086F0200086F0200088C
:100090006F0200086F0200086F0200086F0200087C
:1000A0006F0200086F0200086F0200086F0200086C
:1000B000F1510008FD510008095200086F020008C4
:1000C0006F02000885330008793300086F020008CA
:1000D0006F0200086F02000861550008855500088E
:1000E0006F0200086F0200086F0200086F0200082C
:1000F000395200086F0200086F0200086F02000802
:100100006F0200086F020008155200086F02000815
:100110006F0200086F020008215200082D520008EB
:100120006F0200086F0200086F0200086F020008EB
:100130006F0200086F0200086F0200086F020008DB
:100140006F0200086F0200086F0200086F020008CB
:100150006F0200086F0200086F0200086F020008BB
:100160006F0200086F0200086F0200086F020008AB
:100170006F0200086F0200086F0200080000000014
:100180006F0200086F02000800F002F800F052F859
:1001900014A696E8000CB244B344DA4501D100F04D
:1001A00049F8BAE80F000FA696E83000A5EB040561
:1001B00004EB0607AAEB0704A7F101074FEA1515A0
:1001C0004FEA3414A4F10104AC4201D300F032F838
:1001D00013F0010F18BFFB1A43F0010300F001F800
:1001E000DBE718474094000060940000103A24BFF9
:1001F00078C878C1FAD8520724BF30C830C144BF8C
:1002000004680C6070470000704700000023002461
:1002100000250026103A28BF78C1FBD8520728BF16
:1002200030C148BF0B6070471FB509F0CAF91FBD48
:1002300010B510BD00F05AF91146FFF7F5FF06F0B2
:1002400013FC00F078F903B4FFF7F2FF03BC00F0F1
:100250007BF900000948804709480047FEE7FEE7B0
:10026000FEE7FEE7FEE7FEE7FEE7FEE7FEE7FEE766
:1002700004480549054A064B70470000DD51000857
:1002800089010008484C002048520020484E0020B8
:10029000484E002053EA020C00F069802DE9F04B33
:1002A0004FF00006002B1FBFB3FA83F503FA05F4E5
:1002B00024FA05F65E4012BF1643B2FA82F502FA3E
:1002C00005F4C5F120051EBF22FA05FC44EA0C0422
:1002D000203556EA044C4FEA144418BF641C4FF012
:1002E00000084FF00009904271EB030C39D300294C
:1002F00019BFB1FA81F701FA07F6B0FA80F700FAF0
:1003000007F6C7F120071EBF20FA07FC46EA0C06D5
:100310002037B6FBF4FCA7EB0507103F07F01F0BD7
:10032000CBF120062CFA06F60CFA0BFB44BFB346C1
:100330000026202FA4BF5E464FF0000B5BEA060CA0
:1003400008BF4FF0010B19EB0B0948EB0608ABFB9C
:10035000027C06FB02CC0BFB03CCC01B71EB0C0137
:10036000C1E70B46024641464846BDE8F08B13B54F
:10037000084318BF4FF0FF300146AFF30080BDE8DF
:100380001C407047032A40F2308010F0030C00F04C
:10039000158011F8013BBCF1020F624498BF11F8BF
:1003A00001CB00F8013B38BF11F8013BA2F1040278
:1003B00098BF00F801CB38BF00F8013B11F00303F0
:1003C00000F05A80083AC0F0088051F8043B083A1F
:1003D00051F804CBA0E80810F5E7121D5CBF51F8F6
:1003E000043B40F8043BAFF30080D20724BF11F870
:1003F000013B11F801CB48BF11F8012B24BF00F8D5
:10040000013B00F801CB48BF00F8012B70474FF0CB
:10041000000200B5134694469646203922BFA0E854
:100420000C50A0E80C50B1F12001BFF4F7AF090760
:1004300028BFA0E80C5048BF0CC05DF804EB890051
:1004400028BF40F8042B08BF704748BF20F8022B94
:1004500011F0804F18BF00F8012B704770477047AC
:10046000704710B500F03AF8006810BD10B50446AA
:1004700000F034F8046010BD10B5203AC0F00B80D5
:10048000B1E81850A0E81850B1E81850A0E818508A
:10049000203ABFF4F5AF5FEA027C24BFB1E8185000
:1004A000A0E8185044BF18C918C0BDE810405FEA62
:1004B000827C24BF51F8043B40F8043B08BF7047DE
:1004C000D20728BF31F8023B48BF11F8012B28BFE3
:1004D00020F8023B48BF00F8012B704700487047E6
:1004E0005800002000487047580000207546FFF76C
:1004F000F9FFAE4605006946534620F007008546E1
:1005000018B020B5FFF7B4FEBDE820404FF000065C
:100510004FF000074FF000084FF0000BAC46ACE87E
:10052000C009ACE8C009ACE8C009ACE8C00921F0DA
:1005300007018D46704710B50446AFF30080204692
:10054000BDE81040FFF77FBE01491820ABBEFEE7B3
:100550002600020070470000FEE700007047000020
:1005600072B600BFFEE7000070B5866D044600F06D
:1005700021F994F83510022925D105462068216C0F
:10058000026822F016020260426922F08002426193
:1005900009B9A16C19B1016821F008010160016875
:1005A00021F00101016000BF20680068C0070ED083
:1005B00000F000F9401B0628F6D3202060650320D8
:1005C00084F835000CE080206065012008E0E06DD3
:1005D0003F2101FA00F0B060012084F835000020CE
:1005E000002184F8341070BD90F83510022909D12B
:1005F000052180F835100068016821F001010160D3
:1006000000207047802141650120704790F8350037
:10061000704700002DE9F04F83B000F1200200F197
:100620003E4741F60045009207F1FF77C4F202050C
:1006300008224FEAB726A84208BF072200254FF03C
:1006400000084FF00009072E38BF4FEAB722019289
:100650000AE000BF09F1010908F10208B9F1100F21
:1006600005F1040500F0A2800F68012202FA09FEDC
:1006700017EA0E0AEED0D1F804C003220CF00307EB
:100680007E1E02FA08F4012E6FEA040B12D8846869
:10069000CE6804EA0B0406FA08F634438460446822
:1006A00024EA0E06CCF3001404FA09F4264346604B
:1006B00004E000BF032F01D103271EE0C6688C6849
:1006C00006EA0B0604FA08F42643022FC66014D18A
:1006D0006FF00302009E02EA590756F807C005F0C2
:1006E0001C040F220B69A2402CEA0202A3401A4309
:1006F000F251D1F804C00CF00307026807FA08F3BE
:1007000002EA0B021A431CF4403F0260A2D000220E
:1007100043F644030292C4F202031A6843F600440B
:1007200042F480421A601A68C4F2010402F4804262
:100730000292029A29F003024FF6084C2244CFF6A7
:10074000FF7C52F80C3005F00C070F26BE40B34377
:10075000019E06FA07F73B4342F80C30A2684B684B
:1007600042EA0A0743F60C4CDE0258BF22EA0A07A7
:10077000A760C4F2010CDCF800209E0242EA0A07DE
:1007800058BF22EA0A07CCF8007062689E0342EA6A
:100790000A0758BF22EA0A0767602268DB0342EAB9
:1007A0000A0758BF22EA0A07276053E703B0BDE8EB
:1007B000F08F000044F64010C2F20000006870475D
:1007C0007047000070470000F0B581B00446006833
:1007D00000254769426894F83E1002F48076FA05D5
:1007E00005D5002E1EBF6FF4807242610125BA0547
:1007F00005D5002E1EBF02356FF4007242617A05E6
:1008000016D5AEB1628D94F83D30D4F830C02029B1
:1008100008BF002A22D06FF48062402905F1040548
:10082000426101D0102903D1016841F400710160D7
:10083000380506D52EB1206808356FF40061416196
:1008400000E04DB1206C40EA05012046216401B072
:10085000BDE8F04002F028BE01B0F0BD03F0F701A2
:10086000212909D0282B08BFBCF1210F04D06FF437
:10087000806141610435DBE794F83D10E26AB2F132
:10088000080318BF0123203A18BF0122134208BFF2
:10089000282920D0212938D10021CFF6FF71E1622B
:1008A00021212163202184F83D10002184F83E108D
:1008B000426822F4E06242606FF480624261026842
:1008C00022F4806202604269120648BF016120463C
:1008D00000F086FDACE70021CFF6FF71E1624168D0
:1008E00021F4E06141606FF480614161016821F4AD
:1008F0008061016000202021206384F83D1084F88D
:100900003E00204600F092FB92E76FF48061416167
:100910008EE70000F0B581B007687968C26A90F888
:100920003E5090F83DE0402D01D0102D33D1BB69F1
:100930007C69E60717D1B2F12A4F00F04A82B2F57E
:100940002A0F00F04682220701F4007240F1008174
:10095000002A00F0FD80416B426C0029D2B23A615E
:1009600040F0AC80ACE08A0542D44FF0010C7A68CC
:100970005B076DD4120500F12C8204F04402402A7A
:1009800040F04B8111F4806100F0478101B0BDE877
:10099000F04002F0B7BE026C01F40073002A0CBFF5
:1009A000BC6900247D69AA0728D53BB3016C0029E6
:1009B00018BFBC6990F83D1001F02801282940F0CB
:1009C000BC807968012221F48061796004F004011F
:1009D00082EA910122064FF0180258BF0C22825A77
:1009E000002380F83C3001B0BDE8F040FFF7EABEDC
:1009F000C16AB1F52A0F3CD101213FE0EA066DD56D
:100A0000002B6BD090F83D50796821F4E06179605B
:100A10000021009179690091396841F00101396044
:100A20000099396821F4806139607968090540F1DD
:100A30006A8105F0F7010446222940F03A8154F812
:100A4000381F0A68526824F80E2C34F80E2C38E14E
:100A5000120500F1BE8104F08402802A40F0EB8090
:100A600011F4806100F0E78001B0BDE8F04002F0D1
:100A700029BFC16AB1F12A4F01D10821C16290F8A2
:100A80003E1040290AD1016D406C002900F0FE00A3
:100A900018BF40F00100386101B0F0BD0169B1F547
:100AA000804F40F0858090F83D10426C212902F083
:100AB000FE0218BF01323A61416B09B1C96B39B905
:100AC000806B002800F08581C06B002800F08181D8
:100AD000786840F40060786001B0F0BD0EF0F70275
:100AE000212A73D105F08402802A40F0B68011F4E7
:100AF000806100F0B28090F83D10428D002A00F035
:100B00006881426A12F8013B3B614262428D013AC0
:100B10004285428D002A08BF292940F05A81796810
:100B200021F48061796021210163282180F83D1042
:100B300001B0BDE8F04000F053BC002100917A699B
:100B40000092BA690092009A80F83C1001B0F0BDA2
:100B50004FF0010CA6078CEA522C7FF508AF002A53
:100B60003FF405AF90F83E20C16A036B90F83D60FA
:100B7000222E40F09580066D002E08BF402A00F01E
:100B80008F80026D002A40F026810269B2F5404F45
:100B900040F021810021009179690091B9690091AB
:100BA0000099396841F480713960016D013184E147
:100BB000016D002900F0EF80016D012940F00981ED
:100BC000406C062101EAD010F13064E705F04402E0
:100BD000402A51D111F480614ED090F83D10428DE1
:100BE000002A00F0F6803A69436A1A70426A0132BC
:100BF0004262428D013A4285428D002A08BF2A296D
:100C000040F0E78001684A6822F480624A6022214D
:100C10000163282180F83D10CFE004F00401012297
:100C200082EA910151EA0C0140F0D38001B0BDE8A5
:100C3000F04002F0EFBC04F00401012282EA9101CD
:100C400051EA0C0140F0C580BEF1210F40F0BA809E
:100C500001B0BDE8F04002F0F5BD690740F1B98090
:100C6000002B00F0B680418D002900F0B280416A6F
:100C700011F8012B3A610EE0690740F1AA80002BC0
:100C800000F0A780418D002900F0A3803969426AF5
:100C90001170416A01314162418D0139418598E00D
:100CA0000020009078690090B8690090009801B029
:100CB000F0BD54F8341F0A68526824F80A2C34F83E
:100CC0000A2C1AB1026C42F0040202647A680646E9
:100CD00022F4006208467A60FFF798FC014630462D
:100CE000012910D0206843F29131C0F6000101655E
:100CF000FFF77AFC0146304629B1216804460A6DA7
:100D0000084690472046418DF9B101684A6952076B
:100D100009D50969426A1170426A0168013242626A
:100D2000428D013A42854A69520608D50969426AEC
:100D30001170416A01314162418D01394185418D16
:100D400019B1016C41F004010164016C21B101B0E1
:100D5000BDE8F04002F0A8BB2A2D08D100210163B4
:100D6000282180F83D10044600F038FB204690F81A
:100D70003D10282915D10021CFF6FF71C162002155
:100D80002022016380F83D2080F83E1001B0BDE8CC
:100D9000F04000F04BB9406C062101EAD010F03071
:100DA00079E6016B222918BF222D12D100212022C1
:100DB000016380F83D2080F83E1001B0BDE8F040AE
:100DC00000F00CBB402D04D101B0BDE8F04002F0B2
:100DD000D1BD01B0F0BD428D52B1428D012A13D177
:100DE000202918BF082922D1396821F4806139608F
:100DF0000021009179690091B969009100993968E1
:100E000041F40071396057E0428D022A0BD110295C
:100E10002FD8012214238A40C0F201031A4228D09D
:100E20004FF480622BE03A6842F4806229E011F5C9
:100E3000803F0BD1396821F48061396079680905F8
:100E4000D6D5396821F4806139602EE0122B01D1AA
:100E50000129C9D11029F4D8012202FA01F1142282
:100E6000C0F201021142ECD0396841F4806139606E
:100E70001BE03A6822F480623A604FF400623B68FB
:100E80001A433A607A6812050FD54A1E1F2A17D8EE
:100E9000012303FA02F248F28103C8F200031A4266
:100EA0000ED0796841F48051796000210091796910
:100EB0000091B969009100990021016501B0F0BD70
:100EC00011F5803FEDD0F0E770470000002804BF27
:100ED00001207047F0B581B0044690F83D0028B974
:100EE000002084F83C00204600F02EFA242084F8EC
:100EF0003D002068016821F001010160016841F4B2
:100F000000410160016821F40041016000F02EFC05
:100F1000636848F2A16CC0F2010C40F60011C0F207
:100F20003D0163453CBF48F28041C0F21E0188424A
:100F300002D2012001B0F0BD4DF68361C4F21B3135
:100F4000A0FB01122168970CD1F804E04FF49676CB
:100F50002EF03F0545EA92454D60774348F6381636
:100F60000D6AC0F24106A7FB067625F03F076345F0
:100F700038BF960C721C3A430A62CA6948F2A066EE
:100F80004CF6FF77C0F20106B34222EA07020AD804
:100F900001385B00B0FBF3F001306FF31F30042821
:100FA00098BF042019E0A768013857B119277B437F
:100FB000B0FBF3F001306FF31F3068B100F58040F3
:100FC00007E003EB4303B0FBF3F001306FF31F3096
:100FD00010B100F5004000E001201043C86108682E
:100FE000D4E9072320F0C000104318430860886844
:100FF00048F2FF3204F10C0790438CCF18431043A2
:10100000A6698860C86820F0FF0038433043C86094
:10101000086840F00100086000202021206484F866
:101020003D10206384F83E0001B0F0BD7047000021
:1010300070470000704700007047000070470000D4
:101040002DE9F04784B0984617460E460446FFF750
:10105000B1FB94F83D10202922D10546206800BF3D
:101060008169890717D5FFF7A5FB411B20681A295D
:10107000F6D381698907F3D500202021206384F805
:101080003D1084F83E00206C04F13C0940F0200043
:101090002064022051E1A14619F83C1F012903D127
:1010A000022004B0BDE8F087012289F8002003681F
:1010B000DDE90D1A0C9ADB0703D1036843F0010345
:1010C0000360036823F400630360222084F83D007A
:1010D000402084F83E000020206462626185608DBB
:1010E000314620850020CFF6FF70E06220463A4668
:1010F0004346CDE900A502F093FC18B1012004B0ED
:10110000BDE8F087208D00B3022812D001282FD12E
:1011100021680A6822F480620A60002203924A6908
:1011200003928A690392039A0A6842F400720A6081
:1011300026E021680A6822F480620A600A6842F4A4
:1011400000620A600022039215E0002003902068EC
:1011500041690391816903910399016841F4007128
:101160000160202084F83D00002084F83E00E4E087
:101170000021039121684A690392896903910399C7
:101180000AF10106216883B2084650F8142F032B98
:101190001FD8022B00F08180012B56D050072FD58D
:1011A000086820F4806008600869616A0870606AF5
:1011B000216801306062208D01382085608D013802
:1011C00060852DE04869400640F1AB80084650F844
:1011D000142F520648D40168C90600F19680FFF723
:1011E000E9FA2168BAF1000FECD0401B5045EDD967
:1011F000E8E74869400740F1948048694007CFD448
:10120000002EFAD0FFF7D6FA2168BAF1000FF0D01D
:10121000401B5045F1D9ECE74869400740F1818017
:10122000486940073BD4002EFAD0FFF7C3FA216883
:10123000BAF1000FF0D0401B5045F1D9ECE74869F6
:1012400040066ED5084650F8142F52064DD401685A
:10125000C9065AD4FFF7AEFA2168BAF1000FEED0F2
:10126000401B5045EED9EAE70869616A0870606A78
:101270002268411C208D616201382085638D013B0D
:10128000638553695B073CD580B2032803D110689E
:1012900020F480601060106929E0500719D50868B3
:1012A00040F4007008600869616A0870606A22682A
:1012B000411C6162218D01392185618D0139618572
:1012C0001169417014E0486940072AD54869400710
:1012D000E5D4002EFAD0FFF76DFA2168BAF1000FBD
:1012E000F1D0401B5045F1D9EDE70869616A0870FB
:1012F000606A218D01306062481E2085618D013950
:10130000618501047FF43EAF2BE76FF010010160AF
:1013100000202021206384F83D1084F83E00206CDA
:1013200009E000202021206384F83D1084F83E006D
:10133000206C40F0200020640120002189F800107A
:1013400004B0BDE8F0870000B0B586B045F60001F6
:101350000068C4F20001002488420594CDE90344EA
:101360000294019401D006B0B0BD43F6300500945C
:10137000C4F20205286840F002002860286800F0E6
:101380000200009000984FF4406001901220CDE9D7
:101390000204032004900420059001F5D63001A931
:1013A000FFF738F900942869052140F4800028618E
:1013B0002869002200F4800000900098212000F0AD
:1013C000C9F8212000F0B4F822200521002200F005
:1013D000C1F8222000F0ACF806B0B0BD70470000A4
:1013E0007047000040F2480044F64011C2F200008D
:1013F000C2F2000100780A681044086070470000DB
:1014000080B543F60040C4F20200016841F4007167
:101410000160016841F480610160016841F48071FC
:101420000160032000F0C2F80F2000F005F800F082
:101430005DF8002080BD000070B586B0002543F641
:1014400040010195C4F202010A68044642F02002FC
:101450000A60096801A801F020010191019969461B
:1014600000F064F9049E002E18BF012600F07EF9FA
:101470004DF68361B040C4F21B31A0FB01014FF077
:10148000FF3000EB914140F2104041F20042C2F2C5
:101490000000C4F2000240F2E733C0E90021C0E9D5
:1014A00002530561856100F0FDFB08B106B070BD17
:1014B00040F21040C2F2000000F0C0FC0028F5D15C
:1014C000372000F035F80F2C0CD8372021460022A9
:1014D00000F040F840F24C010020C2F200010C6024
:1014E00006B070BD012006B070BD000082B00020C3
:1014F00043F640010190C4F202014A6842F480427E
:101500004A604A6802F480420192019A0090086899
:10151000002240F08050086008680F2100F08050E1
:10152000009000986FF0010002B000F013B80000C6
:10153000002848BF704700F01F01012202FA01F1A4
:101540001C2202EAD0004EF20012CEF200028150BC
:101550007047000010B54EF60C5CCEF2000CDCF8C3
:101560000030C3F3022E8EF00704042C28BF04249D
:10157000BEF103034FF0FF3E0EFA04F438BF002320
:10158000A14399400EFA03F39A43114300F00F026E
:1015900000F160430901043A03F564436244002802
:1015A00048BF02F10C03197010BD00004EF60C513B
:1015B000CEF200010A684FF6FF031A4060F30A22D8
:1015C00042F0806040F0FD7008607047002804BF62
:1015D000012070472DE9F04143F60808C4F20208E3
:1015E0000446D8F8F8030D4600F00700884207D2F9
:1015F00088F8F853D8F8F80300F00700A84276D12D
:101600002068810717D5410705D5D8F8001041F4A7
:10161000E051C8F80010010705D5D8F8001041F4D2
:101620006041C8F80010D8F80010A26821F0F0015D
:101630001143C8F80010C0073FD1D8F8F80300F0F4
:101640000700A84207D988F8F853D8F8F80300F043
:101650000700A8424BD12068410707D5D8F80010F1
:10166000E26821F4E0511143C8F80010000708D5E2
:10167000D8F80000216920F4604040EAC100C8F8B1
:10168000000000F09BF8D8F8001049F2E652C1F3D0
:101690000311C0F60002515C40F2000220FA01F191
:1016A00040F24C00C2F200000068C2F20002116079
:1016B000FFF7C2FE0020BDE8F0816068811E0229AC
:1016C00007D258F8081C89015CBF0120BDE8F081F1
:1016D00010E0012807D158F8081C89035CBF0120DD
:1016E000BDE8F08106E058F8081C890702D4012003
:1016F000BDE8F081D8F8001021F003010843C8F8D4
:101700000000FFF757F8064641F28837D8F8000086
:10171000616800F00C00B0EB810F8ED0FFF74AF843
:10172000801BB842F2D90320BDE8F0810F2202608D
:1017300043F60802C4F20202136803F00303436095
:10174000136803F0F0038360136803F4E053C3608D
:10175000D2F800C04FF4E05303EADC030361D2F88F
:10176000F80300F0070008607047000040F2000036
:1017700043F60801C2F20000C4F2020100680968E1
:1017800049F2F652C1F38221C0F60002515CC84012
:101790007047000040F2000043F60801C2F200006A
:1017A000C4F202010068096849F2F652C1F34231FD
:1017B000C0F60002515CC8407047000010B543F607
:1017C0000404C4F20204606800F00C0142F200401C
:1017D0000829C0F2F40007D0042918BF10BD41F257
:1017E0000020C0F27A0010BD216801F03F0221689C
:1017F00023684902C3F3881105D4A1FB000100232B
:10180000FEF748FD06E041F20020C0F27A004843AE
:10181000B0FBF2F021680222C1F3014102EB410169
:10182000B0FBF1F010BD0000002804BF012070479C
:101830002DE9F04182B00446007843F60006C00767
:10184000C4F202060BD0B06800F00C00042876D178
:101850003068800303D56068002800F04F8120784D
:10186000800719D5B06810F00C0F07D0B06800F0F1
:101870000C0008287DD1706840027AD43068800757
:1018800003D5E068012840F039813068216920F0F3
:10189000F80040EAC10030602078000713D42078B7
:1018A000400726D4A569002D00F02481B06800F01F
:1018B0000C00082840F09680012D40F0F8800120AF
:1018C00002B0BDE8F0816069002877D00020C4F242
:1018D00047200121C0F8801EFEF76CFF054600BFBF
:1018E000706F8007DBD4FEF765FF401B0228F7D935
:1018F000D9E0306C5FEAC0080AD400200190306C57
:1019000040F080503064306C00F0805001900198BD
:1019100047F20007C4F200073868C00540D43868B1
:1019200040F480703860FEF745FF05463868C00512
:1019300036D4FEF73FFF401B0228F7D9B3E0B0686A
:1019400000F00C00082803D1706840023FF580AF1A
:1019500061683068B1F5803F07D0B1F5A02F40F045
:101960008C8040F480203060306840F480303060FB
:101970008CE0E068002840F20000C4F2472054D018
:1019800001210160FEF716FF054600BF30688007A1
:101990003FF57BAFFEF70EFF401B0228F6D982E031
:1019A000A168306F012905D005294FD140F004000E
:1019B0003067306F40F00100306750E00020C4F223
:1019C00047200021C0F8801EFEF7F4FE054600BF48
:1019D000706F80077FF563AFFEF7ECFE401B0228B7
:1019E000F6D960E00027C4F2472700203866FEF7EA
:1019F000E1FE022D05460DD13068800140F1828064
:101A0000FEF7D8FE401B02284FF00300F4D902B0C5
:101A1000BDE8F081306880016CD5FEF7CBFE401B3D
:101A200002284FF00300F5D9F1E700210160FEF72D
:101A3000C1FE0546306880077FF52EAFFEF7BAFE7F
:101A4000401B02284FF00300F4D9E0E720F001002A
:101A50003067306F002920F00400306773D0FEF744
:101A6000A9FE054641F28837306F80077BD4FEF728
:101A7000A1FE401BB842F7D915E020F48030306059
:101A80003068002920F48020306075D0FEF792FE87
:101A9000054600BF306880033FF5E1AEFEF78AFEE1
:101AA000401B6428F6D9032002B0BDE8F0817068BD
:101AB000E16900F480028A4220D1216A00F03F02ED
:101AC0008A421BD147F6C071626A0140B1EB821FA6
:101AD00014D1A16A4FF6FF73C903994300F4403251
:101AE000A1F580318A4209D1E16A00F07060B0EB63
:101AF000016F03D1002002B0BDE8F081012002B0E7
:101B0000BDE8F08104F11C052FCD084340EA8210A6
:101B1000D9034FF6FF729143A1F5803140EA056089
:101B20000843706001203866FEF744FE044600BF9B
:101B300030688001DED4FEF73DFE001B02284FF026
:101B40000300F5D963E7FEF735FE054641F2883715
:101B5000306F800707D5FEF72DFE401BB8424FF0CF
:101B60000300F5D953E7B8F1000F3FF59BAE306C99
:101B700020F08050306495E6FEF71CFE054600BF5D
:101B8000306880037FF56BAEFEF714FE401B6428BF
:101B90004FF00300F4D93AE77047000070470000A7
:101BA00090F83C20012A04BF02207047B0B501F133
:101BB00008053CCDD1E900CE23F47C5322F47052C9
:101BC0001A432EF4F0431A432CF4E0431A4324F44E
:101BD000C0431A432A43C96922F48042036811436F
:101BE0005964002180F83C100020B0BD90F83C20E2
:101BF000012A4FF0020252D010B580F83D20026851
:101C0000D2F804E0D2F808C00C682EF07003234329
:101C100041F2FF74C4F20004A24253600DDC40F2B2
:101C2000FF73C4F200039A4215DCB2F1804F29D051
:101C300040F20043C4F2000322E040F2FF33C4F25A
:101C400001039A4212DC41F60003C4F200039A42F7
:101C500018D0002312E040F60003C4F200039A42B9
:101C600010D040F60043C4F2000309E044F2000340
:101C7000C4F201039A4205D040F20043C4F20103CA
:101C80009A4204D149682CF08003194391600121E4
:101C9000002280F83D1080F83C20BDE8104010463E
:101CA00070470000002804BF0120704710B50446AB
:101CB00090F83D0028B9002084F83C00204600F050
:101CC0001FF8022084F83D002068211D03F0BAFAB5
:101CD000012084F8460084F83E0084F83F0084F830
:101CE000400084F8410084F8420084F8430084F8FE
:101CF000440084F8450084F83D00002010BD000039
:101D000080B582B0006843F6FF71C4F201018842D9
:101D10001FDC41F20001C4F20001884239D041F6D3
:101D20000041C4F2000188425AD00021C4F20101EE
:101D3000884240F081800020019043F64400C4F2C4
:101D40000200016841F001010160006800F001003B
:101D500070E044F20001C4F20101884232D044F242
:101D60000041C4F20101884257D044F60001C4F298
:101D70000101884260D10020019043F64400C4F282
:101D80000200016841F480210160006800F48020B5
:101D900050E00020019043F64400C4F2020050F8E5
:101DA000041C002241F0100140F8041C50F8040CFF
:101DB000052100F01000019001983620FFF7CAFBC2
:101DC000362025E00020019043F64400C4F20200D2
:101DD000016841F480310160006800F4803029E03E
:101DE0000020019043F64400C4F2020050F8041CA5
:101DF000002241F0800140F8041C50F8040C052139
:101E000000F08000019001982C20FFF7A3FB2C200C
:101E100002B0BDE88040FFF78BBB0020019043F685
:101E20004400C4F20200016841F40031016000681E
:101E300000F400300190019802B080BD90F83D1090
:101E400001291CBF01207047022180F83D10006865
:101E500041F2FF72C168C4F20002904241F00101F8
:101E6000C1600DDC40F2FF71C4F20001884215DC54
:101E7000B0F1804F29D040F20041C4F2000122E0CD
:101E800040F2FF31C4F20101884212DC41F6000148
:101E9000C4F20001884218D0002112E040F600018F
:101EA000C4F20001884210D040F60041C4F20001A3
:101EB00009E044F20001C4F20101884205D040F279
:101EC0000041C4F20101884206D1816801F0070196
:101ED000062904BF00207047016841F0010101603C
:101EE0000020704790F83C20012A4FF002026BD08E
:101EF00080B580F83D20D0F800C04FF67772DCF84E
:101F0000083023EA0202CCF808200B684F2B28DCAB
:101F10001F2B44DD202B45D0302B43D0402B40F0ED
:101F2000AC80D1F804E0C968DCF82030DCF820206F
:101F300022F00102CCF82020DCF8182022F0F00278
:101F400042EA011123F00A0242EA0E02CCF818100C
:101F5000CCF82020DCF8081041F0470121F03001D6
:101F600027E06F2B32DDB3F5005F73D0B3F5805FF0
:101F700021D0702B40F08180D1E901E3C968DCF801
:101F8000082043EA0E0322F47F4243EA0121114371
:101F9000CCF80810DCF8081041F0770109E00BB12B
:101FA000102B6AD1DCF8081021F07001194341F0C0
:101FB0000701CCF808100022012180F83D10002113
:101FC00080F83C10BDE8804010467047502B21D06F
:101FD000602B52D1D1F804E0C968DCF82030DCF87D
:101FE000202022F01002CCF82020DCF8182022F467
:101FF000704242EA013123F0A00242EA0E12CCF80C
:102000001810CCF82020DCF8081041F0670121F00E
:102010001001CEE7D1F804E0C968DCF82030DCF824
:10202000202022F00102CCF82020DCF8182022F039
:10203000F00242EA011123F00A0242EA0E02CCF851
:102040001810CCF82020DCF8081041F0570121F0DE
:102050002001AEE7D1E901E3C968DCF8082043EAD2
:102060000E0322F47F4243EA01211143CCF8081009
:10207000DCF8081041F480419BE701229CE7000056
:10208000002804BF012070472DE9F047044690F86E
:102090003D000D4628B9002084F83C00204600F0A1
:1020A00049F8022084F83D00206844F20702816864
:1020B00091438160211D03F0C5F820684FF6FF7839
:1020C00081688269D0F820C0D5E9003ED5E9026A6E
:1020D00043EA0109AB6922EA080246EA03234FF604
:1020E000FC46B343D5E9076742EA0A0229691A4365
:1020F00042EA062242EA01112CF0AA026B6942EA86
:102100000E0241EA073142EA0312C0F808908161E9
:102110000262012084F8460084F83E0084F83F0003
:1021200084F8420084F8430084F83D000020BDE8B4
:10213000F0870000F0B587B00068002100F1404052
:102140004FEAB02003280691CDE9041103910291D2
:1021500000F2B680DFE800F00284405C002443F621
:1021600030000194C4F20200016940F2004741F0DE
:10217000010101610169C4F2020701F0010101914D
:10218000019901940168022541F001010160016893
:10219000012601F00101019101990194016841F0CA
:1021A00002010160006802A900F00200019001989C
:1021B0004FF400400290A7F58060CDE903540594E8
:1021C0000696FEF727FA08213846CDE90215CDE933
:1021D000044406961C2468E0002043F63001019078
:1021E000C4F202010A691E2442F004020A610A696B
:1021F00002F004020192019A01900A6842F0020280
:102200000A60096801F0020101910199C02142E0D0
:10221000002043F630010190C4F202010A69322421
:1022200042F008020A610A6902F008020192019A6A
:1022300001900A6842F001020A60096801F0010198
:1022400001910199032102910221CDE90310CDE909
:10225000050140F20040C4F20200A0F5806024E0D5
:10226000002043F630010190C4F202010A691D24E6
:1022700042F002020A610A6902F002020192019A26
:1022800001900A6842F002020A60096801F0020146
:1022900001910199302102910221CDE90310CDE98C
:1022A000050140F20040C4F2020002A9FEF7B2F9B3
:1022B000204605210022FFF74DF92046FFF738F9A7
:1022C00007B0F0BD80B590F83E2090F83F3090F810
:1022D00042E090F843C0042909D0F1B9012A4FF037
:1022E000010208BFBEF1010F44D0104680BD012B92
:1022F0004FF0010208BFBCF1010FF6D1022180F8B6
:102300003F1080F843100068016A21F0100101625B
:10231000016A41F0100101622AE0012A4FF0010236
:1023200008BF012BE1D1BEF1010FDED1BCF1010FDD
:10233000DBD1022280F83E2080F83F2080F8422046
:1023400080F84320D9B10068016A21F001010162DF
:10235000016A41F001010162016A21F0100101628C
:10236000016A41F010010162C16841F00201C160DF
:1023700004210EE0022180F83E1080F8421000682F
:10238000016A21F001010162016A41F0010101626B
:102390000221C2681143C1600168002241F00101BD
:1023A0000160104680BD00007047000070B5044613
:1023B0000068C5680669B10716D515F0020113D08B
:1023C0006FF002010161012121778069800703D04C
:1023D0002046FFF7E9FF05E0204600F015F920460A
:1023E00000F04EFA00202077700718D515F0040091
:1023F00015D020686FF00401016102212177806906
:1024000010F4407F03D02046FFF7CEFF05E02046C2
:1024100000F0FAF8204600F033FA00202077300769
:1024200017D515F0080014D020686FF0080101617D
:1024300004212177C069800703D02046FFF7B4FF4D
:1024400005E0204600F0E0F8204600F019FA0020F0
:102450002077F00618D515F0100015D020686FF021
:102460001001016108212177C06910F4407F03D079
:102470002046FFF799FF05E0204600F0C5F820460A
:1024800000F0FEF900202077F00718BF15F00100DA
:1024900002D1300609D412E020686FF00101016119
:1024A000204600F071FA300609D515F0800006D0FC
:1024B00020686FF0800101612046FFF76DFB700618
:1024C00009D515F0400006D020686FF04001016189
:1024D000204600F041FBB00658BF70BD15F020004B
:1024E00008D021686FF0200220460A61BDE87040E4
:1024F000FFF754BB70BD000080B586B0006844F2A1
:10250000FF31C4F2010188424FF000010591CDE98D
:102510000311CDE901111CDC0021C4F20101884244
:1025200035D044F20001C4F20101884269D1002093
:10253000009043F63000C4F20200016841F010013F
:1025400001600068032100F01000009000986020F6
:102550002FE044F20041C4F20101884231D044F638
:102560000001C4F2010188424BD10020009043F6E3
:102570003000C4F20200016841F00201016000680D
:1025800000F00200009000984FF400702AE0002054
:10259000009043F63000C4F20200016841F01001DF
:1025A00001600068012100F01000009000984FF4D5
:1025B000D440019040F20040C4F2020000F54060B7
:1025C00016E00020009043F63000C4F202000168DB
:1025D00041F002010160006800F0020000900098E4
:1025E0004FF48070019040F200400321C4F20200D9
:1025F000022202920022059101A9CDE90322FEF7F1
:1026000009F806B080BD00007047000090F83C302B
:10261000012B04BF022070474FEAB202032A00F2E6
:10262000FD802DE9F043DFE802F002AF3D7D036855
:1026300040F200461C6A1A6A24F0020422F00102E9
:102640001A621A46D3F804C052F818EF8F6843F4A0
:102650008065C4F20106B54244EA070405D1CF689B
:1026600024F00C0427F004073C430F68B54206D160
:10267000D1E905582CF440762E4346EA080C2EF09A
:1026800073063743C3F804C09F614F6809695F63ED
:102690001C629F6947F008079F619F6927F0040744
:1026A0009F61B0E0036840F200481C6A1A6A24F493
:1026B000007422F480721A621A46D3F804C052F8E9
:1026C0001CEF8F6843F48065C4F20108454544EA75
:1026D000072408D1CF6840F2FF463F0224F440644B
:1026E00027EA06063443D1F80090454506D1D1E9E2
:1026F00005562CF440572E4347EA061C2EF073076C
:1027000047EA0907C3F804C0DF614F680969DF635E
:102710001C62DF6947F00807DF61DF6927F0040703
:10272000DF6170E0036840F20045D3F820C01A6A08
:1027300043F4806722F480521A621A465C6852F8A9
:102740001C8FD1F800E08E68C4F20105AF4204D1BD
:102750004D6924F4804444EA85142CF4005747EA78
:10276000063728F4E64646EA0E265C60DE614E68CF
:1027700009691E641F62DF6947F40067DF61DF6972
:1027800027F48067DF613DE0036840F200481C6A7F
:102790001A6A24F0200422F010021A621A46D3F8B2
:1027A00004C052F818EF8F6843F48065C4F2010842
:1027B000454544EA071407D1CF686FF0400624F07E
:1027C000C00406EA07163443D1F80090454506D107
:1027D000D1E905562CF440672E4347EA860C2EF4C7
:1027E000E64747EA0927C3F804C09F614F680969B3
:1027F0009F631C629F6947F400679F619F6927F48C
:1028000080679F6109021368194311600021BDE8C8
:10281000F043002280F83C20084670470121F8E789
:10282000002804BF0120704710B5044690F83D0011
:1028300028B9002084F83C00204600F01FF8022050
:1028400084F83D002068211D02F0FCFC012084F882
:10285000460084F83E0084F83F0084F8400084F885
:10286000410084F8420084F8430084F8440084F86E
:10287000450084F83D00002010BD000070470000B6
:1028800070470000A1B1042904D0082914BF4122D7
:10289000402200E03F22825C012A11D10222082955
:1028A00010D0042914BF80F8412080F83F200BE0AD
:1028B00090F83E20012A03D1022280F83E2003E056
:1028C0000120704780F84020006801F01F010122BC
:1028D000036A02FA01F123EA01020262026A114369
:1028E00041F2FF72C4F20002904201620BDC40F23E
:1028F000FF71C4F20001884213DCB0F1804F35D083
:1029000040F2004115E040F2FF31C4F2010188427B
:1029100014DC41F60001C4F20001884226D00021F7
:1029200014E040F60001C4F2000188421ED040F6D7
:102930000041C4F20001884218D01EE044F20001B8
:10294000C4F20101884211D040F20041C4F20101F9
:10295000884212D1416C40F2004340F48062C4F2DC
:10296000010341F400419A42416406D1816801F0BB
:102970000701062904BF00207047016841F00101EA
:102980000160002070470000B0B52DED028B82B0D1
:10299000044641F200450068C4F200050021A84247
:1029A000019102D1FEF71EFD206805F50061884205
:1029B0000FD140F27070C2F20000443003F07AFE92
:1029C00040F2BC00C2F20000006801A905F0E0FB83
:1029D000206800F140404FEAB020042800F2B680A1
:1029E000DFE800F003A27C8F140040F2A820C2F2BE
:1029F00000000068026840F23050C2F20000016D31
:102A0000D20654BF0131013901659FE040F2A82090
:102A1000C2F20000006840F23054C2F20004416A81
:102A2000226D9FED4C8A01EB0242214604F1200009
:102A300041F8542F04F16402B0EE480A012302F079
:102A4000C7FF40F2F020C2F200000068B0EE480A72
:102A5000406AD4F8E010012300EB014044F8E40F91
:102A6000A4F1340004F11002214602F0B1FF40F25B
:102A70003830C2F200000068B0EE480A416AD4F86B
:102A80008C2004F15C0001EB0241C4F8901004F1C9
:102A9000900104F1A002012302F09AFF40F280307D
:102AA000C2F200000068B0EE480A416AD4F81C2166
:102AB00004F1EC0001EB0241C4F8201104F590711F
:102AC00004F59872012302F083FF40F2C400C2F2C1
:102AD0000000006801A905F05BFB37E040F23830E8
:102AE000C2F200000068026840F23050C2F20000FA
:102AF000D0F87011D20654BF01310139C0F87011FD
:102B000024E040F28030C2F200000068026840F227
:102B10003050C2F20000D0F80012D20654BF01318A
:102B20000139C0F8001211E040F2F020C2F20000BA
:102B30000068026840F23050C2F20000D0F8E010A5
:102B4000D20654BF01310139C0F8E01002B0BDEC2B
:102B5000028BB0BD6666663F70470000704700009C
:102B600070470000B0B582B001680A68CC684B6954
:102B700002F02F05202D04F0200505D125B102B06B
:102B8000BDE8B04002F0FEBB5FEA027C1EBF03F06E
:102B9000010E04F4907313EB0E0340D1036BD506C2
:102BA00018D5012B16D114F0100313D00022019276
:102BB0000A6801924A680192019A4969490649D412
:102BC000818DC28DC38D002B18BF914240F0ED81E5
:102BD00002B0B0BD13062CD514F0800329D090F8B4
:102BE0004120212AF4D18268B2F5805F03D10269C5
:102BF000002A00F05D82026A531C036212784A6068
:102C0000C28C013A1304C284E2D1C86820F080006B
:102C1000C860C86840F04000C86002B0B0BDD307CB
:102C200018BF14F4807340F0CB80530700F1CE80BE
:102C3000D3E05206CCD514F04002C9D0CA6822F0C5
:102C40004002CA60202180F8411002B0BDE8B040C7
:102C500000F08EBBC16B0A68526893B2002BB7D0EC
:102C6000858DAB42B4D2C285C969B1F5807F00F0D1
:102C7000A080016851E8031F026821F4807142E8D6
:102C80000313DBB1016851E8031F026821F480716E
:102C900042E8031393B1016851E8031F026821F46D
:102CA000807142E803134BB1016851E8031F0268C9
:102CB00021F4807142E80313002BDAD1016851E856
:102CC000051F026821F0010142E80513BBB301684A
:102CD00051E8051F026821F0010142E8051373B3B2
:102CE000016851E8051F026821F0010142E805135F
:102CF0002BB3016851E8051F026821F0010142E889
:102D00000513002BDAD11AE0016851E8051F0268AB
:102D100021F0400142E80513DBB1016851E8051FCD
:102D2000026821F0400142E8051393B1016851E8BF
:102D3000051F026821F0400142E805134BB101680C
:102D400051E8051F026821F0400142E80513002BFD
:102D5000DAD1202180F8421000210163016851E896
:102D6000031F026821F0100142E80313DBB1016880
:102D700051E8031F026821F0100142E8031393B1E8
:102D8000016851E8031F026821F0100142E80313B3
:102D90004BB1016851E8031F026821F0100142E8BD
:102DA0000313002BDAD1C16B04460846FDF7DCFBA8
:102DB000204602214163818DC28D891A89B26DE15D
:102DC000436C43F001034364530706D5BEF1000F83
:102DD00003D0436C43F002034364930706D5BEF16E
:102DE000000F03D0436C43F004034364BCF1000FB5
:102DF00006D55EEA050303D0436C43F00803436441
:102E0000436C002B3FF4E4AE920605D525B1044691
:102E100002F0B8FA216820464969426C01F040018D
:102E200002F00802891800F0B98000BF016851E87B
:102E3000031F026821F4907142E80313BBB30168D9
:102E400051E8031F026821F4907142E8031373B341
:102E5000016851E8031F026821F4907142E80313EE
:102E60002BB3016851E8031F026821F4907142E816
:102E70000313002BDAD11AE0016851E8051F02683C
:102E800021F0010142E80513DBB1016851E8051F9B
:102E9000026821F0010142E8051393B1016851E88D
:102EA000051F026821F0010142E805134BB10168DA
:102EB00051E8051F026821F0010142E80513002BCB
:102EC000DAD1016B012924D1016851E8031F02689E
:102ED00021F0100142E80313DBB1016851E8031F40
:102EE000026821F0100142E8031393B1016851E830
:102EF000031F026821F0100142E803134BB101687F
:102F000051E8031F026821F0100142E80313002B6F
:102F1000DAD1202180F8421000210163016849695B
:102F2000490640F1C080016851E8051F026821F0A0
:102F3000400142E80513DBB1016851E8051F026852
:102F400021F0400142E8051393B1016851E8051FE3
:102F5000026821F0400142E805134BB1016851E8D5
:102F6000051F026821F0400142E80513002BDAD169
:102F7000C16B002900F0978045F27932C0F600025B
:102F8000044608460A65FDF72FFB00283FF420AEF3
:102F9000E06B016D02B0BDE8B04008470446FFF7A2
:102FA000DFFD0020606402B0B0BD891A026852E8FB
:102FB000032F036822F4907243E80325BDB302682F
:102FC00052E8032F036822F4907243E8032575B397
:102FD000026852E8032F036822F4907243E8032545
:102FE0002DB3026852E8032F036822F4907243E87D
:102FF0000325002DDAD11AE0026852E8052F036894
:1030000022F0010243E80525DDB1026852E8052FF0
:10301000036822F0010243E8052595B1026852E8F1
:10302000052F036822F0010243E805254DB102682F
:1030300052E8052F036822F0010243E80525002D20
:10304000DAD1202280F8422000220263026852E88E
:10305000032F036822F0100243E80325DDB1026864
:1030600052E8032F036822F0100243E8032595B1CC
:10307000026852E8032F036822F0100243E8032598
:103080004DB1026852E8032F036822F0100243E8B2
:103090000325002DDAD1022289B2426302B0BDE8D5
:1030A000B040FFF75BBD02B0BDE8B040FFF758BDD0
:1030B000026A32F8023B6FF35F234B6002629FE5C6
:1030C000002804BF0120704710B5044690F8410065
:1030D00028B9002084F84000204600F021F8242080
:1030E00084F841002068C16821F40051C160204685
:1030F00002F0C6F92068016921F49041016141693B
:1031000021F02A014161C16841F40051C1600020F1
:103110002021606484F8411084F84210606310BD7F
:1031200010B586B0006844F60002C4F20002002127
:103130009042CDE90411CDE90211019121D044F270
:103140000041C4F2000188424ED1002043F6300114
:103150000090C4F202010A69262442F400320A6196
:103160000A6902F400320092009A0090086840F068
:1031700008000860086800F00800009000986020CF
:103180001AE043F630000091C4F2020002692724DD
:1031900042F480220261026902F480220092009AC5
:1031A0000091016841F008010160006800F008002A
:1031B000009000984FF4407001900220029000208F
:1031C0000390032004900720059040F60040C4F2CD
:1031D000020001A9FDF71EFA204605210022FEF794
:1031E000B9F92046FEF7A4F906B010BD90F84230B8
:1031F000202B07D100294FF0010318BF002A04D16A
:103200001846704702231846704700230363816203
:1032100022218285C285436480F8421001690068DA
:1032200019B1C16841F48071C160416941F0010187
:103230004161C16841F02001C1601846704700003B
:10324000006844F20041C4F20001884218BF704790
:1032500080B584B000200421CDE90010029044F62E
:103260000C1044F638114FF0090CC2F20000C2F203
:10327000000102220023CDF80CC002F095FD04B03D
:1032800080BD00002DE9F04381B0044690F8410074
:10329000202809D1894600294FF0010018BF002AD3
:1032A00006D101B0BDE8F083022001B0BDE8F08393
:1032B0000020606421201D4684F841001646FDF779
:1032C00079FAA684E684A1680646B1F5805F02D14A
:1032D0002069002848D0C8464FF00009E18C2068DA
:1032E00021B36F1C0AE0B8F1000F18D018F8011BC9
:1032F0004160E18C0139E184E18CB9B101680906D2
:10330000F1D4002FFAD0FDF755FA01464FF0030033
:1033100025B3891BA94221D82068C168EEE739F896
:10332000021B4FF000086FF35F21E1E701684906D7
:1033300013D46F1C03E000BF016849060DD4002FB1
:10334000FAD0FDF737FA01464FF0030035B1891B7B
:10335000A94203D82068C168EEE70020202184F844
:10336000411001B0BDE8F0834FF00008B6E700005F
:1033700070470000FEE7000040F23410C2F2000087
:10338000FDF722BA40F23410C2F20000FDF7C2BAD3
:1033900010B581B000210091806B40F20001C2F2B3
:1033A000000190F83DC009684BF28952C908C1F28A
:1033B000F842A1FB0212110A232251430091009905
:1033C00011B30099013900910168096889051FD579
:1033D0000099C9B10099013900910168096889050E
:1033E00016D5009981B100990139009101680968E9
:1033F00089050DD5009939B100990139009101680D
:1034000009688905DBD403E0016C41F02001016407
:10341000446B4FF0000E002C1CBF0021E163816B58
:1034200000291CBF0022CA630268002C136823F421
:1034300080631360A0F82AE018BFC4F850E00029A8
:103440001CBF00230B65116821F00101116090F889
:103450003D1060290BD1202180F83D10002180F81B
:103460003E10016401B0BDE81040FDF7A9B90CF0B1
:10347000280128290DD1116841F00101116011685E
:1034800041F48061116000210163282180F83D1022
:1034900005E0202180F83D10002180F83E1001B0A9
:1034A000BDE81040FDF710BD10B5044690F83D1082
:1034B00090F83E00B0F1100218BF0122403818BF4A
:1034C0000120024208BF22290AD001F02800282842
:1034D0000CD100202063282084F83D00206813E0F0
:1034E0002068026822F40062026000E020684268FE
:1034F000120507D4602905D0202184F83D10002151
:1035000084F83E1000212163416809051AD494F81B
:103510003D1060293CD1202184F83D100021216418
:103520004169490606D50069616A0870616A2068C8
:1035300001316162016821F0010101602046FDF75F
:103540003FF945E0416821F400614160606B90F80B
:103550003510012929D1A06B43F29131C0F6000149
:103560000165FDF741F898B320684169490606D521
:103570000069616A0870616A2068013161620168EE
:1035800021F001010160202084F83D00A06B1DE0C6
:103590004169490605D50069616A0870606A0130B1
:1035A00060622046FDF790FC12E043F29131C0F6D4
:1035B00000010165FDF718F850B12168606B0A68D9
:1035C00022F001020A60202184F83D10016D884735
:1035D000206C000704D02068416821F4E06141605C
:1035E00094F83D00216C490758BF10BD28280FD121
:1035F0000020CFF6FF70E06200212020216384F8D4
:103600003D00204684F83E10BDE81040FDF70EBD99
:1036100010BD0000C16A428D042A07D10168426AC8
:103620004B6823F480634B60096911E0428D032AE3
:1036300016D102680229536823F48063536005D0D1
:10364000042903D0116821F4806111601169426A74
:103650001170416A01314162418D013941857047E4
:10366000428D022A11D14A1E0F2A16D8DFE802F035
:10367000081015101515151515151515151515081E
:103680000268136823F480630BE00168426ACBE7A9
:103690000268136843F4806303E00268136843F42C
:1036A000007313601269436A1A70426AD0F800C04E
:1036B000531C4362438D013B4385DCF8103053704B
:1036C000426A036801324262428D013A42855A6879
:1036D00022F440725A60202280F83D2090F83E305B
:1036E0000022402B80F83E2002D10263FDF7A4BCEB
:1036F000B1F1080218BF1222203918BF1146016328
:10370000FDF796BC81B090F83D10222910D1C16A16
:10371000428D042A0ED30168426A09691170416A18
:1037200001314162418D01394185418D03295CD0D0
:1037300001B07047C36A012A57D8022B55D0002226
:10374000009240F20002C2F2000212684BF289536A
:10375000D208C1F2F843A2FB03231A0A02EB820249
:103760000092009A013A0092009A002A44D002681E
:1037700013689B051AD5009A013A0092009ADAB3B1
:10378000026813689B0511D5009A013A0092009ACD
:1037900092B3026813689B0508D5009A013A00921B
:1037A000009A4AB3026813689B05DAD4136823F4BD
:1037B00080631360536823F4E06353601269436AC3
:1037C0001A70426A01324262428D013A42852022D9
:1037D00080F83D2090F83E300022402B80F83E20BB
:1037E00025D1026301B0FDF727BC0068416821F4D0
:1037F0008061416001B07047016C41F020010164BB
:103800000168426A4B6823F4E0634B6009691170F8
:10381000416A01314162418D01394185202180F8A1
:103820003D10002180F83E1001B0FDF74DBBB1F115
:10383000080218BF1222203918BF1146016301B0D7
:10384000FDF7F6BBC16A90F83D20212A18BF7047EA
:10385000428D4AB1416A026811F8013B136141622D
:10386000418D01394185704711F5803F18BF082906
:1038700017D101684A6822F4E0624A600A6842F49B
:1038800000720A6000212022016380F83D2090F838
:103890003E2080F83E10402A08BFFDF7CFBBFDF761
:1038A000C9BB2029E5D001684A6822F4E0624A6079
:1038B00011210163002180F83E10202180F83D1085
:1038C000FDF7B8BB90F83D1090F83EC0C26A038D7A
:1038D000002B08BF212919D0212905D0BCF1400FA8
:1038E00008BF222900D07047418D61B390F83E1087
:1038F000402908BF00F03EB8416A026811F8013B58
:1039000013614162418D01394185704712F5803F55
:1039100018BF082A1DD101684A6822F4E0624A6093
:103920000A6842F400720A6000212022016380F8D4
:103930003D2090F83E2080F83E10402A08BFFDF759
:103940007DBBFDF777BB0068416821F48061416071
:103950007047202ADFD001684A6822F4E0624A609A
:1039600011210163002180F83E10202180F83D10D4
:10397000FDF760BB90F83D10026D3AB1026D012A6F
:103980000FD10168826CD2B20A6119E0C26C816CFD
:10399000012A11D10268C9B21161016D02310165BC
:1039A0007047026D022A0FD1222914D101680A68DA
:1039B00042F480720A6003E00268C1F307211161DA
:1039C000016D01310165704700684169090644BF16
:1039D000002101617047428D5AB1212909D1416A04
:1039E000026811F8013B13614162418D0139418543
:1039F0007047428D002A08BF2129EBD101684A682F
:103A000022F4E0624A600A6842F400720A6000210F
:103A10002022016380F83D2080F83E10FDF70EBBA8
:103A20002DE9F04F83B007680446DDF834B00C9EF2
:103A30003868994640F4806038603868904640F4B1
:103A40008070386078698A46C00714D1751C06E01A
:103A50007869C00700F0C0807869C0070BD1002DDD
:103A6000FAD0FCF7A7FE2768002EF1D0A0EB0B00E0
:103A7000B042F1D9ECE70AF0FE0AC7F810A03846C8
:103A800050F8141F89071AD4751C08E0786980075C
:103A900040F1DD80384650F8141F89070FD479694A
:103AA000490500F19080002DF4D0FCF783FE2768D3
:103AB000002EEBD0A0EB0B00B042EBD9E6E70020E4
:103AC0000290384650F8141F029141680291029901
:103AD000016809061AD4751C09E000BF7869000660
:103AE00040F1A080384650F8141F09060ED47969B9
:103AF000490552D4002DF5D0FCF75CFE2768002E56
:103B0000ECD0A0EB0B00B042ECD9E7E7B9F1010F24
:103B100021D04FEA18203861384650F8141F0906A2
:103B200019D4751C08E000BF786900067AD53846BC
:103B300050F8141F09060ED4796949052DD4002DBB
:103B4000F5D0FCF737FE2768002EEDD0A0EB0B0078
:103B5000B042ECD9E8E75FFA88F03861384650F8AF
:103B6000141F09061ED4751C08E000BF7869000602
:103B700058D5384650F8141F090613D479694905F9
:103B80000BD4002DF5D0FCF715FE2768002EEDD0E4
:103B9000A0EB0B00B042ECD9E8E76FF48061016064
:103BA000042040E038684FF0011140F48070386024
:103BB000204600223346CDF800B000F059F810B38B
:103BC0002068006816E0396841F4007139606FF4CC
:103BD0008061016004203BE000202021206384F804
:103BE0003D1084F83E00216C41F02001216484F8EE
:103BF0003C003868C00544BF4FF4007020640320C7
:103C000003B0BDE8F08F25684AF001070221C0F239
:103C10000101204632465B462F6103B0BDE8F04FFC
:103C200000F084B8202000212022216384F83D2068
:103C300084F83E10226C1043206484F83C10206C01
:103C4000042811D1386840F4007038600CE020205E
:103C500000212022216384F83D2084F83E10226C4C
:103C60001043206484F83C10012003B0BDE8F08FBD
:103C70002DE9F04F81B083461646DBF8002001F4B1
:103C80007F001827B0F5803F08BF1427D2598DB2A6
:103C900002EA0501491BB1FA81F14909B1424FF02D
:103CA00018092AD1DDF828A098465C1CB0F5803FA1
:103CB00008BF4FF0140914E0DBF8000050F80900C9
:103CC0002840401BB0FA80F04009B04219D0DBF820
:103CD0000000C0592840401BB0FA80F04009B042B3
:103CE0000BD1002CF3D0FCF765FDB8F1000FE3D049
:103CF000A0EB0A004045EAD9DEE7002001B0BDE8AC
:103D0000F08F00202021CBF830008BF83D108BF88D
:103D10003E00DBF8401041F02001CBF840108BF85A
:103D20003C00012001B0BDE8F08F00002DE9F0411A
:103D3000984603680446184650F8146F8FB206EA96
:103D40000701B94202D10020BDE8F0811646551C9A
:103D50000AE000BF58693840B8421DD1184650F8F3
:103D6000141F3940B942EED0596949050BD4002DD2
:103D7000F4D0FCF71FFD2368002EEBD0A0EB080069
:103D8000B042EBD9E6E7196841F4007119606FF4AD
:103D900080610160042000E02020002120222163B6
:103DA00084F83D2084F83E10226C104320640120EA
:103DB00084F83C10BDE8F08110B59AB0002418A832
:103DC0000121CDE9184402F08DFE40F2BC01C2F29F
:103DD0000001086016A80121CDE9164402F082FE18
:103DE00040F2C401C2F20001224A086021A000F1A1
:103DF000040C0F929CE81E1080690DF1400E8EE8B5
:103E00001E1015900FA8002102F090FE40F2B8019C
:103E1000C2F200011E4A08601DA000F1040C0892C5
:103E20009CE81E1080690DF1240E8EE81E100E9085
:103E300008A8002102F07AFE40F2C001C2F200019F
:103E40001A4A086019A000F1040C01929CE81E10A7
:103E500080690DF1080E8EE81E10079001A8002160
:103E600002F064FE40F2C801C2F2000108601AB01C
:103E700010BD00BFFE950008696900080000000041
:103E800000000000800000000000000000000000B2
:103E90001A960008616A0008FDFF0000000000009B
:103EA0008000000000000000000000000B960008E9
:103EB00021720008FDFF00000000000080000000EB
:103EC000000000000000000081B0002143F6300037
:103ED0000091C4F20200026842F01002026002681F
:103EE00002F010020092009A0091026842F08002F3
:103EF0000260026802F080020092009A009102685B
:103F000042F001020260026802F001020092009A8F
:103F10000091026842F002020260026802F00202AE
:103F20000092009A0091016841F008010160006868
:103F300000F008000090009801B0704780B540F292
:103F4000341045F60001C2F20000C4F2000141F64F
:103F5000802200234FF4804CC0F2060280E80E005D
:103F6000C0E9033CC0E90533C0E90733FCF7AEFF05
:103F7000002808BF80BDBDE88040FCF7F1BA000012
:103F800080B588B040F2D01044F200420021C2F265
:103F90000000C4F2010244F29F13CDE90611CDE9FD
:103FA0000411C0E90021C0E9021301618161FDF73C
:103FB00079FE002818BFFCF7D3FA40F2D010C2F205
:103FC0000000FEF72DFC002818BFFCF7C9FA60209E
:103FD00001900020CDE90200059040F2D010C2F21D
:103FE000000001A90022FEF711FB002818BFFCF712
:103FF000B7FA40F2D010C2F20000FEF77DFA08B026
:1040000080BD000080B588B040F2182044F6000260
:104010000021C2F20000C4F2010244F29F13CDE974
:104020000611CDE90411C0E90021C0E902130161C4
:104030008161FDF737FE002818BFFCF791FA40F2C6
:104040001820C2F20000FEF7EBFB002818BFFCF7B7
:1040500087FA602001900020CDE90200059040F22F
:104060001820C2F2000001A90022FEF7CFFA0028B2
:1040700018BFFCF775FA40F21820C2F20000FEF7F4
:104080003BFA08B080BD000080B540F2602041F6E8
:104090000041C2F20000C4F200010023532240F2AA
:1040A000E73C80E80E1003618361FDF7FBFD00280B
:1040B00008BF80BDBDE88040FCF752BA10B596B08D
:1040C00040F2881000220021C2F20000C4F2010276
:1040D00044F29F131591CDE913111191CDE90F1100
:1040E000CDE90D11CDE90B11CDE90911CDE907118C
:1040F000CDE90511CDE90311CDE90111C0E9002198
:10410000C0E90213C0E904118161FDF7CBFD00286D
:1041100018BFFCF725FA4FF48050129040F2881037
:10412000C2F2000012A9FDF7DDFE002818BFFCF75F
:1041300017FA40F28810C2F20000FEF771FB002867
:1041400018BFFCF70DFA40F288100024C2F20000FC
:1041500010A9CDE91044FDF749FD002818BFFCF770
:10416000FFF96020CDE9090440F28810C2F2000096
:1041700009A90022CDE90B44CDE90D440F94FEF7C7
:1041800045FA002818BFFCF7EBF940F28810C2F29C
:10419000000009A90422FEF739FA002818BFFCF72D
:1041A000DFF940F28810C2F2000009A90822FEF7E8
:1041B0002DFA002818BFFCF7D3F940F28810C2F29C
:1041C000000009A90C22FEF721FA002818BFFCF70D
:1041D000C7F900200590CDE90300CDE901004FF4B7
:1041E0000051089040F288100691C2F2000001A927
:1041F000FDF7D6FC002818BFFCF7B2F940F2881092
:10420000C2F20000FEF778F916B010BD80B58CB090
:1042100040F2A8200021C2F200004FF080424FF689
:10422000FF73C0E900210322C0E90213CDE9032195
:1042300001220A23CDE9001101618161CDE9052147
:10424000CDE90731CDE9092103A90B93FDF718FF4B
:10425000002818BFFCF784F940F2A820C2F2000041
:104260006946FDF7C3FC002818BFFCF779F90CB0CC
:1042700080BD000080B58CB040F2F02040F20042DA
:104280000021C2F20000C4F200024FF6FF73C0E941
:1042900000210322C0E90213CDE9032101220A23F0
:1042A000CDE9001101618161CDE90521CDE9073139
:1042B000CDE9092103A90B93FDF7E2FE002818BF01
:1042C000FCF74EF940F2F020C2F200006946FDF71B
:1042D0008DFC002818BFFCF743F90CB080BD00002E
:1042E00080B58CB040F2383040F600020021C2F2B6
:1042F0000000C4F200024FF6FF73C0E90021032260
:10430000C0E90213CDE9032101220A23CDE90011FE
:1043100001618161CDE90521CDE90731CDE90921AF
:1043200003A90B93FDF7ACFE002818BFFCF718F9A2
:1043300040F23830C2F200006946FDF757FC002811
:1043400018BFFCF70DF90CB080BD000080B58CB033
:1043500040F2803040F600420021C2F20000C4F278
:1043600000024FF6FF73C0E900210322C0E90213E7
:10437000CDE9032101220A23CDE900110161816108
:10438000CDE90521CDE90731CDE9092103A90B9339
:10439000FDF776FE002818BFFCF7E2F840F2803007
:1043A000C2F200006946FDF721FC002818BFFCF7A7
:1043B000D7F80CB080BD000080B582B040F2C830A4
:1043C00041F200020021C2F20000C4F200025323B5
:1043D00040F2E73CCDE90011C0E90023C0E9021C2E
:1043E0008161FDF75FFC002818BFFCF7B9F840F2C7
:1043F000C830C2F200006946FDF7F8FB002818BF7C
:10440000FCF7AEF802B080BD80B58CB040F25840E9
:1044100044F200020021C2F20000C4F2010244F2A0
:104420009F130B91CDE909110791CDE90511CDE954
:104430000311CDE90111C0E90021C0E902130161B6
:104440008161FDF72FFC002818BFFCF789F84FF4B5
:104450008050089040F25840C2F2000008A9FDF7D1
:1044600041FD002818BFFCF77BF840F25840C2F22B
:104470000000FEF7D5F9002818BFFCF771F860209E
:1044800001900020CDE90200059040F25840C2F2B0
:10449000000001A90022FEF7B9F8002818BFFCF7B8
:1044A0005FF840F25840C2F2000001A90422FEF772
:1044B000ADF8002818BFFCF753F840F25840C2F29C
:1044C0000000FEF719F80CB080BD000080B540F286
:1044D000A04044F20041C2F20000C4F200010023F7
:1044E0004FF00C0C4FF4165280E80E00C0E9033375
:1044F000C0E905C3C361FEF7E3FD002808BF80BD26
:10450000BDE88040FCF72CB880B540F2E84044F6A6
:104510000001C2F20000C4F2000100234FF00C0CB5
:104520004FF4E13280E80E00C0E90333C0E905C36F
:10453000C361FEF7C5FD002808BF80BDBDE880400F
:10454000FCF70EB8B5EE403AF1EE10FA0BD1F5EEED
:10455000403AF1EE10FA06D1B5EE404AF1EE10FA0B
:1045600001D100F083BB10B52DED108B84B040F667
:10457000803E40F68431C2F2000EC2F2000140F6E5
:1045800088349EED005A91ED006AC2F2000494ED69
:10459000007A26EE606A25EE005A40F2440336EEB9
:1045A000455A27EE016AC2F2000335EE465A93EDF2
:1045B000006A91ED007AD4ED005A27EE017A26EEDA
:1045C000006A36EE076A25EEA07A36EE476A93ED6A
:1045D000007ADEED005AD4ED006A65EE815A27EECE
:1045E000207A37EE657A66EE805A35EE877AD3ED1B
:1045F000005ADEED006A25EE811AD1ED005A66EE12
:10460000A00A31EE201A25EE800A45F6DF1CF6EEF0
:10461000004A31EE400AF5EE401AC5F6377C65EEE9
:10462000247A66EE24BA27EE247AF1EE10FA20EE10
:10463000240A0AD1B5EE402AF1EE10FA05D1F5EEC2
:10464000402AF1EE10FA00F0928222EE021A61EE98
:10465000A10A30EE811A62EEA20A70EE810A10EE13
:10466000900AACEB6000BEEE001A60EE810A05EE27
:10467000900A60EEA50AB0EE415A60EEA56AB7EE68
:10468000081A76EE816ACDED037A66EEA57A67EEBA
:10469000A16A67EE825A27EEA22A63EEA31A63EE9E
:1046A000032A72EEA11A64EE042A72EEA11A11EE28
:1046B000900AACEB600061EE851A02EE900A61EEA2
:1046C000A21A61EEA21A71EE811A8DED022A61EE34
:1046D000A21A61EE837A21EE843AD3ED00FA93EDCB
:1046E000004A93ED005ADEED00DA93ED001A61EE18
:1046F000A32A8DED011A9EED00FA91ED008A94ED4A
:10470000001A34EE044A8DED001A93ED00DAD1ED73
:10471000000A91ED001A94ED002A31EE011A61EEC3
:10472000023A93ED001A93ED002A93ED009A9EED64
:1047300000AA21EE02EA29EE0ACA93ED001A91EDD1
:10474000002A93ED009A94ED00AA21EE02BA29EE18
:104750000A2A9EED001A9EED009A9EED00AAD1ED68
:10476000008A21EE099A2AEE281A9EED00AAD4EDBD
:10477000008AD1ED00CAD1ED00EA6AEE288A2CEE5B
:10478000AEAAD1ED00CAD4ED00EAD4ED009AD4ED82
:1047900000AA6CEEAECA69EEAAEAD4ED009A62EE07
:1047A00084AA29EEAA4A67EE8E9A39EEC44A35EEFB
:1047B000055AD1ED009A23EE055A65EE299A39EE95
:1047C000844A67EE899A79EE849A3FEE0F4A91ED1A
:1047D00000FA62EE841A61EE8F1A94ED00FA71EE1F
:1047E000A91A63EE049A29EE8FFA7FEE211A27EEBA
:1047F0008AFA71EECF1A27EEAEFA71EECF1A3FEEBB
:10480000AFFAD4ED009A27EE8FFA9EED006A6FEEB4
:10481000299A62EE8EFA79EEAF9A25EE065A39EEB3
:10482000C55A3DEEAD6AD1ED009A27EE866A66EE76
:10483000299A39EE855A62EE899A35EE695A62EE06
:104840008A9A39EE855A38EE088AD4ED009A63EEDA
:1048500008DA6DEEA99A39EE855A62EEAE9A35EE17
:10486000695AD1ED009ADEED00DA25EE055A61EEC7
:10487000A11A31EE855A6AEEAD1A2FEE29FA71EEC1
:10488000CF1A94ED00FA23EE0EEA7EEE211A26EE00
:104890000F6A36EE216A63EE091A36EE616AD4EDCC
:1048A000001A22EE88EA6EEE211A31EE866A63EE75
:1048B0000A1A36EE616A63EE2E1AF8EE00DA31EE6D
:1048C00086EA2DEE2D6AB1EEC5DA26EE206A38EEC4
:1048D000A85A35EE065A75EE666A3CEE0C5A35EE6D
:1048E000235A75EE655A24EE255A28EE266A35EECF
:1048F000465A34EECA6A36EE6E6A78EECB0A60EE3D
:104900008E0A2DEE066A36EE206AD1ED000A76EEAA
:10491000677A20EE8E6AD4ED000ADEED001A31EEE1
:10492000421A3CEE2C2A26EE276A22EE0E2A2DEEA3
:10493000011A35EE465A21EE8E6A6DEE200A31EEEE
:10494000021A36EE606A71EE622A26EE221A31EE03
:10495000051A34EEC95A3BEE282A35EE4A5A25EE9E
:104960000E5A2DEE022A32EE052A91ED005A72EE11
:10497000434A2DEE052A22EE242A32EE013A9DED1D
:10498000011A9DED002A31EE011A32EE025A21EE93
:10499000252A25EE266A36EE022A39EE096AF7EE56
:1049A000000A30EEC66A7AEE0A0A36EE606ADDED7B
:1049B000020AF9EE001A36EE606ADEED000AD4ED66
:1049C000003A60EEA10A60EE860A30EE822A6EEEB0
:1049D000230AD1ED003A93ED009A60EEA70A30EE7B
:1049E000822A6EEE090A6DEE233A73EEA00A60EE9B
:1049F000A20A30EE822AD4ED000ADEED003A2EEE55
:104A00002D9A69EE233A6DEE200A70EEA30A60EE4D
:104A1000A40A30EE822AD1ED000A25EE255A21EEB5
:104A2000261A35EE411A20EEA15A25EE065A35EE29
:104A3000011A91ED005A93ED006A6DEE2D0A26EEF3
:104A40000E6A20EE855A35EE465A9EED006AD4ED88
:104A5000001A25EE275A35EE011A2EEE215A2DEEB8
:104A6000066A36EE055A93ED006AD1ED001A25EE7E
:104A7000225A35EE011A29EE215A2DEE066A36EE3B
:104A8000055A25EE245A35EE011A28EE255A24EE51
:104A9000264A34EE054A94ED005A9EED006A20EE57
:104AA000855A2EEE066A35EE065A25EE275ADDEDBA
:104AB000037A93ED006AD1ED000A35EE044A2EEE3A
:104AC000205A2DEE066A35EE465A9EED006A25EE16
:104AD000225A34EE054A2DEE065A25EE245A35EEBA
:104AE000044A22EE025A23EE036A36EE055A21EEFC
:104AF000016A36EE055A24EE046A36EE055A15EEC2
:104B0000100ABEEE006AACEB600025EE065A06EE17
:104B1000100A25EE065A25EE065AF7EE080A40F26C
:104B2000040035EE205AC2F2000025EE065A90ED40
:104B3000006A23EE053A22EE052A21EE051A24EE3C
:104B4000054A90ED005A26EE033A77EEC37A25EE39
:104B5000022A90ED003A7BEEC2BA90ED002A23EED5
:104B6000011A37EE417A22EE041A30EE410A9FED27
:104B70003E1A93ED002A27EE813A33EE022A83EDA6
:104B8000002A9EED002A2BEE813A33EE022A8EEDAA
:104B9000002A91ED002A27EE013A33EE022A81ED38
:104BA000002A94ED002A20EE010A30EE020A84ED7C
:104BB000000A93ED000A93ED001A9EED002A9EED87
:104BC000003A20EE010A22EE032A91ED001A91ED3F
:104BD000003A30EE020A21EE031A94ED002A94ED19
:104BE000003A31EE000A22EE031A31EE000A10EE0E
:104BF000100AACEB6000BEEE002A01EE100A20EEB7
:104C0000020A20EE010A20EE010AB7EE082A30EE71
:104C1000020A93ED002A20EE010A22EE001A83ED2B
:104C2000001A9EED001A21EE001A8EED001A91ED89
:104C3000001A21EE001A81ED001A94ED001A21EEFF
:104C4000000A84ED000A186840F67033DEF8002090
:104C500009682468C2F20003C3E90002C3E9021430
:104C600004B0BDEC108B10BD6F12833A10B52DED62
:104C7000108B40F6803040F68431C2F20000C2F260
:104C8000000140F6883490ED003A91ED004AC2F2FE
:104C9000000494ED005A24EE604A23EE003A40F2FC
:104CA000440E34EE433A25EE014AC2F2000E33EED2
:104CB000443A9EED004A91ED005A94ED007A25EEBB
:104CC000015A24EE004A34EE054A27EE205A34EE0B
:104CD000454A9EED005A90ED007AD4ED003A27EE59
:104CE000017A25EE205A35EE475A23EE807A37EEC8
:104CF000055A9EED007AD0ED003A27EE011A91EDAB
:104D0000007A63EEA00A31EE201A27EE000A45F67B
:104D1000DF1CB6EE006A31EE400AF5EE401AC5F629
:104D2000377C23EE063A24EE064A25EE065AF1EECB
:104D300010FA20EE060A0AD1B5EE402AF1EE10FA7A
:104D400005D1F5EE402AF1EE10FA00F00A8122EECC
:104D5000021A21EEA16A36EE011A22EEA26A36EE9E
:104D6000016A16EE103AACEB6303BEEE001A26EEB3
:104D7000016A07EE103A26EE076A66EE070AB7EEFA
:104D8000086A70EE860A60EE870A20EEA17A20EEAD
:104D9000822A60EEA20ADEED002AD0ED001AD1EDE3
:104DA000003AD4ED004ADEED005AD0ED006AD1EDB4
:104DB000007A90ED008A91ED00AAB2EE009A28EEFA
:104DC000098A2AEE099A9EED00AA9EED00BA90ED9E
:104DD00000CA90ED00DA2AEE0BAA2CEE0DBA91ED86
:104DE00000CA91ED00DA94ED00EA94ED00FA2CEEA1
:104DF0000DCA2EEE0FDAB1EE00EA73EEA33A65EEBD
:104E00008E5A27EE23FA65EE8C8A38EE8FFA65EE1D
:104E10008B5A75EE8F5AB8EE00FA61EE8F8A68EE03
:104E2000821A71EEA51A64EE8F4A66EE8E5A67EE0C
:104E3000246A25EE8DFA7FEE266A90ED00FA2AEEBE
:104E40000EAA2AEE0FFA72EEA22A7FEE266A22EE50
:104E500082FA76EECF6A76EEE56A28EE0BFA7FEEFE
:104E6000266A28EE0C8A78EE266A91ED008A65EEB5
:104E7000A05A75EEA65A6AEE086A67EE222A76EE06
:104E8000A22A67EE8E6A66EE8D7A77EEA22A64EE2B
:104E9000824A74EEA22A72EEE62A69EE0B4A74EE9A
:104EA000A22A69EE0C4A74EEA22A66EEA00A70EEFF
:104EB000A20AD4ED002A6BEE0E4A27EE287A64EEA1
:104EC000A22A32EE877AD4ED002A6CEE0E4A64EE06
:104ED000A22A32EE877A23EE822A37EE422A25EE84
:104EE000A57A61EEA12A32EE877A60EEA02A32EE30
:104EF000877A62EE022A32EE877A17EE103AACEB2E
:104F0000630327EE011A07EE103A21EE071A21EE8D
:104F1000071A31EE061A40F2040321EE071AC2F214
:104F2000000321EE816AD3ED001A25EE817A60EE4E
:104F3000810A22EE011A21EE862A93ED006A33EEF1
:104F4000423A26EE072A93ED006A34EE424A26EEF4
:104F5000202A93ED006A35EE425A26EE011A30EE11
:104F6000410A9FED3E1A9EED002A23EE013A33EEF0
:104F7000022A8EED002A90ED002A24EE013A33EE4B
:104F8000022A80ED002A91ED002A25EE013A33EE47
:104F9000022A81ED002A94ED002A20EE010A30EE6B
:104FA000020A84ED000A9EED000A9EED001A90EDC3
:104FB000002A90ED003A20EE010A22EE032A91ED3C
:104FC000001A91ED003A30EE020A21EE031A94ED38
:104FD000002A94ED003A31EE000A22EE031A31EE77
:104FE000000A10EE103AACEB6303BEEE002A01EEAD
:104FF000103A20EE020A20EE010A20EE010AB7EE76
:10500000082A30EE020A9EED002A20EE010A22EE66
:10501000001A8EED001A90ED001A40F6703221EE63
:10502000001A80ED001A91ED001AC2F2000221EE82
:10503000001A81ED001A94ED001A21EE000A84EDA9
:10504000000ADEF80030006809682468C2E9003010
:10505000C2E90214BDEC108B10BD00BF6F12833A81
:10506000FEE70000FEE70000000000000000000076
:10507000EFF30980BFF36F8F154B1A681EF0100F06
:1050800008BF20ED108A20E9F04F10602DE90900DB
:105090004FF0500080F31188BFF34F8FBFF36F8F35
:1050A00002F078FD4FF0000080F31188BDE80900A0
:1050B00019680868B0E8F04F1EF0100F08BFB0EC98
:1050C000108A80F30988BFF36F8F704700BF00BF5D
:1050D000D40A0020000000000000000000000000D2
:1050E000074B19680868B0E8F04F80F30988BFF3F0
:1050F0006F8F4FF0000080F31188704700BF00BF32
:10510000D40A002080B54FF0500080F31188BFF31F
:105110006F8FBFF34F8F03F09FFA30B14EF60450FC
:10512000CEF200004FF080510160002080F3118822
:1051300080BD000070B592B006AC20463021FBF770
:1051400066F9002543F640000595CDE90355CDE904
:1051500001550095C4F202000168022641F0805119
:105160000160006800F080500090009847F2000055
:105170000095C4F20000016841F4804101600068BC
:10518000A82100F4804000900098012006904FF480
:10519000803007904FF480000D9004200E90119005
:1051A00020460C96CDE90F16FCF73EFB08B172B60F
:1051B000FEE70F20CDE901064FF4A05004904FF414
:1051C0008050059001A805210395FCF7FFF910B167
:1051D00072B600BFFEE712B070BD00004EF68850F8
:1051E000CEF20000016841F47001016070470000D8
:1051F00040F2A820C2F20000FDF7D8B840F2F0203B
:10520000C2F20000FDF7D2B840F23830C2F200001E
:10521000FDF7CCB840F28030C2F20000FDF7C6B80E
:1052200040F2C830C2F20000FDF7C0B840F21040B2
:10523000C2F20000FDF7BAB840F26020C2F20000EE
:10524000FDF7B4B810B540F6FF3E0368C4F2000E97
:1052500040F2004C7045C4F2010C0FDCB0F1804FFD
:1052600019D040F20042C4F20002904213D040F63E
:105270000002C4F2000290420DD010E040F600425D
:10528000C4F20002904206D0604504D00022C4F26D
:105290000102904203D14A6823F07003134341F6A0
:1052A000FF72C4F2000290420FDC704521DCB0F1C5
:1052B000804F41D040F20042C4F2000290423BD005
:1052C00040F60002C4F2000234E043F6FF72C4F27A
:1052D000010290421EDC42F20002C4F2000290423F
:1052E0002AD00022C4F20102904225D0604523D08A
:1052F00026E040F60042C4F2000290421CD041F683
:105300000002C4F20002904216D041F60042C4F2FC
:1053100000020FE044F20002C4F2010290420BD0FE
:1053200044F60002C4F20102904205D044F2004269
:10533000C4F20102904203D1CA6823F440731343BC
:1053400023F080024B69D1F800E08C681A430260B8
:10535000C46240F48062C0F828E0624504BF096975
:105360000163012141610169C90708BF10BD0169DD
:1053700021F00101016110BD806B0021C185C18454
:10538000FDF7EEBB81B090F84210222920D183684E
:105390000246B3F5805F08D152F8281F52F8183C36
:1053A000002B61D003685B6809E052F8281F13B92D
:1053B0000369002BF6D003685B6803F07F030B7072
:1053C000116801311160C18D01390A04C18501D014
:1053D00001B070470168CA6822F02002CA60CA683A
:1053E00022F48072CA604A6922F001024A612021D7
:1053F00080F8421000214163026B012A3CD1016315
:10540000016851E8031F026821F0100142E803130C
:10541000DBB1016851E8031F026821F0100142E886
:10542000031393B1016851E8031F026821F01001D2
:1054300042E803134BB1016851E8031F026821F0F1
:10544000100142E80313002BDAD101680A68D20682
:1054500006D5002200920A680092496800910099DE
:10546000818D01B0FDF77ABB026852686FF35F224D
:1054700021F8022B8162A6E701B0FDF7E1BE000032
:10548000B0B50446006804F108030ECB0569194362
:1054900025F440552A4302616269E3691143C268F9
:1054A000194349F20C639A431143C1604169A269EF
:1054B00021F4407141F20043114340F48062C4F290
:1054C00001039A42416102D1FCF764F901E0FCF763
:1054D0004DF9E1694FF69C7563681922C0F6FF75B6
:1054E000B1F5004FA0FB02011CD15A00DB0FFAF707
:1054F000D1FE48F21F51C5F2EB11A0FB01235A095E
:1055000005F1805302FB0300322303EBC000A0FB34
:1055100001014FF4F87000EA111000EB0210C1F322
:10552000421118E09A009B0FFAF7B4FE48F21F519F
:10553000C5F2EB11A0FB01235A0902FB050032233F
:1055400003EB0010A0FB0101F02000EA511000EB7A
:105550000210C1F34311084421688860B0BD000007
:1055600010B540F2A044C2F200042046FDF7FAFA5A
:1055700044F63811C2F2000120460122BDE8104075
:10558000FDF734BE10B540F2E844C2F200042046F4
:10559000FDF7E8FA40F68C31C2F200012046012204
:1055A000BDE81040FDF722BEFEE700002DE9F04106
:1055B0002DED068B40F66C1640F214089FED4E8AD6
:1055C0009FED4E9AC2F20006C2F200083146002258
:1055D0004346B0EE480AF0EE490A044600F04AF9A4
:1055E00040F2BC7540F208079FED45AAC2F20005E3
:1055F000C2F200072046294600223B46B0EE480A88
:10560000F0EE4A0A00F036F906F148012046002281
:105610004346B0EE480AF0EE490A00F02BF905F1D6
:105620004801204600223B46B0EE480AF0EE4A0A06
:1056300000F020F906F19001204600224346B0EE2A
:10564000480AF0EE490A00F015F905F190012046EC
:1056500000223B46B0EE480AF0EE4A0A00F00AF992
:1056600006F1D801204600224346B0EE480AF0EE8B
:10567000490A00F0FFF805F1D801204600223B4618
:10568000B0EE480AF0EE4A0A00F0F4F89FED1E8AE8
:1056900040F68C2140F238039FED1A0AC2F2000155
:1056A000C2F2000320460022F0EE480A00F0E2F8C1
:1056B00040F6DC0140F22003C2F20001C2F2000316
:1056C00020460022B0EE480AF0EE480A00F0D2F878
:1056D00040F6241140F22C03C2F20001C2F2000392
:1056E00020460022B0EE480AF0EE480ABDEC068BD8
:1056F000BDE8F04100F0BEB8003E834600204B46B6
:1057000000409C4500803B450080BB44002957D0A9
:10571000087891ED0F1A91ED102A81ED070A30EE0D
:10572000C00A0028C1ED060A81ED0F0A81ED101AAA
:1057300081ED112A47D0012840F0968091ED015A61
:1057400091ED026A30EE414A31EE011A91ED037A91
:1057500024EE054A20EE065A30EE410A32EE000AE7
:10576000D1E90C2081ED0C0A20EE070A34EE051A6F
:1057700091ED082A91ED043A81ED0B0A31EE000A11
:1057800032EE000AB4EE430AF1EE10FA81ED094A56
:1057900081ED0A5AC1E90D2081ED080AC2BF81EDF1
:1057A000083AB0EE430A7047B1EE431AB4EE410A2C
:1057B000F1EE10FABCBF81ED081AB0EE410A704755
:1057C0009FED2B0A704791ED024A91ED0A6A91ED27
:1057D000012A91ED053A24EE004A91ED035A34EE88
:1057E000064A20EE022AD1E90C2030EE410AB4EE3E
:1057F000434A81ED0C0A20EE050AF1EE10FA81ED24
:10580000092A81ED0A4AC1E90D2081ED0B0A06DC67
:10581000B1EE433AB4EE434AF1EE10FA03DAB0EED9
:10582000434A81ED0A3A32EE042A91ED041A30EE31
:10583000020AB4EE410AF1EE10FA81ED080A06DC24
:10584000B1EE411AB4EE410AF1EE10FA03DAB0EE0D
:10585000410A81ED081AF5EE400AF1EE10FA02BF96
:10586000002088627047704791ED080A704700BFBA
:1058700000000000002918BF002B00D1704780B540
:105880000A701868486058688860986881ED040A52
:10589000C860C1ED050A01F120002821FAF7B7FD23
:1058A00080BD000010B540F2305201EBC10040F65F
:1058B0006C11C2F20002C2F2000102EB0012F0EE23
:1058C000400A92ED1E0A01EBC00440F2B870C2F229
:1058D00000002146FFF71AFF94ED080A10BD0000F2
:1058E0000B46002948BF4B4210B502699342A8BF3E
:1058F00013460129A2EB030E0ADBD0E90013096865
:10590000CBB1082B15D0042B14BF4023382313E050
:10591000D0E90034B1F1FF3FD3F800C01ADD2CB359
:10592000082C1FD0042C14BF402138214CF8012032
:1059300025E03C2300E03423CA50C16841B1082966
:1059400004D0042914BF4021382125E03C2123E064
:10595000342121E084B1082C0CD0042C14BF402148
:1059600038210AE03C214CF8012008E034214CF8B1
:10597000012004E03C2100E034214CF801E0C16842
:1059800041B1082904D0042914BF4021382102E084
:105990003C2100E0342196468068006840F801E030
:1059A00010BD000070B51C46049E80E80E00CB6858
:1059B000E568C660AB4288BF1D46056108461146D2
:1059C000FCF760FF20463146BDE87040FCF75ABF47
:1059D0002DE9F0472DED028B04464079984240F0C6
:1059E000BE81D1E900509146CA68281A1E46034676
:1059F0004EF65F2748BF4342BB4288BF002000EB02
:105A00000208B0EE408AC1E902088A4603F040FC71
:105A100007464FF47A70B0FBF6F00E4603F04FFCE9
:105A20009FEDD30B53EC102B03F05CFC3A4633464E
:105A300003F058FC9FEDD00B53EC102B03F052FCFD
:105A40009FEDCF0B53EC102B03F0C6FA03F092FA44
:105A50002179CAF8045004EB81020131CBB20A2B40
:105A60002171906040F0318194ED020AD4ED032A57
:105A700094ED041A94ED052A94ED063A94ED074A44
:105A800094ED085A94ED096A94ED0A7AD4ED0B0A64
:105A90000A2026E0F0EE601AF0EE470AB0EE467AF1
:105AA000B0EE456AB0EE445AB0EE434AB0EE423A28
:105AB000B0EE412AB0EE631AF0EE412AB0EE421A7F
:105AC000B0EE432AB0EE443AB0EE454AB0EE465A44
:105AD000B0EE476AB0EE607A0138F0EE610A00F08D
